S013000044616941746C61735F76302E7372656309
S1130000ABC10000CFC10000CDC10000CBC10000D6
S1130010C9C10000C7C10000C5C10000C3C10000C0
S1130020C1C10000BFC100000C94E0080C94030996
S1130030B9C10000E9C200000C9487090C94BF09FF
S11300400C94F7090C942F0A0C94670A0C949F0AD9
S11300500C94D70A0C940F0B0C94470B0C947F0B45
S1130060A1C100009FC100009DC100009BC1000010
S113007099C1000097C1000095C1000093C1000020
S113008091C100008FC100008DC100008BC1000030
S113009089C1000087C1000085C1000083C1000040
S11300A081C100007FC100007DC100007BC1000050
S11300B079C1000077C10000D9C200000C94E70D9B
S11300C00C941F0E0C94570E0C948F0E0C94C70EA8
S11300D00C94FF0E67C1000065C1000063C10000FD
S11300E061C100005FC100005DC100005BC1000090
S11300F059C1000057C1000055C1000053C10000A0
S113010051C100004FC100004DC100004BC10000AF
S113011049C1000047C1000045C100005CC50000A2
S113012097C50000D2C500000DC600003BC1000009
S113013039C100000C94B70B0C94EF0B0C94270CF2
S11301400C945F0C0C94970C0C94CF0C0C94070D2E
S11301500C943F0D0C94770D0C94AF0D23C100004B
S113016021C100001FC100001DC100000C94A21B8E
S113017019C1000017C1000015C1000013C100001F
S113018011C100000FC100000DC100000BC100002F
S113019009C1000007C1000005C1000003C100003F
S11301A001C10000FFC00000FDC00000FBC0000052
S11301B0F9C00000F7C00000F5C00000F3C0000063
S11301C0F1C00000EFC00000EDC00000EBC0000073
S11301D0E9C00000E7C00000E5C00000E3C0000083
S11301E0E1C00000DFC00000DDC00000DBC0000093
S11301F0D9C00000D7C00000D5C00000080000002E
S1130200BE922449123EABAAAA2ABECDCCCC4C3E07
S113021000000080BEABAAAAAA3E00000000BF00F6
S11302200000803F0000000000084178D3BB4387F2
S1130230D1133D190E3CC3BD4282AD2B3E68EC8206
S113024076BED98FE1A93E4C80EFFFBE01C4FF7F8B
S11302503F00000000006E616E00696E66000040A1
S11302607A10F35A00A0724E18090010A5D4E800C1
S113027000E87648170000E40B54020000CA9A3BD9
S1130280000000E1F505000080969800000040425F
S11302900F000000A08601000000102700000000ED
S11302A0E803000000006400000000000A000000F1
S11302B000000100000000002C76D888DC674F089D
S11302C023DFC1DFAE59E1B1B796E5E3E453C63AA3
S11302D0E651997696E8E6C28426EB898C9B62ED1A
S11302E0407C6FFCEFBC9C9F40F2BAA56FA5F490D4
S11302F0055A2AF75C936B6CF9676DC11BFCE0E44B
S11303000D47FEF520E6B500D0ED902E03009435A0
S113031077050080841E080000204E0A000000C8F3
S11303200C333333330F986E12831141EF8D211444
S1130330893BE65516CFFEE6DB18D1844B381BF714
S11303407C1D901DA4BBE424203284725E228100B3
S1130350C9F124ECA1E53D2711241FBECFEFCDBF89
S1130360DFE3DEBF00E00CBF18BE19BE1ABE1BBE21
S113037012E2A0E0B0E2EAEEF3E500E00BBF02C057
S113038007900D92A237B107D9F71BBE23E2A2E76B
S1130390B2E201C01D92A034B207E1F70E943B1EF5
S11303A00C94F3292DCECF93DF931F92CDB7DEB7F4
S11303B08091CC229091CD22E091C822F091C92263
S11303C0BE016F5F7F4F19958981082E000C990B30
S11303D00F90DF91CF910895682F8091CC22909156
S11303E0CD22E091CA22F091CB22199599231CF0D9
S11303F081E090E008958FEF9FEF0895811592407A
S113040059F48091722291E0980F90937222811195
S113041003C062E081E04AC608958115924051F418
S113042080917222815080937222811103C062E014
S113043081E052C60895EF92FF921F93CF93DF930A
S11304401F921F92CDB7DEB77C018FB78983F894D2
S11304501981C701D3DFF7018081816080831FBFC9
S11304608091D1228F3F09F4FFCF8FB78A83F8940C
S11304709A81E0EDF2E281818F5F81839FBF0F90CB
S11304800F90DF91CF911F91FF90EF9008951F93EC
S1130490CF93DF931F921F92CDB7DEB72FB7298377
S11304A0F8941981FC0120812E7F2083B6DF1FBFC1
S11304B08091D122811101C0FFCF8FB78A83F89434
S11304C09A81E0EDF2E28181815081839FBF0F9098
S11304D00F90DF91CF911F910895CF93DF93E09117
S11304E07322F0917422848183FF08C0886084831E
S11304F083E0838386EF80937D2283C0982F947159
S113050031F083E083838FEF80937D227AC086FF6E
S113051043C0C3E7D2E2AA81BB818C819D8114963A
S11305202D913C911597821793076CF49C012F5FD2
S11305303F4F2093772230937822A80FB91F11964A
S11305408C9187835EC08091792290917A2218964B
S11305502D913C91199782179307C8F420917B221F
S1130560222321F08681816086834BC016962D91CB
S11305703C911797AC014F5F5F4F409379225093A2
S11305807A22D901A80FB91F8C9187833AC083E0DE
S1130590838310927D2235C0882384F5A3E7B2E2D9
S11305A01296CD91DC91139716968D919C91179785
S11305B02885398582179307D8F46E817F819C0141
S11305C02F5F3F4F2093792230937A224781DB01BA
S11305D0A80FB91F4C93888599852817390718F4F3
S11305E082E083830EC087E0838310927D2209C05A
S11305F083E0838389EF80937D2203C08BEF809314
S11306007D22DF91CF9108951F920F920FB60F9222
S1130610112408B60F9218BE09B60F9219BE0BB674
S11306200F921BBE2F933F934F935F936F937F93D0
S11306308F939F93AF93BF93EF93FF934EDFFF91FD
S1130640EF91BF91AF919F918F917F916F915F9146
S11306504F913F912F910F900BBE0F9009BE0F90B9
S113066008BE0F900FBE0F901F9018951F920F9207
S11306700FB60F92112408B60F9218BE09B60F9246
S113068019BE0BB60F921BBE2F933F934F935F93EC
S11306906F937F938F939F93AF93BF93EF93FF9346
S11306A01CDFFF91EF91BF91AF919F918F917F914B
S11306B06F915F914F913F912F910F900BBE0F90CF
S11306C009BE0F9008BE0F900FBE0F901F90189593
S11306D0FC01DB0114968C91858388EB818381E096
S11306E08483E3E7F2E211861286E0EAF0E0828195
S11306F082608283789480E00895CF93DF931F9281
S1130700CDB7DEB79C01FB01892B09F451C03097AA
S113071009F450C0928580917C22882319F0992392
S1130720F1F34AC08FB78983F8948981A3E7B2E2D1
S113073091E019969C93199790E81A969C931A97AE
S11307408FBF2D933C93119712966D937C931397BF
S113075014961D921C92159716961D921C9217972B
S113076018964C938081880F64817581672B11F4EE
S1130770411103C0F901868303C08160F9018683B6
S1130780E3E7F2E292859038E9F3F901848183701A
S1130790813049F0A3E7B2E2ED91FC911197848195
S11307A083708130C9F7E3E7F2E28285118605C0E0
S11307B088EF03C088EF01C086EF0F90DF91CF91DF
S11307C00895FC01918195FFFDCF608380E090E066
S11307D00895FC0191819923ECF7808108954F924B
S11307E05F926F927F928F929F92AF92BF92EF929D
S11307F0FF920F931F93CF937C014A015B01280161
S11308003901FC01848182FF16C0D901C8016894B2
S113081012F8B695A795979587951694D1F7B901CF
S1130820A801032E36E176956795579547953A9535
S1130830D1F7302D15C0D901C801689413F8B695C5
S1130840A795979587951694D1F7B901A801032E1A
S113085037E176956795579547953A95D1F7302DB9
S113086088159905AA05BB0508F4A6C08416950643
S1130870A606B70608F4A2C0F701848182FD04C06D
S1130880880C991CAA1CBB1CC301B201A5019401CC
S11308900E946F252F3F31054105510508F490C092
S11308A08FEF90E0A0E0B0E0C9EF05C0281739074A
S11308B04A075B0758F0880F991FAA1FBB1FCD3F3B
S11308C00CF48160CF5FC73089F74FC0CC230CF0A4
S11308D04CC0D501C401880F991FAA1FBB1F880FE4
S11308E0991FAA1FBB1F880F991FAA1FBB1F481A55
S11308F0590A6A0A7B0ACE3FF4F48DEF9FEF8C1BF2
S11309009109C7FD939504C0440C551C661C771CC3
S11309108A95D2F7D501C401B695A7959795879581
S1130920BC01CD01640D751D861D971DA5019401A3
S11309300E946F2537C083E08C0FA501940104C089
S1130940220F331F441F551F8A95D2F7DA01C901BC
S1130950B695A79597958795BC01CD01640D751D36
S1130960861D971D0E946F251DC083E08C0FA50175
S1130970940104C0220F331F441F551F8A95D2F7D8
S1130980DA01C901B695A79597958795BC01CD0164
S1130990640D751D861D971D0E946F252150310918
S11309A041095109832F8F70C295C07FC82BF7016D
S11309B0C783268381E018C080E016C080E014C09D
S11309C0D501C401880F991FAA1FBB1F880F991F47
S11309D0AA1FBB1F880F991FAA1FBB1F481A590AB9
S11309E06A0A7B0AC9EF89CFCF911F910F91FF90BB
S11309F0EF90BF90AF909F908F907F906F905F909B
S1130A004F9008950F931F93CF93DF93EC018B01C5
S1130A10009709F4BEC0803C910521F460E180E0B8
S1130A2045D3B7C0C11584E0D80721F464E080E061
S1130A303DD3AFC0C038E1E0DE0721F462E080E0DE
S1130A4035D3A7C0C115F1E0DF0721F461E080E0F0
S1130A502DD39FC0C03883E0D80721F461E081E042
S1130A6025D397C0C115E2E0DE0721F462E081E0FE
S1130A701DD38FC0C032F3E0DF0721F464E082E0CD
S1130A8015D387C0C11588E0D80721F461E083E05D
S1130A900DD37FC0C115E9E0DE0721F461E084E0F5
S1130AA005D377C0C115FAE0DF0721F461E085E0E2
S1130AB0FDD26FC0C03488E0D80721F462E083E03F
S1130AC0F5D267C0C034E9E0DE0721F462E084E0D7
S1130AD0EDD25FC0C039F8E0DF0721F464E083E0C1
S1130AE0E5D257C0C03989E0D80721F464E084E036
S1130AF0DDD24FC0C039EAE0DE0721F464E085E0CE
S1130B00D5D247C0C03CF8E0DF0721F468E083E0B9
S1130B10CDD23FC0C03C89E0D80721F468E084E02E
S1130B20C5D237C0C03AE8E0DE0721F460E183E0D3
S1130B30BDD22FC0C03AF9E0DF0721F460E184E0C0
S1130B40B5D227C0C03A8AE0D80721F460E185E035
S1130B50ADD21FC0C03BE8E0DE0721F460E283E0D1
S1130B60A5D217C0C03BF9E0DF0721F460E284E0BE
S1130B709DD20FC0C03884E0D80721F460E483E03C
S1130B8095D207C0C03AE4E0DE0719F460E485E0DA
S1130B908DD28D818F738D83F80195818481892B0A
S1130BA09681911198E0892B8D83F80140815181C0
S1130BB06281738100E814E82EE130E0CE010FDE9B
S1130BC09C8198609C839C8190619C83DF91CF91F0
S1130BD01F910F9108951F920F920FB60F92112437
S1130BE008B60F9218BE09B60F9219BE0BB60F9233
S1130BF01BBE2F933F934F935F936F937F938F937A
S1130C009F93AF93BF93EF93FF934091240250912E
S1130C102502E091CE22F091CF2261E080E092E0C3
S1130C201995FF91EF91BF91AF919F918F917F9112
S1130C306F915F914F913F912F910F900BBE0F9049
S1130C4009BE0F9008BE0F900FBE0F901F9018950D
S1130C501F920F920FB60F92112408B60F9218BE6E
S1130C6009B60F9219BE0BB60F921BBE2F933F937A
S1130C704F935F936F937F938F939F93AF93BF93A0
S1130C80EF93FF9340912C0250912D02E091CE22DC
S1130C90F091CF2262E080E092E01995FF91EF910C
S1130CA0BF91AF919F918F917F916F915F914F9180
S1130CB03F912F910F900BBE0F9009BE0F9008BE6D
S1130CC00F900FBE0F901F9018951F920F920FB6A2
S1130CD00F92112408B60F9218BE09B60F9219BECE
S1130CE00BB60F921BBE2F933F934F935F936F935B
S1130CF07F938F939F93AF93BF93EF93FF93409111
S1130D00340250913502E091CE22F091CF2264E07A
S1130D1080E092E01995FF91EF91BF91AF919F917F
S1130D208F917F916F915F914F913F912F910F9090
S1130D300BBE0F9009BE0F9008BE0F900FBE0F9010
S1130D401F9018951F920F920FB60F92112408B698
S1130D500F9218BE09B60F9219BE0BB60F921BBEA6
S1130D602F933F934F935F936F937F938F939F93AF
S1130D70AF93BF93EF93FF9340913C0250913D0298
S1130D80E091CE22F091CF2268E080E092E01995C4
S1130D90FF91EF91BF91AF919F918F917F916F914F
S1130DA05F914F913F912F910F900BBE0F9009BE11
S1130DB00F9008BE0F900FBE0F901F901895BF9212
S1130DC0CF92DF92EF92FF920F931F93CF93DF9313
S1130DD01F92CDB7DEB7811522E0920709F03CC01F
S1130DE07B018C0161E270E082E00E94F210C82E67
S1130DF0D12C60E270E082E00E94F210DC2CCC2462
S1130E00C82A8FB78983F894B980C801F7DAF80142
S1130E10808192E09083C486D586F701258136814E
S1130E20F801208F318FF7019281F8019283F70145
S1130E309481F8019483F7019381F8019383F70176
S1130E409181F80191838170F7019081892BF801D8
S1130E508083C801E2DABFBE0F90DF91CF911F916A
S1130E600F91FF90EF90DF90CF90BF900895DF92A5
S1130E70EF92FF920F931F93CF93DF931F92CDB7FF
S1130E80DEB78C017B018FB78983F894D980C801C0
S1130E90B5DAF8018081807CF7018083F801808DC8
S1130EA0918DF70185839683F8018281F70182830E
S1130EB0F8018481F7018483F8018381F701838336
S1130EC0F8018181F7018183C801A7DADFBE0F90A1
S1130ED0DF91CF911F910F91FF90EF90DF900895D4
S1130EE0AF92BF92CF92DF92EF92FF920F931F9334
S1130EF0CF93DF931F92CDB7DEB76C01B62E7A0184
S1130F00862F837029F4962F9695969582E002C0D9
S1130F10962F80E090FF8F5F8601005E1F4F98E060
S1130F20899F000D111D11248FB78983F894A9801E
S1130F30C60164DAF7018081F8018083F7018281B8
S1130F40F8018283F7018181F8018183B0FE04C036
S1130F50F7018381F8018683C6015FDAAFBE0F9083
S1130F60DF91CF911F910F91FF90EF90DF90CF9081
S1130F70BF90AF900895AF92BF92CF92DF92EF925D
S1130F80FF920F931F93CF93DF931F92CDB7DEB7DA
S1130F906C01B62E7A01862F837029F4962F9695CC
S1130FA0969582E002C0962F80E090FF8F5F8601C5
S1130FB0005E1F4F98E0899F000D111D11248FB70B
S1130FC08983F894A980C60119DAF8018081F701B0
S1130FD08083F8018281F7018283F8018181F7011E
S1130FE08183B0FE04C0F8018681F7018383C601C2
S1130FF014DAAFBE0F90DF91CF911F910F91FF9044
S1131000EF90DF90CF90BF90AF900895EF92FF9252
S11310100F931F93CF93DF937C018B01EA012097F9
S113102039F0F80161918F01C701CBDB2197C9F732
S113103080E0DF91CF911F910F91FF90EF90089581
S1131040CF93DF931F921F92CDB7DEB78FEF8093BC
S1131050700080937100809372008093730080937A
S1131060740080937500809376008FB78983F89419
S11310709981E0E5F0E08081846080839FBF818175
S113108082FFFDCF8FB78A83F8949A81E0E5F0E080
S113109086818E7F8683E8E6F0E0808181608083AC
S11310A09FBF0F900F90DF91CF910895CF93DF935F
S11310B01F92CDB7DEB79FB79983F8949981E82F33
S11310C0F0E0E059FF4F60958081682360839FBF03
S11310D00F90DF91CF910895CF93DF931F92CDB7F7
S11310E0DEB79FB79983F8949981E82FF0E0E0592F
S11310F0FF4F8081682B60839FBF0F90DF91CF915A
S113110008950F931F93CF93DF931F92CDB7DEB74C
S1131110E0E0F4E0818180FDFDCF8FB78983F8940E
S113112029814091D6225091D72280910804909130
S11311300904009731F43091030430FF02C04F5F7B
S11311405F4F2FBF60E070E0BA0155274427A0E04D
S1131150B0E08A019B01082B192B2A2B3B2BC901D8
S1131160B8010F90DF91CF911F910F910895CF9304
S1131170DF931F92CDB7DEB764E080E097DFE0E055
S1131180F4E08FEF9FEF828793871086118680911A
S1131190D3228F3F09F4FFCF8FB78983F8949981C5
S11311A0E0EDF2E283818F5F83839FBFE0E0F4E0B0
S11311B081E0828386E080830F90DF91CF91089550
S11311C01F920F920FB60F92112408B60F9218BEF9
S11311D00BB60F921BBE8F939F93EF93FF93E6ED95
S11311E0F2E280819181019680839183FF91EF9156
S11311F09F918F910F900BBE0F9008BE0F900FBE62
S11312000F901F9018951F920F920FB60F921124F2
S113121008B60F9218BE09B60F9219BE0BB60F92FC
S11312201BBECF92DF92EF92FF920F931F932F93E7
S11312303F934F935F936F937F938F939F93AF935A
S1131240BF93EF93FF93E6EDF2E2808191812281D7
S1131250338182179307F0F121E020930204E09197
S1131260DC22F091DD223097A9F16091080470919D
S11312700904A0E0B0E0DC0199278827AB0160E015
S113128070E08C019D01042B152B262B372BC901F3
S1131290B801A6EDB2E212960D911C91139720E0CD
S11312A030E09801112700271496CD90DC90159713
S11312B0E12CF12C0C291D292E293F29061717078B
S11312C02807390730F0C901B8016F5F7F4F8F4F8E
S11312D09F4F1995FF91EF91BF91AF919F918F917E
S11312E07F916F915F914F913F912F911F910F913A
S11312F0FF90EF90DF90CF900F900BBE0F9009BE40
S11313000F9008BE0F900FBE0F901F9018951F925C
S11313100F920FB60F92112408B60F9218BE09B699
S11313200F9219BE0BB60F921BBE2F933F934F9390
S11313305F936F937F938F939F93AF93BF93EF9339
S1131340FF93E091B022F091B122309709F0199502
S1131350FF91EF91BF91AF919F918F917F916F9189
S11313605F914F913F912F910F900BBE0F9009BE4B
S11313700F9008BE0F900FBE0F901F9018951F92EC
S11313800F920FB60F92112408B60F9218BE09B629
S11313900F9219BE0BB60F921BBE2F933F934F9320
S11313A05F936F937F938F939F93AF93BF93EF93C9
S11313B0FF93E091AE22F091AF22309709F0199596
S11313C0FF91EF91BF91AF919F918F917F916F9119
S11313D05F914F913F912F910F900BBE0F9009BEDB
S11313E00F9008BE0F900FBE0F901F9018951F927C
S11313F00F920FB60F92112408B60F9218BE09B6B9
S11314000F9219BE0BB60F921BBE2F933F934F93AF
S11314105F936F937F938F939F93AF93BF93EF9358
S1131420FF93E091AC22F091AD22309709F0199529
S1131430FF91EF91BF91AF919F918F917F916F91A8
S11314405F914F913F912F910F900BBE0F9009BE6A
S11314500F9008BE0F900FBE0F901F9018951F920B
S11314600F920FB60F92112408B60F9218BE09B648
S11314700F9219BE0BB60F921BBE2F933F934F933F
S11314805F936F937F938F939F93AF93BF93EF93E8
S1131490FF93E091AA22F091AB22309709F01995BD
S11314A0FF91EF91BF91AF919F918F917F916F9138
S11314B05F914F913F912F910F900BBE0F9009BEFA
S11314C00F9008BE0F900FBE0F901F9018951F929B
S11314D00F920FB60F92112408B60F9218BE09B6D8
S11314E00F9219BE0BB60F921BBE2F933F934F93CF
S11314F05F936F937F938F939F93AF93BF93EF9378
S1131500FF93E091A822F091A922309709F0199550
S1131510FF91EF91BF91AF919F918F917F916F91C7
S11315205F914F913F912F910F900BBE0F9009BE89
S11315300F9008BE0F900FBE0F901F9018951F922A
S11315400F920FB60F92112408B60F9218BE09B667
S11315500F9219BE0BB60F921BBE2F933F934F935E
S11315605F936F937F938F939F93AF93BF93EF9307
S1131570FF93E091A622F091A722309709F01995E4
S1131580FF91EF91BF91AF919F918F917F916F9157
S11315905F914F913F912F910F900BBE0F9009BE19
S11315A00F9008BE0F900FBE0F901F9018951F92BA
S11315B00F920FB60F92112408B60F9218BE09B6F7
S11315C00F9219BE0BB60F921BBE2F933F934F93EE
S11315D05F936F937F938F939F93AF93BF93EF9397
S11315E0FF93E091A422F091A522309709F0199578
S11315F0FF91EF91BF91AF919F918F917F916F91E7
S11316005F914F913F912F910F900BBE0F9009BEA8
S11316100F9008BE0F900FBE0F901F9018951F9249
S11316200F920FB60F92112408B60F9218BE09B686
S11316300F9219BE0BB60F921BBE2F933F934F937D
S11316405F936F937F938F939F93AF93BF93EF9326
S1131650FF93E091A222F091A322309709F019950B
S1131660FF91EF91BF91AF919F918F917F916F9176
S11316705F914F913F912F910F900BBE0F9009BE38
S11316800F9008BE0F900FBE0F901F9018951F92D9
S11316900F920FB60F92112408B60F9218BE09B616
S11316A00F9219BE0BB60F921BBE2F933F934F930D
S11316B05F936F937F938F939F93AF93BF93EF93B6
S11316C0FF93E091A022F091A122309709F019959F
S11316D0FF91EF91BF91AF919F918F917F916F9106
S11316E05F914F913F912F910F900BBE0F9009BEC8
S11316F00F9008BE0F900FBE0F901F9018951F9269
S11317000F920FB60F92112408B60F9218BE09B6A5
S11317100F9219BE0BB60F921BBE2F933F934F939C
S11317205F936F937F938F939F93AF93BF93EF9345
S1131730FF93E0919E22F0919F22309709F0199532
S1131740FF91EF91BF91AF919F918F917F916F9195
S11317505F914F913F912F910F900BBE0F9009BE57
S11317600F9008BE0F900FBE0F901F9018951F92F8
S11317700F920FB60F92112408B60F9218BE09B635
S11317800F9219BE0BB60F921BBE2F933F934F932C
S11317905F936F937F938F939F93AF93BF93EF93D5
S11317A0FF93E0919C22F0919D22309709F01995C6
S11317B0FF91EF91BF91AF919F918F917F916F9125
S11317C05F914F913F912F910F900BBE0F9009BEE7
S11317D00F9008BE0F900FBE0F901F9018951F9288
S11317E00F920FB60F92112408B60F9218BE09B6C5
S11317F00F9219BE0BB60F921BBE2F933F934F93BC
S11318005F936F937F938F939F93AF93BF93EF9364
S1131810FF93E0919A22F0919B22309709F0199559
S1131820FF91EF91BF91AF919F918F917F916F91B4
S11318305F914F913F912F910F900BBE0F9009BE76
S11318400F9008BE0F900FBE0F901F9018951F9217
S11318500F920FB60F92112408B60F9218BE09B654
S11318600F9219BE0BB60F921BBE2F933F934F934B
S11318705F936F937F938F939F93AF93BF93EF93F4
S1131880FF93E0919822F0919922309709F01995ED
S1131890FF91EF91BF91AF919F918F917F916F9144
S11318A05F914F913F912F910F900BBE0F9009BE06
S11318B00F9008BE0F900FBE0F901F9018951F92A7
S11318C00F920FB60F92112408B60F9218BE09B6E4
S11318D00F9219BE0BB60F921BBE2F933F934F93DB
S11318E05F936F937F938F939F93AF93BF93EF9384
S11318F0FF93E0919622F0919722309709F0199581
S1131900FF91EF91BF91AF919F918F917F916F91D3
S11319105F914F913F912F910F900BBE0F9009BE95
S11319200F9008BE0F900FBE0F901F9018951F9236
S11319300F920FB60F92112408B60F9218BE09B673
S11319400F9219BE0BB60F921BBE2F933F934F936A
S11319505F936F937F938F939F93AF93BF93EF9313
S1131960FF93E0919422F0919522309709F0199514
S1131970FF91EF91BF91AF919F918F917F916F9163
S11319805F914F913F912F910F900BBE0F9009BE25
S11319900F9008BE0F900FBE0F901F9018951F92C6
S11319A00F920FB60F92112408B60F9218BE09B603
S11319B00F9219BE0BB60F921BBE2F933F934F93FA
S11319C05F936F937F938F939F93AF93BF93EF93A3
S11319D0FF93E0919222F0919322309709F01995A8
S11319E0FF91EF91BF91AF919F918F917F916F91F3
S11319F05F914F913F912F910F900BBE0F9009BEB5
S1131A000F9008BE0F900FBE0F901F9018951F9255
S1131A100F920FB60F92112408B60F9218BE09B692
S1131A200F9219BE0BB60F921BBE2F933F934F9389
S1131A305F936F937F938F939F93AF93BF93EF9332
S1131A40FF93E0919022F0919122309709F019953B
S1131A50FF91EF91BF91AF919F918F917F916F9182
S1131A605F914F913F912F910F900BBE0F9009BE44
S1131A700F9008BE0F900FBE0F901F9018951F92E5
S1131A800F920FB60F92112408B60F9218BE09B622
S1131A900F9219BE0BB60F921BBE2F933F934F9319
S1131AA05F936F937F938F939F93AF93BF93EF93C2
S1131AB0FF93E0918E22F0918F22309709F01995CF
S1131AC0FF91EF91BF91AF919F918F917F916F9112
S1131AD05F914F913F912F910F900BBE0F9009BED4
S1131AE00F9008BE0F900FBE0F901F9018951F9275
S1131AF00F920FB60F92112408B60F9218BE09B6B2
S1131B000F9219BE0BB60F921BBE2F933F934F93A8
S1131B105F936F937F938F939F93AF93BF93EF9351
S1131B20FF93E0918C22F0918D22309709F0199562
S1131B30FF91EF91BF91AF919F918F917F916F91A1
S1131B405F914F913F912F910F900BBE0F9009BE63
S1131B500F9008BE0F900FBE0F901F9018951F9204
S1131B600F920FB60F92112408B60F9218BE09B641
S1131B700F9219BE0BB60F921BBE2F933F934F9338
S1131B805F936F937F938F939F93AF93BF93EF93E1
S1131B90FF93E0918A22F0918B22309709F01995F6
S1131BA0FF91EF91BF91AF919F918F917F916F9131
S1131BB05F914F913F912F910F900BBE0F9009BEF3
S1131BC00F9008BE0F900FBE0F901F9018951F9294
S1131BD00F920FB60F92112408B60F9218BE09B6D1
S1131BE00F9219BE0BB60F921BBE2F933F934F93C8
S1131BF05F936F937F938F939F93AF93BF93EF9371
S1131C00FF93E0918822F0918922309709F0199589
S1131C10FF91EF91BF91AF919F918F917F916F91C0
S1131C205F914F913F912F910F900BBE0F9009BE82
S1131C300F9008BE0F900FBE0F901F9018951F9223
S1131C400F920FB60F92112408B60F9218BE09B660
S1131C500F9219BE0BB60F921BBE2F933F934F9357
S1131C605F936F937F938F939F93AF93BF93EF9300
S1131C70FF93E0918622F0918722309709F019951D
S1131C80FF91EF91BF91AF919F918F917F916F9150
S1131C905F914F913F912F910F900BBE0F9009BE12
S1131CA00F9008BE0F900FBE0F901F9018951F92B3
S1131CB00F920FB60F92112408B60F9218BE09B6F0
S1131CC00F9219BE0BB60F921BBE2F933F934F93E7
S1131CD05F936F937F938F939F93AF93BF93EF9390
S1131CE0FF93E0918422F0918522309709F01995B1
S1131CF0FF91EF91BF91AF919F918F917F916F91E0
S1131D005F914F913F912F910F900BBE0F9009BEA1
S1131D100F9008BE0F900FBE0F901F9018951F9242
S1131D200F920FB60F92112408B60F9218BE09B67F
S1131D300F9219BE0BB60F921BBE2F933F934F9376
S1131D405F936F937F938F939F93AF93BF93EF931F
S1131D50FF93E0918222F0918322309709F0199544
S1131D60FF91EF91BF91AF919F918F917F916F916F
S1131D705F914F913F912F910F900BBE0F9009BE31
S1131D800F9008BE0F900FBE0F901F9018951F92D2
S1131D900F920FB60F92112408B60F9218BE09B60F
S1131DA00F9219BE0BB60F921BBE2F933F934F9306
S1131DB05F936F937F938F939F93AF93BF93EF93AF
S1131DC0FF93E0918022F0918122309709F01995D8
S1131DD0FF91EF91BF91AF919F918F917F916F91FF
S1131DE05F914F913F912F910F900BBE0F9009BEC1
S1131DF00F9008BE0F900FBE0F901F9018951F9262
S1131E000F920FB60F92112408B60F9218BE09B69E
S1131E100F9219BE0BB60F921BBE2F933F934F9395
S1131E205F936F937F938F939F93AF93BF93EF933E
S1131E30FF93E0917E22F0917F22309709F019956B
S1131E40FF91EF91BF91AF919F918F917F916F918E
S1131E505F914F913F912F910F900BBE0F9009BE50
S1131E600F9008BE0F900FBE0F901F9018951F93F0
S1131E70CF93DF931F921F92CDB7DEB72FB72A837C
S1131E80F8941A81282F392F211588E0380739F45E
S1131E9061E083E00BD964E083E008D92DC02034ED
S1131EA088E0380739F462E083E000D964E083E035
S1131EB0FDD822C0211589E0380739F461E084E0B7
S1131EC0F5D864E084E0F2D817C0203489E03807FC
S1131ED039F462E084E0EAD864E084E0E7D80CC036
S1131EE021153A4039F461E085E0E0D864E085E00A
S1131EF0DDD802C01FBF10C08091D1228F3F09F4EA
S1131F00FFCF8FB78983F8949981E0EDF2E2818164
S1131F108F5F81839FBF1FBF0F900F90DF91CF9181
S1131F201F910895CF92DF92EF92FF92CF93DF93A8
S1131F30EC016B01E12CF12C60E874E88EE190E097
S1131F40A70196010E946F25CA01B9012FEF3FEF47
S1131F5040E050E00E946F252115310529F481E00D
S1131F608C8321E030E02DC02230310528F482E05A
S1131F708C8322E030E025C02430310528F483E04E
S1131F808C8324E030E01DC02830310528F484E03F
S1131F908C8328E030E015C02034310528F485E036
S1131FA08C8320E430E00DC02F3F310509F028F484
S1131FB086E08C8320E031E004C087E08C8320E05D
S1131FC034E040E050E060E874E88EE190E00E9484
S1131FD06F25CA01B901A70196010E946F252D83BF
S1131FE03E832436310518F41C821D821E82DF9143
S1131FF0CF91FF90EF90DF90CF9008950F931F93B0
S1132000CF93DF93EC018901623091F128F46623C8
S113201049F06130D1F064C06330E9F1643009F40F
S11320204DC05EC080E098E088839983E0E4F6E0E8
S1132030308181E090E02FEF240F02C0880F991FB8
S11320402A95E2F7832B80834BC080E498E0888351
S11320509983E0E4F6E0308181E090E023E0240F0E
S113206002C0880F991F2A95E2F7832B808338C01A
S113207080E099E088839983E0E6F6E0308181E0AE
S113208090E02FEF240F02C0880F991F2A95E2F7E2
S1132090832B808325C080E499E088839983E0E6DC
S11320A0F6E0308181E090E023E0240F02C0880F45
S11320B0991F2A95E2F7832B808312C080E09AE06F
S11320C088839983E0E8F6E0308181E090E02FEFA7
S11320D0240F02C0880F991F2A95E2F7832B80836F
S11320E04A83423061F018F4413031F010C043307B
S11320F049F0443051F00BC080E18B8308C080E28A
S11321008B8305C080E48B8302C080E88B83888145
S11321109981ADDEE881F9818181887F8360818343
S11321201D821E821C82E881F9818081807F8083E8
S1132130B801CE01F7DEDF91CF911F910F91089581
S1132140CF93DF93EC012D813E81A62FB0E00E9456
S1132150AD2524E630E040E050E00E946F258A81FE
S1132160E881F981E6FD17C0823061F018F481300E
S113217031F01BC0833049F0843051F016C020AFD9
S113218031AF13C022AF33AF10C024AF35AF0DC091
S113219026AF37AF0AC0813019F0823021F005C074
S11321A020AF31AF02C022AF33AF8D819E81E88171
S11321B0F98186A397A38B81E881F981E6FD04C0A8
S11321C09181892B818304C091818073892B8183C0
S11321D0E881F9818081807F9C81892B8083DF91D4
S11321E0CF9108954091CA01E62FF72F8093CA0139
S11321F084914093CA010895EF92FF920F931F9325
S1132200CF93DF93CDB7DEB72B97CDBFDEBF7C0175
S1132210062F142FBE016F5F7F4F0E943707AE0158
S1132220485F5F4F602FC7010E94BB079A818B8173
S11322308F7880618B83892F817E8A831C8282E0E0
S11322408D83103138F018861051110F110F110FB2
S1132250198706C081E08887110F110F110F1987A4
S1132260BE016F5F7F4FC7010E94DF06AE01485F6A
S11322705F4F602FC7010E9470072B96CDBFDEBF52
S1132280DF91CF911F910F91FF90EF90089546E059
S113229061E080E092E0B0DF86E190E20C941C29DA
S11322A0089545E062E080E092E0A6DF8EE290E2ED
S11322B00C941C290895EF92FF920F931F93CF93D0
S11322C0DF931F92CDB7DEB77C01162F0E941B024D
S11322D08FB78983F8949981F7018081212F220F88
S11322E0220F822B80839FBFF701868181231813DD
S11322F0FBCF1683812F837021F41695169582E007
S113230001C080E010FF8F5FF701B09698E0899FCD
S1132310E00DF11D112404811581C7010E944702BB
S1132320B80180E090E00E9435200F90DF91CF91BA
S11323301F910F91FF90EF90089562E080E092E08A
S1132340BADF20E030E040E859E30E9456219B01C7
S1132350AC010C94031F61E080E092E0ACDF25EE59
S113236030ED42E25FE30E9456219B01AC0160E044
S113237070E080E895E40E94671F20E030E040E8C8
S11323805FE30E94021F0E9416212CE734ED43E80C
S113239059E30E9456212FE03FEC4BE55BE30E949A
S11323A0031F9B01AC0160E070E080E89FE30E94A2
S11323B0671F0E9409200E94352023E333E948E87F
S11323C053E40C94021F1F93CF93DF9300D01F920A
S11323D0CDB7DEB719821A821B821C828093B22287
S11323E09093B322DC011996ED91FC911A9721E0A8
S11323F0AE014E5F5F4F67E018968C911995182FC8
S1132400A091B222B091B3221B96ED91FC911C973E
S113241021E0AE014F5F5F4F60E018968C911995F3
S1132420180FA091B222B091B32289818C931B968C
S1132430ED91FC911C9721E0AE014F5F5F4F61E08D
S113244018968C911995180FA091B222B091B322CD
S1132450898114968C9314971B96ED91FC911C978B
S113246021E0AE014F5F5F4F62E018968C911995A1
S1132470180FA091B222B091B322898115968C9342
S113248015971B96ED91FC911C9721E0AE014F5FCF
S11324905F4F63E018968C911995180FA091B222A2
S11324A0B091B322898116968C9316971B96ED9161
S11324B0FC911C9721E0AE014F5F5F4F66E01896D8
S11324C08C911995180FA091B222B091B3228981F1
S11324D017968C9317971B96ED91FC911C9722E00D
S11324E0AE014D5F5F4F64E018968C911995180FFB
S11324F0A091B222B091B3228C8190E0982F8827CA
S11325002B81822B11968D939C9312971B96ED91A0
S1132510FC911C9721E0AE014F5F5F4F67E0189676
S11325208C911995E091B222F091B3229981938311
S1132530810F2496CDBFDEBFDF91CF911F91089507
S1132540A091B222B091B322109759F0242FAB017D
S1132550682F1996ED91FC911A9718968C911995FC
S1132560089581E808951F93CF93DF931F92CDB709
S1132570DEB71982A091B222B091B322109741F133
S1132580182F1B96ED91FC911C9721E0AE014F5F33
S11325905F4F67E018968C91199581111BC01983C0
S11325A0A091B222B091B3221996ED91FC911A97A1
S11325B021E0AE014F5F5F4F67E018968C9119954B
S11325C0811109C0E091B222F091B322138303C0B8
S11325D081E801C08FEF0F90DF91CF911F91089593
S11325E00F931F93CF93DF9300D000D0CDB7DEB706
S11325F08C01FE01319696E0DF011D929A95E9F770
S1132600E091B222F091B322309709F43EC0838165
S1132610882359F080E0A7DF882339F0E091B222C3
S1132620F091B3228381811132C0A091B222B09182
S1132630B3221B96ED91FC911C9726E0AE014F5FEF
S11326405F4F6AE118968C9119952A81022E000C2D
S1132650330B322F22279981292BF80120833183D0
S11326602C81022E000C330B322F22279B81292B25
S1132670228333832E81022E000C330B322F222728
S11326809D81292B2483358303C081E801C08FEF0A
S11326902696CDBFDEBFDF91CF911F910F91089594
S11326A00F931F93CF93DF9300D000D0CDB7DEB745
S11326B08C01FE01319696E0DF011D929A95E9F7AF
S11326C0E091B222F091B322309709F43EC08381A5
S11326D0882359F080E047DF882339F0E091B22263
S11326E0F091B3228381811132C0A091B222B091C2
S11326F0B3221B96ED91FC911C9726E0AE014F5F2F
S11327005F4F68E218968C9119952A81022E000C6D
S1132710330B322F22279981292BF801208331830F
S11327202C81022E000C330B322F22279B81292B64
S1132730228333832E81022E000C330B322F222767
S11327409D81292B2483358303C081E801C08FEF49
S11327502696CDBFDEBFDF91CF911F910F910895D3
S1132760FF920F931F93CF93DF9300D000D0CDB788
S1132770DEB78C0119821A821B821C821D821E8282
S1132780CE0101968DDFF82E81113AC069817A81DC
S1132790072E000C880B990B0E94372020E030E0B4
S11327A048EC52E40E94671FF801608371838283BE
S11327B093836B817C81072E000C880B990B0E94FC
S11327C0372020E030E048EC52E40E94671FF80113
S11327D064837583868397836D817E81072E000CC5
S11327E0880B990B0E94372020E030E048EC52E43B
S11327F00E94671FF801608771878287938702C0F0
S1132800FF24FA948F2D2696CDBFDEBFDF91CF91A2
S11328101F910F91FF9008950F931F93CF93DF9310
S11328201F92CDB7DEB71982E091B222F091B322A4
S1132830309721F18C018381882359F080E093DE65
S1132840882339F0E091B222F091B322838181117F
S113285017C0A091B222B091B3221B96ED91FC91C6
S11328601C9721E0AE014F5F5F4F65E318968C9192
S1132870199599819370F801908303C081E801C090
S11328808FEF0F90DF91CF911F910F9108950F93C8
S11328901F93CF93DF931F92CDB7DEB71982E091D8
S11328A0B222F091B322309749F18C0183818823BD
S11328B059F080E058DE882339F0E091B222F0919B
S11328C0B322838181111CC0A091B222B091B322A2
S11328D01B96ED91FC911C9721E0AE014F5F5F4F79
S11328E065E318968C91199529812C7030E0359503
S11328F0279535952795F801208303C081E801C009
S11329008FEF0F90DF91CF911F910F9108950F9347
S11329101F93CF93DF931F92CDB7DEB71982E09157
S1132920B222F091B322309769F18C01838188231C
S113293059F080E018DE882339F0E091B222F0915A
S1132940B3228381811120C0A091B222B091B3221D
S11329501B96ED91FC911C9721E0AE014F5F5F4FF8
S113296065E318968C9119952981207330E035958B
S11329702795359527953595279535952795F8010C
S1132980208303C081E801C08FEF0F90DF91CF91C6
S11329901F910F9108950F931F93CF93DF931F926D
S11329A0CDB7DEB71982E091B222F091B32230970D
S11329B039F18C018381882359F080E0D4DD8823A8
S11329C039F0E091B222F091B322838181111AC0CF
S11329D0A091B222B091B3221B96ED91FC911C9769
S11329E021E0AE014F5F5F4F65E318968C91199516
S11329F099819295969596959370F801908303C06A
S1132A0081E801C08FEF0F90DF91CF911F910F915B
S1132A1008950F931F93CF93DF931F92CDB7DEB723
S1132A201982E091B222F091B322309731F18C01F6
S1132A308381882359F080E096DD882339F0E09182
S1132A40B222F091B3228381811119C0A091B222E4
S1132A50B091B3221B96ED91FC911C9721E0AE013D
S1132A604F5F5F4F6BE318968C911995998192FB98
S1132A70992790F9F801908303C081E801C08FEF92
S1132A800F90DF91CF911F910F9108950F931F9392
S1132A90CF93DF931F92CDB7DEB71982E091B222B4
S1132AA0F091B322309721F18C018381882359F06E
S1132AB080E059DD882339F0E091B222F091B3220D
S1132AC08381811117C0A091B222B091B3221B96C9
S1132AD0ED91FC911C9721E0AE014F5F5F4F6DE3D8
S1132AE018968C91199599819F70F801908303C071
S1132AF081E801C08FEF0F90DF91CF911F910F916B
S1132B0008950F931F93CF93DF931F921F92CDB716
S1132B10DEB719821A822091B2223091B322232B7C
S1132B2009F49CC0082FCE010296B0DF811198C031
S1132B308A81811135C0A091B222B091B3221B9633
S1132B40ED91FC911C9721E0AE014F5F5F4F6DE367
S1132B5018968C911995811185C08981982F907F41
S1132B60802F8F70892B8983A091B222B091B322D8
S1132B701996ED91FC911A9721E0AE014F5F5F4FDA
S1132B806DE318968C911995182FE091B222F0916B
S1132B90B3220584F685E02D88E592E0199565C099
S1132BA0A091B222B091B3221B96ED91FC911C9797
S1132BB021E0AE014F5F5F4F6DE318968C9119953C
S1132BC0182F811114C08981807F898341E0BE015F
S1132BD06F5F7F4F8DE3B4DC182FE091B222F09148
S1132BE0B3220584F685E02D84E190E01995002355
S1132BF0E1F1A091B222B091B3221B96ED91FC9128
S1132C001C9721E0AE014F5F5F4F6DE318968C91E6
S1132C101995811129C08981982F907F802F8F70F9
S1132C20892B8983A091B222B091B3221996ED9198
S1132C30FC911A9721E0AE014F5F5F4F6DE3189648
S1132C408C911995182FE091B222F091B32205844A
S1132C50F685E02D88E592E0199507C011E805C0D6
S1132C601FEF03C0182F01C0182F812F0F900F9052
S1132C70DF91CF911F910F9108950F931F93CF93DD
S1132C80DF931F921F92CDB7DEB719821A8220916B
S1132C90B2223091B322232B09F444C0082FCE0171
S1132CA00296F4DE811135C08A81882321F080E008
S1132CB028DF811130C0A091B222B091B3221B96BB
S1132CC0ED91FC911C9721E0AE014F5F5F4F6BE3E8
S1132CD018968C911995182F81111EC08981982FEF
S1132CE09B7F802F880F880F8470892B8983A09104
S1132CF0B222B091B3221996ED91FC911A9721E07A
S1132D00AE014F5F5F4F6BE318968C911995182FA6
S1132D1003C01FEF01C01FEF8A81882329F0F1DE71
S1132D20810F03C081E801C0812F0F900F90DF91C4
S1132D30CF911F910F910895EF92FF921F93CF931C
S1132D40DF93CDB7DEB72797CDBFDEBF7C011982F5
S1132D501A821B821C821D821E821F82CE0107964C
S1132D6058DE182F8F81882319F080E086DF180F32
S1132D7011113FC0CE01019633DC81113CC0698141
S1132D807A81072E000C880B990B0E94372020E0D3
S1132D9030E040E85DE30E945621F70160837183CF
S1132DA0828393836D817E81072E000C880B990B9F
S1132DB00E94372020E030E040E85DE30E94562185
S1132DC0F70160877187828793876B817C81072EE7
S1132DD0000C880B990B0E94372020E030E040E87B
S1132DE05DE30E945621F70164837583868397838C
S1132DF003C01FEF01C01FEF812F2796CDBFDEBF99
S1132E00DF91CF911F91FF90EF9008950F931F933F
S1132E10CF93DF931F921F92CDB7DEB719821A8228
S1132E202091B2223091B322232B09F442C0082FFF
S1132E30CE0102962BDE811133C08A81882321F0D2
S1132E4080E05FDE81112EC0A091B222B091B32246
S1132E501B96ED91FC911C9721E0AE014F5F5F4FF3
S1132E606EE318968C911995182F81111CC08981D5
S1132E70982F9C7F802F8370892B8983A091B22205
S1132E80B091B3221996ED91FC911A9721E0AE010D
S1132E904F5F5F4F6EE318968C911995182F03C0FE
S1132EA01FEF01C01FEF8A81882329F02ADE810FDA
S1132EB003C081E801C0812F0F900F90DF91CF9163
S1132EC01F910F91089504C06150710981099109FE
S1132ED06115710581059105B9F70895AF92BF9207
S1132EE0CF92DF92EF92FF920F931F93CF93DF93D2
S1132EF00097C9F16894AA24A7F80F2EF4E8BF2E0E
S1132F00F02D0F2EFEE1CF2EF02DD12CE12CF12C43
S1132F1000E010E0282F392F40E050E060E070E03E
S1132F2080E090E00E94BC250F2EF6E0AF2EF02D3D
S1132F30B12CC12C0E940F2629513C4F4F4F5F4F9B
S1132F406F4F7F4F8F4F9F4F0E94722020E030E0E1
S1132F504AE754E4BCD70E94D41F622F732F842FF6
S1132F60952FB1DF05C061E070E080E090E0ABDF59
S1132F70DF91CF911F910F91FF90EF90DF90CF9051
S1132F80BF90AF900895CF92DF92FF920F931F935B
S1132F90CF93DF93CDB7DEB7CB54D109CDBFDEBF1E
S1132FA0F82E062F6A01122F223040F083E490E2BB
S1132FB09F938F930E9409290F900F901982F60115
S1132FC080818A83015023960FAF239781E090E09C
S1132FD027968EAF9FAF27972296FFAE2297CE01FA
S1132FE0019629968EAF9FAF29971F5F212F30E05E
S1132FF02B962EAF3FAF2B972C961FAE2C9740E00D
S1133000BE016F5B7F4F80E894E00E947D03C55B47
S1133010DF4FCDBFDEBFDF91CF911F910F91FF90A6
S1133020DF90CF900895AF92BF92DF92EF92FF921C
S11330300F931F93CF93DF93CDB7DEB7CB54D10952
S1133040CDBFDEBF5A01AE014F5F5F4F7A0190E4FE
S1133050FA0111929A95E9F723966FAF239741E00D
S113306050E027964EAF5FAF279722968FAF2297F7
S11330702996EEAEFFAE2997022F10E02B960EAFE5
S11330801FAF2B972C961FAE2C97BE016F5B7F4F03
S113309080E894E00E947D03D82EA801B701C50101
S11330A00E946F288D2DC55BDF4FCDBFDEBFDF9142
S11330B0CF911F910F91FF90EF90DF90BF90AF9051
S11330C008950F931F93CF93DF93CDB7DEB72A975D
S11330D0CDBFDEBF60E483E00E94560860E483E075
S11330E00E9456088E010F5F1F4F89E0F80111926C
S11330F08A95E9F780E89AE1A6E0B0E089839A83AB
S1133100AB83BC8383E290E0A0E0B0E08D839E8338
S1133110AF83B88760E483E00E945608B80180E872
S113312094E00E946803E0E8F4E081818860818390
S1133130E3E0F3E283EC97E18187928783E198E10E
S1133140838794878EE697E18587968788E28087D0
S1133150CF0139D9882381F0282F082E000C330B96
S11331603F938F9389EC90E29F938F930E94092958
S11331700F900F900F900F9080E048DE8CE0C1DC40
S1133180182F882381F0812F012E000C990B9F9317
S11331901F938DEE90E29F938F930E9409290F90C5
S11331A00F900F900F901A86CE010A966FDC8A85D5
S11331B08C3099F0212F012E000C330B3F931F9379
S11331C01F929CE09F931F928F938BE091E29F93B9
S11331D08F930E940929CDBFDEBF84E591E20E944E
S11331E01C292A96CDBFDEBFDF91CF911F910F918D
S11331F0089582E193E2B4DA8EE193E29DDD8BE2FD
S113320093E245DB8DE293E282DB8AE293E204DB24
S11332108CE293E2C0CB0895609122237091232322
S11332208091242390912523089560912623709101
S113323027238091282390912923089560911E23A8
S113324070911F238091202390912123089524EFCE
S113325031E041E064E08EE293E20E94FE0F85E6F5
S113326091E20C941C290895CF93DF93C82FD92F92
S1133270682F8EE293E20E94A010DF93CF9389E738
S113328091E29F938F930E9409290F900F900F90C2
S11332900F90DF91CF910895E0E4F6E081818160A1
S11332A0818385818160858388E991E20C941C295E
S11332B00895E0E4F6E081818160818385818E7FD9
S11332C0858382EA91E20C941C290895E4EBF2E2EE
S11332D080E092ECA1E0B0E086839783A087B18779
S11332E080E496E08083918380EA98E082839383EC
S11332F088E0858384E08483CF0111D08DEA91E254
S11333000C941C290895CF93DF93EB010E94E903E9
S11333108883DF91CF9108950C94E1030895EF928F
S1133320FF920F931F93CF93DF93CDB7DEB7279709
S1133330CDBFDEBF7C01FC0186819781A085B1856C
S113334080930D2090930E20A0930F20B093102013
S11333500190F081E02D9081D70115968C911597FD
S1133360892B8083ED91FC911197948115968C9112
S11333701597892B8483ED91FC9111979081149674
S11333808C91149780958923808312960D911C91BA
S113339013970115110509F421C1003C110529F405
S11333A060E180E00E945608CDC00115B4E01B071F
S11333B029F464E080E00E945608C4C00038E1E0CB
S11333C01E0729F462E080E00E945608BBC0011584
S11333D0F1E01F0729F461E080E00E945608B2C0C2
S11333E0003883E0180729F461E081E00E94560860
S11333F0A9C00115A2E01A0729F462E081E00E9445
S11334005608A0C00032B3E01B0729F464E082E050
S11334100E94560897C00115E8E01E0729F461E0F0
S113342083E00E9456088EC00115F9E01F0729F4B5
S113343061E084E00E94560885C001158AE01807FF
S113344029F461E085E00E9456087CC00034A8E0BD
S11334501A0729F462E083E00E94560873C000341E
S1133460B9E01B0729F462E084E00E9456086AC0B0
S11334700039E8E01E0729F464E083E00E9456085E
S113348061C00039F9E01F0729F464E084E00E9478
S1133490560858C000398AE0180729F464E085E02A
S11334A00E9456084FC0003CA8E01A0729F468E0BF
S11334B083E00E94560846C0003CB9E01B0729F48B
S11334C068E084E00E9456083DC0003AE8E01E0728
S11334D029F460E183E00E94560834C0003AF9E020
S11334E01F0729F460E184E00E9456082BC0003ACB
S11334F08AE0180729F460E185E00E94560822C09A
S1133500003BA8E01A0729F460E283E00E94560811
S113351019C0003BB9E01B0729F460E284E00E9473
S1133520560810C00038E4E01E0729F460E483E084
S11335300E94560807C0003A144021F460E485E074
S11335400E945608D70112960D911C911397EDE035
S1133550F0E284818D8385818E8386818F8380814F
S11335609181A281B38189839A83AB83BC837801DF
S1133570003AB8E01B0729F460E183E00E94560892
S113358013C0003BE8E01E0729F460E283E00E94D8
S1133590560814C0F0EAEF16F9E0FF0629F460E1DA
S11335A084E00E94560813C080EBE81689E0F80610
S11335B029F460E284E00E94560809C0A0EAEA16F1
S11335C0AAE0FA0621F460E185E00E945608BE01F3
S11335D06F5F7F4FC8010E94020513C0EDE0F0E267
S11335E084818D8385818E8386818F83808191817F
S11335F0A281B38189839A83AB83BC83E12CF12CB0
S1133600C9CF2796CDBFDEBFDF91CF911F910F9118
S1133610FF90EF900895CF93DF93CDB7DEB7279750
S1133620CDBFDEBF60E185E00E945608E0E8F6E029
S113363080818860808380EA9AE08093CC22909392
S1133640CD228CE899E18093CA229093CB2283E81F
S113365099E18093C8229093C922E6E0F0E2848144
S11336608D8385818E8386818F8380819181A281E0
S1133670B38189839A83AB83BC8360E185E00E9434
S11336805608BE016F5F7F4F80EA9AE00E940205F0
S113369063ED71E08CEE91E00E94832886ED91E267
S11336A00E941C298BEF91E20E941C292796CDBF12
S11336B0DEBFDF91CF910895CF93DF93EEEBF2E27B
S11336C080E092ECA1E0B0E086839783A087B18785
S11336D080E696E080839183C0EAD9E0C283D383F5
S11336E088E0858384E08483CF0119DE84E18B83C1
S11336F08CE092E20E941C29DF91CF910895CF9330
S1133700DF93C82FD92FA82FB92FFD0101900020D6
S1133710E9F73197AF014A1B5B0B682F792F80EAD9
S113372099E00E940608DF93CF938EE192E29F9383
S11337308F930E9409290F900F900F900F90DF91A3
S1133740CF9108951F920F920FB60F92112408B6CD
S11337500F9218BE8F938091A009809335238F9187
S11337600F9008BE0F900FBE0F901F901895CF9327
S1133770DF93FC0120E030E0C62FD0E0DE01022E12
S113378002C0B595A7950A94E2F7A0FD508B2F5F70
S11337903F4F31962830310589F740FF0AC041FF79
S11337A003C0FC01658302C0FC016683FC016183E4
S11337B002C0FC016283DF91CF91089543E050E0A1
S11337C061E080E096E0D3DF43E050E062E080E037
S11337D096E0CDDF43E050E064E080E096E0C7DFB0
S11337E043E050E068E080E096E0C1DF43E050E071
S11337F060E180E096E0BBDF43E050E060E280E01F
S113380096E0B5DF43E050E060E480E096E0AFDFAF
S113381043E050E060E880E096E0A9DF40E058E152
S113382061E080E296E0A3DF40E058E162E080E2FC
S113383096E09DDF40E058E164E080E296E097DFA7
S113384040E058E168E080E296E091CF089504C03A
S1133850615071098109910961157105810591050D
S1133860B9F708952F923F924F925F926F927F9291
S11338708F929F92AF92BF92CF92DF92EF92FF927C
S11338800F931F93CF93DF93CDB7DEB7C055D340CB
S1133890CDBFDEBF84E190E289839A838091E522E3
S11338A08F938091E4228F938091E3228F93809170
S11338B0E2228F930F2EF3E2EF2EF2E2FF2EF02D91
S11338C0FF92EF924E0181E0881A8EEF980A9F9240
S11338D08F920E944C298091F2228F938091F12241
S11338E08F938091F0228F938091EF228F93FF9298
S11338F0EF92CE018D5E9D4FC15CDC4F888399832E
S1133900CF53D3409F938F930E944C298091F622EA
S11339108F938091F5228F938091F4228F938091DD
S1133920F3228F9306E212E21F930F93CE01895D77
S11339309D4FCF5BDC4F88839983C154D3409F93C1
S11339408F930E944C298091ED228F938091EC22D9
S11339508F938091EB228F938091EA228F93FF9231
S1133960EF92CE01855C9D4FCD5BDC4F88839983BC
S1133970C354D3409F938F930E944C29CDBFDEBF85
S11339808091E1228F938091E0228F938091DF22B6
S11339908F938091DE228F931F930F931E0191EBDF
S11339A0291A9DEF390A3F922F920E944C29809147
S11339B0E9228F938091E8228F938091E7228F935D
S11339C08091E6228F931F930F932E018DE9481A5D
S11339D08DEF580A5F924F920E944C29CE0189586C
S11339E09D4FCB5BDC4F88839983C554D340689447
S11339F0CC24C5F8D12CC958DD4FC882D982C75709
S1133A00D2404496C95BDC4F88839983C754D34022
S1133A10C557DD4FC882D982CB58D2404496C75B84
S1133A20DC4F88839983C954D340C156DD4FC88283
S1133A30D982CF59D2404496C55BDC4F88839983A1
S1133A40CB54D340CD54DD4FC882D982C35BD2401E
S1133A504496C35BDC4F88839983CD54D340C953C8
S1133A60DD4FC882D982C75CD2408091FA228F93FD
S1133A708091F9228F938091F8228F938091F7227D
S1133A808F931F930F933E0195E2691A9DEF790A74
S1133A907F926F920E944C298091FE228F93809195
S1133AA0FD228F938091FC228F938091FB228F9330
S1133AB01F930F935E0181E1A81A8DEFB80ABF929C
S1133AC0AF920E944C29CE018D5F9C4FC15BDC4FAD
S1133AD088839983CF54D340CD5FDC4FC882D98289
S1133AE0C350D340CDBFDEBF8091EE221F928F938F
S1133AF0FF92EF927E0199EEE91A9CEFF90AFF9288
S1133B00EF920E944C29809102238F93809101238C
S1133B108F93809100238F938091FF228F931F9323
S1133B200F938E01055D1C4F1F930F930E944C2928
S1133B301F930F93FF92EF92C05BDC4F8881C055B7
S1133B40D3408F93C15BDC4F9881CF54D3409F9374
S1133B50BF92AF927F926F92C25BDC4F8881CE544A
S1133B60D3408F93C35BDC4F9881CD54D3409F9354
S1133B70C45BDC4F8881CC54D3408F93C55BDC4F4E
S1133B809881CB54D3409F93C65BDC4F8881CA5441
S1133B90D3408F93C75BDC4F9881C954D3409F9324
S1133BA0C85BDC4F8881C854D3408F93C95BDC4F1A
S1133BB09881C754D3409F93CA5BDC4F8881C65415
S1133BC0D3408F93CB5BDC4F9881C554D3409F93F4
S1133BD05F924F923F922F92CC5BDC4F8881C4540A
S1133BE0D3408F93CD5BDC4F9881C354D3409F93D4
S1133BF0CE5BDC4F8881C254D3408F93CF5BDC4FC4
S1133C009881C154D3409F93C05CDC4F8881C054D9
S1133C10D3408F93C15CDC4F9881CF53D3409F93A3
S1133C209F928F9289E292E29F938F938EE292E227
S1133C309F938F930A5213401F930F930E944C2912
S1133C40CDBFDEBFC8015BDDC05BDC4FCDBFDEBFD7
S1133C50DF91CF911F910F91FF90EF90DF90CF9064
S1133C60BF90AF909F908F907F906F905F904F9098
S1133C703F902F900895A2DD0E9420080E94B7086B
S1133C801092EF221092F0221092F1221092F2225E
S1133C900E9481086093E2227093E3228093E422DD
S1133CA09093E522AA27BB27BF93AF939F938F934B
S1133CB08FE592E29F938F930E940929ACDC06DB87
S1133CC082E692E20E941C298FEF90E00E946B260C
S1133CD024E130E2FC012083E0EAF0E087E0828323
S1133CE08281806882837894ECD966E176E185E00C
S1133CF090E0ADDDE1DCABDA0E9447110E94511186
S1133D0080E090E0B1DAC8DAD4DA0F900F900F9027
S1133D100F900F900F90C0E00F2EF8E2CF2EF3E239
S1133D20DF2EE12CF12CF02D64DA0E9481086093DF
S1133D30E2227093E3228093E4229093E52280911F
S1133D40EF229091F022A091F122B091F2220196FB
S1133D50A11DB11D8093EF229093F022A093F12234
S1133D60B093F2226091EA227091EB228091EC22CE
S1133D709091ED22A7019601D4D6CA01B90177D159
S1133D806093F3227093F4228093F5229093F622A9
S1133D900E94AB116093DE227093DF228093E022B5
S1133DA09093E1220E949D116093E6227093E72292
S1133DB08093E8229093E9228C2F90E055DACC5935
S1133DC034DA6093F7227093F8228093F922909367
S1133DD0FA2222DA6093FB227093FC228093FD2264
S1133DE09093FE222BDA6093FF227093002380933A
S1133DF001239093022336DD66E176E185E090E0CD
S1133E0026DD92CF5058BB27AA270ED0D0C1C1D1EE
S1133E1030F0C6D120F031F49F3F11F41EF4A6C156
S1133E200EF4E095E7FB9CC1E92FD2D180F3BA17D9
S1133E30620773078407950718F071F49EF5EAC1C9
S1133E400EF4E0950B2EBA2FA02D0B01B9019001B1
S1133E500C01CA01A0011124FF27591B99F0593FF5
S1133E6050F4503E68F11A16F040A22F232F342F3D
S1133E704427585FF3CF469537952795A795F0408B
S1133E805395C9F77EF41F16BA0B620B730B840BA0
S1133E90BAF09150A1F0FF0FBB1F661F771F881F58
S1133EA0C2F70EC0BA0F621F731F841F48F48795B0
S1133EB077956795B795F7959E3F08F0B3CF93959F
S1133EC0880F08F09927EE0F9795879508950CD0E1
S1133ED06EC166D140F05DD130F021F45F3F19F03E
S1133EE03FC1511198C142C173D198F39923C9F3C9
S1133EF05523B1F3951B550BBB27AA2762177307EC
S1133F00840738F09F5F5F4F220F331F441FAA1F9F
S1133F10A9F333D00E2E3AF0E0E830D0915050405F
S1133F20E695001CCAF729D0FE2F27D0660F771F0D
S1133F30881FBB1F261737074807AB07B0E809F0EF
S1133F40BB0B802DBF01FF2793585F4F2AF09E3F84
S1133F50510568F005C15FC15F3FECF3983EDCF3A7
S1133F60869577956795B795F7959F5FC9F7880FFD
S1133F70911D9695879597F90895E1E0660F771F4F
S1133F80881FBB1F621773078407BA0720F0621BE0
S1133F90730B840BBA0BEE1F88F7E0950895BEE30C
S1133FA004D008F490E80895BFE322273327A90139
S1133FB017D158F19F5740F1B91738F1BFE3B91B36
S1133FC09927B8503AF4660F771F881F991FB39545
S1133FD0D2F316C0B8504AF0232F342F452F562F52
S1133FE0672F782F8827B850BAF7B85F49F08695BD
S1133FF0779567955795479537952795BA95B9F766
S11340000EF4B7D088940895889460E070E0CB01F2
S11340100895E6D088F09F5790F0B92F9927B751AB
S1134020A0F0D1F0660F771F881F991F1AF0BA9578
S1134030C9F712C0B13081F0EDD0B1E00895EAC003
S1134040672F782F8827B85F39F0B93FCCF386956E
S113405077956795B395D9F73EF4909580957095CB
S113406061957F4F8F4F9F4F0895E89409C097FB48
S11340703EF490958095709561957F4F8F4F9F4F3B
S11340809923A9F0F92F96E9BB279395F69587957F
S113409077956795B795F111F8CFFAF4BB0F11F442
S11340A060FF1BC06F5F7F4F8F4F9F4F16C08823E9
S11340B011F096E911C0772321F09EE8872F762F1F
S11340C005C0662371F096E8862F70E060E02AF060
S11340D09A95660F771F881FDAF7880F969587954C
S11340E097F90895E894F92F96EBFF2381F01216BF
S11340F013061406440B9395F69587957795679563
S113410057954040FF23B9F71BC09927089588238A
S113411051F49850D2F7872B762F652F542F432FC5
S1134120322F20E0B1F3121613061406440B882331
S11341303AF09A95440F551F661F771F881FCAF7D8
S113414055234AF4440F551F11F460FF04C06F5FF8
S11341507F4F8F4F9F4F880F9695879597F90895B6
S113416097F99F6780E870E060E008959FEF80EC26
S113417008959095809570956095509540953095EB
S113418021953F4F4F4F5F4F6F4F7F4F8F4F9F4F43
S1134190089500240A9416161706180609060895A9
S11341A000240A9412161306140605060895092E0F
S11341B00394000C11F4882352F0BB0F40F4BF2B7E
S11341C011F460FF04C06F5F7F4F8F4F9F4F0895BE
S11341D057FD9058440F551F59F05F3F71F04795B4
S11341E0880F97FB991F61F09F3F79F08795089599
S11341F0121613061406551FF2CF4695F1DF08C0B8
S1134200161617061806991FF1CF869571056105D4
S113421008940895E894BB2766277727CB0197F97C
S113422008950EF0A6C0A2CF68949ACFD9DFC8F340
S11342309923D1F3C6F3DF93CF931F930F93FF9288
S1134240C92FDD2788232AF02197660F771F881F3F
S1134250DAF720E030E040E85FEB9FE3883920F0B4
S1134260803E30F021968F77CEDDECEFF1E003C095
S1134270CADDE9E2F2E08BD08B01BE01EC01FB2E3A
S11342806F5771097595771F880B990BF0DE28E13C
S113429032E741E35FE316D0AF2D9801AE01FF9002
S11342A00F911F91CF91DF91BFDD81CF0BD07FCFD5
S11342B070DF28F075DF18F0952309F051CF56CF41
S11342C01124A9CF85DFA0F3959FD1F3950F50E07A
S11342D0551F629FF001729FBB27F00DB11D639FB4
S11342E0AA27F00DB11DAA1F649F6627B00DA11D5A
S11342F0661F829F2227B00DA11D621F739FB00D00
S1134300A11D621F839FA00D611D221F749F33276F
S1134310A00D611D231F849F600D211D822F762F08
S11343206A2F11249F5750408AF0E1F088234AF005
S1134330EE0FFF1FBB1F661F771F881F9150504051
S1134340A9F79E3F510570F00BCF65CF5F3FECF3AB
S1134350983EDCF3869577956795B795F795E7953D
S11343609F5FC1F7FE2B880F911D9695879597F94E
S113437008959F3F31F0915020F487957795679584
S1134380B795880F911D9695879597F90895DF93B2
S1134390CF931F930F93FF92EF92DF927B018C01D7
S11343A0689405C0DA2EEF018DDFFE01E894A59133
S11343B02591359145915591AEF3EF0135DDFE011F
S11343C09701A801DA9479F7DF90EF90FF900F91AD
S11343D01F91CF91DF9108952F923F924F925F9258
S11343E06F927F928F929F92AF92BF92CF92DF9201
S11343F0EF92FF920F931F93CF93DF93CDB7DEB766
S11344006097CDBFDEBF7C011B016A01FC011682EF
S11344101782838181FF2AC39E012F5F3F4F390199
S1134420F7019381F10193FD859193FF81911F0120
S1134430882309F417C3853239F493FD859193FFDA
S113444081911F01853231F4B70190E0A6D656015F
S11344506501E6CF10E0512C912CFFE1F915D8F05D
S11344608B3279F038F4803279F08332A1F4F92D6B
S1134470F0612EC08D3261F0803369F4292D216002
S11344802DC0392D3260932E892D8460982E2AC038
S1134490E92DE86015C097FC2DC020ED280F2A30C7
S11344A088F496FE06C03AE0139F200D1124122FC3
S11344B019C08AE0589E200D1124522EE92DE06285
S11344C09E2E10C08E3231F496FCCCC2F92DF064CD
S11344D09F2E08C08C3621F4292D2068922E02C00C
S11344E0883641F4F10193FD859193FF81911F0179
S11344F08111B3CF9BEB980F933020F4992D9061E9
S1134500805E07C09BE9980F933008F059C1992D3C
S11345109F7E96FF16E09F73992E853619F490645A
S1134520992E08C0863621F4392F3068932E02C0A4
S11345301111115097FE07C01C3350F444244394C6
S1134540410E27E00BC0183038F027E017E005C013
S113455027E09CE3492E02C0212F412C560184E020
S1134560A80EB11CF6016081718182819381042DB2
S1134570A301D2D46C01F981FC87F0FF02C0F3FFE0
S113458006C091FC06C092FE06C000E205C00DE222
S113459003C00BE201C000E08C858C7019F001119E
S11345A043C280C297FE10C04C0CFC85F4FF04C0CB
S11345B08A81813309F44A94141474F528E024158B
S11345C078F588E0482E2CC096FC2AC0812F90E014
S11345D08C159D059CF03CEFC3163FEFD30674F099
S11345E0892D8068982E0AC0E2E0F0E0EC0FFD1FF0
S11345F0E10FF11D8081803319F411501111F4CFB2
S113460097FE0EC044244394410E812F90E0C816B7
S1134610D9062CF41C1904C04424439401C010E0AE
S113462097FE06C01C141D0434F4C601019605C08F
S113463085E090E002C081E090E001110196112331
S113464031F0212F30E02F5F3F4F820F931F252D34
S113465030E08217930714F4581A01C0512C892DA5
S1134660897041F4552031F0B70180E290E095D58E
S11346705A94F8CF002321F0B701802F90E08DD514
S113468093FC08C0552031F0B70180E390E085D554
S11346905A94F8CF97FE4AC04601D7FE02C0812C37
S11346A0912CC60188199909F301E80FF91FED87C8
S11346B0FE879601241931092F87388B012F10E0CA
S11346C01195019511093FEF8316930621F4B70163
S11346D08EE290E062D5C814D9044CF08F85988995
S11346E08815990524F4ED85FE85818101C080E358
S11346F0F1E08F1A91082D853E852F5F3F4F2D875E
S11347003E878016910624F0B70190E046D5DBCFB2
S1134710C814D90441F49A81963320F4953319F4DA
S11347203C8534FF81E3B70190E048C08A8181333E
S113473019F09C859F7E9C87B70190E02ED51111BE
S113474005C094FC16C085E690E015C0B7018EE262
S113475090E023D51E5F82E001E0080FF301E80F2B
S1134760F11D8081B70190E018D5802F0113F4CF9B
S1134770E8CF85E490E0B70110D5D7FC06C0C1149A
S1134780D10441F4EC85E4FF05C0D194C194D1086F
S11347908DE201C08BE2B70190E0FFD480E32AE010
S11347A0C216D1042CF08F5FFAE0CF1AD108F7CFEC
S11347B0B70190E0F2D4B701C601C096EED449C166
S11347C0833631F0833779F0833509F052C01FC046
S11347D0560132E0A30EB11CF6018081898301E009
S11347E010E0630111C05601F2E0AF0EB11CF601F6
S11347F0C080D18096FE03C0612F70E002C06FEFCD
S11348007FEFC60175D48C01F92DFF7713C05601D3
S113481022E0A20EB11CF601C080D18096FE03C036
S1134820612F70E002C06FEF7FEFC6014DD48C01A1
S1134830F92DF0689F2EF3FD18C0852D90E0081720
S1134840190798F4B70180E290E0A7D45A94F5CF01
S1134850F60197FC859197FE81916F01B70190E075
S11348609CD451105A94015011090115110581F776
S1134870F0C0843611F0893659F5560197FE09C007
S113488024E0A20EB11CF6016081718182819381C2
S11348900AC0F2E0AF0EB11CF60160817181072EEF
S11348A0000C880B990BF92DFF769F2E97FF09C0FA
S11348B090958095709561957F4F8F4F9F4FF068CD
S11348C09F2E2AE030E0A3010FD5C82EC6183EC0A3
S11348D0092D853721F40F7E2AE030E01DC0097FC1
S11348E08F3691F018F4883559F0BCC0803719F030
S11348F0883711F0B7C0006104FF09C0046007C025
S113490094FE08C0066006C028E030E005C020E13F
S113491030E002C020E132E0560107FF09C084E024
S1134920A80EB11CF601608171818281938108C057
S1134930F2E0AF0EB11CF6016081718180E090E07D
S1134940A301D2D4C82EC6180F77902E96FE0BC0A2
S1134950092D0E7FC11650F494FE0AC092FC08C0C3
S1134960092D0E7E05C0DC2C092D03C0DC2C01C0F2
S1134970D12E04FF0DC0FE01EC0DF11D80818033AA
S113498011F4097E09C002FF06C0D394D39404C075
S1134990802F867809F0D39403FD10C000FF06C071
S11349A01C2DD51478F4150D1D190CC0D51450F414
S11349B0B70180E290E0F1D3D394F8CFD51410F48A
S11349C05D1801C0512C04FF0FC0B70180E390E0D3
S11349D0E4D302FF16C001FD03C088E790E002C0E3
S11349E088E590E0B7010CC0802F867851F001FF74
S11349F002C08BE201C080E207FD8DE2B70190E0C6
S1134A00CCD3C11630F4B70180E390E0C6D3115083
S1134A10F8CFCA94F301EC0DF11D8081B70190E049
S1134A20BCD3C110F6CF15C0F4E0F51550F584E001
S1134A30581A93FE1EC0011125C02C8523FF27C0E0
S1134A4006E512E0392D3071932EF801849181111D
S1134A5021C0552009F4FCCCB70180E290E09DD33D
S1134A605A94F7CFF7018681978123C08FEF9FEF88
S1134A7020C0B70180E290E090D35A945110F9CF4E
S1134A80DACF512CB701802F90E087D3D6CF0AE537
S1134A9012E0D8CF91108052B70190E07ED30F5F1F
S1134AA01F4FD3CF23E0251510F483E0C1CF512C41
S1134AB0C4CF6096CDBFDEBFDF91CF911F910F9120
S1134AC0FF90EF90DF90CF90BF90AF909F908F902A
S1134AD07F906F905F904F903F902F900895A1E248
S1134AE01A2EAA1BBB1BFD010DC0AA1FBB1FEE1F64
S1134AF0FF1FA217B307E407F50720F0A21BB30BAF
S1134B00E40BF50B661F771F881F991F1A9469F72A
S1134B1060957095809590959B01AC01BD01CF0186
S1134B200895052E97FB16F400940FD057FD05D079
S1134B30D6DF07FC02D046F408C050954095309566
S1134B4021953F4F4F4F5F4F0895909580957095F5
S1134B5061957F4F8F4F9F4F0895A29FB001B39FE0
S1134B60C001A39F700D811D1124911DB29F700D72
S1134B70811D1124911D0895DF93CF931F930F93EB
S1134B809A9DF02D219FF00D8B9DF00D8A9DE02DB7
S1134B90F10D039FF00D029FE00DF11D4E9DE00D00
S1134BA0F11D5E9DF00D4F9DF00D7F936F93BF92AD
S1134BB0AF925F934F93D501D0DF8B01AC01D70146
S1134BC0CCDFEB01E80FF91FD6011FD02F913F91E5
S1134BD0D601C3DFC60FD71FE81FF91FAF91BF91DE
S1134BE014D02F913F91B9DFC60FD71FE81FF91FCB
S1134BF0D601B3DFE60FF71F9801BE01CF011124E0
S1134C000F911F91CF91DF910895A7DF460F571F92
S1134C10C81FD91F08F431960895689401C0E89418
S1134C208F929F92CF93DF9305D0DF91CF919F9086
S1134C308F90089588249924F401E401B0E49F93AB
S1134C40AA279A158B049C04ED05FE05CF05D00711
S1134C50A10798F4AD2FDC2FCF2FFE2FE92D982C30
S1134C60892E982F872F762F652F542F432F322F7D
S1134C702227B85031F7BF9127C01B2EBF91BB2705
S1134C80220F331F441F551F661F771F881F991F4C
S1134C90881C991CEE1FFF1FCC1FDD1FAA1FBB1F02
S1134CA08A149B04EC05FD05CE05DF05A007B107BA
S1134CB048F08A189B08EC09FD09CE09DF09A00B0E
S1134CC0B10B21601A94E1F62EF49401AF01BE01F8
S1134CD0CD01000C08950F931F93CF93DF9382307F
S1134CE0910510F482E090E0E0913823F0913923AB
S1134CF020E030E0A0E0B0E0309719F1408151812C
S1134D000281138148175907C8F08417950769F47D
S1134D10109731F012960C93129713961C9327C098
S1134D20009338231093392322C02115310519F03B
S1134D304217530718F49A01BD01EF01DF01F8018E
S1134D40DBCF21153105F9F0281B390B243031054F
S1134D5080F48A819B816115710521F0FB018283B6
S1134D60938304C08093382390933923FE013296B1
S1134D7044C0FE01E20FF31F819391932250310945
S1134D80288339833AC02091362330913723232B4B
S1134D9041F4209102203091032020933623309354
S1134DA0372320910020309101202115310541F451
S1134DB02DB73EB74091042050910520241B350B9C
S1134DC0E0913623F0913723E217F307A0F42E1B6A
S1134DD03F0B2817390778F0AC014E5F5F4F24175B
S1134DE0350748F04E0F5F1F409336235093372307
S1134DF08193919302C0E0E0F0E0CF01DF91CF9185
S1134E001F910F910895CF93DF93009709F481C008
S1134E10FC01329712821382A0913823B091392376
S1134E20109781F420813181820F931F20913623C2
S1134E30309137232817390751F5E0933623F0933F
S1134E40372367C0ED0120E030E0CE17DF0740F4E0
S1134E504A815B819E0141155105F1F0EA01F5CFCC
S1134E60C283D38340815181840F951FC817D9070A
S1134E7059F488819981840F951F029680839183C8
S1134E808A819B81828393832115310529F4E093E0
S1134E903823F09339233DC0E901EA83FB83499128
S1134EA05991C40FD51FEC17FD0761F480819181DE
S1134EB0840F951F0296E9018883998382819381E7
S1134EC08A839B83E0E0F0E012968D919C91139786
S1134ED0009719F0FD01DC01F7CF8D919C9111979A
S1134EE09D012E5F3F4F820F931F209136233091F7
S1134EF037232817390769F4309729F41092382397
S1134F001092392302C012821382A0933623B093E5
S1134F103723DF91CF910895283008F027E0332715
S1134F20DA01990F311D87FD9160009661057105C5
S1134F3039F432602E5F3D9330E32A95E1F708950A
S1134F409F3F30F080387105610509F03C5F3C5F9C
S1134F503D93913008F08068911DDF93CF931F93A8
S1134F600F93FF92EF92192F987F9695E92F9695BC
S1134F709695E90FFF27E854FD4F99273327EE2430
S1134F80FF24A701E70105900894079428F4360F3D
S1134F90E71EF81E491F511D660F771F881F991FB2
S1134FA00694A1F70590079428F4E70EF81E491F0C
S1134FB0561FC11D770F881F991F661F0694A1F7FE
S1134FC00590079428F4F80E491F561FC71FD11DDA
S1134FD0880F991F661F771F0694A1F70590079401
S1134FE020F4490F561FC71FD81F990F661F771F3C
S1134FF0881F0694A9F784911095177041F0D695EF
S1135000C79557954795F794E7941A95C1F7EEE538
S1135010F2E06894159015913591659195910590FC
S11350207FE27395E118F10A430B560BC90BD009C3
S1135030C0F7E10CF11E431F561FC91FD01D7EF49B
S1135040703311F48A95E6CFE894015030F0080FDC
S11350500AF40027021708F4202F2395022F7A332D
S113506028F079E37D932A95E9F710C07D932A957A
S113507089F6069497956795379517951794E118CF
S1135080F10A430B560BC90BD00998F023957E9176
S113509073957A3308F070E37C932013B8F77E910C
S11350A070617D9330F0839571E37D9370E32A956D
S11350B0E1F71124EF90FF900F911F91CF91DF91B1
S11350C0992787FD90950895FC01059061507040E3
S11350D00110D8F7809590958E0F9F1F0895FB01BE
S11350E0DC0102C001900D9241505040D8F7089560
S11350F0FC016150704001900110D8F780959095A3
S11351008E0F9F1F08950F931F93CF93DF930097E4
S113511031F46115710519F480E090E039C08B0118
S1135120EC016EE070E081E090E03CD1FC01892B61
S113513099F380E883830115110571F002871387C1
S113514081E8838380913A2390913B23892B21F436
S1135150E0933A23F0933B232097C9F0C087D1878B
S113516083818260838380913C2390913D23892BAA
S113517071F4E0933C23F0933D2380913E2390917E
S11351803F23892B21F4E0933E23F0933F23CF0167
S1135190DF91CF911F910F9108950F931F93CF9398
S11351A0DF93FB01238121FD03C08FEF9FEF2CC010
S11351B022FF16C046815781248135814217530747
S11351C044F4A081B1819D012F5F3F4F208331833F
S11351D08C93268137812F5F3F4F2683378314C0FA
S11351E08B01EC01FB010084F185E02D1995892BDD
S11351F0E1F6D80116968D919C9117970196169613
S11352008D939C931797CE01DF91CF911F910F91AE
S11352100895CF93DF93CDB7DEB7AE014A5F5F4FFA
S1135220FA0161917191AF0180913C2390913D23EA
S1135230D3D8DF91CF9108950F931F93CF93DF932A
S1135240E0913C23F0913D23238121FF1BC08C017D
S1135250D0E0C0E0F80181918F0160913C2370910E
S11352603D23DB011896ED91FC911997882331F0C9
S11352701995892B79F3DFEFCFEFECCF8AE01995FD
S1135280892B19F08FEF9FEF02C08D2F9C2FDF9198
S1135290CF911F910F9108950F931F93CF93DF9395
S11352A0CDB7DEB72E97CDBFDEBF0E891F8986E04E
S11352B08C8309831A838FEF9FE78D839E83AE01CE
S11352C0465E5F4F688D798DCE01019685D8EF815A
S11352D0F885E00FF11F10822E96CDBFDEBFDF915F
S11352E0CF911F910F910895FA01AA27283051F107
S11352F0203181F1E8946F936E7F6E5F7F4F8F4F03
S11353009F4FAF4FB1E03ED0B4E03CD0670F781F61
S1135310891F9A1FA11D680F791F8A1F911DA11D46
S11353206A0F711D811D911DA11D20D009F468947F
S11353303F912AE0269F11243019305D3193DEF627
S1135340CF010895462F4770405D4193B3E00FD0DD
S1135350C9F7F6CF462F4F70405D4A3318F0495DC8
S113536031FD4052419302D0A9F7EACFB4E0A695AB
S11353709795879577956795BA95C9F700976105CD
S1135380710508959B01AC010A2E06945795479523
S113539037952795BA95C9F7620F731F841F951F18
S11353A0A01D08950F931F93CF93DF93869F8001D1
S11353B0879F100D969F100D1124C8018CDCEC0101
S11353C0009721F0A80160E070E006D0CE01DF91E3
S11353D0CF911F910F910895DC0101C06D9341504D
S10D53E05040E0F70895F894FFCF61
S11353EA00004023200000C2010003000100C201A2
S11353FA000300010000546865726D6973746F726A
S113540A20496E697469616C697A65642E00566F05
S113541A6C7461676520496E697469616C697A653F
S113542A642E0054686520424E4F3035352041635E
S113543A7475616C6C7920646F6573207772697412
S113544A65206D6F7265207468616E206F6E6520C9
S113545A6279746520617420612074696D652C20F9
S113546A69736E277420746861742073757270721C
S113547A6973696E672E0A492067756573732069B3
S113548A7427732074696D6520746F2066697820A7
S113549A74686520493243207772697465206861AB
S11354AA636B207468656E2E00424E4F3535204971
S11354BA4E4954205354415455533A2025692020C7
S11354CA283020697320676F6F64290A004661696E
S11354DA6C656420746F20736574204E444F4620B3
S11354EA4D6F64653A202569200A00424E4F3035D3
S11354FA35204F7065726174696F6E206D6F6465D3
S113550A2069732025752C2073686F756C6420627A
S113551A652025750A5772697465207374617475F8
S113552A733A2025692020283020697320676F6F19
S113553A64290A00494D5520496E697469616C6988
S113554A7A65642E00536572766F7320496E6974A6
S113555A69616C697A65642E0053657420536572B7
S113556A766F20746F2064757479206379636C652F
S113557A206F662025750A0042757A7A6572204F73
S113558A4E0042757A7A6572204F4646004F70651E
S113559A6E4C6F6720496E697469616C697A6564D7
S11355AA00323632363236007265616420002030A9
S11355BA200020310D000A0A0A0A0A43616E736147
S11355CA742044616941746C617320496E69746919
S11355DA616C697A696E672E2E2E005541525420E9
S11355EA496E697469616C697A65640058626565B3
S11355FA20496E697469616C697A65642E00257341
S113560A200A0025690025660032313138002573E5
S113561A2C25732C25732C25732C25732C25732C7C
S113562A25732C25732C25732C25732C25732C2573
S113563A732C25732C25732C25732C25732C002588
S113564A75007561727420697320776F726B696E65
S105565A6700E3
S9030000FC
