:100000007EC10000A2C10000A0C100009EC100008E
:100010009CC100009AC1000098C1000096C1000078
:1000200094C1000092C100000C941C200C944C2040
:100030008CC100000C945E300C94CC210C942322D3
:100040000C947A220C94D1220C9428230C947F23B4
:100050000C94D6230C942D240C9484240C94DB242F
:1000600074C100000C94D71870C100006EC100006C
:100070006CC100006AC1000068C1000066C10000D8
:1000800064C1000062C1000060C100005EC10000E8
:100090005CC100005AC1000058C1000010C7000038
:1000A0009AC700000C9477080C9403094EC1000015
:1000B0004CC100004AC100000C94F6300C94982802
:1000C0000C94EF280C9446290C949D290C94F42947
:1000D0000C944B2A0C94A22A0C94F92A0C94502BC1
:1000E0000C94A72B32C1000030C100002EC10000CB
:1000F0002CC100002AC1000028C1000026C1000058
:1001000024C1000022C1000020C100001EC1000067
:100110001CC100001AC1000018C10000A0C40000EA
:100120002AC50000B4C500003EC600000EC1000094
:100130000C94AA300C9432250C9489250C94E0255B
:100140000C9437260C948E260C94E5260C943C27B0
:100150000C9493270C94EA270C944128F6C00000D5
:10016000F4C00000F2C00000F0C00000EEC00000CB
:10017000ECC00000EAC00000E8C00000E6C00000DB
:10018000E4C00000E2C00000E0C00000DEC00000EB
:10019000DCC00000DAC00000D8C00000D6C00000FB
:1001A000D4C00000D2C00000D0C000000C94423186
:1001B0000C94FE2B0C94552C0C94AC2C0C94032D0D
:1001C0000C945A2D0C94B12D0C94082E0C945F2E87
:1001D0000C94B62E0C940D2FB8C00000B6C00000D1
:1001E000B4C00000B2C000000C94750EAEC0000098
:1001F0000C94380FAAC00000A8C000006E616E0009
:10020000696E660000407A10F35A00A0724E180919
:100210000010A5D4E80000E87648170000E40B546D
:10022000020000CA9A3B000000E1F505000080963C
:100230009800000040420F000000A086010000006E
:10024000102700000000E803000000006400000028
:1002500000000A00000000000100000000002C76F1
:10026000D888DC674F0823DFC1DFAE59E1B1B7960C
:10027000E5E3E453C63AE651997696E8E6C2842669
:10028000EB898C9B62ED407C6FFCEFBC9C9F40F245
:10029000BAA56FA5F490055A2AF75C936B6CF967C1
:1002A0006DC11BFCE0E40D47FEF520E6B500D0ED86
:1002B000902E0300943577050080841E08000020EE
:1002C0004E0A000000C80C333333330F986E12838C
:1002D0001141EF8D2114893BE65516CFFEE6DB1860
:1002E000D1844B381BF77C1D901DA4BBE424203225
:1002F00084725E228100C9F124ECA1E53D2711241E
:100300001FBECFEFCDBFDFE3DEBF00E00CBF18BEE6
:1003100019BE1ABE1BBE11E2A0E0B0E2E4E5FEE8A1
:1003200000E00BBF02C007900D92AC39B107D9F7BE
:100330001BBE27E2ACE9B1E201C01D92A43BB207AB
:10034000E1F70E94AA3B0C9428475ACECF93DF9343
:10035000CDB7DEB72A97CDBFDEBF8A878A8589836E
:100360001A8289818B838B818C838C81869586957B
:1003700086958D838D81882F90E0880F991F8295B7
:100380009295907F9827807F98279A5F8E839F838E
:100390008A818823A9F0898188878885882F90E0C1
:1003A0009C012770332781E090E002C0880F991FDD
:1003B0002A95E2F7282F8E819F81FC01258314C0A6
:1003C000898189878985882F90E09C012770332750
:1003D00081E090E002C0880F991F2A95E2F7282F4C
:1003E0008E819F81FC01268300002A96CDBFDEBF4F
:1003F000DF91CF910895CF93DF93CDB7DEB72A97E2
:10040000CDBFDEBF8A878A85898381E08A8389811F
:100410008B838B818C838C818695869586958D8345
:100420008D81882F90E0880F991F82959295907FFB
:100430009827807F98279A5F8E839F838A8188235D
:10044000A9F0898188878885882F90E09C01277092
:10045000332781E090E002C0880F991F2A95E2F7C8
:10046000282F8E819F81FC01258314C08981898773
:100470008985882F90E09C012770332781E090E0E8
:1004800002C0880F991F2A95E2F7282F8E819F813D
:10049000FC01268300002A96CDBFDEBFDF91CF91FD
:1004A0000895CF93DF9300D0CDB7DEB789839A83C9
:1004B0006B8389819A812B81FC0123830000239621
:1004C000CDBFDEBFDF91CF910895CF93DF931F9211
:1004D0001F92CDB7DEB789839A8389819A81FC0107
:1004E00083810F900F90DF91CF910895CF93DF9389
:1004F0001F921F92CDB7DEB789839A8389819A8133
:10050000FC018281881F8827881F0F900F90DF9140
:10051000CF910895CF93DF931F921F92CDB7DEB78F
:1005200089839A8389819A81FC018081282F2061A7
:1005300089819A81FC01208300000F900F90DF9148
:10054000CF910895CF93DF9300D01F92CDB7DEB740
:1005500089839A836B837C8389819A81B6DF282F74
:100560008B819C81FC01208300002496CDBFDEBFDF
:10057000DF91CF910895CF93DF931F921F92CDB754
:10058000DEB789839A8389819A81B0DF0F900F90BB
:10059000DF91CF910895CF93DF93CDB7DEB780E0A1
:1005A0009CE6ACEDB2E0BC01CD01DF91CF910895A6
:1005B000CF93DF931F92CDB7DEB71982ECDFDC015A
:1005C000CB012981222F30E004C0B695A7959795DD
:1005D00087952A95D2F7BC01CD010F90DF91CF917D
:1005E0000895CF93DF93CDB7DEB7E2DFDC01CB0117
:1005F000BC01CD01DF91CF910895CF93DF93CDB7AB
:10060000DEB7EFDFDC01CB01BC01CD01DF91CF9183
:100610000895CF93DF93CDB7DEB7EFDFDC01CB01D9
:10062000BC01CD01DF91CF910895CF93DF931F924D
:100630001F92CDB7DEB789839A8389819A81803CE6
:10064000984021F468E083E00E94DF1E89819A814E
:10065000803C994021F468E084E00E94DF1E89819B
:100660009A81803C9A4021F468E085E00E94DF1E78
:1006700089819A81803C9B4021F468E086E00E9459
:10068000DF1E89819A8146DF00000F900F90DF9175
:10069000CF910895CF92DF92EF92FF920F931F9325
:1006A000CF93DF93CDB7DEB72D97CDBFDEBF898364
:1006B0009A836B837C834D830E831F8328873987BE
:1006C000CA86DB86EC86FD86A4DF9B01AC018E81A9
:1006D0009F81A885B985E981FA8189019A01AC01D8
:1006E000BD01CF010E940C218823ACF089819A8141
:1006F000FC018081282F237F8D81882F90E0880F37
:10070000991F880F991F8C70822B282F89819A81BD
:10071000FC01208301C000002D96CDBFDEBFDF911C
:10072000CF911F910F91FF90EF90DF90CF900895A0
:10073000CF93DF93CDB7DEB72997CDBFDEBF8C83D4
:100740009D836E837F83488759871BC08E819F81DD
:100750009C012F5F3F4F2E833F83FC0120818C81C2
:100760009D8189839A832B8389819A816B8199DE0C
:1007700000008C819D81FFDE982F81E089278823EE
:10078000C1F7888599859C012150310928873987CF
:10079000892BE1F680E02996CDBFDEBFDF91CF91B6
:1007A0000895CF93DF93CDB7DEB72997CDBFDEBFD6
:1007B0008C839D836E837F83488759871EC08C817D
:1007C0009D8189839A838FEF8B8389819A816B8145
:1007D00068DE00008C819D81CEDE982F81E0892724
:1007E0008823C1F72E813F818C819D81B901AADECA
:1007F0008E819F8101968E839F83888599859C0138
:100800002150310928873987892BC9F680E029963C
:10081000CDBFDEBFDF91CF910895CF93DF9300D09E
:100820001F92CDB7DEB789839A836B837C838B81DC
:100830009C81FC0180818ADD00002496CDBFDEBF53
:10084000DF91CF910895CF93DF9300D01F92CDB762
:10085000DEB789839A836B837C838B819C81FC01C7
:100860008081C9DD00002496CDBFDEBFDF91CF912E
:100870000895CF93DF931F921F92CDB7DEB7898380
:100880009A8389819A818115924069F480919C2193
:1008900091E0980F90939C218823B1F462E081E06D
:1008A0000E94DF1E11C089819A818034924061F4D8
:1008B00080919D2191E0980F90939D21882321F4B0
:1008C00062E082E00E94DF1E00000F900F90DF9137
:1008D000CF910895CF93DF931F921F92CDB7DEB7CC
:1008E00089839A8389819A818115924071F48091DC
:1008F0009C21815080939C2180919C218823B9F474
:1009000062E081E00E94031F12C089819A818034D5
:10091000924069F480919D21815080939D21809126
:100920009D21882321F462E082E00E94031F0000E1
:100930000F900F90DF91CF910895CF93DF931F9287
:10094000CDB7DEB78FE390E0FC0180818983F89416
:1009500089810F90DF91CF910895CF93DF931F92FC
:10096000CDB7DEB789838FE390E02981FC01208336
:1009700000000F90DF91CF910895CF93DF931F92E6
:10098000CDB7DEB789838981882F90E0BC0182E0F2
:100990000E94A71F0F90DF91CF910895CF93DF930F
:1009A00000D0CDB7DEB78B838B81882F90E081306C
:1009B0009105E9F08230910589F1892B09F045C054
:1009C00081E2DBDF882F90E089839A8389819A8195
:1009D000982F882789839A8380E2CFDF882F90E041
:1009E00029813A81822B932B89839A8330C085E2B7
:1009F000C4DF882F90E089839A8389819A81982F18
:100A0000882789839A8384E2B8DF882F90E0298140
:100A10003A81822B932B89839A8319C08FE2ADDFB1
:100A2000882F90E089839A8389819A81982F8827DB
:100A300089839A838EE2A1DF882F90E029813A8111
:100A4000822B932B89839A8302C019821A8289810F
:100A50009A812396CDBFDEBFDF91CF9108951F927B
:100A60000F9200903F000F921124009038000F92D7
:100A700010923800009039000F92109239000090C7
:100A80003A000F9210923A0000903B000F921092A1
:100A90003B002F933F934F935F936F937F938F937D
:100AA0009F93AF93BF93EF93FF93CF93DF9300D0C8
:100AB0001F92CDB7DEB720910F223091102280E037
:100AC00092E089839A8381E08B831C828B81882FBB
:100AD00090E083709927892B39F48C818E5F8C8309
:100AE0008B81869586958B838B81882F90E0817092
:100AF0009927892B19F48C818F5F8C8389819A8146
:100B0000AC01405E5F4F8C81882F90E0880F991F69
:100B1000880F991F880F991F840F951FFC018481EE
:100B20009581AC0161E080E092E0F9011995000047
:100B30002496CDBFDEBFDF91CF91FF91EF91BF91A2
:100B4000AF919F918F917F916F915F914F913F9165
:100B50002F910F9000923B000F9000923A000F905F
:100B6000009239000F90009238000F9000923F00E1
:100B70000F901F9018951F920F9200903F000F92B8
:100B80001124009038000F92109238000090390024
:100B90000F921092390000903A000F9210923A0092
:100BA00000903B000F9210923B002F933F934F9386
:100BB0005F936F937F938F939F93AF93BF93EF93C5
:100BC000FF93CF93DF9300D01F92CDB7DEB7209174
:100BD0000F223091102280E092E089839A8382E094
:100BE0008B831C828B81882F90E083709927892BBF
:100BF00039F48C818E5F8C838B81869586958B836F
:100C00008B81882F90E081709927892B19F48C8132
:100C10008F5F8C8389819A81AC01405E5F4F8C81AC
:100C2000882F90E0880F991F880F991F880F991FB0
:100C3000840F951FFC0184819581AC0162E080E006
:100C400092E0F901199500002496CDBFDEBFDF9137
:100C5000CF91FF91EF91BF91AF919F918F917F9134
:100C60006F915F914F913F912F910F9000923B00B8
:100C70000F9000923A000F90009239000F9000926E
:100C800038000F9000923F000F901F9018951F9210
:100C90000F9200903F000F921124009038000F92A5
:100CA00010923800009039000F9210923900009095
:100CB0003A000F9210923A0000903B000F9210926F
:100CC0003B002F933F934F935F936F937F938F934B
:100CD0009F93AF93BF93EF93FF93CF93DF9300D096
:100CE0001F92CDB7DEB720910F223091102280E005
:100CF00092E089839A8384E08B831C828B81882F86
:100D000090E083709927892B39F48C818E5F8C83D6
:100D10008B81869586958B838B81882F90E081705F
:100D20009927892B19F48C818F5F8C8389819A8113
:100D3000AC01405E5F4F8C81882F90E0880F991F37
:100D4000880F991F880F991F840F951FFC018481BC
:100D50009581AC0164E080E092E0F9011995000012
:100D60002496CDBFDEBFDF91CF91FF91EF91BF9170
:100D7000AF919F918F917F916F915F914F913F9133
:100D80002F910F9000923B000F9000923A000F902D
:100D9000009239000F90009238000F9000923F00AF
:100DA0000F901F9018951F920F9200903F000F9286
:100DB0001124009038000F921092380000903900F2
:100DC0000F921092390000903A000F9210923A0060
:100DD00000903B000F9210923B002F933F934F9354
:100DE0005F936F937F938F939F93AF93BF93EF9393
:100DF000FF93CF93DF9300D01F92CDB7DEB7209142
:100E00000F223091102280E092E089839A8388E05B
:100E10008B831C828B81882F90E083709927892B8C
:100E200039F48C818E5F8C838B81869586958B833C
:100E30008B81882F90E081709927892B19F48C8100
:100E40008F5F8C8389819A81AC01405E5F4F8C817A
:100E5000882F90E0880F991F880F991F880F991F7E
:100E6000840F951FFC0184819581AC0168E080E0CE
:100E700092E0F901199500002496CDBFDEBFDF9105
:100E8000CF91FF91EF91BF91AF919F918F917F9102
:100E90006F915F914F913F912F910F9000923B0086
:100EA0000F9000923A000F90009239000F9000923C
:100EB00038000F9000923F000F901F9018951F92DE
:100EC0000F9200903F000F921124009038000F9273
:100ED00010923800009039000F9210923900009063
:100EE0003A000F9210923A0000903B000F9210923D
:100EF0003B002F933F934F935F936F937F938F9319
:100F00009F93AF93BF93EF93FF93CF93DF9300D063
:100F10001F92CDB7DEB720910D2230910E2280E4D2
:100F200092E089839A8381E08B831C828B81882F56
:100F300090E083709927892B39F48C818E5F8C83A4
:100F40008B81869586958B838B81882F90E081702D
:100F50009927892B19F48C818F5F8C8389819A81E1
:100F6000AC01405E5F4F8C81882F90E0880F991F05
:100F7000880F991F880F991F840F951FFC0184818A
:100F80009581AC0161E080E492E0F90119950000DF
:100F90002496CDBFDEBFDF91CF91FF91EF91BF913E
:100FA000AF919F918F917F916F915F914F913F9101
:100FB0002F910F9000923B000F9000923A000F90FB
:100FC000009239000F90009238000F9000923F007D
:100FD0000F901F9018951F920F9200903F000F9254
:100FE0001124009038000F921092380000903900C0
:100FF0000F921092390000903A000F9210923A002E
:1010000000903B000F9210923B002F933F934F9321
:101010005F936F937F938F939F93AF93BF93EF9360
:10102000FF93CF93DF9300D01F92CDB7DEB720910F
:101030000D2230910E2280E492E089839A8382E02F
:101040008B831C828B81882F90E083709927892B5A
:1010500039F48C818E5F8C838B81869586958B830A
:101060008B81882F90E081709927892B19F48C81CE
:101070008F5F8C8389819A81AC01405E5F4F8C8148
:10108000882F90E0880F991F880F991F880F991F4C
:10109000840F951FFC0184819581AC0162E080E49E
:1010A00092E0F901199500002496CDBFDEBFDF91D3
:1010B000CF91FF91EF91BF91AF919F918F917F91D0
:1010C0006F915F914F913F912F910F9000923B0054
:1010D0000F9000923A000F90009239000F9000920A
:1010E00038000F9000923F000F901F9018951F92AC
:1010F0000F9200903F000F921124009038000F9241
:1011000010923800009039000F9210923900009030
:101110003A000F9210923A0000903B000F9210920A
:101120003B002F933F934F935F936F937F938F93E6
:101130009F93AF93BF93EF93FF93CF93DF9300D031
:101140001F92CDB7DEB720910D2230910E2280E4A0
:1011500092E089839A8384E08B831C828B81882F21
:1011600090E083709927892B39F48C818E5F8C8372
:101170008B81869586958B838B81882F90E08170FB
:101180009927892B19F48C818F5F8C8389819A81AF
:10119000AC01405E5F4F8C81882F90E0880F991FD3
:1011A000880F991F880F991F840F951FFC01848158
:1011B0009581AC0164E080E492E0F90119950000AA
:1011C0002496CDBFDEBFDF91CF91FF91EF91BF910C
:1011D000AF919F918F917F916F915F914F913F91CF
:1011E0002F910F9000923B000F9000923A000F90C9
:1011F000009239000F90009238000F9000923F004B
:101200000F901F9018951F920F9200903F000F9221
:101210001124009038000F9210923800009039008D
:101220000F921092390000903A000F9210923A00FB
:1012300000903B000F9210923B002F933F934F93EF
:101240005F936F937F938F939F93AF93BF93EF932E
:10125000FF93CF93DF9300D01F92CDB7DEB72091DD
:101260000D2230910E2280E492E089839A8388E0F7
:101270008B831C828B81882F90E083709927892B28
:1012800039F48C818E5F8C838B81869586958B83D8
:101290008B81882F90E081709927892B19F48C819C
:1012A0008F5F8C8389819A81AC01405E5F4F8C8116
:1012B000882F90E0880F991F880F991F880F991F1A
:1012C000840F951FFC0184819581AC0168E080E466
:1012D00092E0F901199500002496CDBFDEBFDF91A1
:1012E000CF91FF91EF91BF91AF919F918F917F919E
:1012F0006F915F914F913F912F910F9000923B0022
:101300000F9000923A000F90009239000F900092D7
:1013100038000F9000923F000F901F901895CF93C8
:10132000DF93CDB7DEB72897CDBFDEBF8D839E8319
:101330006F8378878D819E818115924029F480E0AA
:101340002DDB89839A830AC08D819E8180349240EF
:1013500009F056C081E022DB89839A83EEDA8B8321
:101360008D819E8186DA8D819E81FC0180818170D4
:101370008C838D819E8122E0FC0120838D819E8162
:1013800029813A81FC01248735878F819885FC016A
:10139000258136818D819E81FC01208F318F8F8147
:1013A0009885FC0122818D819E81FC0122838F81A1
:1013B0009885FC0124818D819E81FC0124838F818D
:1013C0009885FC0123818D819E81FC0123838F817F
:1013D0009885FC0121818D819E81FC0121838F8173
:1013E0009885FC0190818C81292F282B8D819E81ED
:1013F000FC0120838D819E816DDA8B81AEDA01C084
:1014000000002896CDBFDEBFDF91CF910895CF9326
:10141000DF93CDB7DEB72597CDBFDEBF8A839B8331
:101420006C837D838ADA89838A819B8122DA8A812F
:101430009B81FC018081282F207C8C819D81FC0177
:1014400020838A819B81FC01208D318D8C819D813F
:10145000FC01258336838A819B81FC0122818C815A
:101460009D81FC0122838A819B81FC0124818C81E6
:101470009D81FC0124838A819B81FC0123818C81D5
:101480009D81FC0123838A819B81FC0121818C81C8
:101490009D81FC0121838A819B811CDA89815DDA2F
:1014A00000002596CDBFDEBFDF91CF910895CF9389
:1014B000DF93CDB7DEB72C97CDBFDEBF8887998786
:1014C0006A874B875C87888599858C839D838A850D
:1014D0008E831F828E81882F90E083709927892BBD
:1014E00039F48F818E5F8F838E81869586958E836A
:1014F0008E81882F90E081709927892B19F48F8134
:101500008F5F8F838C819D819C01205E3F4F8F81F7
:10151000882F90E0880F991F880F991F880F991FB7
:10152000820F931F89839A8308DA8B838885998534
:10153000A0D98B859C85FC01208189819A81FC0141
:1015400020838B859C85FC01228189819A81FC0105
:1015500022838B859C85FC01218189819A81FC01F4
:1015600021838A85882F90E081709927892B41F00B
:101570008B859C85FC01238189819A81FC012683CE
:1015800088859985A7D98B81E8D900002C96CDBF95
:10159000DEBFDF91CF910895CF93DF93CDB7DEB754
:1015A0002C97CDBFDEBF888799876A874B875C877A
:1015B000888599858C839D838A858E831F828E8101
:1015C000882F90E083709927892B39F48F818E5F63
:1015D0008F838E81869586958E838E81882F90E06D
:1015E00081709927892B19F48F818F5F8F838C816C
:1015F0009D819C01205E3F4F8F81882F90E0880F56
:10160000991F880F991F880F991F820F931F898335
:101610009A8393D98B83888599852BD989819A81DF
:10162000FC0120818B859C85FC01208389819A8126
:10163000FC0122818B859C85FC01228389819A8112
:10164000FC0121818B859C85FC0121838A85882F63
:1016500090E081709927892B41F089819A81FC0162
:1016600026818B859C85FC0123838885998532D9C9
:101670008B8173D900002C96CDBFDEBFDF91CF9157
:101680000895CF93DF93CDB7DEB780E09CE6ACED55
:10169000B2E0BC01CD01DF91CF910895CF93DF93EC
:1016A0001F92CDB7DEB71982ECDFDC01CB012981B7
:1016B000222F30E004C0B695A795979587952A9577
:1016C000D2F7BC01CD010F90DF91CF910895CF9358
:1016D000DF93CDB7DEB7E2DFDC01CB01BC01CD018A
:1016E000DF91CF910895CF93DF93CDB7DEB7EFDFD2
:1016F000DC01CB01BC01CD01DF91CF910895CF93E7
:10170000DF93CDB7DEB72D97CDBFDEBF8887998732
:101710004A875B876C877D87E6DFDC01CB018A83A4
:101720009B83AC83BD838A819B81AC81BD812A85EB
:101730003B854C855D85BC01CD010E94EC42DA0100
:10174000C9018E839F838E819F81059710F4198232
:101750002FC08E819F81099718F481E0898328C06A
:101760008E819F81419718F482E0898321C08E8108
:101770009F81819718F483E089831AC08E819F81AD
:101780008134910518F484E0898312C08E819F8191
:101790008138910518F485E089830AC08E819F8184
:1017A0008130914018F486E0898302C087E0898304
:1017B000888599852981FC01248300002D96CDBF61
:1017C000DEBFDF91CF910895CF93DF93CDB7DEB722
:1017D0002597CDBFDEBF89839A836B834C832D838E
:1017E00089819A81FC018181282F297E89819A81B2
:1017F000FC01218389819A81FC0191812C818B815B
:10180000822B292F282B89819A81FC0121838981B0
:101810009A81FC018281282F2F7889819A81FC018D
:10182000228389819A81FC0192818D81292F282B25
:1018300089819A81FC01228300002596CDBFDEBFFD
:10184000DF91CF910895CF93DF93CDB7DEB7259782
:10185000CDBFDEBF89839A836B834C832D838B81BD
:10186000882F90E08230910511F1833091052CF49E
:10187000009771F00197B9F1A9C08430910509F47E
:1018800053C084309105D4F1059709F476C09EC009
:1018900089819A81FC018181282F277F89819A8102
:1018A000FC01218389819A81FC0113828FC0898187
:1018B0009A81FC018181282F277F89819A81FC01EF
:1018C00021838D81882F90E0880F991F880F991FA1
:1018D000880F991F982F8C81892B282F89819A81B5
:1018E000FC01238373C089819A81FC018181282FA7
:1018F000286089819A81FC01218368C089819A814D
:10190000FC018181282F286089819A81FC01218333
:101910008C818150282F2295220F220F207C8981D3
:101920009A81FC01238352C089819A81FC018181C3
:10193000282F277F89819A81FC0121838C81882F20
:1019400090E0019700249695879507949695879542
:101950000794982F802D282F8D81882F90E0880F55
:10196000991F880F991F880F991F822B8560282F38
:1019700089819A81FC01238329C089819A81FC0194
:101980008181282F277F89819A81FC0121838C8185
:10199000882F90E001970024969587950794969557
:1019A00087950794982F802D282F8D81882F90E080
:1019B000880F991F880F991F880F991F822B8660A7
:1019C000282F89819A81FC0123830000000025963D
:1019D000CDBFDEBFDF91CF910895CF93DF931F92EC
:1019E000CDB7DEB789838981882F90E08830910553
:1019F00051F1893091057CF481309105F1F082300C
:101A000091051CF4892BB9F028C082309105B9F0FA
:101A10000497B9F022C080329105C9F08132910556
:101A20001CF4409791F019C08034910591F08F3FDC
:101A3000910589F012C08CE111C080E00FC084E0F4
:101A40000DC088E00BC08CE009C080E107C084E1D4
:101A500005C088E103C080E001C080E00F90DF9105
:101A6000CF910895CF93DF93CDB7DEB72597CDBF44
:101A7000DEBF89839A836B834C832D838B81803176
:101A800078F089819A81FC0110828B818051282F06
:101A9000220F220F220F89819A81FC01218387C0A6
:101AA0008C818A3079F489819A8121E0FC0120833C
:101AB0008B81282F220F220F220F89819A81FC010E
:101AC000218375C08C818430B8F489819A8122E0A9
:101AD000FC0120838B81882F90E0880F991F880F4D
:101AE000991F880F991F982F8C81892B282F898106
:101AF0009A81FC0121835BC08C818830D8F48D8170
:101B00006CDF282F236089819A81FC0120838B81DF
:101B1000882F90E0880F991F880F991F880F991FB1
:101B2000982F8C818450892B282F89819A81FC01E0
:101B300021833DC08D818130E1F489819A8122E049
:101B4000FC0120838B81882F90E0880F991F880FDC
:101B5000991F880F991F982F8C81883011F485E088
:101B600001C087E0892B282F89819A81FC0121837C
:101B70001EC08D8132DF282F236089819A81FC016C
:101B800020838B81882F90E0880F991F880F991FE1
:101B9000880F991F982F8C81893011F484E001C03F
:101BA00087E0892B282F89819A81FC0121830000FD
:101BB0002596CDBFDEBFDF91CF910895CF93DF9300
:101BC000CDB7DEB72E97CDBFDEBF8C879D876E87E2
:101BD0008C859D859E012F5F3F4FB90118DC9E01CA
:101BE000285F3F4F8C859D85A9016E85D5DC20E15E
:101BF00040E060E0CE010196E7DD20E041E060E0FA
:101C0000CE01019620DE40E45DE063E070E0CE01AD
:101C1000019675DDCE01089620E04AE060E022DF03
:101C20008C859D859E012F5F3F4FB90178DB9E011A
:101C3000285F3F4F8C859D85A9016E8538DC0000AB
:101C40002E96CDBFDEBFDF91CF910895CF93DF9366
:101C5000CDB7DEB761E080E092E0B0DF85E590E2ED
:101C60000E9451460000DF91CF910895CF93DF93FA
:101C7000CDB7DEB761E080E492E0A0DF8DE690E2D0
:101C80000E9451460000DF91CF910895CF93DF93DA
:101C90001F921F92CDB7DEB780EB9BE024E1FC01E1
:101CA00023831092792719821A82109284250000CA
:101CB0000F900F90DF91CF910895CF93DF93CDB721
:101CC000DEB740E051E06CED75E28CE795E20E94F2
:101CD000941940E450E06CED76E28CE197E20E94CA
:101CE00094190000DF91CF9108951F920F920090F8
:101CF0003F000F921124009038000F92109238008C
:101D0000009039000F921092390000903A000F9223
:101D100010923A0000903B000F9210923B002F93DC
:101D20003F934F935F936F937F938F939F93AF9363
:101D3000BF93EF93FF93CF93DF931F92CDB7DEB79F
:101D400080EB9BE0FC01808189838981882F90E072
:101D5000292F2F938F9382E890E2892F8F9382E827
:101D600090E28F930E943E460F900F900F900F903D
:101D70008091DB25813041F589818A30B1F48091F1
:101D80007927882F90E0AC016CE775E284E297E256
:101D90000E9410198091DB25809384251092792769
:101DA00085E08093DB2510927B2580917927882F11
:101DB00090E08C5D984D2981FC01208380917927EA
:101DC0008F5F809379270AC08981843239F48091AA
:101DD000DB25882319F481E080937B2580917B2586
:101DE000882321F18091DB25882301F580917B25D3
:101DF0008530B9F489818734A1F481E08093DB25B3
:101E000045E050E066E870E284E297E20E949B457C
:101E100085E08093792780917B258F5F80937B2558
:101E200005C080917B258F5F80937B2500000F90FC
:101E3000DF91CF91FF91EF91BF91AF919F918F91E2
:101E40007F916F915F914F913F912F910F900092F1
:101E50003B000F9000923A000F90009239000F90D3
:101E6000009238000F9000923F000F901F9018953D
:101E70001F920F9200903F000F92112400903800A3
:101E80000F9210923800009039000F921092390092
:101E900000903A000F9210923A0000903B000F928F
:101EA00010923B002F933F934F935F936F937F93D9
:101EB0008F939F93AF93BF93EF93FF93CF93DF9352
:101EC000CDB7DEB741E050E060EB7BE08CE197E21C
:101ED0000E94BF1961E070E08CE197E20E942C1A29
:101EE0000000DF91CF91FF91EF91BF91AF919F9152
:101EF0008F917F916F915F914F913F912F910F90B3
:101F000000923B000F9000923A000F90009239002F
:101F10000F90009238000F9000923F000F901F909A
:101F20001895CF93DF931F92CDB7DEB78983898150
:101F3000882F90E0BC0182E00E94A71F0F90DF91E4
:101F4000CF910895CF93DF931F921F92CDB7DEB745
:101F500089839A8389819A81892B09F485C1898132
:101F60009A81803C910529F460E180E00E94DF1EA7
:101F70007BC189819A818034944029F468E080E0B3
:101F80000E94DF1E71C189819A818115944029F4D4
:101F900064E080E00E94DF1E67C189819A818038F9
:101FA000914029F462E080E00E94DF1E5DC18981DA
:101FB0009A818115914029F461E080E00E94DF1E42
:101FC00053C189819A818038934029F461E081E08E
:101FD0000E94DF1E49C189819A818039934029F48A
:101FE00061E082E00E94DF1E3FC189819A818115F4
:101FF000924029F462E081E00E94DF1E35C18981B0
:102000009A818034924029F462E082E00E94DF1ECF
:102010002BC189819A818115934029F464E081E084
:102020000E94DF1E21C189819A818032934029F468
:1020300064E082E00E94DF1E17C189819A818115C8
:10204000984029F461E083E00E94DF1E0DC1898180
:102050009A818115994029F461E084E00E94DF1E95
:1020600003C189819A8181159A4029F461E085E054
:102070000E94DF1EF9C089819A8181159B4029F455
:1020800061E086E00E94DF1EEFC089819A81803482
:10209000984029F462E083E00E94DF1EE5C0898158
:1020A0009A818034994029F462E084E00E94DF1E26
:1020B000DBC089819A8180349A4029F462E085E00E
:1020C0000E94DF1ED1C089819A8180349B4029F40F
:1020D00062E086E00E94DF1EC7C089819A81803954
:1020E000984029F464E083E00E94DF1EBDC089812E
:1020F0009A818039994029F464E084E00E94DF1ECF
:10210000B3C089819A8180399A4029F464E085E0DE
:102110000E94DF1EA9C089819A8180399B4029F4E1
:1021200064E086E00E94DF1E9FC089819A81803C26
:10213000984029F468E083E00E94DF1E95C0898101
:102140009A81803C994029F468E084E00E94DF1E77
:102150008BC089819A81803C9A4029F468E085E0AF
:102160000E94DF1E81C089819A81803C9B4029F4B6
:1021700068E086E00E94DF1E77C089819A81803AFC
:10218000984029F460E183E00E94DF1E6DC08981E0
:102190009A81803A994029F460E184E00E94DF1E30
:1021A00063C089819A81803A9A4029F460E185E090
:1021B0000E94DF1E59C089819A81803A9B4029F490
:1021C00060E186E00E94DF1E4FC089819A81803BDA
:1021D000984029F460E283E00E94DF1E45C08981B7
:1021E0009A81803B994029F460E284E00E94DF1EDE
:1021F0003BC089819A81803B9A4029F460E285E066
:102200000E94DF1E31C089819A81803B9B4029F466
:1022100060E286E00E94DF1E27C089819A818038B3
:10222000944029F460E483E00E94DF1E1DC0898190
:102230009A818039944029F460E484E00E94DF1E92
:1022400013C089819A81803A944029F460E485E042
:102250000E94DF1E09C089819A81803B944021F44D
:1022600060E486E00E94DF1E00000F900F90DF9177
:10227000CF910895CF93DF9300D0CDB7DEB78B8396
:102280008B81882F90E081309105E9F082309105B3
:1022900089F1892B09F045C081E243DE882F90E067
:1022A00089839A8389819A81982F882789839A8341
:1022B00080E237DE882F90E029813A81822B932BB0
:1022C00089839A8330C085E22CDE882F90E0898351
:1022D0009A8389819A81982F882789839A8384E2B7
:1022E00020DE882F90E029813A81822B932B8983ED
:1022F0009A8319C08FE215DE882F90E089839A8334
:1023000089819A81982F882789839A838EE209DEB2
:10231000882F90E029813A81822B932B89839A839D
:1023200002C019821A8289819A812396CDBFDEBFAD
:10233000DF91CF9108950F931F93CF93DF93CDB784
:10234000DEB780E092E0FEDD80E096E020E036E05F
:10235000F90120812061FC01208380E092E021E0EE
:10236000FC01208380E092E0FC01118280E092E099
:1023700025E0FC01248380E092E020E1FC0122833F
:1023800000E012E080E076DFF8018487958780E046
:1023900092E021E0FC0120A380E092E024E0FC0137
:1023A00021A30000DF91CF911F910F910895CF934A
:1023B000DF931F921F92CDB7DEB780E092E020E05E
:1023C00032E0F90120A12068FC0120A3000080E098
:1023D00092E0FC0183A18823D1F380E092E0FC012C
:1023E00084A195A189839A8389819A810F900F9006
:1023F000DF91CF910895CF93DF93CDB7DEB780E41F
:1024000096E020E436E0F90121812160FC0121837E
:1024100080E496E020E436E0F90125812160FC01AA
:1024200025838FEB90E20E9451460000DF91CF910F
:102430000895CF93DF93CDB7DEB780E496E020E434
:1024400036E0F90121812160FC01218380E496E0DE
:1024500020E436E0F90125812E7FFC01258389ECFB
:1024600090E20E9451460000DF91CF910895CF93F2
:10247000DF93CDB7DEB780E09CE6ACEDB2E0BC0107
:10248000CD01DF91CF910895CF93DF931F92CDB708
:10249000DEB71982ECDFDC01CB012981222F30E08D
:1024A00004C0B695A795979587952A95D2F7BC0154
:1024B000CD010F90DF91CF910895CF93DF93CDB7EA
:1024C000DEB7E2DFDC01CB01BC01CD01DF91CF91B2
:1024D0000895CF93DF93CDB7DEB7EFDFDC01CB01FB
:1024E000BC01CD01DF91CF910895CF93DF93CDB79C
:1024F000DEB7EFDFDC01CB01BC01CD01DF91CF9175
:10250000089504C06150710981099109611571052F
:1025100081059105B9F70895CF93DF931F921F921C
:10252000CDB7DEB789839A8389819A81FC01808146
:10253000282F206489819A81FC01208300000F905C
:102540000F90DF91CF910895CF93DF93CDB7DEB792
:1025500043E050E062E080E496E00E947C3740E097
:1025600058E160E180E496E00E947C3743E050E06F
:1025700060E280E496E00E947C3740E050E060E456
:1025800080E496E00E947C3743E050E060E880E41D
:1025900096E00E947C370000DF91CF910895CF92A2
:1025A000DF92EF92FF920F931F93CF93DF931F92CF
:1025B000CDB7DEB7C9DF81E1898380EC98E00E9466
:1025C0001503C12CD12C760100E412E42FE030E099
:1025D00040E0CE010196BC0180EC98E00E944A03E5
:1025E00080EC98E099DF41E050E064ED70E280EC2F
:1025F00098E00E94980316D089ED90E2892F8F937E
:1026000089ED90E28F930E943E460F900F9000005C
:102610000F90DF91CF911F910F91FF90EF90DF907E
:10262000CF9008952F923F924F925F926F927F9238
:102630008F929F92AF92BF92CF92DF92EF92FF92D2
:102640000F931F93CF93DF93CDB7DEB7A497CDBF82
:10265000DEBF81E18A83CE010296BC0180EC98E066
:102660000E940D0486E0EBE1F0E2DE01139601909A
:102670000D928A95E1F71982E5C18981882F90E052
:102680009E012D5F3F4F820F931FFC018081882F99
:1026900090E041E050E0BC0180EC98E00E9498039B
:1026A00024DFDC01CB018C019D0140E050E0BA0148
:1026B0000D8B1E8B2F8B388F498F5A8F6B8F7C8F92
:1026C0002D883E884F88588C698C7A8C8B8C9C8C9A
:1026D000222D332D442D552D662D772D882D992DA6
:1026E00003E00E946C43A22EB32EC42ED52EE62EFC
:1026F000F72E082F192F2A2C3B2C4C2C5D2C6E2CDE
:102700007F2C802E912E222D332D442D552D662D7C
:10271000772D882D992D02E00E946C43A22EB32EB6
:10272000C42ED52EE62EF72E082F192F2A2D3B2D3D
:102730004C2D5D2D6E2D7F2D802F912FA22CB32C33
:10274000C42CD52CE62CF72C082D192D0E948E4375
:10275000A22EB32EC42ED52EE62EF72E082F192F1B
:102760002A2D3B2D4C2D5D2D6E2D7F2D802F912FF1
:10277000AD88BE88CF88D88CE98CFA8C0B8D1C8DE7
:102780000E948543222E332E442E552E662E772E00
:10279000882E992E0F2EF6E0AF2EF02DB12CC12CE5
:1027A000D12CE12CF12C00E010E0222D332D442D12
:1027B000552D662D772D882D992D0E941043222EA0
:1027C000332E442E552E662E772E882E992EA22C2F
:1027D000B32CC42CD52CE62CF72C082D192D2A2D22
:1027E0003B2D4C2D5D2D6E2D7F2D802F912F29514E
:1027F0003C4F4F4F5F4F6F4F7F4F8F4F9F4FA22EDA
:10280000B32EC42ED52EE62EF72E082F192F2A2DE3
:102810003B2D4C2D5D2D6E2D7F2D802F912F0E94F5
:10282000B63EDC01CB0120E030E04AE754E4BC01D5
:10283000CD010E94143EDC01CB01BC01CD010E9400
:10284000813EA22EB32EC42ED52EE62EF72E082FB3
:10285000192FD601C501BC01CD0153DE8981882F16
:1028600090E09E01275F3F4F820F931FFC01808104
:10287000882F90E042E050E0BC0180EC98E00E949C
:10288000D10333DEDC01CB018C019D0140E050E03F
:10289000BA010D8F1E8F2F8F38A349A35AA36BA3A4
:1028A0007CA32D8C3E8C4F8C58A069A07AA08BA065
:1028B0009CA0222D332D442D552D662D772D882D4E
:1028C000992D03E00E946C43A22EB32EC42ED52E68
:1028D000E62EF72E082F192F2A2C3B2C4C2C5D2C82
:1028E0006E2C7F2C802E912E222D332D442D552D94
:1028F000662D772D882D992D02E00E946C43A22E23
:10290000B32EC42ED52EE62EF72E082F192F2A2DE2
:102910003B2D4C2D5D2D6E2D7F2D802F912FA22CC8
:10292000B32CC42CD52CE62CF72C082D192D0E9485
:102930008E43A22EB32EC42ED52EE62EF72E082FB0
:10294000192F2A2D3B2D4C2D5D2D6E2D7F2D802F87
:10295000912FAD8CBE8CCF8CD8A0E9A0FAA00BA192
:102960001CA10E948543222E332E442E552E662E06
:10297000772E882E992E0F2EF6E0AF2EF02DB12C4B
:10298000C12CD12CE12CF12C00E010E0222D332DB4
:10299000442D552D662D772D882D992D0E9410439D
:1029A000222E332E442E552E662E772E882E992ECB
:1029B000A22CB32CC42CD52CE62CF72C082D192DC9
:1029C0002A2D3B2D4C2D5D2D6E2D7F2D802F912F8F
:1029D00029513C4F4F4F5F4F6F4F7F4F8F4F9F4F4E
:1029E000A22EB32EC42ED52EE62EF72E082F192F89
:1029F0002A2D3B2D4C2D5D2D6E2D7F2D802F912F5F
:102A00000E94B63EDC01CB0120E030E04AE754E40E
:102A1000BC01CD010E94143EDC01CB01BC01CD0103
:102A20000E94813EA22EB32EC42ED52EE62EF72E66
:102A3000082F192FD601C501BC01CD0162DD8981A6
:102A40008F5F89838981873008F417CE8985882F25
:102A500090E0382F22278A85882F90E0822B932BB5
:102A600080937B2790937C278B85882F90E0382F4D
:102A700022278C85882F90E0822B932B80937F27B1
:102A8000909380278D85882F90E0382F22278E8580
:102A9000882F90E0822B932B80937D2790937E2725
:102AA0008F85882F90E0382F22278889882F90E003
:102AB000822B932B80938F27909390278989882F3F
:102AC00090E0382F22278A89882F90E0822B932B41
:102AD00080938D2790938E278B89882F90E0382FB5
:102AE00022278C89882F90E0822B932B809381273B
:102AF00090938227CE010296BC0180EC98E00E9460
:102B000023040000A496CDBFDEBFDF91CF911F91BB
:102B10000F91FF90EF90DF90CF90BF90AF909F907C
:102B20008F907F906F905F904F903F902F9008957F
:102B3000CF93DF9300D0CDB7DEB789839A836B83C1
:102B400089819A81FC018681282F2C7F89819A8135
:102B5000FC01268389819A81FC0196818B81292F32
:102B6000282B89819A81FC01268300002396CDBF02
:102B7000DEBFDF91CF910895CF93DF9300D0CDB723
:102B8000DEB789839A836B8389819A81FC01808176
:102B9000982F907F8B81892B282F89819A81FC0126
:102BA000208300002396CDBFDEBFDF91CF91089533
:102BB000CF93DF9300D01F92CDB7DEB789839A837E
:102BC0006B837C8389819A812B813C81FC0126A3C4
:102BD00037A300002496CDBFDEBFDF91CF910895CB
:102BE000CF93DF931F921F92CDB7DEB789839A836D
:102BF00089819A81FC018485282F216089819A81AD
:102C0000FC01248700000F900F90DF91CF91089571
:102C1000CF93DF9300D0CDB7DEB789839A836B83E0
:102C200089819A81FC018181982F987F8B81892BE2
:102C3000282F89819A81FC01218300002396CDBF32
:102C4000DEBFDF91CF910895CF93DF93CDB7DEB78D
:102C500089D080E098E0C4DF0000DF91CF91089533
:102C6000CF93DF93CDB7DEB780E092ECA1E0B0E088
:102C70008093A4219093A521A093A621B093A7218E
:102C800080E496E080939E2190939F2180EA98E0D3
:102C90008093A0219093A12188E08093A32184E0D8
:102CA0008093A2218EE991E20E94963A80EA98E010
:102CB00024E1FC01238386EE90E20E94514680E0ED
:102CC00098E00E94642F64E276E180E098E00E9440
:102CD000EE2F60E080E098E09BDF61E17AE780E042
:102CE00098E066DF61E080E098E022DF789461E0C0
:102CF00080E098E041DF0000DF91CF910895CF930D
:102D0000DF931F921F92CDB7DEB789839A8380919C
:102D10003A22882309F589819A810E94A4459C0161
:102D200089819A81A901BC0180EA98E00E94381F3C
:102D300080913B2290913C22A0913D22B0913E2275
:102D40000196A11DB11D80933B2290933C22A0933C
:102D50003D22B0933E2201C000000F900F90DF9102
:102D6000CF910895CF93DF93CDB7DEB7C054D34052
:102D7000CDBFDEBF81E290E28B839C8388EF90E23F
:102D800089839A838091212290912222A0912322EB
:102D9000B09124222B2F2F932A2F2F93292F2F935B
:102DA0008F938DEF90E2892F8F938DEF90E28F9329
:102DB000CE018F5F9D4F292F2F938F930E948146C5
:102DC0008DB79EB70896CDBFDEBF80913B22909114
:102DD0003C22A0913D22B0913E222B2F2F932A2FEF
:102DE0002F93292F2F938F938DEF90E2892F8F931D
:102DF0008DEF90E28F93CE018B5E9D4F292F2F9305
:102E00008F930E948146EDB7FEB73896CDBFDEBFE7
:102E100080913F2290914022A0914122B091422284
:102E20002B2F2F932A2F2F93292F2F938F9380E0CF
:102E300091E2892F8F9380E091E28F93CE01875D9D
:102E40009D4F292F2F938F930E9481468DB79EB758
:102E50000896CDBFDEBF8091292290912A22A091B1
:102E60002B22B0912C222B2F2F932A2F2F93292FF7
:102E70002F938F938DEF90E2892F8F938DEF90E2B8
:102E80008F93CE01835C9D4F292F2F938F930E94A8
:102E90008146EDB7FEB73896CDBFDEBF80911D22CB
:102EA00090911E22A0911F22B09120222B2F2F93B0
:102EB0002A2F2F93292F2F938F9380E091E2892F30
:102EC0008F9380E091E28F93CE018F5A9D4F292FEF
:102ED0002F938F930E9481468DB79EB70896CDBFE2
:102EE000DEBF8091252290912622A0912722B091C9
:102EF00028222B2F2F932A2F2F93292F2F938F9315
:102F000080E091E2892F8F9380E091E28F93CE0150
:102F10008B599D4F292F2F938F930E948146EDB798
:102F2000FEB73896CDBFDEBF2091262130912721F4
:102F3000CE0187589D4FFC012083318320912621AB
:102F400030912721CE0183579D4FFC01208331838F
:102F50002091262130912721CE018F559D4FFC01D4
:102F6000208331832091262130912721CE018B545B
:102F70009D4FFC0120833183209126213091272110
:102F8000CE0187539D4FFC01208331838091BC2269
:102F90009091BD22A091BE22B091BF222B2F2F93E2
:102FA0002A2F2F93292F2F938F9380E091E2892F3F
:102FB0008F9380E091E28F93CE0183529D4F292F12
:102FC0002F938F930E9481468DB79EB70896CDBFF1
:102FD000DEBF8091C0229091C122A091C222B09107
:102FE000C3222B2F2F932A2F2F93292F2F938F9389
:102FF00080E091E2892F8F9380E091E28F93CE0160
:103000008F509D4F292F2F938F930E948146EDB7AC
:10301000FEB73896CDBFDEBF209126213091272103
:10302000CE018B5F9C4FFC01208331838091352240
:10303000882F90E0292F2F938F938DEF90E2892F87
:103040008F938DEF90E28F93CE01875E9C4F292F57
:103050002F938F930E9481460F900F900F900F90A7
:103060000F900F908091CC249091CD24A091CE24EC
:10307000B091CF242B2F2F932A2F2F93292F2F93CB
:103080008F9380E091E2892F8F9380E091E28F937C
:10309000CE01835D9C4F292F2F938F930E948146F1
:1030A0008DB79EB70896CDBFDEBFCE01835D9C4F26
:1030B000292F2F938F93CE01875E9C4F292F2F931B
:1030C0008F93CE018B5F9C4F292F2F938F93CE012F
:1030D0008F509D4F292F2F938F93CE0183529D4F59
:1030E000292F2F938F93CE0187539D4F292F2F93F5
:1030F0008F93CE018B549D4F292F2F938F93CE0109
:103100008F559D4F292F2F938F93CE0183579D4F1E
:10311000292F2F938F93CE0187589D4F292F2F93BF
:103120008F93CE018B599D4F292F2F938F93CE01D3
:103130008F5A9D4F292F2F938F93CE01835C9D4FE4
:10314000292F2F938F93CE01875D9D4F292F2F938A
:103150008F93CE018B5E9D4F292F2F938F93CE019E
:103160008F5F9D4F292F2F938F938A818F93898112
:103170008F9383E290E2892F8F9383E290E28F9383
:10318000CE010396292F2F938F930E948146EDB78E
:10319000FEB7B696CDBFDEBFCE010396B0DD000010
:1031A000C05CDC4FCDBFDEBFDF91CF9108951F9291
:1031B0000F9200903F000F921124009038000F9260
:1031C0001092380000903A000F9210923A0000904E
:1031D0003B000F9210923B008F939F93EF93FF93CE
:1031E000CF93DF93CDB7DEB780EA98E0FC01808112
:1031F000809395270000DF91CF91FF91EF919F91F0
:103200008F910F9000923B000F9000923A000F9028
:10321000009238000F9000923F000F901F90189579
:10322000CF93DF93CDB7DEB72797CDBFDEBF8A83BD
:103230009B836C837D834E835F83198265C08A8103
:103240009B81FC01268137818A819B81FC018281DF
:103250009381820F931F2981222F30E04C815D8161
:10326000240F351FF9012081FC0120838A819B8175
:10327000FC01828193819C012F5F3F4F8A819B815A
:10328000FC01228333838A819B81FC01228133816B
:103290008A819B81FC01808191812817390729F45B
:1032A0008A819B81FC01128213828A819B81FC01AD
:1032B000228133818A819B81FC0184819581281739
:1032C0003907F9F48A819B81FC01848195819C01F5
:1032D0002F5F3F4F8A819B81FC01248335838A8144
:1032E0009B81FC01248135818A819B81FC01808145
:1032F00091812817390729F48A819B81FC01148266
:10330000158289818F5F89838981282F30E08E81A2
:103310009F812817390708F492CF00002796CDBF68
:10332000DEBFDF91CF910895CF93DF9300D000D01F
:10333000CDB7DEB789839A836B837C834D835E83AD
:1033400089819A81FC011282138289819A81FC0110
:103350001482158289819A812B813C81FC0126830C
:10336000378389819A812D813E81FC0120833183BD
:1033700000002696CDBFDEBFDF91CF910895CF9399
:10338000DF93CDB7DEB72A97CDBFDEBF8D839E8397
:103390006F83788749875A878D819E81FC0184815C
:1033A000958189839A831B821C821B821C822DC07B
:1033B0002F8138858B819C81820F931F2D813E81C7
:1033C000F9014681578129813A81240F351FF9017E
:1033D0002081FC0120838D819E81FC01808191816F
:1033E0009C012150310989819A812817390719F4E4
:1033F00019821A8205C089819A81019689839A83EC
:103400008B819C8101968B839C838D819E818CD046
:103410009C0189859A852817390720F48D819E8122
:1034200083D002C089859A852B813C812817390772
:1034300008F4BECF8D819E8177D09C0189859A85C5
:103440002817390710F481E001C080E02A96CDBF2B
:10345000DEBFDF91CF910895CF93DF9300D000D0EE
:10346000CDB7DEB78B839C836D837E838B819C81FC
:103470005BD09C018D819E818217930720F08B8108
:103480009C8152D002C08D819E8189839A838B81D9
:103490009C814AD09C0189819A818217930720F1EF
:1034A0008B819C81FC012481358189819A81A901CC
:1034B000480F591F8B819C81FC0120813181CA01F9
:1034C000B9010E94D8429C018B819C81FC0124831C
:1034D00035838B819C81FC01248135818B819C818A
:1034E000FC012283338319C08B819C81FC012481E0
:1034F000358189819A81A901480F591F8B819C814F
:10350000FC0120813181CA01B9010E94D8429C018D
:103510008B819C81FC012483358300002696CDBFDE
:10352000DEBFDF91CF910895CF93DF931F921F925B
:10353000CDB7DEB789839A8389819A81FC01228184
:10354000338189819A81FC0184819581281739070B
:1035500078F089819A81FC012281338189819A8165
:10356000FC0184819581A901481B590BCA0115C032
:1035700089819A81FC012081318189819A81FC01B4
:103580004281538189819A81FC0184819581BA01AC
:10359000681B790BCB01820F931F0F900F90DF9167
:1035A000CF910895CF93DF931F921F92CDB7DEB7CF
:1035B00089839A8389819A81892B09F45EC18981E3
:1035C0009A81803C910521F460E180E0F8D355C1F7
:1035D00089819A818034944021F468E080E0EFD3BF
:1035E0004CC189819A818115944021F464E080E086
:1035F000E6D343C189819A818038914021F462E009
:1036000080E0DDD33AC189819A818115914021F40E
:1036100061E080E0D4D331C189819A8180389340C0
:1036200021F461E081E0CBD328C189819A8180397E
:10363000934021F461E082E0C2D31FC189819A8165
:103640008115924021F462E081E0B9D316C18981ED
:103650009A818034924021F462E082E0B0D30DC1BF
:1036600089819A818115934021F464E081E0A7D398
:1036700004C189819A818032934021F464E082E020
:103680009ED3FBC089819A818115984021F461E025
:1036900083E095D3F2C089819A818115994021F404
:1036A00061E084E08CD3E9C089819A8181159A40D8
:1036B00021F461E085E083D3E0C089819A8181159E
:1036C0009B4021F461E086E07AD3D7C089819A815A
:1036D0008034984021F462E083E071D3CEC08981C8
:1036E0009A818034994021F462E084E068D3C5C0B7
:1036F00089819A8180349A4021F462E085E05FD329
:10370000BCC089819A8180349B4021F462E086E0CC
:1037100056D3B3C089819A818039984021F464E0FE
:1037200083E04DD3AAC089819A818039994021F4E0
:1037300064E084E044D3A1C089819A8180399A40B1
:1037400021F464E085E03BD398C089819A81803977
:103750009B4021F464E086E032D38FC089819A8156
:10376000803C984021F468E083E029D386C08981B9
:103770009A81803C994021F468E084E020D37DC0A8
:1037800089819A81803C9A4021F468E085E017D3D2
:1037900074C089819A81803C9B4021F468E086E076
:1037A0000ED36BC089819A81803A984021F460E100
:1037B00083E005D362C089819A81803A994021F4DF
:1037C00060E184E0FCD259C089819A81803A9A40B4
:1037D00021F460E185E0F3D250C089819A81803A7A
:1037E0009B4021F460E186E0EAD247C089819A815A
:1037F000803B984021F460E283E0E1D23EC08981C1
:103800009A81803B994021F460E284E0D8D235C0AF
:1038100089819A81803B9A4021F460E285E0CFD291
:103820002CC089819A81803B9B4021F460E286E034
:10383000C6D223C089819A818038944021F460E403
:1038400083E0BDD21AC089819A818039944021F4E5
:1038500060E484E0B4D211C089819A81803A9440B6
:1038600021F460E485E0ABD208C089819A81803B75
:10387000944019F460E486E0A2D200000F900F900B
:10388000DF91CF910895CF93DF93CDB7DEB72A971D
:10389000CDBFDEBF8A878A85898381E08A8389815B
:1038A0008B838B818C838C818695869586958D8381
:1038B0008D81882F90E0880F991F82959295907F37
:1038C0009827807F98279A5F8E839F838A81882399
:1038D000A9F0898188878885882F90E09C012770CE
:1038E000332781E090E002C0880F991F2A95E2F704
:1038F000282F8E819F81FC01258314C089818987AF
:103900008985882F90E09C012770332781E090E023
:1039100002C0880F991F2A95E2F7282F8E819F8178
:10392000FC01268300002A96CDBFDEBFDF91CF9138
:103930000895CF93DF93CDB7DEB72B97CDBFDEBF12
:10394000888799876A877B878A859B85FC01848124
:103950008D838A859B85FC0185818E838A859B85E5
:10396000FC0186818F838A859B85FC018081918102
:10397000A281B38189839A83AB83BC83888599852F
:10398000803A984019F460E183E019D288859985DE
:10399000803B984019F460E283E011D288859985D4
:1039A000803A994019F460E184E009D288859985CC
:1039B000803B994019F460E284E001D288859985C2
:1039C000803A9A4019F460E185E0F9D188859985BB
:1039D000803B9A4019F460E285E0F1D188859985B1
:1039E000803A9B4019F460E186E0E9D188859985A9
:1039F000803B9B4019F460E286E0E1D1888599859F
:103A00009E012F5F3F4FB9010E944035882311F07E
:103A100081E001C080E02B96CDBFDEBFDF91CF916A
:103A20000895CF93DF93CDB7DEB780EA96E020EA22
:103A300036E0F90120812068FC01208380EA96E0CD
:103A400020EA36E0F90120812F7BFC0120838FE200
:103A50001ADF80EB9BE0A6DD66E070E280EB9BE086
:103A600068DF0000DF91CF910895CF93DF93CDB74A
:103A7000DEB780E092ECA1E0B0E08093AE219093BD
:103A8000AF21A093B021B093B12180E496E0809360
:103A9000A8219093A92180EA98E08093AA2190938D
:103AA000AB2188E08093AD2184E08093AC2188EA4B
:103AB00091E20E94963A83E091E20E945146000012
:103AC000DF91CF910895CF93DF931F92CDB7DEB7EB
:103AD0008FE390E0FC0180818983F89489810F90C5
:103AE000DF91CF910895CF93DF931F92CDB7DEB7CB
:103AF00089838FE390E02981FC01208300000F90EF
:103B0000DF91CF910895CF93DF931F921F92CDB78E
:103B1000DEB78A83D8DF898380E590E020E530E056
:103B2000F90130812A81232BFC0120838981DBDF8D
:103B300000000F900F90DF91CF910895CF93DF9306
:103B40001F921F92CDB7DEB78A8380E590E022E016
:103B5000FC012283B8DF898380E590E020E530E036
:103B6000F90130812A81232BFC0120838981BBDF6D
:103B700000000F900F90DF91CF910895CF93DF93C6
:103B80001F921F92CDB7DEB78A839DDF898380E5C0
:103B900090E020E530E0F9012081322F2A81209544
:103BA0002323FC01208389819EDF00000F900F906A
:103BB000DF91CF910895CF93DF931F92CDB7DEB7FA
:103BC00089838981883019F089819DDF02C08981CC
:103BD000B5DF00000F90DF91CF910895CF93DF9371
:103BE0001F92CDB7DEB7898380E590E0FC0191811B
:103BF0008981982381E0992309F480E00F90DF9177
:103C0000CF910895CF93DF9300D0CDB7DEB78983EE
:103C10006A837B838981882F90E08130910519F038
:103C2000029781F01EC088E690E09E012E5F3F4F14
:103C3000F9012081FC01228388E690E02B81FC01C0
:103C400023830FC080E690E09E012E5F3F4FF90175
:103C50002081FC01228380E690E02B81FC012383FC
:103C6000000000002396CDBFDEBFDF91CF91089505
:103C7000CF93DF931F92CDB7DEB789830000898190
:103C8000ADDF982F81E089278823C9F700000F90C6
:103C9000DF91CF910895CF93DF931F92CDB7DEB719
:103CA00089838981882F90E08A309105A1F08B303B
:103CB000910534F48230910571F0049739F010C009
:103CC0008C30910519F00E9731F00AC084E073DF53
:103CD00084E0CEDF05C088E06EDF88E0C9DF000049
:103CE00080E490E029812160FC01238300000F9093
:103CF000DF91CF910895CF93DF931F92CDB7DEB7B9
:103D000089838981882F90E0BC0182E020D10F90C7
:103D1000DF91CF9108950F931F93CF93DF9300D03E
:103D200000D0CDB7DEB780E790E089839A831C820C
:103D30001B820DC089819A819C012F5F3F4F29838F
:103D40003A832FEFFC0120838B818F5F8B838B81E4
:103D5000873080F38E010B5F1F4F0F5F1F4F8CE189
:103D6000CADFF80180838E010B5F1F4F8DE1C3DF37
:103D7000F80180838D819E81019621F480E493E295
:103D80008D839E838D819E81BC0182E03BDF82E03A
:103D900012DF82E06DDF000061E080E490E0D1D0CE
:103DA0008C81882311F481E0E9DE80E074DF2696BF
:103DB000CDBFDEBFDF91CF911F910F910895CF93BB
:103DC000DF9300D0CDB7DEB78A836B837CDE898337
:103DD0008A81882F90E080599F4F2A81222F30E0DE
:103DE00020593F4FF9012081322F2B812095232329
:103DF000FC012083898177DE00002396CDBFDEBFE2
:103E0000DF91CF910895CF93DF9300D0CDB7DEB788
:103E10008A836B8358DE89838A81882F90E080595A
:103E20009F4F2A81222F30E020593F4FF9013081E6
:103E30002B81232BFC012083898155DE00002396F2
:103E4000CDBFDEBFDF91CF910895CF93DF9300D038
:103E5000CDB7DEB789839A836B8389819A816B8121
:103E60000E9486352396CDBFDEBFDF91CF910895A6
:103E7000CF93DF9300D000D0CDB7DEB789839A838C
:103E80006B837C834D835E8312C08B819C81FC019C
:103E9000208189819A81622FD8DF8D819E8101974F
:103EA0008D839E838B819C8101968B839C838D81E6
:103EB0009E81892B51F780E02696CDBFDEBFDF9132
:103EC000CF910895CF93DF9300D0CDB7DEB78A832B
:103ED0009B8320919C2730919D278091A0279091D2
:103EE000A127AE014F5F5F4FBA01F9011995898192
:103EF000082E000C990B2396CDBFDEBFDF91CF912A
:103F00000895CF93DF9300D0CDB7DEB789836A835E
:103F10007B8320919E2730919F278091A0279091AD
:103F2000A1276981F901199599231CF48FEF9FEF5F
:103F300002C081E090E02396CDBFDEBFDF91CF913C
:103F400008951BBEFC0128ED24BF608308954091B5
:103F5000CA01E62FF72F8093CA0184914093CA01CA
:103F60000895CF93DF931F92CDB7DEB78FE390E034
:103F7000FC0180818983F89489810F90DF91CF9132
:103F80000895CF93DF931F92CDB7DEB789838FE378
:103F900090E02981FC01208300000F90DF91CF91F8
:103FA0000895CF93DF931F921F92CDB7DEB78A8318
:103FB0008A81882F90E08A56984DFC0180818F3F3E
:103FC00009F4FFCFCEDF89838A81882F90E09C019E
:103FD0002A56384DF90120812F5F8A56984DFC01F1
:103FE00020838981CEDF00000F900F90DF91CF9169
:103FF0000895CF93DF93CDB7DEB764E080E0DFDED6
:1040000080E094E02FEF3FEFFC012287338780E0D0
:1040100094E0FC011086118683E0C3DF80E094E029
:1040200021E0FC01228380E094E027E0FC01208372
:104030000000DF91CF9108951F920F9200903F00F2
:104040000F921124009038000F92109238000090C7
:104050003A000F9210923A008F939F93CF93DF9381
:10406000CDB7DEB78091A2279091A32701968093C8
:10407000A2279093A3270000DF91CF919F918F916A
:104080000F9000923A000F90009238000F9000922B
:104090003F000F901F9018951F920F9200903F00C5
:1040A0000F921124009038000F9210923800009067
:1040B00039000F921092390000903A000F9210923E
:1040C0003A0000903B000F9210923B002F933F93D9
:1040D0004F935F936F937F938F939F93AF93BF9310
:1040E000EF93FF93CF93DF93CDB7DEB72897CDBF84
:1040F000DEBF2091A2273091A3278091A427909121
:10410000A5272817390708F463C080E094E021E070
:10411000FC0122838091A8279091A927892B09F47B
:1041200057C08091A2279091A327CC01A0E0B0E0D6
:10413000AC013327222780E094E0FC018085918543
:10414000CC01A0E0B0E0822B932BA42BB52B89836C
:104150009A83AB83BC838091A4279091A527CC013F
:10416000A0E0B0E0AC01332722278091A6279091F0
:10417000A727CC01A0E0B0E0822B932BA42BB52B7A
:104180008D839E83AF83B8872D813E814F81588573
:1041900089819A81AB81BC81281739074A075B075F
:1041A00058F08D819E81AF81B8850196A11DB11D0A
:1041B00089839A83AB83BC832091A8273091A92758
:1041C00089819A81AB81BC81BC01CD01F90119952E
:1041D00000002896CDBFDEBFDF91CF91FF91EF9118
:1041E000BF91AF919F918F917F916F915F914F910F
:1041F0003F912F910F9000923B000F9000923A0058
:104200000F90009239000F90009238000F900092AA
:104210003F000F901F9018950F931F93CF93DF933C
:10422000CDB7DEB76097CDBFDEBF8F839887498754
:104230005A876B877C870D871E872F87388B2D8544
:104240003E854F85588989859A85AB85BC85820FC7
:10425000931FA41FB51F0197A109B10929853A85AC
:104260004B855C85BC01CD010E94EC42DA01C9019D
:104270008A839B83AC83BD838A819B81AC81BD8112
:1042800081389105A105B10510F08FEF35C08A8105
:104290008E838E81813418F083E089831FC08E81E4
:1042A000813218F082E0898319C08E81813118F043
:1042B00082E8898313C08E81893018F081E0898378
:1042C0000DC08E81853018F081E8898307C08E810A
:1042D000833010F0198202C080E889838F8198852D
:1042E000FC018081982F9C778981892B282F8F81D1
:1042F0009885FC01208381E06096CDBFDEBFDF9111
:10430000CF911F910F910895CF93DF931F92CDB757
:10431000DEB78FE390E0FC0180818983F894898186
:104320000F90DF91CF910895CF93DF931F92CDB778
:10433000DEB789838FE390E02981FC0120830000B0
:104340000F90DF91CF910895CF93DF931F921F922B
:10435000CDB7DEB78A838A81882F90E08A56984D40
:10436000FC0180818F3F09F4FFCFCEDF89838A81F2
:10437000882F90E09C012A56384DF90120812F5F4B
:104380008A56984DFC0120838981CEDF00000F9072
:104390000F90DF91CF9108951F920F9200903F00F0
:1043A0000F921124009038000F9210923800009064
:1043B00039000F921092390000903A000F9210923B
:1043C0003A0000903B000F9210923B002F933F93D6
:1043D0004F935F936F937F938F939F93AF93BF930D
:1043E000EF93FF93CF93DF93CDB7DEB78091B221E8
:1043F0009091B321892B31F08091B2219091B3211A
:10440000FC0119950000DF91CF91FF91EF91BF91D1
:10441000AF919F918F917F916F915F914F913F915C
:104420002F910F9000923B000F9000923A000F9056
:10443000009239000F90009238000F9000923F00D8
:104440000F901F9018951F920F9200903F000F92AF
:104450001124009038000F9210923800009039001B
:104460000F921092390000903A000F9210923A0089
:1044700000903B000F9210923B002F933F934F937D
:104480005F936F937F938F939F93AF93BF93EF93BC
:10449000FF93CF93DF93CDB7DEB78091B421909196
:1044A000B521892B31F08091B4219091B521FC0187
:1044B00019950000DF91CF91FF91EF91BF91AF91DE
:1044C0009F918F917F916F915F914F913F912F912C
:1044D0000F9000923B000F9000923A000F900092D4
:1044E00039000F90009238000F9000923F000F901B
:1044F0001F9018951F920F9200903F000F92112469
:10450000009038000F9210923800009039000F92FE
:104510001092390000903A000F9210923A000090E9
:104520003B000F9210923B002F933F934F935F936A
:104530006F937F938F939F93AF93BF93EF93FF936B
:10454000CF93DF93CDB7DEB78091B6219091B7219D
:10455000892B31F08091B6219091B721FC011995FA
:104560000000DF91CF91FF91EF91BF91AF919F91AB
:104570008F917F916F915F914F913F912F910F900C
:1045800000923B000F9000923A000F900092390089
:104590000F90009238000F9000923F000F901F90F4
:1045A00018951F920F9200903F000F9211240090D7
:1045B00038000F9210923800009039000F9210923C
:1045C000390000903A000F9210923A0000903B00A0
:1045D0000F9210923B002F933F934F935F936F93F3
:1045E0007F938F939F93AF93BF93EF93FF93CF935B
:1045F000DF93CDB7DEB78091B8219091B921892B97
:1046000031F08091B8219091B921FC0119950000F9
:10461000DF91CF91FF91EF91BF91AF919F918F91DA
:104620007F916F915F914F913F912F910F900092E9
:104630003B000F9000923A000F90009239000F90CB
:10464000009238000F9000923F000F901F90189535
:104650001F920F9200903F000F921124009038009B
:104660000F9210923800009039000F92109239008A
:1046700000903A000F9210923A0000903B000F9287
:1046800010923B002F933F934F935F936F937F93D1
:104690008F939F93AF93BF93EF93FF93CF93DF934A
:1046A000CDB7DEB78091BA219091BB21892B31F033
:1046B0008091BA219091BB21FC0119950000DF91F6
:1046C000CF91FF91EF91BF91AF919F918F917F918A
:1046D0006F915F914F913F912F910F9000923B000E
:1046E0000F9000923A000F90009239000F900092C4
:1046F00038000F9000923F000F901F9018951F9266
:104700000F9200903F000F921124009038000F92FA
:1047100010923800009039000F92109239000090EA
:104720003A000F9210923A0000903B000F921092C4
:104730003B002F933F934F935F936F937F938F93A0
:104740009F93AF93BF93EF93FF93CF93DF93CDB737
:10475000DEB78091BC219091BD21892B31F08091F1
:10476000BC219091BD21FC0119950000DF91CF91F2
:10477000FF91EF91BF91AF919F918F917F916F9139
:104780005F914F913F912F910F9000923B000F90BE
:1047900000923A000F90009239000F90009238007A
:1047A0000F9000923F000F901F9018951F920F924C
:1047B00000903F000F921124009038000F92109249
:1047C0003800009039000F921092390000903A00A2
:1047D0000F9210923A0000903B000F9210923B0013
:1047E0002F933F934F935F936F937F938F939F93F9
:1047F000AF93BF93EF93FF93CF93DF93CDB7DEB724
:104800008091BE219091BF21892B31F08091BE21F2
:104810009091BF21FC0119950000DF91CF91FF918C
:10482000EF91BF91AF919F918F917F916F915F9128
:104830004F913F912F910F9000923B000F9000926B
:104840003A000F90009239000F90009238000F90BC
:1048500000923F000F901F9018951F920F920090AA
:104860003F000F921124009038000F9210923800F0
:10487000009039000F921092390000903A000F9288
:1048800010923A0000903B000F9210923B002F9341
:104890003F934F935F936F937F938F939F93AF93C8
:1048A000BF93EF93FF93CF93DF93CDB7DEB78091A4
:1048B000C0219091C121892B31F08091C02190912C
:1048C000C121FC0119950000DF91CF91FF91EF917B
:1048D000BF91AF919F918F917F916F915F914F9118
:1048E0003F912F910F9000923B000F9000923A0061
:1048F0000F90009239000F90009238000F900092B4
:104900003F000F901F9018951F920F9200903F004C
:104910000F921124009038000F92109238000090EE
:1049200039000F921092390000903A000F921092C5
:104930003A0000903B000F9210923B002F933F9360
:104940004F935F936F937F938F939F93AF93BF9397
:10495000EF93FF93CF93DF93CDB7DEB78091C22162
:104960009091C321892B31F08091C2219091C32174
:10497000FC0119950000DF91CF91FF91EF91BF915C
:10498000AF919F918F917F916F915F914F913F91E7
:104990002F910F9000923B000F9000923A000F90E1
:1049A000009239000F90009238000F9000923F0063
:1049B0000F901F9018951F920F9200903F000F923A
:1049C0001124009038000F921092380000903900A6
:1049D0000F921092390000903A000F9210923A0014
:1049E00000903B000F9210923B002F933F934F9308
:1049F0005F936F937F938F939F93AF93BF93EF9347
:104A0000FF93CF93DF93CDB7DEB78091C421909110
:104A1000C521892B31F08091C4219091C521FC01E1
:104A200019950000DF91CF91FF91EF91BF91AF9168
:104A30009F918F917F916F915F914F913F912F91B6
:104A40000F9000923B000F9000923A000F9000925E
:104A500039000F90009238000F9000923F000F90A5
:104A60001F9018951F920F9200903F000F921124F3
:104A7000009038000F9210923800009039000F9289
:104A80001092390000903A000F9210923A00009074
:104A90003B000F9210923B002F933F934F935F93F5
:104AA0006F937F938F939F93AF93BF93EF93FF93F6
:104AB000CF93DF93CDB7DEB78091C6219091C72108
:104AC000892B31F08091C6219091C721FC01199565
:104AD0000000DF91CF91FF91EF91BF91AF919F9136
:104AE0008F917F916F915F914F913F912F910F9097
:104AF00000923B000F9000923A000F900092390014
:104B00000F90009238000F9000923F000F901F907E
:104B100018951F920F9200903F000F921124009061
:104B200038000F9210923800009039000F921092C6
:104B3000390000903A000F9210923A0000903B002A
:104B40000F9210923B002F933F934F935F936F937D
:104B50007F938F939F93AF93BF93EF93FF93CF93E5
:104B6000DF93CDB7DEB78091C8219091C921892B01
:104B700031F08091C8219091C921FC011995000064
:104B8000DF91CF91FF91EF91BF91AF919F918F9165
:104B90007F916F915F914F913F912F910F90009274
:104BA0003B000F9000923A000F90009239000F9056
:104BB000009238000F9000923F000F901F901895C0
:104BC0001F920F9200903F000F9211240090380026
:104BD0000F9210923800009039000F921092390015
:104BE00000903A000F9210923A0000903B000F9212
:104BF00010923B002F933F934F935F936F937F935C
:104C00008F939F93AF93BF93EF93FF93CF93DF93D4
:104C1000CDB7DEB78091CA219091CB21892B31F09D
:104C20008091CA219091CB21FC0119950000DF9160
:104C3000CF91FF91EF91BF91AF919F918F917F9114
:104C40006F915F914F913F912F910F9000923B0098
:104C50000F9000923A000F90009239000F9000924E
:104C600038000F9000923F000F901F9018951F92F0
:104C70000F9200903F000F921124009038000F9285
:104C800010923800009039000F9210923900009075
:104C90003A000F9210923A0000903B000F9210924F
:104CA0003B002F933F934F935F936F937F938F932B
:104CB0009F93AF93BF93EF93FF93CF93DF93CDB7C2
:104CC000DEB78091CC219091CD21892B31F080915C
:104CD000CC219091CD21FC0119950000DF91CF915D
:104CE000FF91EF91BF91AF919F918F917F916F91C4
:104CF0005F914F913F912F910F9000923B000F9049
:104D000000923A000F90009239000F900092380004
:104D10000F9000923F000F901F9018951F920F92D6
:104D200000903F000F921124009038000F921092D3
:104D30003800009039000F921092390000903A002C
:104D40000F9210923A0000903B000F9210923B009D
:104D50002F933F934F935F936F937F938F939F9383
:104D6000AF93BF93EF93FF93CF93DF93CDB7DEB7AE
:104D70008091CE219091CF21892B31F08091CE214D
:104D80009091CF21FC0119950000DF91CF91FF9107
:104D9000EF91BF91AF919F918F917F916F915F91B3
:104DA0004F913F912F910F9000923B000F900092F6
:104DB0003A000F90009239000F90009238000F9047
:104DC00000923F000F901F9018951F920F92009035
:104DD0003F000F921124009038000F92109238007B
:104DE000009039000F921092390000903A000F9213
:104DF00010923A0000903B000F9210923B002F93CC
:104E00003F934F935F936F937F938F939F93AF9352
:104E1000BF93EF93FF93CF93DF93CDB7DEB780912E
:104E2000D0219091D121892B31F08091D021909186
:104E3000D121FC0119950000DF91CF91FF91EF91F5
:104E4000BF91AF919F918F917F916F915F914F91A2
:104E50003F912F910F9000923B000F9000923A00EB
:104E60000F90009239000F90009238000F9000923E
:104E70003F000F901F9018951F920F9200903F00D7
:104E80000F921124009038000F9210923800009079
:104E900039000F921092390000903A000F92109250
:104EA0003A0000903B000F9210923B002F933F93EB
:104EB0004F935F936F937F938F939F93AF93BF9322
:104EC000EF93FF93CF93DF93CDB7DEB78091D221DD
:104ED0009091D321892B31F08091D2219091D321CF
:104EE000FC0119950000DF91CF91FF91EF91BF91E7
:104EF000AF919F918F917F916F915F914F913F9172
:104F00002F910F9000923B000F9000923A000F906B
:104F1000009239000F90009238000F9000923F00ED
:104F20000F901F9018951F920F9200903F000F92C4
:104F30001124009038000F92109238000090390030
:104F40000F921092390000903A000F9210923A009E
:104F500000903B000F9210923B002F933F934F9392
:104F60005F936F937F938F939F93AF93BF93EF93D1
:104F7000FF93CF93DF93CDB7DEB78091D42190918B
:104F8000D521892B31F08091D4219091D521FC013C
:104F900019950000DF91CF91FF91EF91BF91AF91F3
:104FA0009F918F917F916F915F914F913F912F9141
:104FB0000F9000923B000F9000923A000F900092E9
:104FC00039000F90009238000F9000923F000F9030
:104FD0001F9018951F920F9200903F000F9211247E
:104FE000009038000F9210923800009039000F9214
:104FF0001092390000903A000F9210923A000090FF
:105000003B000F9210923B002F933F934F935F937F
:105010006F937F938F939F93AF93BF93EF93FF9380
:10502000CF93DF93CDB7DEB78091D6219091D72172
:10503000892B31F08091D6219091D721FC011995CF
:105040000000DF91CF91FF91EF91BF91AF919F91C0
:105050008F917F916F915F914F913F912F910F9021
:1050600000923B000F9000923A000F90009239009E
:105070000F90009238000F9000923F000F901F9009
:1050800018951F920F9200903F000F9211240090EC
:1050900038000F9210923800009039000F92109251
:1050A000390000903A000F9210923A0000903B00B5
:1050B0000F9210923B002F933F934F935F936F9308
:1050C0007F938F939F93AF93BF93EF93FF93CF9370
:1050D000DF93CDB7DEB78091D8219091D921892B6C
:1050E00031F08091D8219091D921FC0119950000CF
:1050F000DF91CF91FF91EF91BF91AF919F918F91F0
:105100007F916F915F914F913F912F910F900092FE
:105110003B000F9000923A000F90009239000F90E0
:10512000009238000F9000923F000F901F9018954A
:105130001F920F9200903F000F92112400903800B0
:105140000F9210923800009039000F92109239009F
:1051500000903A000F9210923A0000903B000F929C
:1051600010923B002F933F934F935F936F937F93E6
:105170008F939F93AF93BF93EF93FF93CF93DF935F
:10518000CDB7DEB78091DA219091DB21892B31F008
:105190008091DA219091DB21FC0119950000DF91CB
:1051A000CF91FF91EF91BF91AF919F918F917F919F
:1051B0006F915F914F913F912F910F9000923B0023
:1051C0000F9000923A000F90009239000F900092D9
:1051D00038000F9000923F000F901F9018951F927B
:1051E0000F9200903F000F921124009038000F9210
:1051F00010923800009039000F9210923900009000
:105200003A000F9210923A0000903B000F921092D9
:105210003B002F933F934F935F936F937F938F93B5
:105220009F93AF93BF93EF93FF93CF93DF93CDB74C
:10523000DEB78091DC219091DD21892B31F08091C6
:10524000DC219091DD21FC0119950000DF91CF91C7
:10525000FF91EF91BF91AF919F918F917F916F914E
:105260005F914F913F912F910F9000923B000F90D3
:1052700000923A000F90009239000F90009238008F
:105280000F9000923F000F901F9018951F920F9261
:1052900000903F000F921124009038000F9210925E
:1052A0003800009039000F921092390000903A00B7
:1052B0000F9210923A0000903B000F9210923B0028
:1052C0002F933F934F935F936F937F938F939F930E
:1052D000AF93BF93EF93FF93CF93DF93CDB7DEB739
:1052E0008091DE219091DF21892B31F08091DE21A8
:1052F0009091DF21FC0119950000DF91CF91FF9182
:10530000EF91BF91AF919F918F917F916F915F913D
:105310004F913F912F910F9000923B000F90009280
:105320003A000F90009239000F90009238000F90D1
:1053300000923F000F901F9018951F920F920090BF
:105340003F000F921124009038000F921092380005
:10535000009039000F921092390000903A000F929D
:1053600010923A0000903B000F9210923B002F9356
:105370003F934F935F936F937F938F939F93AF93DD
:10538000BF93EF93FF93CF93DF93CDB7DEB78091B9
:10539000E0219091E121892B31F08091E0219091E1
:1053A000E121FC0119950000DF91CF91FF91EF9170
:1053B000BF91AF919F918F917F916F915F914F912D
:1053C0003F912F910F9000923B000F9000923A0076
:1053D0000F90009239000F90009238000F900092C9
:1053E0003F000F901F9018951F920F9200903F0062
:1053F0000F921124009038000F9210923800009004
:1054000039000F921092390000903A000F921092DA
:105410003A0000903B000F9210923B002F933F9375
:105420004F935F936F937F938F939F93AF93BF93AC
:10543000EF93FF93CF93DF93CDB7DEB78091E22157
:105440009091E321892B31F08091E2219091E32129
:10545000FC0119950000DF91CF91FF91EF91BF9171
:10546000AF919F918F917F916F915F914F913F91FC
:105470002F910F9000923B000F9000923A000F90F6
:10548000009239000F90009238000F9000923F0078
:105490000F901F9018951F920F9200903F000F924F
:1054A0001124009038000F921092380000903900BB
:1054B0000F921092390000903A000F9210923A0029
:1054C00000903B000F9210923B002F933F934F931D
:1054D0005F936F937F938F939F93AF93BF93EF935C
:1054E000FF93CF93DF93CDB7DEB78091E421909106
:1054F000E521892B31F08091E4219091E521FC0197
:1055000019950000DF91CF91FF91EF91BF91AF917D
:105510009F918F917F916F915F914F913F912F91CB
:105520000F9000923B000F9000923A000F90009273
:1055300039000F90009238000F9000923F000F90BA
:105540001F9018951F920F9200903F000F92112408
:10555000009038000F9210923800009039000F929E
:105560001092390000903A000F9210923A00009089
:105570003B000F9210923B002F933F934F935F930A
:105580006F937F938F939F93AF93BF93EF93FF930B
:10559000CF93DF93CDB7DEB78091E6219091E721DD
:1055A000892B31F08091E6219091E721FC0119953A
:1055B0000000DF91CF91FF91EF91BF91AF919F914B
:1055C0008F917F916F915F914F913F912F910F90AC
:1055D00000923B000F9000923A000F900092390029
:1055E0000F90009238000F9000923F000F901F9094
:1055F00018951F920F9200903F000F921124009077
:1056000038000F9210923800009039000F921092DB
:10561000390000903A000F9210923A0000903B003F
:105620000F9210923B002F933F934F935F936F9392
:105630007F938F939F93AF93BF93EF93FF93CF93FA
:10564000DF93CDB7DEB78091E8219091E921892BD6
:1056500031F08091E8219091E921FC011995000039
:10566000DF91CF91FF91EF91BF91AF919F918F917A
:105670007F916F915F914F913F912F910F90009289
:105680003B000F9000923A000F90009239000F906B
:10569000009238000F9000923F000F901F901895D5
:1056A0001F920F9200903F000F921124009038003B
:1056B0000F9210923800009039000F92109239002A
:1056C00000903A000F9210923A0000903B000F9227
:1056D00010923B002F933F934F935F936F937F9371
:1056E0008F939F93AF93BF93EF93FF93CF93DF93EA
:1056F000CDB7DEB78091EA219091EB21892B31F073
:105700008091EA219091EB21FC0119950000DF9135
:10571000CF91FF91EF91BF91AF919F918F917F9129
:105720006F915F914F913F912F910F9000923B00AD
:105730000F9000923A000F90009239000F90009263
:1057400038000F9000923F000F901F9018951F9205
:105750000F9200903F000F921124009038000F929A
:1057600010923800009039000F921092390000908A
:105770003A000F9210923A0000903B000F92109264
:105780003B002F933F934F935F936F937F938F9340
:105790009F93AF93BF93EF93FF93CF93DF93CDB7D7
:1057A000DEB78091EC219091ED21892B31F0809131
:1057B000EC219091ED21FC0119950000DF91CF9132
:1057C000FF91EF91BF91AF919F918F917F916F91D9
:1057D0005F914F913F912F910F9000923B000F905E
:1057E00000923A000F90009239000F90009238001A
:1057F0000F9000923F000F901F9018951F920F92EC
:1058000000903F000F921124009038000F921092E8
:105810003800009039000F921092390000903A0041
:105820000F9210923A0000903B000F9210923B00B2
:105830002F933F934F935F936F937F938F939F9398
:10584000AF93BF93EF93FF93CF93DF93CDB7DEB7C3
:105850008091EE219091EF21892B31F08091EE2102
:105860009091EF21FC0119950000DF91CF91FF91FC
:10587000EF91BF91AF919F918F917F916F915F91C8
:105880004F913F912F910F9000923B000F9000920B
:105890003A000F90009239000F90009238000F905C
:1058A00000923F000F901F9018951F920F9200904A
:1058B0003F000F921124009038000F921092380090
:1058C000009039000F921092390000903A000F9228
:1058D00010923A0000903B000F9210923B002F93E1
:1058E0003F934F935F936F937F938F939F93AF9368
:1058F000BF93EF93FF93CF93DF93CDB7DEB7809144
:10590000F0219091F121892B31F08091F02190913B
:10591000F121FC0119950000DF91CF91FF91EF91EA
:10592000BF91AF919F918F917F916F915F914F91B7
:105930003F912F910F9000923B000F9000923A0000
:105940000F90009239000F90009238000F90009253
:105950003F000F901F9018951F920F9200903F00EC
:105960000F921124009038000F921092380000908E
:1059700039000F921092390000903A000F92109265
:105980003A0000903B000F9210923B002F933F9300
:105990004F935F936F937F938F939F93AF93BF9337
:1059A000EF93FF93CF93DF93CDB7DEB78091F221D2
:1059B0009091F321892B31F08091F2219091F32184
:1059C000FC0119950000DF91CF91FF91EF91BF91FC
:1059D000AF919F918F917F916F915F914F913F9187
:1059E0002F910F9000923B000F9000923A000F9081
:1059F000009239000F90009238000F9000923F0003
:105A00000F901F9018951F920F9200903F000F92D9
:105A10001124009038000F92109238000090390045
:105A20000F921092390000903A000F9210923A00B3
:105A300000903B000F9210923B002F933F934F93A7
:105A40005F936F937F938F939F93AF93BF93EF93E6
:105A5000FF93CF93DF93CDB7DEB78091F421909180
:105A6000F521892B31F08091F4219091F521FC01F1
:105A700019950000DF91CF91FF91EF91BF91AF9108
:105A80009F918F917F916F915F914F913F912F9156
:105A90000F9000923B000F9000923A000F900092FE
:105AA00039000F90009238000F9000923F000F9045
:105AB0001F9018951F920F9200903F000F92112493
:105AC000009038000F9210923800009039000F9229
:105AD0001092390000903A000F9210923A00009014
