:100000007EC10000A2C10000A0C100009EC100008E
:100010009CC100009AC1000098C1000096C1000078
:1000200094C1000092C100000C9481170C94B11788
:100030008CC100000C9481260C94E9180C94401992
:100040000C9497190C94EE190C94451A0C949C1A64
:100050000C94F31A0C944A1B0C94A11B0C94F81BDF
:1000600074C1000072C1000070C100006EC10000C8
:100070006CC100006AC1000068C1000066C10000D8
:1000800064C1000062C1000060C100005EC10000E8
:100090005CC100005AC1000058C100001AC600002F
:1000A000A4C600002EC70000B8C700004EC1000063
:1000B0004CC100004AC100000C9419270C94B51FD4
:1000C0000C940C200C9463200C94BA200C941121F5
:1000D0000C9468210C94BF210C9416220C946D2270
:1000E0000C94C42232C1000030C100002EC10000B7
:1000F0002CC100002AC1000028C1000026C1000058
:1001000024C1000022C1000020C100001EC1000067
:100110001CC100001AC1000018C10000AAC30000E1
:1001200034C40000BEC4000048C500000EC1000079
:100130000C94CD260C944F1C0C94A61C0C94FD1C06
:100140000C94541D0C94AB1D0C94021E0C94591E5F
:100150000C94B01E0C94071F0C945E1FF6C0000098
:10016000F4C00000F2C00000F0C00000EEC00000CB
:10017000ECC00000EAC00000E8C00000E6C00000DB
:10018000E4C00000E2C00000E0C00000DEC00000EB
:10019000DCC00000DAC00000D8C00000D6C00000FB
:1001A000D4C00000D2C00000D0C000000C9465276D
:1001B0000C941B230C9472230C94C9230C942024BC
:1001C0000C9477240C94CE240C9425250C947C2537
:1001D0000C94D3250C942A26B8C000000C941C0D56
:1001E000B4C00000B2C00000D1C70000AEC0000023
:1001F0000C946A09AAC00000A8C000006E616E00DD
:10020000696E660000407A10F35A00A0724E180919
:100210000010A5D4E80000E87648170000E40B546D
:10022000020000CA9A3B000000E1F505000080963C
:100230009800000040420F000000A086010000006E
:10024000102700000000E803000000006400000028
:1002500000000A00000000000100000000002C76F1
:10026000D888DC674F0823DFC1DFAE59E1B1B7960C
:10027000E5E3E453C63AE651997696E8E6C2842669
:10028000EB898C9B62ED407C6FFCEFBC9C9F40F245
:10029000BAA56FA5F490055A2AF75C936B6CF967C1
:1002A0006DC11BFCE0E40D47FEF520E6B500D0ED86
:1002B000902E0300943577050080841E08000020EE
:1002C0004E0A000000C80C333333330F986E12838C
:1002D0001141EF8D2114893BE65516CFFEE6DB1860
:1002E000D1844B381BF77C1D901DA4BBE424203225
:1002F00084725E228100C9F124ECA1E53D2711241E
:100300001FBECFEFCDBFDFE3DEBF00E00CBF18BEE6
:1003100019BE1ABE1BBE10E2A0E0B0E2ECEFFBE794
:1003200000E00BBF02C007900D92A438B107D9F7C7
:100330001BBE26E2A4E8B0E201C01D92A538B207B8
:10034000E1F70E94B2310C94FC3D5ACECF93DF937B
:10035000CDB7DEB72A97CDBFDEBF8A878A8589836E
:100360001A8289818B838B818C838C81869586957B
:1003700086958D838D81882F90E0880F991F8295B7
:100380009295907F9827807F98279A5F8E839F838E
:100390008A818823A9F0898188878885882F90E0C1
:1003A0009C012770332781E090E002C0880F991FDD
:1003B0002A95E2F7282F8E819F81FC01258314C0A6
:1003C000898189878985882F90E09C012770332750
:1003D00081E090E002C0880F991F2A95E2F7282F4C
:1003E0008E819F81FC01268300002A96CDBFDEBF4F
:1003F000DF91CF910895CF93DF93CDB7DEB72A97E2
:10040000CDBFDEBF8A878A85898381E08A8389811F
:100410008B838B818C838C818695869586958D8345
:100420008D81882F90E0880F991F82959295907FFB
:100430009827807F98279A5F8E839F838A8188235D
:10044000A9F0898188878885882F90E09C01277092
:10045000332781E090E002C0880F991F2A95E2F7C8
:10046000282F8E819F81FC01258314C08981898773
:100470008985882F90E09C012770332781E090E0E8
:1004800002C0880F991F2A95E2F7282F8E819F813D
:10049000FC01268300002A96CDBFDEBFDF91CF91FD
:1004A0000895CF93DF9300D0CDB7DEB789839A83C9
:1004B0006B8389819A812B81FC0123830000239621
:1004C000CDBFDEBFDF91CF910895CF93DF931F9211
:1004D0001F92CDB7DEB789839A8389819A81FC0107
:1004E00083810F900F90DF91CF910895CF93DF9389
:1004F0001F921F92CDB7DEB789839A8389819A8133
:10050000FC018281881F8827881F0F900F90DF9140
:10051000CF910895CF93DF931F921F92CDB7DEB78F
:1005200089839A8389819A81FC018081282F2061A7
:1005300089819A81FC01208300000F900F90DF9148
:10054000CF910895CF93DF9300D01F92CDB7DEB740
:1005500089839A836B837C8389819A81B6DF282F74
:100560008B819C81FC01208300002496CDBFDEBFDF
:10057000DF91CF910895CF93DF931F921F92CDB754
:10058000DEB789839A8389819A81B0DF0F900F90BB
:10059000DF91CF910895CF93DF93CDB7DEB780E0A1
:1005A00098E4A8EEB1E0BC01CD01DF91CF910895B0
:1005B000CF93DF931F92CDB7DEB71982ECDFDC015A
:1005C000CB012981222F30E004C0B695A7959795DD
:1005D00087952A95D2F7BC01CD010F90DF91CF917D
:1005E0000895CF93DF93CDB7DEB7E2DFDC01CB0117
:1005F000BC01CD01DF91CF910895CF93DF93CDB7AB
:10060000DEB7EFDFDC01CB01BC01CD01DF91CF9183
:100610000895CF93DF93CDB7DEB7EFDFDC01CB01D9
:10062000BC01CD01DF91CF910895CF93DF931F924D
:100630001F92CDB7DEB789839A8389819A81803CE6
:10064000984021F468E083E00E945A1689819A81DB
:10065000803C994021F468E084E00E945A16898128
:100660009A81803C9A4021F468E085E00E945A1605
:1006700089819A81803C9B4021F468E086E00E9459
:100680005A1689819A8146DF00000F900F90DF9102
:10069000CF910895CF92DF92EF92FF920F931F9325
:1006A000CF93DF93CDB7DEB72D97CDBFDEBF898364
:1006B0009A836B837C834D830E831F8328873987BE
:1006C000CA86DB86EC86FD86A4DF9B01AC018E81A9
:1006D0009F81A885B985E981FA8189019A01AC01D8
:1006E000BD01CF010E9471188823ACF089819A81E5
:1006F000FC018081282F237F8D81882F90E0880F37
:10070000991F880F991F8C70822B282F89819A81BD
:10071000FC01208301C000002D96CDBFDEBFDF911C
:10072000CF911F910F91FF90EF90DF90CF900895A0
:10073000CF93DF93CDB7DEB72997CDBFDEBF8C83D4
:100740009D836E837F83488759871BC08E819F81DD
:100750009C012F5F3F4F2E833F83FC0120818C81C2
:100760009D8189839A832B8389819A816B8199DE0C
:1007700000008C819D81FFDE982F81E089278823EE
:10078000C1F7888599859C012150310928873987CF
:10079000892BE1F680E02996CDBFDEBFDF91CF91B6
:1007A0000895CF93DF93CDB7DEB72997CDBFDEBFD6
:1007B0008C839D836E837F83488759871EC08C817D
:1007C0009D8189839A838FEF8B8389819A816B8145
:1007D00068DE00008C819D81CEDE982F81E0892724
:1007E0008823C1F72E813F818C819D81B901AADECA
:1007F0008E819F8101968E839F83888599859C0138
:100800002150310928873987892BC9F680E029963C
:10081000CDBFDEBFDF91CF910895CF93DF9300D09E
:100820001F92CDB7DEB789839A836B837C838B81DC
:100830009C81FC0180818ADD00002496CDBFDEBF53
:10084000DF91CF910895CF93DF9300D01F92CDB762
:10085000DEB789839A836B837C838B819C81FC01C7
:100860008081C9DD00002496CDBFDEBFDF91CF912E
:1008700008951F920F9200903F000F921124009054
:1008800038000F9210923800009039000F921092A9
:10089000390000903A000F9210923A0000903B000D
:1008A0000F9210923B002F933F934F935F936F9360
:1008B0007F938F939F93AF93BF93EF93FF93CF93C8
:1008C000DF9300D01F92CDB7DEB72091E1203091A9
:1008D000E22080E092E089839A8381E08B831C820E
:1008E0008B81882F90E083709927892B39F48C8134
:1008F0008E5F8C838B81869586958B838B81882FE9
:1009000090E081709927892B19F48C818F5F8C83FB
:1009100089819A81AC01405E5F4F8C81882F90E085
:10092000880F991F880F991F880F991F840F951F93
:10093000FC0184819581AC0161E080E092E0F901E5
:10094000199500002496CDBFDEBFDF91CF91FF91B6
:10095000EF91BF91AF919F918F917F916F915F9137
:100960004F913F912F910F9000923B000F9000927A
:100970003A000F90009239000F90009238000F90CB
:1009800000923F000F901F9018951F920F920090B9
:100990003F000F921124009038000F9210923800FF
:1009A000009039000F921092390000903A000F9297
:1009B00010923A0000903B000F9210923B002F9350
:1009C0003F934F935F936F937F938F939F93AF93D7
:1009D000BF93EF93FF93CF93DF9300D01F92CDB7D8
:1009E000DEB72091E1203091E22080E092E089831F
:1009F0009A8382E08B831C828B81882F90E08370A6
:100A00009927892B39F48C818E5F8C838B81869515
:100A100086958B838B81882F90E081709927892B15
:100A200019F48C818F5F8C8389819A81AC01405E3F
:100A30005F4F8C81882F90E0880F991F880F991F36
:100A4000880F991F840F951FFC0184819581AC014B
:100A500062E080E092E0F901199500002496CDBF94
:100A6000DEBFDF91CF91FF91EF91BF91AF919F9149
:100A70008F917F916F915F914F913F912F910F9047
:100A800000923B000F9000923A000F9000923900C4
:100A90000F90009238000F9000923F000F901F902F
:100AA00018951F920F9200903F000F921124009012
:100AB00038000F9210923800009039000F92109277
:100AC000390000903A000F9210923A0000903B00DB
:100AD0000F9210923B002F933F934F935F936F932E
:100AE0007F938F939F93AF93BF93EF93FF93CF9396
:100AF000DF9300D01F92CDB7DEB72091E120309177
:100B0000E22080E092E089839A8384E08B831C82D8
:100B10008B81882F90E083709927892B39F48C8101
:100B20008E5F8C838B81869586958B838B81882FB6
:100B300090E081709927892B19F48C818F5F8C83C9
:100B400089819A81AC01405E5F4F8C81882F90E053
:100B5000880F991F880F991F880F991F840F951F61
:100B6000FC0184819581AC0164E080E092E0F901B0
:100B7000199500002496CDBFDEBFDF91CF91FF9184
:100B8000EF91BF91AF919F918F917F916F915F9105
:100B90004F913F912F910F9000923B000F90009248
:100BA0003A000F90009239000F90009238000F9099
:100BB00000923F000F901F9018951F920F92009087
:100BC0003F000F921124009038000F9210923800CD
:100BD000009039000F921092390000903A000F9265
:100BE00010923A0000903B000F9210923B002F931E
:100BF0003F934F935F936F937F938F939F93AF93A5
:100C0000BF93EF93FF93CF93DF9300D01F92CDB7A5
:100C1000DEB72091E1203091E22080E092E08983EC
:100C20009A8388E08B831C828B81882F90E083706D
:100C30009927892B39F48C818E5F8C838B818695E3
:100C400086958B838B81882F90E081709927892BE3
:100C500019F48C818F5F8C8389819A81AC01405E0D
:100C60005F4F8C81882F90E0880F991F880F991F04
:100C7000880F991F840F951FFC0184819581AC0119
:100C800068E080E092E0F901199500002496CDBF5C
:100C9000DEBFDF91CF91FF91EF91BF91AF919F9117
:100CA0008F917F916F915F914F913F912F910F9015
:100CB00000923B000F9000923A000F900092390092
:100CC0000F90009238000F9000923F000F901F90FD
:100CD00018951F920F9200903F000F9211240090E0
:100CE00038000F9210923800009039000F92109245
:100CF000390000903A000F9210923A0000903B00A9
:100D00000F9210923B002F933F934F935F936F93FB
:100D10007F938F939F93AF93BF93EF93FF93CF9363
:100D2000DF9300D01F92CDB7DEB72091DF20309146
:100D3000E02080E492E089839A8381E08B831C82A7
:100D40008B81882F90E083709927892B39F48C81CF
:100D50008E5F8C838B81869586958B838B81882F84
:100D600090E081709927892B19F48C818F5F8C8397
:100D700089819A81AC01405E5F4F8C81882F90E021
:100D8000880F991F880F991F880F991F840F951F2F
:100D9000FC0184819581AC0161E080E492E0F9017D
:100DA000199500002496CDBFDEBFDF91CF91FF9152
:100DB000EF91BF91AF919F918F917F916F915F91D3
:100DC0004F913F912F910F9000923B000F90009216
:100DD0003A000F90009239000F90009238000F9067
:100DE00000923F000F901F9018951F920F92009055
:100DF0003F000F921124009038000F92109238009B
:100E0000009039000F921092390000903A000F9232
:100E100010923A0000903B000F9210923B002F93EB
:100E20003F934F935F936F937F938F939F93AF9372
:100E3000BF93EF93FF93CF93DF9300D01F92CDB773
:100E4000DEB72091DF203091E02080E492E08983BA
:100E50009A8382E08B831C828B81882F90E0837041
:100E60009927892B39F48C818E5F8C838B818695B1
:100E700086958B838B81882F90E081709927892BB1
:100E800019F48C818F5F8C8389819A81AC01405EDB
:100E90005F4F8C81882F90E0880F991F880F991FD2
:100EA000880F991F840F951FFC0184819581AC01E7
:100EB00062E080E492E0F901199500002496CDBF2C
:100EC000DEBFDF91CF91FF91EF91BF91AF919F91E5
:100ED0008F917F916F915F914F913F912F910F90E3
:100EE00000923B000F9000923A000F900092390060
:100EF0000F90009238000F9000923F000F901F90CB
:100F000018951F920F9200903F000F9211240090AD
:100F100038000F9210923800009039000F92109212
:100F2000390000903A000F9210923A0000903B0076
:100F30000F9210923B002F933F934F935F936F93C9
:100F40007F938F939F93AF93BF93EF93FF93CF9331
:100F5000DF9300D01F92CDB7DEB72091DF20309114
:100F6000E02080E492E089839A8384E08B831C8272
:100F70008B81882F90E083709927892B39F48C819D
:100F80008E5F8C838B81869586958B838B81882F52
:100F900090E081709927892B19F48C818F5F8C8365
:100FA00089819A81AC01405E5F4F8C81882F90E0EF
:100FB000880F991F880F991F880F991F840F951FFD
:100FC000FC0184819581AC0164E080E492E0F90148
:100FD000199500002496CDBFDEBFDF91CF91FF9120
:100FE000EF91BF91AF919F918F917F916F915F91A1
:100FF0004F913F912F910F9000923B000F900092E4
:101000003A000F90009239000F90009238000F9034
:1010100000923F000F901F9018951F920F92009022
:101020003F000F921124009038000F921092380068
:10103000009039000F921092390000903A000F9200
:1010400010923A0000903B000F9210923B002F93B9
:101050003F934F935F936F937F938F939F93AF9340
:10106000BF93EF93FF93CF93DF9300D01F92CDB741
:10107000DEB72091DF203091E02080E492E0898388
:101080009A8388E08B831C828B81882F90E0837009
:101090009927892B39F48C818E5F8C838B8186957F
:1010A00086958B838B81882F90E081709927892B7F
:1010B00019F48C818F5F8C8389819A81AC01405EA9
:1010C0005F4F8C81882F90E0880F991F880F991FA0
:1010D000880F991F840F951FFC0184819581AC01B5
:1010E00068E080E492E0F901199500002496CDBFF4
:1010F000DEBFDF91CF91FF91EF91BF91AF919F91B3
:101100008F917F916F915F914F913F912F910F90B0
:1011100000923B000F9000923A000F90009239002D
:101120000F90009238000F9000923F000F901F9098
:101130001895CF93DF931F921F92CDB7DEB780EB48
:101140009BE024E1FC01238310924A2619821A8233
:101150001092552400000F900F90DF91CF910895C9
:10116000CF93DF93CDB7DEB740E051E06DEA74E294
:101170008DE494E29AD440E450E06DEA75E28DEE9D
:1011800095E293D40000DF91CF9108951F920F92C2
:1011900000903F000F921124009038000F9210929F
:1011A0003800009039000F921092390000903A00F8
:1011B0000F9210923A0000903B000F9210923B0069
:1011C0002F933F934F935F936F937F938F939F934F
:1011D000AF93BF93EF93FF93CF93DF931F92CDB75E
:1011E000DEB780EB9BE0FC01808189838981082E3A
:1011F000000C990B0E94483D8091AC24813071F421
:1012000080914A26882F90E08B509A4D2981FC01CD
:10121000208380914A268F5F80934A2689818A3075
:1012200049F48091AC24809355241092AC24109200
:101230004C240AC08981843239F48091AC248823FB
:1012400019F481E080934C2480914C24882301F18F
:1012500080914C248530B9F489818734A1F481E0F0
:101260008093AC2445E050E06AE170E285EF95E2BE
:101270000E94923C85E080934A2680914C248F5FA7
:1012800080934C2405C080914C248F5F80934C2424
:1012900000000F90DF91CF91FF91EF91BF91AF913F
:1012A0009F918F917F916F915F914F913F912F917E
:1012B0000F9000923B000F9000923A000F90009226
:1012C00039000F90009238000F9000923F000F906D
:1012D0001F9018951F920F9200903F000F921124BB
:1012E000009038000F9210923800009039000F9251
:1012F0001092390000903A000F9210923A0000903C
:101300003B000F9210923B002F933F934F935F93BC
:101310006F937F938F939F93AF93BF93EF93FF93BD
:10132000CF93DF93CDB7DEB741E050E060EB7BE0D9
:101330008DEE95E2E5D361E070E08DEE95E24DD45F
:101340000000DF91CF91FF91EF91BF91AF919F91FD
:101350008F917F916F915F914F913F912F910F905E
:1013600000923B000F9000923A000F9000923900DB
:101370000F90009238000F9000923F000F901F9046
:101380001895CF93DF93CDB7DEB780E098E4A8EE51
:10139000B1E0BC01CD01DF91CF910895CF93DF93F0
:1013A0001F92CDB7DEB71982ECDFDC01CB012981BA
:1013B000222F30E004C0B695A795979587952A957A
:1013C000D2F7BC01CD010F90DF91CF910895CF935B
:1013D000DF93CDB7DEB7E2DFDC01CB01BC01CD018D
:1013E000DF91CF910895CF93DF93CDB7DEB7EFDFD5
:1013F000DC01CB01BC01CD01DF91CF910895CF93EA
:10140000DF93CDB7DEB7EFDFDC01CB01BC01CD014F
:10141000DF91CF91089504C061507109810991094C
:101420006115710581059105B9F70895CF93DF9393
:101430001F921F92CDB7DEB789839A8389819A81E3
:10144000FC018081282F206489819A81FC012083FE
:1014500000000F900F90DF91CF910895CF93DF930D
:10146000CDB7DEB743E050E062E080E496E00E9452
:101470009F2D40E058E160E180E496E00E949F2DBE
:1014800043E050E060E280E496E00E949F2D40E05F
:1014900050E060E480E496E00E949F2D43E050E03D
:1014A00060E880E496E00E949F2D0000DF91CF91DC
:1014B0000895CF92DF92EF92FF920F931F93CF93F5
:1014C000DF931F92CDB7DEB7C9DF81E1898380EC5E
:1014D00098E0ABD8C12CD12C760100E412E42FE0C7
:1014E00030E040E0CE010196BC0180EC98E0D2D81B
:1014F00080EC98E09BDF41E050E060E270E280EC3D
:1015000098E016D916D085E290E2892F8F9385E274
:1015100090E28F930E94353D0F900F9000000F9046
:10152000DF91CF911F910F91FF90EF90DF90CF90BF
:1015300008952F923F924F925F926F927F928F9277
:101540009F92AF92BF92CF92DF92EF92FF920F9352
:101550001F93CF93DF93CDB7DEB7A497CDBFDEBF88
:1015600081E18A83CE010296BC0180EC98E055D9D6
:1015700086E0E4E1F0E2DE01139601900D928A9597
:10158000E1F71982E3C18981882F90E09E012D5FE8
:101590003F4F820F931FFC018081882F90E041E034
:1015A00050E0BC0180EC98E0C3D829DFDC01CB011E
:1015B0008C019D0140E050E0BA010D8B1E8B2F8BFA
:1015C000388F498F5A8F6B8F7C8F2D883E884F883C
:1015D000588C698C7A8C8B8C9C8C222D332D442DCD
:1015E000552D662D772D882D992D03E00E94543AB4
:1015F000A22EB32EC42ED52EE62EF72E082F192F8D
:101600002A2C3B2C4C2C5D2C6E2C7F2C802E912E6A
:10161000222D332D442D552D662D772D882D992D76
:1016200002E00E94543AA22EB32EC42ED52EE62EEE
:10163000F72E082F192F2A2D3B2D4C2D5D2D6E2DA9
:101640007F2D802F912FA22CB32CC42CD52CE62CCF
:10165000F72C082D192D0E94763AA22EB32EC42EF7
:10166000D52EE62EF72E082F192F2A2D3B2D4C2D87
:101670005D2D6E2D7F2D802F912FAD88BE88CF8858
:10168000D88CE98CFA8C0B8D1C8D0E946D3A222E21
:10169000332E442E552E662E772E882E992E0F2E01
:1016A000F6E0AF2EF02DB12CC12CD12CE12CF12C79
:1016B00000E010E0222D332D442D552D662D772D81
:1016C000882D992D0E94F839222E332E442E552E26
:1016D000662E772E882E992EA22CB32CC42CD52CB6
:1016E000E62CF72C082D192D2A2D3B2D4C2D5D2D88
:1016F0006E2D7F2D802F912F29513C4F4F4F5F4FE3
:101700006F4F7F4F8F4F9F4FA22EB32EC42ED52EDB
:10171000E62EF72E082F192F2A2D3B2D4C2D5D2D4F
:101720006E2D7F2D802F912F0E942235DC01CB0161
:1017300020E030E04AE754E4BC01CD010E941734B8
:10174000DC01CB01BC01CD010E948434A22EB32E5A
:10175000C42ED52EE62EF72E082F192FD601C5013F
:10176000BC01CD0158DE8981882F90E09E01275F62
:101770003F4F820F931FFC018081882F90E042E051
:1017800050E0BC0180EC98E00CD839DEDC01CB01E4
:101790008C019D0140E050E0BA010D8F1E8F2F8F0C
:1017A00038A349A35AA36BA37CA32D8C3E8C4F8CEA
:1017B00058A069A07AA08BA09CA0222D332D442D87
:1017C000552D662D772D882D992D03E00E94543AD2
:1017D000A22EB32EC42ED52EE62EF72E082F192FAB
:1017E0002A2C3B2C4C2C5D2C6E2C7F2C802E912E89
:1017F000222D332D442D552D662D772D882D992D95
:1018000002E00E94543AA22EB32EC42ED52EE62E0C
:10181000F72E082F192F2A2D3B2D4C2D5D2D6E2DC7
:101820007F2D802F912FA22CB32CC42CD52CE62CED
:10183000F72C082D192D0E94763AA22EB32EC42E15
:10184000D52EE62EF72E082F192F2A2D3B2D4C2DA5
:101850005D2D6E2D7F2D802F912FAD8CBE8CCF8C6A
:10186000D8A0E9A0FAA00BA11CA10E946D3A222EDB
:10187000332E442E552E662E772E882E992E0F2E1F
:10188000F6E0AF2EF02DB12CC12CD12CE12CF12C97
:1018900000E010E0222D332D442D552D662D772D9F
:1018A000882D992D0E94F839222E332E442E552E44
:1018B000662E772E882E992EA22CB32CC42CD52CD4
:1018C000E62CF72C082D192D2A2D3B2D4C2D5D2DA6
:1018D0006E2D7F2D802F912F29513C4F4F4F5F4F01
:1018E0006F4F7F4F8F4F9F4FA22EB32EC42ED52EFA
:1018F000E62EF72E082F192F2A2D3B2D4C2D5D2D6E
:101900006E2D7F2D802F912F0E942235DC01CB017F
:1019100020E030E04AE754E4BC01CD010E941734D6
:10192000DC01CB01BC01CD010E948434A22EB32E78
:10193000C42ED52EE62EF72E082F192FD601C5015D
:10194000BC01CD0168DD89818F5F89838981873002
:1019500008F419CE8985882F90E0382F22278A85B0
:10196000882F90E0822B932B80934C2690934D26CA
:101970008B85882F90E0382F22278C85882F90E048
:10198000822B932B80935026909351268D85882F00
:1019900090E0382F22278E85882F90E0822B932B82
:1019A00080934E2690934F268F85882F90E0382F76
:1019B00022278889882F90E0822B932B80936026A2
:1019C000909361268989882F90E0382F22278A8971
:1019D000882F90E0822B932B80935E2690935F2636
:1019E0008B89882F90E0382F22278C89882F90E0D0
:1019F000822B932B8093522690935326CE010296EE
:101A0000BC0180EC98E00E9423040000A496CDBFA6
:101A1000DEBFDF91CF911F910F91FF90EF90DF908C
:101A2000CF90BF90AF909F908F907F906F905F907E
:101A30004F903F902F9008951F920F9200903F007B
:101A40000F921124009038000F92109238000090ED
:101A50003A000F9210923A0000903B000F921092C1
:101A60003B008F939F93EF93FF93CF93DF93CDB77B
:101A7000DEB780EA9BE0FC0180818093662600004F
:101A8000DF91CF91FF91EF919F918F910F900092F5
:101A90003B000F9000923A000F90009238000F9098
:101AA00000923F000F901F901895CF93DF9300D0C6
:101AB00000D0CDB7DEB789839A836B837C834D8357
:101AC0005E8389819A81FC011282138289819A81C5
:101AD000FC011482158289819A812B813C81FC0151
:101AE0002683378389819A812D813E81FC01208361
:101AF000318300002696CDBFDEBFDF91CF910895E0
:101B0000CF93DF93CDB7DEB72A97CDBFDEBF8D83EE
:101B10009E836F83788749875A878D819E81FC01D8
:101B20008481958189839A831B821C821B821C82FB
:101B30002DC02F8138858B819C81820F931F2D8131
:101B40003E81F9014681578129813A81240F351F51
:101B5000F9012081FC0120838D819E81FC0180811F
:101B600091819C012150310989819A812817390777
:101B700019F419821A8205C089819A810196898394
:101B80009A838B819C8101968B839C838D819E811E
:101B90008CD09C0189859A852817390720F48D817E
:101BA0009E8183D002C089859A852B813C8128172C
:101BB000390708F4BECF8D819E8177D09C0189853D
:101BC0009A852817390710F481E001C080E02A9631
:101BD000CDBFDEBFDF91CF910895CF93DF9300D0CB
:101BE00000D0CDB7DEB78B839C836D837E838B81E2
:101BF0009C815BD09C018D819E818217930720F090
:101C00008B819C8152D002C08D819E8189839A8371
:101C10008B819C814AD09C0189819A81821793078C
:101C200020F18B819C81FC012481358189819A81FD
:101C3000A901480F591F8B819C81FC0120813181B2
:101C4000CA01B9010E94B6399C018B819C81FC01BB
:101C5000248335838B819C81FC01248135818B8198
:101C60009C81FC012283338319C08B819C81FC0100
:101C70002481358189819A81A901480F591F8B815F
:101C80009C81FC0120813181CA01B9010E94B639D1
:101C90009C018B819C81FC01248335830000269666
:101CA000CDBFDEBFDF91CF910895CF93DF931F9219
:101CB0001F92CDB7DEB789839A8389819A81FC010F
:101CC0002281338189819A81FC0184819581281741
:101CD000390778F089819A81FC01228133818981D9
:101CE0009A81FC0184819581A901481B590BCA0185
:101CF00015C089819A81FC012081318189819A8175
:101D0000FC014281538189819A81FC018481958102
:101D1000BA01681B790BCB01820F931F0F900F90B4
:101D2000DF91CF910895CF93DF931F921F92CDB78C
:101D3000DEB789839A8389819A81892B09F45EC1F0
:101D400089819A81803C910521F460E180E0B2D7DD
:101D500055C189819A818034944021F468E080E003
:101D6000A9D74CC189819A818115944021F464E0FE
:101D700080E0A0D743C189819A818038914021F4C5
:101D800062E080E097D73AC189819A8181159140BC
:101D900021F461E080E08ED731C189819A81803859
:101DA000934021F461E081E085D728C189819A813F
:101DB0008039934021F461E082E07CD71FC18981A2
:101DC0009A818115924021F462E081E073D716C1B7
:101DD00089819A818034924021F462E082E06AD75E
:101DE0000DC189819A818115934021F464E081E0DD
:101DF00061D704C189819A818032934021F464E0E3
:101E000082E058D7FBC089819A818115984021F4DE
:101E100061E083E04FD7F2C089819A8181159940B2
:101E200021F461E084E046D7E9C089819A81811577
:101E30009A4021F461E085E03DD7E0C089819A8134
:101E400081159B4021F461E086E034D7D7C08981B9
:101E50009A818034984021F462E083E02BD7CEC091
:101E600089819A818034994021F462E084E022D70C
:101E7000C5C089819A8180349A4021F462E085E06E
:101E800019D7BCC089819A8180349B4021F462E0DB
:101E900086E010D7B3C089819A818039984021F4B7
:101EA00064E083E007D7AAC089819A81803999408C
:101EB00021F464E084E0FED6A1C089819A81803952
:101EC0009A4021F464E085E0F5D698C089819A8132
:101ED00080399B4021F464E086E0ECD68FC0898194
:101EE0009A81803C984021F468E083E0E3D686C084
:101EF00089819A81803C994021F468E084E0DAD6B7
:101F00007DC089819A81803C9A4021F468E085E017
:101F1000D1D674C089819A81803C9B4021F468E0CD
:101F200086E0C8D66BC089819A81803A984021F4B6
:101F300060E183E0BFD662C089819A81803A99408E
:101F400021F460E184E0B6D659C089819A81803A53
:101F50009A4021F460E185E0ADD650C089819A8134
:101F6000803A9B4021F460E186E0A4D647C0898195
:101F70009A81803B984021F460E283E09BD63EC08A
:101F800089819A81803B994021F460E284E092D675
:101F900035C089819A81803B9A4021F460E285E0D6
:101FA00089D62CC089819A81803B9B4021F460E2D4
:101FB00086E080D623C089819A818038944021F4BC
:101FC00060E483E077D61AC089819A818039944091
:101FD00021F460E484E06ED611C089819A81803A50
:101FE000944021F460E485E065D608C089819A8137
:101FF000803B944019F460E486E05CD600000F90CA
:102000000F90DF91CF910895CF93DF93CDB7DEB7D7
:102010002A97CDBFDEBF8A878A85898381E08A833C
:1020200089818B838B818C838C818695869586951F
:102030008D838D81882F90E0880F991F82959295CE
:10204000907F9827807F98279A5F8E839F838A81CD
:102050008823A9F0898188878885882F90E09C0152
:102060002770332781E090E002C0880F991F2A95DE
:10207000E2F7282F8E819F81FC01258314C089817E
:1020800089878985882F90E09C012770332781E01C
:1020900090E002C0880F991F2A95E2F7282F8E81C1
:1020A0009F81FC01268300002A96CDBFDEBFDF9111
:1020B000CF910895CF93DF93CDB7DEB72B97CDBFE8
:1020C000DEBF888799876A877B878A859B85FC0125
:1020D00084818D838A859B85FC0185818E838A8599
:1020E0009B85FC0186818F838A859B85FC0180818D
:1020F0009181A281B38189839A83AB83BC838885D4
:102100009985803A984019F460E183E0D3D58885B9
:102110009985803B984019F460E283E0CBD58885AF
:102120009985803A994019F460E184E0C3D58885A7
:102130009985803B994019F460E284E0BBD588859D
:102140009985803A9A4019F460E185E0B3D5888595
:102150009985803B9A4019F460E285E0ABD588858B
:102160009985803A9B4019F460E186E0A3D5888583
:102170009985803B9B4019F460E286E09BD5888579
:1021800099859E012F5F3F4FB9010E94632B8823E1
:1021900011F081E001C080E02B96CDBFDEBFDF9162
:1021A000CF910895CF93DF93CDB7DEB780EA96E065
:1021B00020EA36E0F90120812068FC01208380EAD2
:1021C00096E020EA36E0F90120812F7BFC01208394
:1021D0008FE21ADF80EB9BE0A6DD66E070E280EB29
:1021E0009BE068DF0000DF91CF910895CF93DF93EC
:1021F000CDB7DEB72597CDBFDEBF8A839B836C83C7
:102200007D8319828981882F90E02C813D81820F06
:10221000931FFC018081882311F481E020C0898113
:10222000882F90E02C813D81820F931FFC018081DB
:10223000282F880F330B8981882F90E04A815B819A
:10224000840F951FFC018081882F90E028173907A3
:1022500011F080E004C089818F5F8983D3CF2596F8
:10226000CDBFDEBFDF91CF9108958F929F92AF9245
:10227000BF92CF92DF92EF92FF920F931F93CF9373
:10228000DF93CDB7DEB7EC97CDBFDEBF88AF99AF98
:102290006AAF7BAF4CAF19821B861C861D861E86DB
:1022A0001F86188A198A1A8A1B8A1C8A1D8A1E8A06
:1022B0001F8A188E198E1A821B828AAD9BAD66E327
:1022C00070E294DF882309F4C4C31A821B82B8C366
:1022D0008A819B812AAD3BAD820F931FFC018081D7
:1022E0008C3209F0A8C389818F5F8983898181300D
:1022F00009F05BC08A819B8101962AAD3BAD820FBC
:10230000931FFC018081882F90E0C097880F982F41
:10231000990F990F482F490F8A819B8102962AAD08
:102320003BAD820F931FFC018081840F80538CABE7
:102330008A819B8103962AAD3BAD820F931FFC01DE
:102340008081882F90E0C097880F982F990F990F60
:10235000482F490F8A819B8104962AAD3BAD820F9D
:10236000931FFC018081840F80538DAB8A819B81F8
:1023700005962AAD3BAD820F931FFC018081882F0B
:1023800090E0C097880F982F990F990F482F490F09
:102390008A819B8106962AAD3BAD820F931FFC017B
:1023A0008081840F80538EAB46C38981823009F0CF
:1023B0002CC18A819B8101962AAD3BAD820F931F70
:1023C000FC0180818C3209F420C18A819B810196B5
:1023D0002AAD3BAD820F931FFC018081882F90E0D6
:1023E000C097880F991F9C01220F331F220F331FA4
:1023F000280F391F8A819B8102964AAD5BAD840FFD
:10240000951FFC018081882F90E0C097820F931F59
:102410008A8F9B8F8A819B8103962AAD3BAD820F69
:10242000931FFC018081882F90E0C097092E000C3B
:10243000AA0BBB0B9C01AD0160EA76E881E090E05D
:102440000E94A7397B018C018A819B8104962AAD69
:102450003BAD820F931FFC018081882F90E0C097D5
:102460009C01990F440B550B80E197E2DC010E941F
:10247000EC39DC01CB01E80EF91E0A1F1B1F8A8113
:102480009B8106962AAD3BAD820F931FFC01808194
:10249000882F90E0C0979C01990F440B550B88EE54
:1024A00093E0DC010E94EC39DC01CB01E80EF91E5F
:1024B0000A1F1B1F8A819B8107962AAD3BAD820FA5
:1024C000931FFC018081882F90E0C0979C01990F99
:1024D000440B550B84E690E0DC010E94EC39DC01F2
:1024E000CB01A8019701280F391F4A1F5B1F8A8162
:1024F0009B8108966AAD7BAD860F971FFC0180819A
:10250000882F90E0C097092E000CAA0BBB0B880FF8
:10251000991FAA1FBB1F7C018D01EE0CFF1C001F21
:10252000111FEE0CFF1C001F111F8E0D9F1DA01F01
:10253000B11F280F391F4A1F5B1F8A819B81099693
:102540006AAD7BAD860F971FFC018081882F90E0DC
:10255000C097092E000CAA0BBB0B820F931FA41F60
:10256000B51F8C8F9D8FAE8FBF8F8A819B810B96FD
:102570002AAD3BAD820F931FFC0180818E3449F45C
:102580000F2EC12CD12CF0E8EF2EFFE3FF2EF02D03
:1025900008C00F2EC12CD12CF0E8EF2EFFEBFF2E40
:1025A000F02D8A8D9B8DCC01A0E0B0E0BC01CD0167
:1025B0000E94E5344B015C018C8D9D8DAE8DBF8DED
:1025C000BC01CD010E94E534DC01CB0120E03CE7F9
:1025D00042E159E4BC01CD010E941734DC01CB017A
:1025E0009C01AD01C501B4010E94B333DC01CB01F4
:1025F0009C01AD01C701B6010E94C135DC01CB01D0
:1026000089A39AA3ABA3BCA316C28981823029F403
:1026100019A21AA21BA21CA20EC28981843009F041
:1026200040C18A819B8101962AAD3BAD820F931FE9
:10263000FC0180818C3209F434C18A819B8101962E
:102640002AAD3BAD820F931FFC018081882F90E063
:10265000C09744E6489F9001499F300D11248A811C
:102660009B8102964AAD5BAD840F951FFC01808172
:10267000882F90E0C097880F991FAC01440F551F19
:10268000440F551F840F951F280F391F8A819B8186
:1026900003964AAD5BAD840F951FFC018081882FA6
:1026A00090E0C097820F931F8DA39EA38A819B8188
:1026B00004962AAD3BAD820F931FFC018081882FC9
:1026C00090E0C097092E000CAA0BBB0B9C01AD013A
:1026D00060EA76E881E090E00E94A7397B018C01F6
:1026E0008A819B8105962AAD3BAD820F931FFC0129
:1026F0008081882F90E0C0979C01990F440B550B67
:1027000080E197E2DC010E94EC39DC01CB01E80EAC
:10271000F91E0A1F1B1F8A819B8107962AAD3BADBC
:10272000820F931FFC018081882F90E0C0979C014D
:10273000990F440B550B88EE93E0DC010E94EC39B5
:10274000DC01CB01E80EF91E0A1F1B1F8A819B8149
:1027500008962AAD3BAD820F931FFC018081882F24
:1027600090E0C0979C01990F440B550B84E690E0D4
:10277000DC010E94EC39DC01CB01A8019701280F94
:10278000391F4A1F5B1F8A819B8109966AAD7BAD09
:10279000860F971FFC018081882F90E0C097092E3B
:1027A000000CAA0BBB0B880F991FAA1FBB1F7C0133
:1027B0008D01EE0CFF1C001F111FEE0CFF1C001FF3
:1027C000111F8E0D9F1DA01FB11F280F391F4A1FFB
:1027D0005B1F8A819B810A966AAD7BAD860F971F2E
:1027E000FC018081882F90E0C097092E000CAA0B75
:1027F000BB0B820F931FA41FB51F8FA398A7A9A778
:10280000BAA78A819B810C962AAD3BAD820F931F9C
:10281000FC018081853449F40F2EC12CD12CF0E8C5
:10282000EF2EFFE3FF2EF02D08C00F2EC12CD12C70
:10283000F0E8EF2EFFEBFF2EF02D8DA19EA1CC0135
:10284000A0E0B0E0BC01CD010E94E5344B015C0189
:102850008FA198A5A9A5BAA5BC01CD010E94E53418
:10286000DC01CB0120E03CE742E159E4BC01CD01B1
:102870000E941734DC01CB019C01AD01C501B401FC
:102880000E94B333DC01CB019C01AD01C701B6014D
:102890000E94C135DC01CB018CA79DA7AEA7BFA7C5
:1028A000CAC08981843029F41CA61DA61EA61FA6B5
:1028B000C2C08981863061F48A819B8101962AADEC
:1028C0003BAD820F931FFC01808180538FABB3C05F
:1028D0008981893009F0AFC01C821E821F82188650
:1028E00019861A868FC08A85282F30E08A819B81BD
:1028F000820F931F01962AAD3BAD820F931FFC01FF
:1029000080818E3229F481E08C8381E08D8377C0D1
:102910008C818823D1F520E030E040E251E46E81E3
:102920007F81888599850E94C135DC01CB018E832A
:102930009F83A887B9878A85282F30E08A819B8169
:10294000820F931F01962AAD3BAD820F931FFC01AE
:102950008081882F90E0C097092E000CAA0BBB0B3A
:10296000BC01CD010E94E734DC01CB019C01AD012B
:102970006E817F81888599850E94B333DC01CB010C
:102980008E839F83A887B9873AC08C818823B9F149
:102990008D818130A1F58A85282F30E08A819B8145
:1029A000820F931F01962AAD3BAD820F931FFC014E
:1029B0008081882F90E0C097092E000CAA0BBB0BDA
:1029C000BC01CD010E94E734DC01CB0120E030E006
:1029D00040E251E4BC01CD010E941734DC01CB017F
:1029E0009C01AD016E817F81888599850E94B333FA
:1029F000DC01CB018E839F83A887B98714C08A85A9
:102A00008F5F8A878A85282F30E08A819B81820F99
:102A1000931F01962AAD3BAD820F931FFC0180816D
:102A20008C3209F060CF8E819F81A885B98588ABF3
:102A300099ABAAABBBAB8A819B8101968A839B83AE
:102A40008CAD282F30E08A819B81821793070CF48C
:102A50003FCC88AD99AD2EE1FE017A96DC01019064
:102A60000D922A95E1F788AD99ADEC96CDBFDEBF0A
:102A7000DF91CF911F910F91FF90EF90DF90CF905A
:102A8000BF90AF909F908F900895CF93DF931F9248
:102A9000CDB7DEB78FE390E0FC0180818983F894A5
:102AA00089810F90DF91CF910895CF93DF931F928B
:102AB000CDB7DEB789838FE390E02981FC012083C5
:102AC00000000F90DF91CF910895CF93DF931F9275
:102AD0001F92CDB7DEB78A83D8DF898380E590E087
:102AE00020E530E0F90130812A81232BFC0120838D
:102AF0008981DBDF00000F900F90DF91CF91089567
:102B0000CF93DF931F921F92CDB7DEB78A8380E504
:102B100090E022E0FC012283B8DF898380E590E029
:102B200020E530E0F90130812A81232BFC0120834C
:102B30008981BBDF00000F900F90DF91CF91089546
:102B4000CF93DF931F921F92CDB7DEB78A839DDFAD
:102B5000898380E590E020E530E0F9012081322F83
:102B60002A8120952323FC01208389819EDF000098
:102B70000F900F90DF91CF910895CF93DF931F9225
:102B8000CDB7DEB789838981883019F089819DDFCF
:102B900002C08981B5DF00000F90DF91CF910895C9
:102BA000CF93DF931F92CDB7DEB7898380E590E0A6
:102BB000FC0191818981982381E0992309F480E0C7
:102BC0000F90DF91CF910895CF93DF931F92CDB7F0
:102BD000DEB7898300008981E3DF982F81E08927B0
:102BE0008823C9F700000F90DF91CF910895CF930C
:102BF000DF931F92CDB7DEB789838981882F90E05C
:102C00008A309105A1F08B30910534F48230910522
:102C100071F0049739F010C08C30910519F00E97BF
:102C200031F00AC084E0A9DF84E0CEDF05C088E08F
:102C3000A4DF88E0C9DF000080E490E02981216002
:102C4000FC01238300000F90DF91CF910895CF9373
:102C5000DF9300D01F92CDB7DEB780E790E0898385
:102C60009A831C821B820DC089819A819C012F5FEF
:102C70003F4F29833A832FEFFC0120838B818F5FA5
:102C80008B838B81873080F382E077DF82E09CDF6B
:102C9000000061E080E490E070D08C81882311F422
:102CA00081E04EDF80E0A3DF2496CDBFDEBFDF9161
:102CB000CF910895CF93DF9300D0CDB7DEB78A834D
:102CC0006B83E3DE89838A81882F90E080599F4F50
:102CD0002A81222F30E020593F4FF9012081322FE5
:102CE0002B8120952323FC0120838981DEDE0000D7
:102CF0002396CDBFDEBFDF91CF910895CF93DF93B1
:102D000000D0CDB7DEB78A839B8320916D263091AA
:102D10006E268091712690917226AE014F5F5F4FB3
:102D2000BA01F90119958981082E000C990B239697
:102D3000CDBFDEBFDF91CF910895CF93DF9300D059
:102D4000CDB7DEB789836A837B8320916F2630916C
:102D5000702680917126909172266981F9011995EA
:102D600099231CF48FEF9FEF02C081E090E023963F
:102D7000CDBFDEBFDF91CF9108951BBEFC0128EDD2
:102D800024BF60830895CF93DF931F92CDB7DEB742
:102D90008FE390E0FC0180818983F89489810F9012
:102DA000DF91CF910895CF93DF931F92CDB7DEB718
:102DB00089838FE390E02981FC01208300000F903C
:102DC000DF91CF910895CF93DF931F921F92CDB7DC
:102DD000DEB78A838A81882F90E08959994DFC015A
:102DE00080818F3F09F4FFCFCEDF89838A81882FCE
:102DF00090E09C012959394DF90120812F5F8959B3
:102E0000994DFC0120838981CEDF00000F900F9047
:102E1000DF91CF910895CF93DF93CDB7DEB725979C
:102E2000CDBFDEBF000080E094E0FC018181882FEF
:102E300090E08170992721E0892B09F420E022237A
:102E400091F7A1DF8B8380917326909174268983FB
:102E50009A8380E094E0FC01808591858C839D833A
:102E60008C819D81892B79F480E094E0FC01838141
:102E7000882F90E081709927892B29F089819A8188
:102E8000019689839A838B818EDF89819A81CC0117
:102E9000A0E0B0E0AC01332722278C819D81CC01DA
:102EA000A0E0B0E0822B932BA42BB52BBC01CD016D
:102EB0002596CDBFDEBFDF91CF910895CF93DF93ED
:102EC000CDB7DEB764E080E0F5DE80E094E02FEF80
:102ED0003FEFFC012287338780E094E0FC011086FD
:102EE000118683E070DF80E094E021E0FC01228322
:102EF00080E094E025E0FC0120830000DF91CF9189
:102F000008951F920F9200903F000F92112400909D
:102F100038000F921092380000903A000F921092F1
:102F20003A008F939F93CF93DF93CDB7DEB7809115
:102F3000732690917426019680937326909374263D
:102F40000000DF91CF919F918F910F9000923A00F6
:102F50000F90009238000F9000923F000F901F904A
:102F600018951F920F9200903F000F92112400902D
:102F700038000F9210923800009039000F92109292
:102F8000390000903A000F9210923A0000903B00F6
:102F90000F9210923B002F933F934F935F936F9349
:102FA0007F938F939F93AF93BF93EF93FF93CF93B1
:102FB000DF93CDB7DEB72897CDBFDEBF2091732654
:102FC00030917426809175269091762628173907BE
:102FD00008F463C080E094E021E0FC01228380914A
:102FE000792690917A26892B09F457C0809173260F
:102FF00090917426CC01A0E0B0E0AC0133272227E9
:1030000080E094E0FC0180859185CC01A0E0B0E0F7
:10301000822B932BA42BB52B89839A83AB83BC8300
:103020008091752690917626CC01A0E0B0E0AC01AD
:10303000332722278091772690917826CC01A0E033
:10304000B0E0822B932BA42BB52B8D839E83AF8373
:10305000B8872D813E814F81588589819A81AB81C6
:10306000BC81281739074A075B0758F08D819E817C
:10307000AF81B8850196A11DB11D89839A83AB8369
:10308000BC832091792630917A2689819A81AB81FF
:10309000BC81BC01CD01F901199500002896CDBF76
:1030A000DEBFDF91CF91FF91EF91BF91AF919F91E3
:1030B0008F917F916F915F914F913F912F910F90E1
:1030C00000923B000F9000923A000F90009239005E
:1030D0000F90009238000F9000923F000F901F90C9
:1030E00018950F931F93CF93DF93CDB7DEB76097FB
:1030F000CDBFDEBF8F83988749875A876B877C87D0
:103100000D871E872F87388B2D853E854F855889E3
:1031100089859A85AB85BC85820F931FA41FB51F37
:103120000197A109B10929853A854B855C85BC01C8
:10313000CD010E94CA39DA01C9018A839B83AC831D
:10314000BD838A819B81AC81BD8181389105A105B8
:10315000B10510F08FEF35C08A818E838E81813466
:1031600018F083E089831FC08E81813218F082E0DD
:10317000898319C08E81813118F082E8898313C058
:103180008E81893018F081E089830DC08E81853071
:1031900018F081E8898307C08E81833010F019828E
:1031A00002C080E889838F819885FC018081982FF7
:1031B0009C778981892B282F8F819885FC0120831A
:1031C00081E06096CDBFDEBFDF91CF911F910F915F
:1031D00008951F920F9200903F000F9211240090CB
:1031E00038000F9210923800009039000F92109220
:1031F000390000903A000F9210923A0000903B0084
:103200000F9210923B002F933F934F935F936F93D6
:103210007F938F939F93AF93BF93EF93FF93CF933E
:10322000DF93CDB7DEB78091842090918520892BE4
:1032300031F08091842090918520FC011995000047
:10324000DF91CF91FF91EF91BF91AF919F918F91BE
:103250007F916F915F914F913F912F910F900092CD
:103260003B000F9000923A000F90009239000F90AF
:10327000009238000F9000923F000F901F90189519
:103280001F920F9200903F000F921124009038007F
:103290000F9210923800009039000F92109239006E
:1032A00000903A000F9210923A0000903B000F926B
:1032B00010923B002F933F934F935F936F937F93B5
:1032C0008F939F93AF93BF93EF93FF93CF93DF932E
:1032D000CDB7DEB78091862090918720892B31F081
:1032E0008091862090918720FC0119950000DF9144
:1032F000CF91FF91EF91BF91AF919F918F917F916E
:103300006F915F914F913F912F910F9000923B00F1
:103310000F9000923A000F90009239000F900092A7
:1033200038000F9000923F000F901F9018951F9249
:103330000F9200903F000F921124009038000F92DE
:1033400010923800009039000F92109239000090CE
:103350003A000F9210923A0000903B000F921092A8
:103360003B002F933F934F935F936F937F938F9384
:103370009F93AF93BF93EF93FF93CF93DF93CDB71B
:10338000DEB78091882090918920892B31F080913F
:10339000882090918920FC0119950000DF91CF9140
:1033A000FF91EF91BF91AF919F918F917F916F911D
:1033B0005F914F913F912F910F9000923B000F90A2
:1033C00000923A000F90009239000F90009238005E
:1033D0000F9000923F000F901F9018951F920F9230
:1033E00000903F000F921124009038000F9210922D
:1033F0003800009039000F921092390000903A0086
:103400000F9210923A0000903B000F9210923B00F6
:103410002F933F934F935F936F937F938F939F93DC
:10342000AF93BF93EF93FF93CF93DF93CDB7DEB707
:1034300080918A2090918B20892B31F080918A2075
:1034400090918B20FC0119950000DF91CF91FF91A5
:10345000EF91BF91AF919F918F917F916F915F910C
:103460004F913F912F910F9000923B000F9000924F
:103470003A000F90009239000F90009238000F90A0
:1034800000923F000F901F9018951F920F9200908E
:103490003F000F921124009038000F9210923800D4
:1034A000009039000F921092390000903A000F926C
:1034B00010923A0000903B000F9210923B002F9325
:1034C0003F934F935F936F937F938F939F93AF93AC
:1034D000BF93EF93FF93CF93DF93CDB7DEB7809188
:1034E0008C2090918D20892B31F080918C209091AF
:1034F0008D20FC0119950000DF91CF91FF91EF9194
:10350000BF91AF919F918F917F916F915F914F91FB
:103510003F912F910F9000923B000F9000923A0044
:103520000F90009239000F90009238000F90009297
:103530003F000F901F9018951F920F9200903F0030
:103540000F921124009038000F92109238000090D2
:1035500039000F921092390000903A000F921092A9
:103560003A0000903B000F9210923B002F933F9344
:103570004F935F936F937F938F939F93AF93BF937B
:10358000EF93FF93CF93DF93CDB7DEB780918E207B
:1035900090918F20892B31F080918E2090918F20F7
:1035A000FC0119950000DF91CF91FF91EF91BF9140
:1035B000AF919F918F917F916F915F914F913F91CB
:1035C0002F910F9000923B000F9000923A000F90C5
:1035D000009239000F90009238000F9000923F0047
:1035E0000F901F9018951F920F9200903F000F921E
:1035F0001124009038000F9210923800009039008A
:103600000F921092390000903A000F9210923A00F7
:1036100000903B000F9210923B002F933F934F93EB
:103620005F936F937F938F939F93AF93BF93EF932A
:10363000FF93CF93DF93CDB7DEB780919020909129
:103640009120892B31F08091902090919120FC0164
:1036500019950000DF91CF91FF91EF91BF91AF914C
:103660009F918F917F916F915F914F913F912F919A
:103670000F9000923B000F9000923A000F90009242
:1036800039000F90009238000F9000923F000F9089
:103690001F9018951F920F9200903F000F921124D7
:1036A000009038000F9210923800009039000F926D
:1036B0001092390000903A000F9210923A00009058
:1036C0003B000F9210923B002F933F934F935F93D9
:1036D0006F937F938F939F93AF93BF93EF93FF93DA
:1036E000CF93DF93CDB7DEB7809192209091932056
:1036F000892B31F08091922090919320FC011995B3
:103700000000DF91CF91FF91EF91BF91AF919F9119
:103710008F917F916F915F914F913F912F910F907A
:1037200000923B000F9000923A000F9000923900F7
:103730000F90009238000F9000923F000F901F9062
:1037400018951F920F9200903F000F921124009045
:1037500038000F9210923800009039000F921092AA
:10376000390000903A000F9210923A0000903B000E
:103770000F9210923B002F933F934F935F936F9361
:103780007F938F939F93AF93BF93EF93FF93CF93C9
:10379000DF93CDB7DEB78091942090919520892B4F
:1037A00031F08091942090919520FC0119950000B2
:1037B000DF91CF91FF91EF91BF91AF919F918F9149
:1037C0007F916F915F914F913F912F910F90009258
:1037D0003B000F9000923A000F90009239000F903A
:1037E000009238000F9000923F000F901F901895A4
:1037F0001F920F9200903F000F921124009038000A
:103800000F9210923800009039000F9210923900F8
:1038100000903A000F9210923A0000903B000F92F5
:1038200010923B002F933F934F935F936F937F933F
:103830008F939F93AF93BF93EF93FF93CF93DF93B8
:10384000CDB7DEB78091962090919720892B31F0EB
:103850008091962090919720FC0119950000DF91AE
:10386000CF91FF91EF91BF91AF919F918F917F91F8
:103870006F915F914F913F912F910F9000923B007C
:103880000F9000923A000F90009239000F90009232
:1038900038000F9000923F000F901F9018951F92D4
:1038A0000F9200903F000F921124009038000F9269
:1038B00010923800009039000F9210923900009059
:1038C0003A000F9210923A0000903B000F92109233
:1038D0003B002F933F934F935F936F937F938F930F
:1038E0009F93AF93BF93EF93FF93CF93DF93CDB7A6
:1038F000DEB78091982090919920892B31F08091AA
:10390000982090919920FC0119950000DF91CF91AA
:10391000FF91EF91BF91AF919F918F917F916F91A7
:103920005F914F913F912F910F9000923B000F902C
:1039300000923A000F90009239000F9000923800E8
:103940000F9000923F000F901F9018951F920F92BA
:1039500000903F000F921124009038000F921092B7
:103960003800009039000F921092390000903A0010
:103970000F9210923A0000903B000F9210923B0081
:103980002F933F934F935F936F937F938F939F9367
:10399000AF93BF93EF93FF93CF93DF93CDB7DEB792
:1039A00080919A2090919B20892B31F080919A20D0
:1039B00090919B20FC0119950000DF91CF91FF9120
:1039C000EF91BF91AF919F918F917F916F915F9197
:1039D0004F913F912F910F9000923B000F900092DA
:1039E0003A000F90009239000F90009238000F902B
:1039F00000923F000F901F9018951F920F92009019
:103A00003F000F921124009038000F92109238005E
:103A1000009039000F921092390000903A000F92F6
:103A200010923A0000903B000F9210923B002F93AF
:103A30003F934F935F936F937F938F939F93AF9336
:103A4000BF93EF93FF93CF93DF93CDB7DEB7809112
:103A50009C2090919D20892B31F080919C20909109
:103A60009D20FC0119950000DF91CF91FF91EF910E
:103A7000BF91AF919F918F917F916F915F914F9186
:103A80003F912F910F9000923B000F9000923A00CF
:103A90000F90009239000F90009238000F90009222
:103AA0003F000F901F9018951F920F9200903F00BB
:103AB0000F921124009038000F921092380000905D
:103AC00039000F921092390000903A000F92109234
:103AD0003A0000903B000F9210923B002F933F93CF
:103AE0004F935F936F937F938F939F93AF93BF9306
:103AF000EF93FF93CF93DF93CDB7DEB780919E20F6
:103B000090919F20892B31F080919E2090919F2051
:103B1000FC0119950000DF91CF91FF91EF91BF91CA
:103B2000AF919F918F917F916F915F914F913F9155
:103B30002F910F9000923B000F9000923A000F904F
:103B4000009239000F90009238000F9000923F00D1
:103B50000F901F9018951F920F9200903F000F92A8
:103B60001124009038000F92109238000090390014
:103B70000F921092390000903A000F9210923A0082
:103B800000903B000F9210923B002F933F934F9376
:103B90005F936F937F938F939F93AF93BF93EF93B5
:103BA000FF93CF93DF93CDB7DEB78091A0209091A4
:103BB000A120892B31F08091A0209091A120FC01BF
:103BC00019950000DF91CF91FF91EF91BF91AF91D7
:103BD0009F918F917F916F915F914F913F912F9125
:103BE0000F9000923B000F9000923A000F900092CD
:103BF00039000F90009238000F9000923F000F9014
:103C00001F9018951F920F9200903F000F92112461
:103C1000009038000F9210923800009039000F92F7
:103C20001092390000903A000F9210923A000090E2
:103C30003B000F9210923B002F933F934F935F9363
:103C40006F937F938F939F93AF93BF93EF93FF9364
:103C5000CF93DF93CDB7DEB78091A2209091A320C0
:103C6000892B31F08091A2209091A320FC0119951D
:103C70000000DF91CF91FF91EF91BF91AF919F91A4
:103C80008F917F916F915F914F913F912F910F9005
:103C900000923B000F9000923A000F900092390082
:103CA0000F90009238000F9000923F000F901F90ED
:103CB00018951F920F9200903F000F9211240090D0
:103CC00038000F9210923800009039000F92109235
:103CD000390000903A000F9210923A0000903B0099
:103CE0000F9210923B002F933F934F935F936F93EC
:103CF0007F938F939F93AF93BF93EF93FF93CF9354
:103D0000DF93CDB7DEB78091A4209091A520892BB9
:103D100031F08091A4209091A520FC01199500001C
:103D2000DF91CF91FF91EF91BF91AF919F918F91D3
:103D30007F916F915F914F913F912F910F900092E2
:103D40003B000F9000923A000F90009239000F90C4
:103D5000009238000F9000923F000F901F9018952E
:103D60001F920F9200903F000F9211240090380094
:103D70000F9210923800009039000F921092390083
:103D800000903A000F9210923A0000903B000F9280
:103D900010923B002F933F934F935F936F937F93CA
:103DA0008F939F93AF93BF93EF93FF93CF93DF9343
:103DB000CDB7DEB78091A6209091A720892B31F056
:103DC0008091A6209091A720FC0119950000DF9119
:103DD000CF91FF91EF91BF91AF919F918F917F9183
:103DE0006F915F914F913F912F910F9000923B0007
:103DF0000F9000923A000F90009239000F900092BD
:103E000038000F9000923F000F901F9018951F925E
:103E10000F9200903F000F921124009038000F92F3
:103E200010923800009039000F92109239000090E3
:103E30003A000F9210923A0000903B000F921092BD
:103E40003B002F933F934F935F936F937F938F9399
:103E50009F93AF93BF93EF93FF93CF93DF93CDB730
:103E6000DEB78091A8209091A920892B31F0809114
:103E7000A8209091A920FC0119950000DF91CF9115
:103E8000FF91EF91BF91AF919F918F917F916F9132
:103E90005F914F913F912F910F9000923B000F90B7
:103EA00000923A000F90009239000F900092380073
:103EB0000F9000923F000F901F9018951F920F9245
:103EC00000903F000F921124009038000F92109242
:103ED0003800009039000F921092390000903A009B
:103EE0000F9210923A0000903B000F9210923B000C
:103EF0002F933F934F935F936F937F938F939F93F2
:103F0000AF93BF93EF93FF93CF93DF93CDB7DEB71C
:103F10008091AA209091AB20892B31F08091AA202A
:103F20009091AB20FC0119950000DF91CF91FF919A
:103F3000EF91BF91AF919F918F917F916F915F9121
:103F40004F913F912F910F9000923B000F90009264
:103F50003A000F90009239000F90009238000F90B5
:103F600000923F000F901F9018951F920F920090A3
:103F70003F000F921124009038000F9210923800E9
:103F8000009039000F921092390000903A000F9281
:103F900010923A0000903B000F9210923B002F933A
:103FA0003F934F935F936F937F938F939F93AF93C1
:103FB000BF93EF93FF93CF93DF93CDB7DEB780919D
:103FC000AC209091AD20892B31F08091AC20909164
:103FD000AD20FC0119950000DF91CF91FF91EF9189
:103FE000BF91AF919F918F917F916F915F914F9111
:103FF0003F912F910F9000923B000F9000923A005A
:104000000F90009239000F90009238000F900092AC
:104010003F000F901F9018951F920F9200903F0045
:104020000F921124009038000F92109238000090E7
:1040300039000F921092390000903A000F921092BE
:104040003A0000903B000F9210923B002F933F9359
:104050004F935F936F937F938F939F93AF93BF9390
:10406000EF93FF93CF93DF93CDB7DEB78091AE2070
:104070009091AF20892B31F08091AE209091AF20AC
:10408000FC0119950000DF91CF91FF91EF91BF9155
:10409000AF919F918F917F916F915F914F913F91E0
:1040A0002F910F9000923B000F9000923A000F90DA
:1040B000009239000F90009238000F9000923F005C
:1040C0000F901F9018951F920F9200903F000F9233
:1040D0001124009038000F9210923800009039009F
:1040E0000F921092390000903A000F9210923A000D
:1040F00000903B000F9210923B002F933F934F9301
:104100005F936F937F938F939F93AF93BF93EF933F
:10411000FF93CF93DF93CDB7DEB78091B02090911E
:10412000B120892B31F08091B0209091B120FC0119
:1041300019950000DF91CF91FF91EF91BF91AF9161
:104140009F918F917F916F915F914F913F912F91AF
:104150000F9000923B000F9000923A000F90009257
:1041600039000F90009238000F9000923F000F909E
:104170001F9018951F920F9200903F000F921124EC
:10418000009038000F9210923800009039000F9282
:104190001092390000903A000F9210923A0000906D
:1041A0003B000F9210923B002F933F934F935F93EE
:1041B0006F937F938F939F93AF93BF93EF93FF93EF
:1041C000CF93DF93CDB7DEB78091B2209091B3202B
:1041D000892B31F08091B2209091B320FC01199588
:1041E0000000DF91CF91FF91EF91BF91AF919F912F
:1041F0008F917F916F915F914F913F912F910F9090
:1042000000923B000F9000923A000F90009239000C
:104210000F90009238000F9000923F000F901F9077
:1042200018951F920F9200903F000F92112400905A
:1042300038000F9210923800009039000F921092BF
:10424000390000903A000F9210923A0000903B0023
:104250000F9210923B002F933F934F935F936F9376
:104260007F938F939F93AF93BF93EF93FF93CF93DE
:10427000DF93CDB7DEB78091B4209091B520892B24
:1042800031F08091B4209091B520FC011995000087
:10429000DF91CF91FF91EF91BF91AF919F918F915E
:1042A0007F916F915F914F913F912F910F9000926D
:1042B0003B000F9000923A000F90009239000F904F
:1042C000009238000F9000923F000F901F901895B9
:1042D0001F920F9200903F000F921124009038001F
:1042E0000F9210923800009039000F92109239000E
:1042F00000903A000F9210923A0000903B000F920B
:1043000010923B002F933F934F935F936F937F9354
:104310008F939F93AF93BF93EF93FF93CF93DF93CD
:10432000CDB7DEB78091B6209091B720892B31F0C0
:104330008091B6209091B720FC0119950000DF9183
:10434000CF91FF91EF91BF91AF919F918F917F910D
:104350006F915F914F913F912F910F9000923B0091
:104360000F9000923A000F90009239000F90009247
:1043700038000F9000923F000F901F9018951F92E9
:104380000F9200903F000F921124009038000F927E
:1043900010923800009039000F921092390000906E
:1043A0003A000F9210923A0000903B000F92109248
:1043B0003B002F933F934F935F936F937F938F9324
:1043C0009F93AF93BF93EF93FF93CF93DF93CDB7BB
:1043D000DEB78091B8209091B920892B31F080917F
:1043E000B8209091B920FC0119950000DF91CF9180
:1043F000FF91EF91BF91AF919F918F917F916F91BD
:104400005F914F913F912F910F9000923B000F9041
:1044100000923A000F90009239000F9000923800FD
:104420000F9000923F000F901F9018951F920F92CF
:1044300000903F000F921124009038000F921092CC
:104440003800009039000F921092390000903A0025
:104450000F9210923A0000903B000F9210923B0096
:104460002F933F934F935F936F937F938F939F937C
:10447000AF93BF93EF93FF93CF93DF93CDB7DEB7A7
:104480008091BA209091BB20892B31F08091BA2085
:104490009091BB20FC0119950000DF91CF91FF9115
:1044A000EF91BF91AF919F918F917F916F915F91AC
:1044B0004F913F912F910F9000923B000F900092EF
:1044C0003A000F90009239000F90009238000F9040
:1044D00000923F000F901F9018951F920F9200902E
:1044E0003F000F921124009038000F921092380074
:1044F000009039000F921092390000903A000F920C
:1045000010923A0000903B000F9210923B002F93C4
:104510003F934F935F936F937F938F939F93AF934B
:10452000BF93EF93FF93CF93DF93CDB7DEB7809127
:10453000BC209091BD20892B31F08091BC209091BE
:10454000BD20FC0119950000DF91CF91FF91EF9103
:10455000BF91AF919F918F917F916F915F914F919B
:104560003F912F910F9000923B000F9000923A00E4
:104570000F90009239000F90009238000F90009237
:104580003F000F901F9018951F920F9200903F00D0
:104590000F921124009038000F9210923800009072
:1045A00039000F921092390000903A000F92109249
:1045B0003A0000903B000F9210923B002F933F93E4
:1045C0004F935F936F937F938F939F93AF93BF931B
:1045D000EF93FF93CF93DF93CDB7DEB78091BE20EB
:1045E0009091BF20892B31F08091BE209091BF2007
:1045F000FC0119950000DF91CF91FF91EF91BF91E0
:10460000AF919F918F917F916F915F914F913F916A
:104610002F910F9000923B000F9000923A000F9064
:10462000009239000F90009238000F9000923F00E6
:104630000F901F9018951F920F9200903F000F92BD
:104640001124009038000F92109238000090390029
:104650000F921092390000903A000F9210923A0097
:1046600000903B000F9210923B002F933F934F938B
:104670005F936F937F938F939F93AF93BF93EF93CA
:10468000FF93CF93DF93CDB7DEB78091C020909199
:10469000C120892B31F08091C0209091C120FC0174
:1046A00019950000DF91CF91FF91EF91BF91AF91EC
:1046B0009F918F917F916F915F914F913F912F913A
:1046C0000F9000923B000F9000923A000F900092E2
:1046D00039000F90009238000F9000923F000F9029
:1046E0001F9018951F920F9200903F000F92112477
:1046F000009038000F9210923800009039000F920D
:104700001092390000903A000F9210923A000090F7
:104710003B000F9210923B002F933F934F935F9378
:104720006F937F938F939F93AF93BF93EF93FF9379
:10473000CF93DF93CDB7DEB78091C2209091C32095
:10474000892B31F08091C2209091C320FC011995F2
:104750000000DF91CF91FF91EF91BF91AF919F91B9
:104760008F917F916F915F914F913F912F910F901A
:1047700000923B000F9000923A000F900092390097
:104780000F90009238000F9000923F000F901F9002
:1047900018951F920F9200903F000F9211240090E5
:1047A00038000F9210923800009039000F9210924A
:1047B000390000903A000F9210923A0000903B00AE
:1047C0000F9210923B002F933F934F935F936F9301
:1047D0007F938F939F93AF93BF93EF93FF93CF9369
:1047E000DF93CDB7DEB78091C4209091C520892B8F
:1047F00031F08091C4209091C520FC0119950000F2
:10480000DF91CF91FF91EF91BF91AF919F918F91E8
:104810007F916F915F914F913F912F910F900092F7
:104820003B000F9000923A000F90009239000F90D9
:10483000009238000F9000923F000F901F90189543
:104840001F920F9200903F000F92112400903800A9
:104850000F9210923800009039000F921092390098
:1048600000903A000F9210923A0000903B000F9295
:1048700010923B002F933F934F935F936F937F93DF
:104880008F939F93AF93BF93EF93FF93CF93DF9358
:10489000CDB7DEB78091C6209091C720892B31F02B
:1048A0008091C6209091C720FC0119950000DF91EE
:1048B000CF91FF91EF91BF91AF919F918F917F9198
:1048C0006F915F914F913F912F910F9000923B001C
:1048D0000F9000923A000F90009239000F900092D2
:1048E00038000F9000923F000F901F9018951F9274
:1048F0000F9200903F000F921124009038000F9209
:1049000010923800009039000F92109239000090F8
:104910003A000F9210923A0000903B000F921092D2
:104920003B002F933F934F935F936F937F938F93AE
:104930009F93AF93BF93EF93FF93CF93DF93CDB745
:10494000DEB78091C8209091C920892B31F08091E9
:10495000C8209091C920FC0119950000DF91CF91EA
:10496000FF91EF91BF91AF919F918F917F916F9147
:104970005F914F913F912F910F9000923B000F90CC
:1049800000923A000F90009239000F900092380088
:104990000F9000923F000F901F9018951F920F925A
:1049A00000903F000F921124009038000F92109257
:1049B0003800009039000F921092390000903A00B0
:1049C0000F9210923A0000903B000F9210923B0021
:1049D0002F933F934F935F936F937F938F939F9307
:1049E000AF93BF93EF93FF93CF93DF93CDB7DEB732
:1049F0008091CA209091CB20892B31F08091CA20E0
:104A00009091CB20FC0119950000DF91CF91FF918F
:104A1000EF91BF91AF919F918F917F916F915F9136
:104A20004F913F912F910F9000923B000F90009279
:104A30003A000F90009239000F90009238000F90CA
:104A400000923F000F901F9018951F920F920090B8
:104A50003F000F921124009038000F9210923800FE
:104A6000009039000F921092390000903A000F9296
:104A700010923A0000903B000F9210923B002F934F
:104A80003F934F935F936F937F938F939F93AF93D6
:104A9000BF93EF93FF93CF93DF93CDB7DEB78091B2
:104AA000CC209091CD20892B31F08091CC20909119
:104AB000CD20FC0119950000DF91CF91FF91EF917E
:104AC000BF91AF919F918F917F916F915F914F9126
:104AD0003F912F910F9000923B000F9000923A006F
:104AE0000F90009239000F90009238000F900092C2
:104AF0003F000F901F9018951F920F9200903F005B
:104B00000F921124009038000F92109238000090FC
:104B100039000F921092390000903A000F921092D3
:104B20003A0000903B000F9210923B002F933F936E
:104B30004F935F936F937F938F939F93AF93BF93A5
:104B4000EF93FF93CF93DF93CDB7DEB78091CE2065
:104B50009091CF20892B31F08091CE209091CF2061
:104B6000FC0119950000DF91CF91FF91EF91BF916A
:104B7000AF919F918F917F916F915F914F913F91F5
:104B80002F910F9000923B000F9000923A000F90EF
:104B9000009239000F90009238000F9000923F0071
:104BA0000F901F9018951F920F9200903F000F9248
:104BB0001124009038000F921092380000903900B4
:104BC0000F921092390000903A000F9210923A0022
:104BD00000903B000F9210923B002F933F934F9316
:104BE0005F936F937F938F939F93AF93BF93EF9355
:104BF000FF93CF93DF93CDB7DEB78091D020909114
:104C0000D120892B31F08091D0209091D120FC01CE
:104C100019950000DF91CF91FF91EF91BF91AF9176
:104C20009F918F917F916F915F914F913F912F91C4
:104C30000F9000923B000F9000923A000F9000926C
:104C400039000F90009238000F9000923F000F90B3
:104C50001F9018951F920F9200903F000F92112401
:104C6000009038000F9210923800009039000F9297
:104C70001092390000903A000F9210923A00009082
:104C80003B000F9210923B002F933F934F935F9303
:104C90006F937F938F939F93AF93BF93EF93FF9304
:104CA000CF93DF93CDB7DEB78091D2209091D32000
:104CB000892B31F08091D2209091D320FC0119955D
:104CC0000000DF91CF91FF91EF91BF91AF919F9144
:104CD0008F917F916F915F914F913F912F910F90A5
:104CE00000923B000F9000923A000F900092390022
:104CF0000F90009238000F9000923F000F901F908D
:104D000018951F920F9200903F000F92112400906F
:104D100038000F9210923800009039000F921092D4
:104D2000390000903A000F9210923A0000903B0038
:104D30000F9210923B002F933F934F935F936F938B
:104D40007F938F939F93AF93BF93EF93FF93CF93F3
:104D5000DF93CDB7DEB7E9D10000DF91CF91FF91AE
:104D6000EF91BF91AF919F918F917F916F915F91E3
:104D70004F913F912F910F9000923B000F90009226
:104D80003A000F90009239000F90009238000F9077
:104D900000923F000F901F9018951F920F92009065
:104DA0003F000F921124009038000F9210923800AB
:104DB000009039000F921092390000903A000F9243
:104DC00010923A0000903B000F9210923B002F93FC
:104DD0003F934F935F936F937F938F939F93AF9383
:104DE000BF93EF93FF93CF93DF93CDB7DEB79DD102
:104DF0000000DF91CF91FF91EF91BF91AF919F9113
:104E00008F917F916F915F914F913F912F910F9073
:104E100000923B000F9000923A000F9000923900F0
:104E20000F90009238000F9000923F000F901F905B
:104E300018951F920F9200903F000F92112400903E
:104E400038000F9210923800009039000F921092A3
:104E5000390000903A000F9210923A0000903B0007
:104E60000F9210923B002F933F934F935F936F935A
:104E70007F938F939F93AF93BF93EF93FF93CF93C2
:104E8000DF93CDB7DEB751D10000DF91CF91FF9115
:104E9000EF91BF91AF919F918F917F916F915F91B2
:104EA0004F913F912F910F9000923B000F900092F5
:104EB0003A000F90009239000F90009238000F9046
:104EC00000923F000F901F9018951F920F92009034
:104ED0003F000F921124009038000F92109238007A
:104EE000009039000F921092390000903A000F9212
:104EF00010923A0000903B000F9210923B002F93CB
:104F00003F934F935F936F937F938F939F93AF9351
:104F1000BF93EF93FF93CF93DF93CDB7DEB705D168
:104F20000000DF91CF91FF91EF91BF91AF919F91E1
:104F30008F917F916F915F914F913F912F910F9042
:104F400000923B000F9000923A000F9000923900BF
:104F50000F90009238000F9000923F000F901F902A
:104F60001895CF93DF93CDB7DEB72897CDBFDEBFBF
:104F70008091D4209091D52089839A838091D620E6
:104F80009091D7208B839C832091D8203091D92079
:104F90008B819C81FC018481958128173907E4F479
:104FA0008B819C8101968D839E838091D8209091E6
:104FB000D9209C012F5F3F4F2093D8203093D920D8
:104FC0009C018D819E81820F931FFC01208189812C
:104FD0009A81FC0127833FC02091DA203091DB20A9
:104FE0008B819C81FC01808591852817390760F5AC
:104FF0008091DC20882359F089819A81FC01868187
:10500000282F216089819A81FC01268324C08B810D
:105010009C81FC01868197818F8398878091DA201B
:105020009091DB209C012F5F3F4F2093DA2030933B
:10503000DB202F813885820F931FFC01208189811D
:105040009A81FC01278307C089819A8123E0FC01B2
:1050500023831092DE2000002896CDBFDEBFDF91B3
:10506000CF910895CF93DF9300D000D0CDB7DEB7B6
:105070008091D4209091D52089839A838091D620E5
:105080009091D7208B839C832091DA203091DB2074
:105090008B819C81FC018085918528173907B0F5AB
:1050A0008B819C81FC01868197818D839E83809179
:1050B000DA209091DB209C012F5F3F4F2093DA2074
:1050C0003093DB202D813E81820F931F29813A810D
:1050D000F9012781FC0120832091DA203091DB2027
:1050E0008B819C81FC01808591852817390730F4DC
:1050F00089819A8122E0FC01238310C089819A81F1
:1051000027E0FC0123831092DE2008C089819A8168
:1051100023E0FC01238389EF8093DE2000002696A4
:10512000CDBFDEBFDF91CF910895CF93DF931F9264
:10513000CDB7DEB78091D4209091D520FC01848139
:1051400089838981882F90E088709927892B99F02D
:105150008091D4209091D52029812860FC0124835E
:105160008091D4209091D52023E0FC01238386EF09
:105170008093DE202AC08981882F90E0847099274F
:10518000892B39F48981882F90E080719927892BA8
:1051900059F08091D4209091D52023E0FC01238305
:1051A0008FEF8093DE2011C08981882F90E080747A
:1051B0009927892B11F0D5DE08C08981882314F442
:1051C00051DF03C08BEF8093DE2000000F90DF9152
:1051D000CF910895CF93DF931F921F92CDB7DEB783
:1051E00089839A8389819A81FC018481282F206197
:1051F00089819A81FC01248300000F900F90DF9138
:10520000CF910895CF93DF93CDB7DEB72597CDBF6C
:10521000DEBF89839A836B834C832D839B818C8132
:10522000892B982F8D81882311F088E001C080E0C0
:10523000892B282F89819A81FC01258300002596DE
:10524000CDBFDEBFDF91CF910895CF93DF931F9243
:105250001F92CDB7DEB789839A8389819A81FC0139
:105260008481282F286089819A81FC012483000091
:105270000F900F90DF91CF910895CF93DF9300D0DF
:10528000CDB7DEB789839A836B8389819A81FC01CC
:105290008581982F9F738B81892B282F89819A81F3
:1052A000FC01258300002396CDBFDEBFDF91CF91A7
:1052B0000895CF93DF931F921F92CDB7DEB78983F6
:1052C0009A8389819A81FC018181882F90E0807284
:1052D000992721E0892B09F420E0822F0F900F906D
:1052E000DF91CF910895CF93DF931F921F92CDB797
:1052F000DEB789839A8389819A81FC018181882F15
:1053000090E08078992721E0892B09F420E0822F12
:105310000F900F90DF91CF910895CF93DF93CDB78A
:10532000DEB780E098E4A8EEB1E0BC01CD01DF91EA
:10533000CF910895CF93DF931F92CDB7DEB7198237
:10534000ECDFDC01CB012981222F30E004C0B695CF
:10535000A795979587952A95D2F7BC01CD010F9017
:10536000DF91CF910895CF93DF93CDB7DEB7E2DF22
:10537000DC01CB01BC01CD01DF91CF910895CF932A
:10538000DF93CDB7DEB7EFDFDC01CB01BC01CD0190
:10539000DF91CF910895CF93DF931F921F92CDB7E6
:1053A000DEB789839A8389819A81892B09F485C123
:1053B00089819A81803C910529F460E180E00E9416
:1053C0005A167BC189819A818034944029F468E01F
:1053D00080E00E945A1671C189819A81811594409A
:1053E00029F464E080E00E945A1667C189819A819D
:1053F0008038914029F462E080E00E945A165DC135
:1054000089819A818115914029F461E080E00E94B0
:105410005A1653C189819A818038934029F461E0FA
:1054200081E00E945A1649C189819A81803993404E
:1054300029F461E082E00E945A163FC189819A8175
:105440008115924029F462E081E00E945A1635C12C
:1054500089819A818034924029F462E082E00E943E
:105460005A162BC189819A818115934029F464E0F1
:1054700081E00E945A1621C189819A81803293402D
:1054800029F464E082E00E945A1617C189819A814A
:105490008115984029F461E083E00E945A160DC1FD
:1054A00089819A818115994029F461E084E00E9404
:1054B0005A1603C189819A8181159A4029F461E0C5
:1054C00085E00E945A16F9C089819A8181159B4016
:1054D00029F461E086E00E945A16EFC089819A8122
:1054E0008034984029F462E083E00E945A16E5C0B7
:1054F00089819A818034994029F462E084E00E9495
:105500005A16DBC089819A8180349A4029F462E07E
:1055100085E00E945A16D1C089819A8180349B40CF
:1055200029F462E086E00E945A16C7C089819A81F8
:105530008039984029F464E083E00E945A16BDC087
:1055400089819A818039994029F464E084E00E943D
:105550005A16B3C089819A8180399A4029F464E04F
:1055600085E00E945A16A9C089819A8180399B40A2
:1055700029F464E086E00E945A169FC089819A81CE
:10558000803C984029F468E083E00E945A1695C058
:1055900089819A81803C994029F468E084E00E94E6
:1055A0005A168BC089819A81803C9A4029F468E020
:1055B00085E00E945A1681C089819A81803C9B4077
:1055C00029F468E086E00E945A1677C089819A81A2
:1055D000803A984029F460E183E00E945A166DC039
:1055E00089819A81803A994029F460E184E00E949F
:1055F0005A1663C089819A81803A9A4029F460E101
:1056000085E00E945A1659C089819A81803A9B4050
:1056100029F460E186E00E945A164FC089819A8180
:10562000803B984029F460E283E00E945A1645C00E
:1056300089819A81803B994029F460E284E00E944C
:105640005A163BC089819A81803B9A4029F460E2D6
:1056500085E00E945A1631C089819A81803B9B4027
:1056600029F460E286E00E945A1627C089819A8157
:105670008038944029F460E483E00E945A161DC0EB
:1056800089819A818039944029F460E484E00E9401
:105690005A1613C089819A81803A944029F460E4B3
:1056A00085E00E945A1609C089819A81803B944006
:1056B00021F460E486E00E945A1600000F900F90DB
:1056C000DF91CF9108950F931F93CF93DF93CDB7C1
:1056D000DEB72597CDBFDEBF8A839B836C837D8336
:1056E0008A819B8158DE8A819B8160E0C6DD8C8146
:1056F0009D81FC0126818C819D81FC0145818C81ED
:105700009D81FC0134818A819B81632F7BDD37DEA3
:105710009B01AC018C819D81FC0180819181A281E2
:10572000B381EA81FB8189019A01AC01BD01CF01FE
:1057300048D089838A819B8188DD8A819B814ADD6B
:1057400089812596CDBFDEBFDF91CF911F910F914B
:105750000895CF93DF9300D0CDB7DEB789839A83C6
:105760006B83000089819A81A4DD982F81E08927CD
:105770008823C1F789819A812B81FC01208380E0F5
:1057800090E02396CDBFDEBFDF91CF910895CF93F8
:10579000DF931F921F92CDB7DEB789839A830000F3
:1057A00089819A81A0DD982F81E089278823C1F71C
:1057B00089819A81FC0180810F900F90DF91CF91B8
:1057C0000895EF92FF920F931F93CF93DF93CDB77E
:1057D000DEB76F97CDBFDEBF8E8B9F8B488F598F03
:1057E0006A8F7B8F0C8F1D8F2E8F3F8F8C8D9D8DA1
:1057F000AE8DBF8D689412F8B695A795979587954D
:105800001694D1F78E879F87A88BB98B8C8D9D8D31
:10581000AE8DBF8D072E76E1B695A79597958795A6
:105820007A95D1F7702D8A879B87AC87BD878E8943
:105830009F89FC018481882F90E084709927892BAF
:10584000C1F48E859F85A889B989B695A795979546
:1058500087958E879F87A88BB98B8A859B85AC851A
:10586000BD85B695A795979587958A879B87AC87C1
:10587000BD87288D398D4A8D5B8D8E859F85A88942
:10588000B98982179307A407B50768F0288D398D69
:105890004A8D5B8D8A859B85AC85BD852817390728
:1058A0004A075B0710F480E040C18E899F89FC01A4
:1058B0008481882F90E084709927892B61F4888DEA
:1058C000998DAA8DBB8D880F991FAA1FBB1F888F2A
:1058D000998FAA8FBB8F8FEF90E0A0E0B0E08E830E
:1058E0009F83A887B9878C8D9D8DAE8DBF8D288DA8
:1058F000398D4A8D5B8DBC01CD010E94CA39DA0118
:10590000C9018A8B9B8BAC8BBD8B89EF898328C0A7
:105910002A893B894C895D898E819F81A885B985BB
:10592000281739074A075B07F8F08E819F81A88501
:10593000B985880F991FAA1FBB1F8E839F83A887D5
:10594000B98789818D3F4CF48E819F81A885B98567
:1059500081608E839F83A887B98789818F5F8983C0
:1059600089818730ACF201C00000898188230CF066
:105970008AC0888D998DAA8DBB8D880F991FAA1F0B
:10598000BB1F880F991FAA1FBB1F880F991FAA1F33
:10599000BB1F9C01AD018C8D9D8DAE8DBF8D821B7B
:1059A000930BA40BB50B8C8F9D8FAE8FBF8F89810E
:1059B0008E3F94F58981082E000C990B2DEF3FEF57
:1059C000281B390B8C8D9D8DAE8DBF8D7C018D017B
:1059D00004C0EE0CFF1C001F111F2A95D2F7A8016E
:1059E0009701888D998DAA8DBB8DB695A7959795B2
:1059F0008795820F931FA41FB51F288D398D4A8D5F
:105A00005B8DBC01CD010E94CA39DA01C9018A83CC
:105A10009B83AC83BD8370C08981082E000C990BD9
:105A20009C012D5F3F4F888D998DAA8DBB8D04C041
:105A3000880F991FAA1FBB1F2A95D2F7888F998FAD
:105A4000AA8FBB8F888D998DAA8DBB8D9C01AD01CE
:105A500056954795379527958C8D9D8DAE8DBF8D2D
:105A6000820F931FA41FB51F288D398D4A8D5B8D22
:105A7000BC01CD010E94CA39DA01C9018A839B8326
:105A8000AC83BD8339C08981082E000C990B9C0121
:105A90002D5F3F4F888D998DAA8DBB8D04C0880FD7
:105AA000991FAA1FBB1F2A95D2F7888F998FAA8F9B
:105AB000BB8F888D998DAA8DBB8D9C01AD015695AC
:105AC0004795379527958C8D9D8DAE8DBF8D820F17
:105AD000931FA41FB51F288D398D4A8D5B8DBC0186
