S011000050726F746F747970652E737265633D
S1130000FDC0000021C100001FC100001DC100008F
S11300101BC1000019C1000017C1000015C1000078
S113002013C1000011C100008CC10000ADC100006B
S11300300BC100000C949F0B2BC2000061C2000096
S113004097C20000CDC2000003C3000039C3000002
S11300506FC30000A5C30000DBC3000011C400008F
S1130060F3C00000F1C00000EFC00000EDC00000CC
S1130070EBC00000E9C00000E7C00000E5C00000DC
S1130080E3C00000E1C00000DFC00000DDC00000EC
S1130090DBC00000D9C00000D7C00000D5C00000FC
S11300A0D3C00000D1C00000CFC00000CDC000000C
S11300B0CBC00000C9C000000C94030C49C600006A
S11300C07FC60000B5C60000EBC6000021C70000D3
S11300D057C700008DC70000C3C70000F9C7000060
S11300E00C94A008B1C00000AFC00000ADC0000077
S11300F0ABC00000A9C00000A7C00000A5C000005C
S1130100A3C00000A1C000009FC000009DC000006B
S11301109BC0000099C0000097C0000095C000007B
S113012093C0000091C000008FC000008DC000008B
S11301300C94D10BDDC3000013C4000049C40000BB
S11301407FC40000B5C40000EBC4000021C500005A
S113015057C500008DC50000C3C5000075C0000070
S113016073C0000071C000006FC000006DC00000CB
S11301706BC0000069C0000067C0000065C00000DB
S113018063C0000061C000005FC000005DC00000EB
S11301905BC0000059C0000057C0000055C00000FB
S11301A053C0000051C000004FC000000C94350C37
S11301B00C94D8080C9410090C9448090C948009E8
S11301C00C94B8090C94F0090C94280A0C94600A55
S11301D00C94980A0C94D00A37C0000035C0000073
S11301E033C0000031C000002FC000002DC000004B
S11301F02BC0000029C0000027C0000011241FBE2E
S1130200CFEFCDBFDFE3DEBF00E00CBF18BE19BEE9
S11302101ABE1BBE10E2A0E0B0E2E8E0FFE200E09C
S11302200BBF02C007900D92A633B107D9F71BBECE
S113023020E2A6E3B0E201C01D92AA3AB207E1F7B8
S11302400E94BE120C948217DBCECF93DF931F92D1
S11302501F92CDB7DEB78FEF80937000809371004B
S11302608093720080937300809374008093750070
S1130270809376008FB78A83F8949A81E0E5F0E062
S11302808081826080839FBF818181FFFDCF61E097
S113029080E490E050D08FB78983F8949981E0E5A9
S11302A0F0E080818E7F80839FBF0F900F90DF915D
S11302B0CF910895CF93DF931F92CDB7DEB79FB749
S11302C09983F8949981E82FF0E0E059FF4F609505
S11302D08081682360839FBF0F90DF91CF91089541
S11302E0CF93DF931F92CDB7DEB780919520909185
S11302F09620E0919120F0919220BE016F5F7F4F94
S113030019958981082E000C990B0F90DF91CF91DC
S11303100895682F8091952090919620E0919320E4
S1130320F0919420199599231CF081E090E00895B0
S11303308FEF9FEF08951BBEFC0128ED24BF60835F
S113034008951F920F920FB60F92112408B60F92C0
S113035018BE0BB60F921BBE8F939F93EF93FF9320
S1130360E7E9F0E280819181019680839183FF9196
S1130370EF919F918F910F900BBE0F9008BE0F903D
S11303800FBE0F901F9018951F920F920FB60F92E9
S1130390112408B60F9218BE09B60F9219BE0BB6F7
S11303A00F921BBECF92DF92EF92FF920F931F9397
S11303B02F933F934F935F936F937F938F939F9369
S11303C0AF93BF93EF93FF93E7E9F0E280819181CC
S11303D02281338182179307F0F121E020930204F4
S11303E0E0919D20F0919E203097A9F1609108043E
S11303F070910904A0E0B0E0DC0199278827AB01E3
S113040060E070E08C019D01042B152B262B372B0B
S1130410C901B801A7E9B0E212960D911C91139796
S113042020E030E09801112700271496CD90DC904D
S11304301597E12CF12C0C291D292E293F2906178B
S113044017072807390730F0C901B8016F5F7F4FDC
S11304508F4F9F4F1995FF91EF91BF91AF919F914E
S11304608F917F916F915F914F913F912F911F9148
S11304700F91FF90EF90DF90CF900F900BBE0F90F5
S113048009BE0F9008BE0F900FBE0F901F901895D5
S11304901F920F920FB60F92112408B60F9218BE36
S11304A009B60F9219BE0BB60F921BBE2F933F9342
S11304B04F935F936F937F938F939F93AF93BF9368
S11304C0EF93FF93E0918420F0918520309709F019
S11304D01995FF91EF91BF91AF919F918F917F916A
S11304E06F915F914F913F912F910F900BBE0F90A1
S11304F009BE0F9008BE0F900FBE0F901F90189565
S11305001F920F920FB60F92112408B60F9218BEC5
S113051009B60F9219BE0BB60F921BBE2F933F93D1
S11305204F935F936F937F938F939F93AF93BF93F7
S1130530EF93FF93E0918220F0918320309709F0AC
S11305401995FF91EF91BF91AF919F918F917F91F9
S11305506F915F914F913F912F910F900BBE0F9030
S113056009BE0F9008BE0F900FBE0F901F901895F4
S11305701F920F920FB60F92112408B60F9218BE55
S113058009B60F9219BE0BB60F921BBE2F933F9361
S11305904F935F936F937F938F939F93AF93BF9387
S11305A0EF93FF93E0918020F0918120309709F040
S11305B01995FF91EF91BF91AF919F918F917F9189
S11305C06F915F914F913F912F910F900BBE0F90C0
S11305D009BE0F9008BE0F900FBE0F901F90189584
S11305E01F920F920FB60F92112408B60F9218BEE5
S11305F009B60F9219BE0BB60F921BBE2F933F93F1
S11306004F935F936F937F938F939F93AF93BF9316
S1130610EF93FF93E0917E20F0917F20309709F0D3
S11306201995FF91EF91BF91AF919F918F917F9118
S11306306F915F914F913F912F910F900BBE0F904F
S113064009BE0F9008BE0F900FBE0F901F90189513
S11306501F920F920FB60F92112408B60F9218BE74
S113066009B60F9219BE0BB60F921BBE2F933F9380
S11306704F935F936F937F938F939F93AF93BF93A6
S1130680EF93FF93E0917C20F0917D20309709F067
S11306901995FF91EF91BF91AF919F918F917F91A8
S11306A06F915F914F913F912F910F900BBE0F90DF
S11306B009BE0F9008BE0F900FBE0F901F901895A3
S11306C01F920F920FB60F92112408B60F9218BE04
S11306D009B60F9219BE0BB60F921BBE2F933F9310
S11306E04F935F936F937F938F939F93AF93BF9336
S11306F0EF93FF93E0917A20F0917B20309709F0FB
S11307001995FF91EF91BF91AF919F918F917F9137
S11307106F915F914F913F912F910F900BBE0F906E
S113072009BE0F9008BE0F900FBE0F901F90189532
S11307301F920F920FB60F92112408B60F9218BE93
S113074009B60F9219BE0BB60F921BBE2F933F939F
S11307504F935F936F937F938F939F93AF93BF93C5
S1130760EF93FF93E0917820F0917920309709F08E
S11307701995FF91EF91BF91AF919F918F917F91C7
S11307806F915F914F913F912F910F900BBE0F90FE
S113079009BE0F9008BE0F900FBE0F901F901895C2
S11307A01F920F920FB60F92112408B60F9218BE23
S11307B009B60F9219BE0BB60F921BBE2F933F932F
S11307C04F935F936F937F938F939F93AF93BF9355
S11307D0EF93FF93E0917620F0917720309709F022
S11307E01995FF91EF91BF91AF919F918F917F9157
S11307F06F915F914F913F912F910F900BBE0F908E
S113080009BE0F9008BE0F900FBE0F901F90189551
S11308101F920F920FB60F92112408B60F9218BEB2
S113082009B60F9219BE0BB60F921BBE2F933F93BE
S11308304F935F936F937F938F939F93AF93BF93E4
S1130840EF93FF93E0917420F0917520309709F0B5
S11308501995FF91EF91BF91AF919F918F917F91E6
S11308606F915F914F913F912F910F900BBE0F901D
S113087009BE0F9008BE0F900FBE0F901F901895E1
S11308801F920F920FB60F92112408B60F9218BE42
S113089009B60F9219BE0BB60F921BBE2F933F934E
S11308A04F935F936F937F938F939F93AF93BF9374
S11308B0EF93FF93E0917220F0917320309709F049
S11308C01995FF91EF91BF91AF919F918F917F9176
S11308D06F915F914F913F912F910F900BBE0F90AD
S11308E009BE0F9008BE0F900FBE0F901F90189571
S11308F01F920F920FB60F92112408B60F9218BED2
S113090009B60F9219BE0BB60F921BBE2F933F93DD
S11309104F935F936F937F938F939F93AF93BF9303
S1130920EF93FF93E0917020F0917120309709F0DC
S11309301995FF91EF91BF91AF919F918F917F9105
S11309406F915F914F913F912F910F900BBE0F903C
S113095009BE0F9008BE0F900FBE0F901F90189500
S11309601F920F920FB60F92112408B60F9218BE61
S113097009B60F9219BE0BB60F921BBE2F933F936D
S11309804F935F936F937F938F939F93AF93BF9393
S1130990EF93FF93E0916E20F0916F20309709F070
S11309A01995FF91EF91BF91AF919F918F917F9195
S11309B06F915F914F913F912F910F900BBE0F90CC
S11309C009BE0F9008BE0F900FBE0F901F90189590
S11309D01F920F920FB60F92112408B60F9218BEF1
S11309E009B60F9219BE0BB60F921BBE2F933F93FD
S11309F04F935F936F937F938F939F93AF93BF9323
S1130A00EF93FF93E0916C20F0916D20309709F003
S1130A101995FF91EF91BF91AF919F918F917F9124
S1130A206F915F914F913F912F910F900BBE0F905B
S1130A3009BE0F9008BE0F900FBE0F901F9018951F
S1130A401F920F920FB60F92112408B60F9218BE80
S1130A5009B60F9219BE0BB60F921BBE2F933F938C
S1130A604F935F936F937F938F939F93AF93BF93B2
S1130A70EF93FF93E0916A20F0916B20309709F097
S1130A801995FF91EF91BF91AF919F918F917F91B4
S1130A906F915F914F913F912F910F900BBE0F90EB
S1130AA009BE0F9008BE0F900FBE0F901F901895AF
S1130AB01F920F920FB60F92112408B60F9218BE10
S1130AC009B60F9219BE0BB60F921BBE2F933F931C
S1130AD04F935F936F937F938F939F93AF93BF9342
S1130AE0EF93FF93E0916820F0916920309709F02B
S1130AF01995FF91EF91BF91AF919F918F917F9144
S1130B006F915F914F913F912F910F900BBE0F907A
S1130B1009BE0F9008BE0F900FBE0F901F9018953E
S1130B201F920F920FB60F92112408B60F9218BE9F
S1130B3009B60F9219BE0BB60F921BBE2F933F93AB
S1130B404F935F936F937F938F939F93AF93BF93D1
S1130B50EF93FF93E0916620F0916720309709F0BE
S1130B601995FF91EF91BF91AF919F918F917F91D3
S1130B706F915F914F913F912F910F900BBE0F900A
S1130B8009BE0F9008BE0F900FBE0F901F901895CE
S1130B901F920F920FB60F92112408B60F9218BE2F
S1130BA009B60F9219BE0BB60F921BBE2F933F933B
S1130BB04F935F936F937F938F939F93AF93BF9361
S1130BC0EF93FF93E0916420F0916520309709F052
S1130BD01995FF91EF91BF91AF919F918F917F9163
S1130BE06F915F914F913F912F910F900BBE0F909A
S1130BF009BE0F9008BE0F900FBE0F901F9018955E
S1130C001F920F920FB60F92112408B60F9218BEBE
S1130C1009B60F9219BE0BB60F921BBE2F933F93CA
S1130C204F935F936F937F938F939F93AF93BF93F0
S1130C30EF93FF93E0916220F0916320309709F0E5
S1130C401995FF91EF91BF91AF919F918F917F91F2
S1130C506F915F914F913F912F910F900BBE0F9029
S1130C6009BE0F9008BE0F900FBE0F901F901895ED
S1130C701F920F920FB60F92112408B60F9218BE4E
S1130C8009B60F9219BE0BB60F921BBE2F933F935A
S1130C904F935F936F937F938F939F93AF93BF9380
S1130CA0EF93FF93E0916020F0916120309709F079
S1130CB01995FF91EF91BF91AF919F918F917F9182
S1130CC06F915F914F913F912F910F900BBE0F90B9
S1130CD009BE0F9008BE0F900FBE0F901F9018957D
S1130CE01F920F920FB60F92112408B60F9218BEDE
S1130CF009B60F9219BE0BB60F921BBE2F933F93EA
S1130D004F935F936F937F938F939F93AF93BF930F
S1130D10EF93FF93E0915E20F0915F20309709F00C
S1130D201995FF91EF91BF91AF919F918F917F9111
S1130D306F915F914F913F912F910F900BBE0F9048
S1130D4009BE0F9008BE0F900FBE0F901F9018950C
S1130D501F920F920FB60F92112408B60F9218BE6D
S1130D6009B60F9219BE0BB60F921BBE2F933F9379
S1130D704F935F936F937F938F939F93AF93BF939F
S1130D80EF93FF93E0915C20F0915D20309709F0A0
S1130D901995FF91EF91BF91AF919F918F917F91A1
S1130DA06F915F914F913F912F910F900BBE0F90D8
S1130DB009BE0F9008BE0F900FBE0F901F9018959C
S1130DC01F920F920FB60F92112408B60F9218BEFD
S1130DD009B60F9219BE0BB60F921BBE2F933F9309
S1130DE04F935F936F937F938F939F93AF93BF932F
S1130DF0EF93FF93E0915A20F0915B20309709F034
S1130E001995FF91EF91BF91AF919F918F917F9130
S1130E106F915F914F913F912F910F900BBE0F9067
S1130E2009BE0F9008BE0F900FBE0F901F9018952B
S1130E301F920F920FB60F92112408B60F9218BE8C
S1130E4009B60F9219BE0BB60F921BBE2F933F9398
S1130E504F935F936F937F938F939F93AF93BF93BE
S1130E60EF93FF93E0915820F0915920309709F0C7
S1130E701995FF91EF91BF91AF919F918F917F91C0
S1130E806F915F914F913F912F910F900BBE0F90F7
S1130E9009BE0F9008BE0F900FBE0F901F901895BB
S1130EA01F920F920FB60F92112408B60F9218BE1C
S1130EB009B60F9219BE0BB60F921BBE2F933F9328
S1130EC04F935F936F937F938F939F93AF93BF934E
S1130ED0EF93FF93E0915620F0915720309709F05B
S1130EE01995FF91EF91BF91AF919F918F917F9150
S1130EF06F915F914F913F912F910F900BBE0F9087
S1130F0009BE0F9008BE0F900FBE0F901F9018954A
S1130F101F920F920FB60F92112408B60F9218BEAB
S1130F2009B60F9219BE0BB60F921BBE2F933F93B7
S1130F304F935F936F937F938F939F93AF93BF93DD
S1130F40EF93FF93E0915420F0915520309709F0EE
S1130F501995FF91EF91BF91AF919F918F917F91DF
S1130F606F915F914F913F912F910F900BBE0F9016
S1130F7009BE0F9008BE0F900FBE0F901F901895DA
S1130F801F920F920FB60F92112408B60F9218BE3B
S1130F9009B60F9219BE0BB60F921BBE2F933F9347
S1130FA04F935F936F937F938F939F93AF93BF936D
S1130FB0EF93FF93E0915220F0915320309709F082
S1130FC01995FF91EF91BF91AF919F918F917F916F
S1130FD06F915F914F913F912F910F900BBE0F90A6
S1130FE009BE0F9008BE0F900FBE0F901F9018956A
S1130FF01F920F920FB60F92112408B60F9218BECB
S113100009B60F9219BE0BB60F921BBE2F933F93D6
S11310104F935F936F937F938F939F93AF93BF93FC
S1131020EF93FF93E0915020F0915120309709F015
S11310301995FF91EF91BF91AF919F918F917F91FE
S11310406F915F914F913F912F910F900BBE0F9035
S113105009BE0F9008BE0F900FBE0F901F901895F9
S11310601F920F920FB60F92112408B60F9218BE5A
S113107009B60F9219BE0BB60F921BBE2F933F9366
S11310804F935F936F937F938F939F93AF93BF938C
S1131090EF93FF93E0914E20F0914F20309709F0A9
S11310A01995FF91EF91BF91AF919F918F917F918E
S11310B06F915F914F913F912F910F900BBE0F90C5
S11310C009BE0F9008BE0F900FBE0F901F90189589
S11310D01F920F920FB60F92112408B60F9218BEEA
S11310E009B60F9219BE0BB60F921BBE2F933F93F6
S11310F04F935F936F937F938F939F93AF93BF931C
S1131100EF93FF93E0914C20F0914D20309709F03C
S11311101995FF91EF91BF91AF919F918F917F911D
S11311206F915F914F913F912F910F900BBE0F9054
S113113009BE0F9008BE0F900FBE0F901F90189518
S11311401F920F920FB60F92112408B60F9218BE79
S113115009B60F9219BE0BB60F921BBE2F933F9385
S11311604F935F936F937F938F939F93AF93BF93AB
S1131170EF93FF93E0914A20F0914B20309709F0D0
S11311801995FF91EF91BF91AF919F918F917F91AD
S11311906F915F914F913F912F910F900BBE0F90E4
S11311A009BE0F9008BE0F900FBE0F901F901895A8
S11311B01F920F920FB60F92112408B60F9218BE09
S11311C009B60F9219BE0BB60F921BBE2F933F9315
S11311D04F935F936F937F938F939F93AF93BF933B
S11311E0EF93FF93E0914820F0914920309709F064
S11311F01995FF91EF91BF91AF919F918F917F913D
S11312006F915F914F913F912F910F900BBE0F9073
S113121009BE0F9008BE0F900FBE0F901F90189537
S11312201F920F920FB60F92112408B60F9218BE98
S113123009B60F9219BE0BB60F921BBE2F933F93A4
S11312404F935F936F937F938F939F93AF93BF93CA
S1131250EF93FF93E0914620F0914720309709F0F7
S11312601995FF91EF91BF91AF919F918F917F91CC
S11312706F915F914F913F912F910F900BBE0F9003
S113128009BE0F9008BE0F900FBE0F901F901895C7
S11312901F920F920FB60F92112408B60F9218BE28
S11312A009B60F9219BE0BB60F921BBE2F933F9334
S11312B04F935F936F937F938F939F93AF93BF935A
S11312C0EF93FF93E0914420F0914520309709F08B
S11312D01995FF91EF91BF91AF919F918F917F915C
S11312E06F915F914F913F912F910F900BBE0F9093
S11312F009BE0F9008BE0F900FBE0F901F90189557
S11313001F920F920FB60F92112408B60F9218BEB7
S113131009B60F9219BE0BB60F921BBE2F933F93C3
S11313204F935F936F937F938F939F93AF93BF93E9
S1131330EF93FF93E0914220F0914320309709F01E
S11313401995FF91EF91BF91AF919F918F917F91EB
S11313506F915F914F913F912F910F900BBE0F9022
S113136009BE0F9008BE0F900FBE0F901F901895E6
S11313701F920F920FB60F92112408B60F9218BE47
S113138009B60F9219BE0BB60F921BBE2F933F9353
S11313904F935F936F937F938F939F93AF93BF9379
S11313A0EF93FF93E0914020F0914120309709F0B2
S11313B01995FF91EF91BF91AF919F918F917F917B
S11313C06F915F914F913F912F910F900BBE0F90B2
S11313D009BE0F9008BE0F900FBE0F901F90189576
S11313E01F920F920FB60F92112408B60F9218BED7
S11313F009B60F9219BE0BB60F921BBE2F933F93E3
S11314004F935F936F937F938F939F93AF93BF9308
S1131410EF93FF93E0913E20F0913F20309709F045
S11314201995FF91EF91BF91AF919F918F917F910A
S11314306F915F914F913F912F910F900BBE0F9041
S113144009BE0F9008BE0F900FBE0F901F90189505
S11314501F920F920FB60F92112408B60F9218BE66
S113146009B60F9219BE0BB60F921BBE2F933F9372
S11314704F935F936F937F938F939F93AF93BF9398
S1131480EF93FF93E0913C20F0913D20309709F0D9
S11314901995FF91EF91BF91AF919F918F917F919A
S11314A06F915F914F913F912F910F900BBE0F90D1
S11314B009BE0F9008BE0F900FBE0F901F90189595
S11314C01F920F920FB60F92112408B60F9218BEF6
S11314D009B60F9219BE0BB60F921BBE2F933F9302
S11314E04F935F936F937F938F939F93AF93BF9328
S11314F0EF93FF93E0913A20F0913B20309709F06D
S11315001995FF91EF91BF91AF919F918F917F9129
S11315106F915F914F913F912F910F900BBE0F9060
S113152009BE0F9008BE0F900FBE0F901F90189524
S11315301F920F920FB60F92112408B60F9218BE85
S113154009B60F9219BE0BB60F921BBE2F933F9391
S11315504F935F936F937F938F939F93AF93BF93B7
S1131560EF93FF93E0913820F0913920309709F000
S11315701995FF91EF91BF91AF919F918F917F91B9
S11315806F915F914F913F912F910F900BBE0F90F0
S113159009BE0F9008BE0F900FBE0F901F901895B4
S11315A01F920F920FB60F92112408B60F9218BE15
S11315B009B60F9219BE0BB60F921BBE2F933F9321
S11315C04F935F936F937F938F939F93AF93BF9347
S11315D0EF93FF93E0913620F0913720309709F094
S11315E01995FF91EF91BF91AF919F918F917F9149
S11315F06F915F914F913F912F910F900BBE0F9080
S113160009BE0F9008BE0F900FBE0F901F90189543
S1131610CF93DF93E0918620F0918720848183FF2C
S113162008C08860848383E0838386EF809390205E
S113163083C0982F947131F083E083838FEF80937C
S113164090207AC086FF43C0C6E8D0E2AA81BB815D
S11316508C819D8114962D913C9115978217930747
S11316606CF49C012F5F3F4F20938A2030938B2092
S1131670A80FB91F11968C9187835EC080918C202E
S113168090918D2018962D913C911997821793076C
S1131690C8F420918E20222321F0868181608683E4
S11316A04BC016962D913C911797AC014F5F5F4F3D
S11316B040938C2050938D20D901A80FB91F8C9191
S11316C087833AC083E083831092902035C08823B7
S11316D084F5A6E8B0E21296CD91DC9113971696A4
S11316E08D919C9117972885398582179307D8F493
S11316F06E817F819C012F5F3F4F20938C2030931C
S11317008D204781DB01A80FB91F4C9388859985EB
S11317102817390718F482E083830EC087E0838397
S11317201092902009C083E0838389EF80939020F6
S113173003C08BEF80939020DF91CF9108951F9287
S11317400F920FB60F92112408B60F9218BE09B665
S11317500F9219BE0BB60F921BBE2F933F934F935C
S11317605F936F937F938F939F93AF93BF93EF9305
S1131770FF934EDFFF91EF91BF91AF919F918F91B6
S11317807F916F915F914F913F912F910F900BBE7D
S11317900F9009BE0F9008BE0F900FBE0F901F90C0
S11317A018951F920F920FB60F92112408B60F923C
S11317B018BE09B60F9219BE0BB60F921BBE2F931B
S11317C03F934F935F936F937F938F939F93AF93C5
S11317D0BF93EF93FF931CDFFF91EF91BF91AF9104
S11317E09F918F917F916F915F914F913F912F9135
S11317F00F900BBE0F9009BE0F9008BE0F900FBE46
S11318000F901F9018951F920F920FB60F921124EC
S113181008B60F9218BE09B60F9219BE0BB60F92F6
S11318201BBE2F933F934F935F936F937F938F933D
S11318309F93AF93BF93EF93FF93EADEFF91EF91F2
S1131840BF91AF919F918F917F916F915F914F91D4
S11318503F912F910F900BBE0F9009BE0F9008BEC1
S11318600F900FBE0F901F9018951F920F920FB6F6
S11318700F92112408B60F9218BE09B60F9219BE22
S11318800BB60F921BBE2F933F934F935F936F93AF
S11318907F938F939F93AF93BF93EF93FF93B8DEA0
S11318A0FF91EF91BF91AF919F918F917F916F9134
S11318B05F914F913F912F910F900BBE0F9009BEF6
S11318C00F9008BE0F900FBE0F901F901895FC014B
S11318D0DB0114968C91858388EB818381E084837A
S11318E0E6E8F0E211861286E0EAF0E082818260A6
S11318F08283789480E00895CF93DF931F92CDB7CD
S1131900DEB79C01FB01892B09F451C0309709F41F
S113191050C0928580918F20882319F09923F1F388
S11319204AC08FB78983F8948981A6E8B0E291E030
S113193019969C93199790E81A969C931A978FBFBF
S11319402D933C93119712966D937C931397149651
S11319501D921C92159716961D921C921797189615
S11319604C938081880F64817581672B11F4411138
S113197003C0F901868303C08160F9018683E6E828
S1131980F0E292859038E9F3F90184818370813023
S113199049F0A6E8B0E2ED91FC911197848183703F
S11319A08130C9F7E6E8F0E28285118605C088EF48
S11319B003C088EF01C086EF0F90DF91CF910895A7
S11319C0FC01918195FFFDCF608380E090E0089554
S11319D0FC0191819923ECF7808108954F925F92E5
S11319E06F927F928F929F92AF92BF92EF92FF92EB
S11319F00F931F93CF937C014A015B0128013901A6
S1131A00FC01848182FF16C0D901C801689412F8D0
S1131A10B695A795979587951694D1F7B901A8011E
S1131A20032E36E176956795579547953A95D1F704
S1131A30302D15C0D901C801689413F8B695A7953F
S1131A40979587951694D1F7B901A801032E37E12C
S1131A5076956795579547953A95D1F7302D881522
S1131A609905AA05BB0508F4A2C084169506A60626
S1131A70B70608F49EC0F701848182FD04C0880C77
S1131A80991CAA1CBB1CC301B201A5019401A2D5D7
S1131A902F3F31054105510508F48DC08FEF90E0CB
S1131AA0A0E0B0E0C9EF05C0281739074A075B0773
S1131AB058F0880F991FAA1FBB1FCD3F0CF48160FB
S1131AC0CF5FC73089F74DC0CC230CF04AC0D50195
S1131AD0C401880F991FAA1FBB1F880F991FAA1F33
S1131AE0BB1F880F991FAA1FBB1F481A590A6A0AED
S1131AF07B0ACE3FECF48DEF9FEF8C1B9109C7FD61
S1131B00939504C0440C551C661C771C8A95D2F727
S1131B10D501C401B695A79597958795BC01CD01CC
S1131B20640D751D861D971DA501940153D535C0FF
S1131B3083E08C0FA501940104C0220F331F441FBE
S1131B40551F8A95D2F7DA01C901B695A7959795DD
S1131B508795BC01CD01640D751D861D971D3AD571
S1131B601CC083E08C0FA501940104C0220F331F15
S1131B70441F551F8A95D2F7DA01C901B695A79576
S1131B8097958795BC01CD01640D751D861D971D24
S1131B9021D52150310941095109832F8F70C295F4
S1131BA0C07FC82BF701C783268381E018C080E07B
S1131BB016C080E014C0D501C401880F991FAA1F64
S1131BC0BB1F880F991FAA1FBB1F880F991FAA1F2D
S1131BD0BB1F481A590A6A0A7B0AC9EF8CCFCF91F6
S1131BE01F910F91FF90EF90BF90AF909F908F90B7
S1131BF07F906F905F904F9008950F931F93CF93B2
S1131C00DF93EC018B01009709F45DC1803C9105E1
S1131C1029F460E180E00E945A0155C1C03484E097
S1131C20D80729F468E080E00E945A014CC1C1152C
S1131C30E4E0DE0729F464E080E00E945A0143C135
S1131C40C038F1E0DF0729F462E080E00E945A0125
S1131C503AC1C11581E0D80729F461E080E00E940F
S1131C605A0131C1C038E3E0DE0729F461E081E0C4
S1131C700E945A0128C1C039F3E0DF0729F461E06A
S1131C8082E00E945A011FC1C11582E0D80729F4DD
S1131C9062E081E00E945A0116C1C034E2E0DE072E
S1131CA029F462E082E00E945A010DC1C115F3E0FB
S1131CB0DF0729F464E081E00E945A0104C1C032C4
S1131CC083E0D80729F464E082E00E945A01FBC053
S1131CD0C115E8E0DE0729F461E083E00E945A01BF
S1131CE0F2C0C115F9E0DF0729F461E084E00E9445
S1131CF05A01E9C0C1158AE0D80729F461E085E0FA
S1131D000E945A01E0C0C115EBE0DE0729F461E04E
S1131D1086E00E945A01D7C0C034F8E0DF0729F4F6
S1131D2062E083E00E945A01CEC0C03489E0D80743
S1131D3029F462E084E00E945A01C5C0C034EAE09C
S1131D40DE0729F462E085E00E945A01BCC0C03479
S1131D50FBE0DF0729F462E086E00E945A01B3C089
S1131D60C03988E0D80729F464E083E00E945A016E
S1131D70AAC0C039E9E0DE0729F464E084E00E94E7
S1131D805A01A1C0C039FAE0DF0729F464E085E014
S1131D900E945A0198C0C0398BE0D80729F464E046
S1131DA086E00E945A018FC0C03CE8E0DE0729F4B7
S1131DB068E083E00E945A0186C0C03CF9E0DF0776
S1131DC029F468E084E00E945A017DC0C03C8AE0A6
S1131DD0D80729F468E085E00E945A0174C0C03C29
S1131DE0EBE0DE0729F468E086E00E945A016BC04C
S1131DF0C03AF8E0DF0729F460E183E00E945A0169
S1131E0062C0C03A89E0D80729F460E184E00E9406
S1131E105A0159C0C03AEAE0DE0729F460E185E0DE
S1131E200E945A0150C0C03AFBE0DF0729F460E188
S1131E3086E00E945A0147C0C03B88E0D80729F4D5
S1131E4060E283E00E945A013EC0C03BE9E0DE0745
S1131E5029F460E284E00E945A0135C0C03BFAE0F4
S1131E60DF0729F460E285E00E945A012CC0C03BE0
S1131E708BE0D80729F460E286E00E945A0123C06F
S1131E80C038E4E0DE0729F460E483E00E945A01EC
S1131E901AC0C039F4E0DF0729F460E484E00E944A
S1131EA05A0111C0C03A84E0D80729F460E485E0FF
S1131EB00E945A0108C0C03BE4E0DE0721F460E45C
S1131EC086E00E945A018D818F738D83F80195817C
S1131ED08481892B9681911198E0892B8D83F80157
S1131EE0408151816281738100E018E428EE31E081
S1131EF0CE0174DD9C8198609C839C8190619C835D
S1131F00DF91CF911F910F910895CF93DF93FC013F
S1131F1020E030E0C62FD0E0DE01022E02C0B595ED
S1131F20A7950A94E2F7A0FD508B2F5F3F4F31969F
S1131F302830310589F740FF0AC041FF03C0FC0186
S1131F40658302C0FC016683FC01618302C0FC015D
S1131F506283DF91CF91089543E050E068E080EC24
S1131F6097E0D3DF40E058E164E080EC97E0CDCF28
S1131F7008950F931F93CF93DF93CDB7DEB72997BF
S1131F80CDBFDEBF40939F208E010F5F1F4F29E01E
S1131F90F80111922A95E9F769837A838B839C83EC
S1131FA049879B01AC01220F331F441F551F60E07A
S1131FB078E488EE91E00ED3DA01C9010597A1090E
S1131FC0B1098D839E83AF83B88760E483E00E9468
S1131FD05A01B80180E894E07ADC2996CDBFDEBFCF
S1131FE0DF91CF911F910F910895CF93DF93CDB7D8
S1131FF0DEB72B97CDBFDEBFFE0131962BE0DF01AC
S11320001D922A95E9F769834A8321E030E02D8304
S11320103E838F83988729873A8741E0BF0180E810
S113202094E06ADC2B96CDBFDEBFDF91CF9108959B
S1132030462F68E2DACF0895CF93DF931F92CDB78E
S1132040DEB78FEF898362E0CE010196F1DF8981EB
S11320500F90DF91CF910895CF93DF93EB01B8DC1C
S11320608883DF91CF910895ABCC0895EF92FF92CE
S11320700F931F93CF93DF93CDB7DEB72797CDBFD1
S1132080DEBF7C01FC0186819781A085B1858093A8
S11320900D2090930E20A0930F20B0931020019058
S11320A0F081E02D9081D70115968C911597892B9D
S11320B08083ED91FC911197948115968C911597DD
S11320C0892B8483ED91FC911197908114968C91C6
S11320D0149780958923808312960D911C911397F0
S11320E00115110509F4C5C1003C110529F460E18D
S11320F080E00E945A0154C10034B4E01B0729F463
S113210068E080E00E945A014BC10115E4E01E071B
S113211029F464E080E00E945A0142C10038F1E0F1
S11321201F0729F462E080E00E945A0139C10115B9
S113213081E0180729F461E080E00E945A0130C16F
S11321400038A3E01A0729F461E081E00E945A01F3
S113215027C10039B3E01B0729F461E082E00E9443
S11321605A011EC10115E2E01E0729F462E081E074
S11321700E945A0115C10034F2E01F0729F462E0FD
S113218082E00E945A010CC1011583E0180729F46A
S113219064E081E00E945A0103C10032A3E01A07FF
S11321A029F464E082E00E945A01FAC00115B8E003
S11321B01B0729F461E083E00E945A01F1C0011574
S11321C0E9E01E0729F461E084E00E945A01E8C0B6
S11321D00115FAE01F0729F461E085E00E945A0125
S11321E0DFC001158BE0180729F461E086E00E9446
S11321F05A01D6C00034A8E01A0729F462E083E04B
S11322000E945A01CDC00034B9E01B0729F462E0F2
S113221084E00E945A01C4C00034EAE01E0729F495
S113222062E085E00E945A01BBC00034FBE01F0756
S113223029F462E086E00E945A01B2C0003988E0C5
S1132240180729F464E083E00E945A01A9C0003908
S1132250A9E01A0729F464E084E00E945A01A0C0AE
S11322600039BAE01B0729F464E085E00E945A01B2
S113227097C00039EBE01E0729F464E086E00E9471
S11322805A018EC0003CF8E01F0729F468E083E09F
S11322900E945A0185C0003C89E0180729F468E0CF
S11322A084E00E945A017CC0003CAAE01A0729F489
S11322B068E085E00E945A0173C0003CBBE01B0744
S11322C029F468E086E00E945A016AC0003AE8E016
S11322D01E0729F460E183E00E945A0161C0003ABC
S11322E0F9E01F0729F460E184E00E945A0158C014
S11322F0003A8AE0180729F460E185E00E945A0157
S11323004FC0003AABE01A0729F460E186E00E946E
S11323105A0146C0003BB8E01B0729F460E283E0A1
S11323200E945A013DC0003BE9E01E0729F460E227
S113233084E00E945A0134C0003BFAE01F0729F4EC
S113234060E285E00E945A012BC0003B8BE0180735
S113235029F460E286E00E945A0122C00038A4E019
S11323601A0729F460E483E00E945A0119C0003975
S1132370B4E01B0729F460E484E00E945A0110C011
S1132380003AE4E01E0729F460E485E00E945A0163
S113239007C0003B144021F460E486E00E945A0127
S11323A0D70112960D911C911397EDE0F0E2848110
S11323B08D8385818E8386818F8380819181A281A3
S11323C0B38189839A83AB83BC837801003AB8E0F4
S11323D01B0729F460E183E00E945A0113C0003B0B
S11323E0E8E01E0729F460E283E00E945A0114C069
S11323F0F0EAEF16F9E0FF0629F460E184E00E94B8
S11324005A0114C080EBE81689E0F80629F460E26A
S113241084E00E945A0114C0A0EAEA16AAE0FA066F
S113242029F460E185E00E945A0114C0B0EBEB1678
S1132430BAE0FB0629F460E285E00E945A0113C069
S1132440E0EAEE16EBE0FE0629F460E186E00E9485
S11324505A0109C0F0EBEF16FBE0FF0621F460E23D
S113246086E00E945A01BE016F5F7F4FC801C5DB41
S113247013C0EDE0F0E284818D8385818E838681B3
S11324808F8380819181A281B38189839A83AB8375
S1132490BC83E12CF12CACCF2796CDBFDEBFDF91FE
S11324A0CF911F910F91FF90EF900895FC0180E070
S11324B092ECA1E0B0E086839783A087B18780E4A3
S11324C096E08083918380EA98E08283938388E016
S11324D0858384E084830895CF93DF93CDB7DEB7FB
S11324E02797CDBFDEBF60E185E00E945A01E0E896
S11324F0F6E080818860808380EA9AE0809395206A
S11325009093962084E390E1809393209093942079
S11325108CE290E18093912090939220E6E0F0E2A7
S113252084818D8385818E8386818F83808191814F
S1132530A281B38189839A83AB83BC8360E185E004
S11325400E945A01BE016F5F7F4F80EA9AE055DB1B
S113255060E771E089E891E05FD02796CDBFDEBFE8
S1132560DF91CF91089504C06150710981099109E7
S11325706115710581059105B9F70895CF93DF932E
S1132580CDB7DEB72A97CDBFDEBF0E942501E4DCBC
S1132590CE0101968BDFCE01019668DD9DDF84E1DB
S11325A090E297D048E260E87AE186E090E0E1DCEE
S11325B004E210E241DD1F928F931F930F9376D0B4
S11325C06BEA70EB88E290E0CEDF0F900F900F90F3
S11325D00F90F0CFA1E21A2EAA1BBB1BFD010DC068
S11325E0AA1FBB1FEE1FFF1FA217B307E407F507BF
S11325F020F0A21BB30BE40BF50B661F771F881F9B
S1132600991F1A9469F760957095809590959B0130
S1132610AC01BD01CF0108950F931F93CF93DF93B6
S1132620009731F46115710519F480E090E039C028
S11326308B01EC016EE070E081E090E071D2FC016E
S1132640892B99F380E883830115110571F00287C2
S1132650138781E883838091A0209091A120892B06
S113266021F4E093A020F093A1202097C9F0C08723
S1132670D1878381826083838091A2209091A3205B
S1132680892B71F4E093A220F093A3208091A420DD
S11326909091A520892B21F4E093A420F093A52008
S11326A0CF01DF91CF911F910F910895CF93DF93C5
S11326B0CDB7DEB7AE014A5F5F4FFA016191719108
S11326C0AF018091A2209091A32033D0DF91CF91CC
S11326D008950F931F93CF93DF93E091A220F0917D
S11326E0A320238121FF1BC08C01D0E0C0E0F801AE
S11326F081918F016091A2207091A320DB01189633
S1132700ED91FC911997882331F01995892B79F370
S1132710DFEFCFEFECCF8AE01995892B19F08FEF1B
S11327209FEF02C08D2F9C2FDF91CF911F910F91AE
S113273008952F923F924F925F926F927F928F9261
S11327409F92AF92BF92CF92DF92EF92FF920F933C
S11327501F93CF93DF93CDB7DEB72B97CDBFDEBFEB
S11327606C017B018A01FC0116821782838181FF3F
S1132770BFC1CE0101963C01F6019381F70193FD9F
S1132780859193FF81917F01882309F4ADC185323E
S113279039F493FD859193FF81917F01853221F472
S11327A0B60190E015D3E8CF912C212C312CFFE118
S11327B0F315D8F08B3279F038F4803279F0833223
S11327C0A1F4232D20611DC08D3261F0803369F4A2
S11327D0232D216016C0832D8260382EE32DE46002
S11327E03E2E2AC0F32DF8601DC037FC2DC020ED0D
S11327F0280F2A3040F08E32B9F436FC75C1232DEF
S11328002064322E19C036FE06C08AE0989E200D40
S11328101124922E11C0EAE02E9E200D1124222EA6
S1132820F32DF0623F2E08C08C3621F4832D80688E
S1132830382E02C0883641F4F70193FD859193FF49
S113284081917F018111B3CF982F9F7D955493304F
S113285028F40C5F1F4F9FE399830DC0833631F03A
S1132860833771F0833509F055C020C0F8018081A9
S113287089830E5F1F4F88248394912C530112C0C7
S11328802801F2E04F0E511CF801A080B18036FE01
S113289003C0692D70E002C06FEF7FEFC5018DD2D8
S11328A04C018201F32DFF773F2E15C0280122E051
S11328B0420E511CF801A080B18036FE03C0692D80
S11328C070E002C06FEF7FEFC50165D24C01F32DBC
S11328D0F0683F2E820133FC19C0822D90E08816E7
S11328E09906A0F4B60180E290E072D22A94F5CF62
S11328F0F50137FC859137FE81915F01B60190E0C7
S113290067D221102A9421E0821A9108811491043B
S113291079F7E1C0843611F0893639F5F80137FECC
S113292007C060817181828193810C5F1F4F08C051
S113293060817181072E000C880B990B0E5F1F4F6D
S1132940F32DFF763F2E97FF09C0909580957095E3
S113295061957F4F8F4F9F4FF0683F2E2AE030E004
S1132960A30172D2882E861844C0853731F4232DF2
S11329702F7EB22E2AE030E025C0932D997FB92E08
S11329808F36C1F018F4883579F0AEC0803719F06D
S1132990883721F0A9C0E92FE061BE2EB4FE0DC036
S11329A0FB2DF460BF2E09C034FE0AC0292F266017
S11329B0B22E06C028E030E005C020E130E002C0BD
S11329C020E132E0F801B7FE07C0608171818281A5
S11329D093810C5F1F4F06C06081718180E090E09D
S11329E00E5F1F4FA30130D2882E8618FB2DFF7770
S11329F03F2E36FE0DC0232D2E7FA22E891458F4AF
S1132A0034FE0BC032FC09C0832D8E7EA82E05C077
S1132A10B82CA32C03C0B82C01C0B92CA4FE0FC041
S1132A20FE01E80DF11D8081803321F49A2D997EF9
S1132A30A92E09C0A2FE06C0B394B39404C08A2D83
S1132A40867809F0B394A3FC10C0A0FE06C0B214AB
S1132A5080F4280C922C9B180DC0B21458F4B601C3
S1132A6080E290E0B5D1B394F8CFB21418F42B18E7
S1132A7002C0982C212CA4FE0FC0B60180E390E084
S1132A80A7D1A2FE16C0A1FC03C088E790E002C053
S1132A9088E590E0B6010CC08A2D867851F0A1FE3D
S1132AA002C08BE201C080E2A7FC8DE2B60190E097
S1132AB08FD1891430F4B60180E390E089D19A94DF
S1132AC0F8CF8A94F301E80DF11D8081B60190E0FE
S1132AD07FD18110F6CF222009F44ECEB60180E2D8
S1132AE090E076D12A94F7CFF6018681978102C0CF
S1132AF08FEF9FEF2B96CDBFDEBFDF91CF911F915C
S1132B000F91FF90EF90DF90CF90BF90AF909F9088
S1132B108F907F906F905F904F903F902F9008958B
S1132B200F931F93CF93DF93869F8001879F100D90
S1132B30969F100D1124C8010DD0EC01009721F0CF
S1132B40A80160E070E032D1CE01DF91CF911F91F6
S1132B500F9108950F931F93CF93DF9382309105C4
S1132B6010F482E090E0E091A820F091A92020E008
S1132B7030E0A0E0B0E0309719F14081518102814A
S1132B80138148175907C8F08417950769F41097FB
S1132B9031F012960C93129713961C9327C000934E
S1132BA0A8201093A92022C02115310519F042173D
S1132BB0530718F49A01BD01EF01DF01F801DBCFDF
S1132BC021153105F9F0281B390B2430310580F427
S1132BD08A819B816115710521F0FB0182839383B6
S1132BE004C08093A8209093A920FE01329644C08B
S1132BF0FE01E20FF31F8193919322503109288340
S1132C0039833AC02091A6203091A720232B41F488
S1132C1020910220309103202093A6203093A720F6
S1132C2020910020309101202115310541F42DB768
S1132C303EB74091042050910520241B350BE091B0
S1132C40A620F091A720E217F307A0F42E1B3F0B58
S1132C502817390778F0AC014E5F5F4F241735070A
S1132C6048F04E0F5F1F4093A6205093A7208193F6
S1132C70919302C0E0E0F0E0CF01DF91CF911F918A
S1132C800F910895CF93DF93009709F481C0FC015D
S1132C90329712821382A091A820B091A920109794
S1132CA081F420813181820F931F2091A6203091DD
S1132CB0A7202817390751F5E093A620F093A72001
S1132CC067C0ED0120E030E0CE17DF0740F44A8111
S1132CD05B819E0141155105F1F0EA01F5CFC283F4
S1132CE0D38340815181840F951FC817D90759F4A4
S1132CF088819981840F951F0296808391838A81AC
S1132D009B81828393832115310529F4E093A820C4
S1132D10F093A9203DC0E901EA83FB8349915991CD
S1132D20C40FD51FEC17FD0761F480819181840FD6
S1132D30951F0296E90188839983828193818A830E
S1132D409B83E0E0F0E012968D919C91139700979D
S1132D5019F0FD01DC01F7CF8D919C9111979D0134
S1132D602E5F3F4F820F931F2091A6203091A72002
S1132D702817390769F4309729F41092A820109283
S1132D80A92002C012821382A093A620B093A72088
S1132D90DF91CF910895FC010590615070400110BE
S1132DA0D8F7809590958E0F9F1F0895DC0101C080
S1132DB06D9341505040E0F70895FC01615070401C
S1132DC001900110D8F7809590958E0F9F1F08955C
S1132DD00F931F93CF93DF93FB01238121FD03C046
S1132DE08FEF9FEF2CC022FF16C0468157812481AC
S1132DF035814217530744F4A081B1819D012F5FAF
S1132E003F4F208331838C93268137812F5F3F4F3F
S1132E102683378314C08B01EC01FB010084F18508
S1132E20E02D1995892BE1F6D80116968D919C9188
S1132E301797019616968D939C931797CE01DF9161
S1132E40CF911F910F910895FA01AA27283051F1CB
S1132E50203181F1E8946F936E7F6E5F7F4F8F4FC7
S1132E609F4FAF4FB1E03ED0B4E03CD0670F781F26
S1132E70891F9A1FA11D680F791F8A1F911DA11D0B
S1132E806A0F711D811D911DA11D20D009F4689444
S1132E903F912AE0269F11243019305D3193DEF6EC
S1132EA0CF010895462F4770405D4193B3E00FD0A2
S1132EB0C9F7F6CF462F4F70405D4A3318F0495D8D
S1132EC031FD4052419302D0A9F7EACFB4E0A69570
S1132ED09795879577956795BA95C9F70097610592
S1132EE0710508959B01AC010A2E069457954795E8
S1132EF037952795BA95C9F7620F731F841F951FDD
S10B2F00A01D0895F894FFCF11
S1132F080000AA20200000C2010003000100000004
S1132F18000300017561727420697320776F726B06
S1132F28696E670074686520646174612069732040
S1092F382578200A0000C8
S9030000FC
