:10000000FDC0000021C100001FC100001DC1000093
:100010001BC1000019C1000017C1000015C100007C
:1000200013C1000011C1000017C3000045C3000048
:100030000BC100000C94D411FFC3000054C4000095
:10004000A9C40000FEC4000053C50000A8C50000FC
:10005000FDC5000052C60000A7C60000FCC6000097
:10006000F3C00000F1C00000EFC00000EDC00000D0
:10007000EBC00000E9C00000E7C00000E5C00000E0
:10008000E3C00000E1C00000DFC00000DDC00000F0
:10009000DBC00000D9C00000D7C00000D5C0000000
:1000A000D3C00000D1C00000CFC00000CDC0000010
:1000B000CBC00000C9C000000C946C120C94E80A7C
:1000C0000C943F0B0C94960B0C94ED0B0C94440C7D
:1000D0000C949B0C0C94F20C0C94490D0C94A00DF8
:1000E0000C94F70DB1C00000AFC00000ADC000001F
:1000F000ABC00000A9C00000A7C00000A5C0000060
:10010000A3C00000A1C000009FC000009DC000006F
:100110009BC0000099C0000097C0000095C000007F
:1001200093C0000091C000008FC000008DC000008F
:100130000C942012E7C600003CC7000091C70000E5
:10014000E6C700000C94DE080C9435090C948C0969
:100150000C94E3090C943A0A0C94910A75C00000BF
:1001600073C0000071C000006FC000006DC00000CF
:100170006BC0000069C0000067C0000065C00000DF
:1001800063C0000061C000005FC000005DC00000EF
:100190005BC0000059C0000057C0000055C00000FF
:1001A00053C0000051C000004FC000000C94B812B2
:1001B0000C944E0E0C94A50E0C94FC0E0C94530F44
:1001C0000C94AA0F0C9401100C9458100C94AF10BE
:1001D0000C9406110C945D1137C00000B8C00000EB
:1001E00033C0000031C000002FC000002DC000004F
:1001F0002BC0000029C0000027C0000011241FBE32
:10020000CFEFCDBFDFE3DEBF00E00CBF18BE19BEED
:100210001ABE1BBE10E2A0E0B0E2E2ECF4E500E0A2
:100220000BBF02C007900D92A036B107D9F71BBED5
:1002300020E2A0E6B0E201C01D92AF3DB207E1F7B7
:100240000E94FF200C945F2ADBCECF93DF9300D077
:10025000CDB7DEB789839A836B8389819A814B817D
:1002600069E20E94151D00002396CDBFDEBFDF911D
:10027000CF910895CF93DF9300D0CDB7DEB78983B8
:100280009A836B8389819A814B8169E20E94531D15
:1002900000002396CDBFDEBFDF91CF910895CF93AD
:1002A000DF9300D0CDB7DEB7CE01039669E0E2DF81
:1002B0008B81882F90E089839A8389819A81982FF6
:1002C000882789839A83CE01039668E0D3DF8B81E8
:1002D000882F90E029813A81820F931F89839A8326
:1002E00089819A812396CDBFDEBFDF91CF9108959A
:1002F000CF93DF93CDB7DEB780E092ECA1E0B0E022
:100300008093662090936720A0936820B093692023
:1003100080EA96E0809360209093612080EA9BE0E1
:10032000809362209093632088E08093652084E02E
:100330008093642080E690E20E94F31F80EA9BE0B5
:1003400024E1FC0123830000DF91CF9108951F92E7
:100350000F9200903F000F921124009038000F92EE
:100360001092380000903A000F9210923A000090DC
:100370003B000F9210923B008F939F93EF93FF935C
:10038000CF93DF93CDB7DEB780EA9BE0FC0180819D
:100390008093C5200000DF91CF91FF91EF919F9155
:1003A0008F910F9000923B000F9000923A000F90B7
:1003B000009238000F9000923F000F901F90189508
:1003C000CF93DF931F92CDB7DEB78FE390E0FC01B0
:1003D00080818983F89489810F90DF91CF9108956E
:1003E000CF93DF931F92CDB7DEB789838FE390E081
:1003F0002981FC01208300000F90DF91CF910895A7
:10040000CF93DF931F921F92CDB7DEB78A83D8DFD9
:10041000898380E590E020E530E0F90130812A8190
:10042000232BFC0120838981DBDF00000F900F90DC
:10043000DF91CF910895CF93DF931F921F92CDB795
:10044000DEB78A8380E590E022E0FC012283B8DFFA
:10045000898380E590E020E530E0F90130812A8150
:10046000232BFC0120838981BBDF00000F900F90BC
:10047000DF91CF910895CF93DF931F921F92CDB755
:10048000DEB78A839DDF898380E590E020E530E058
:10049000F9012081322F2A8120952323FC0120831A
:1004A00089819EDF00000F900F90DF91CF9108951A
:1004B000CF93DF931F92CDB7DEB7898389818830D0
:1004C00019F089819DDF02C08981B5DF00000F909E
:1004D000DF91CF910895CF93DF931F92CDB7DEB711
:1004E000898380E590E0FC0191818981982381E0F6
:1004F000992309F480E00F90DF91CF910895CF9375
:10050000DF931F92CDB7DEB7898300008981E3DFD7
:10051000982F81E089278823C9F700000F90DF9189
:10052000CF910895CF93DF9300D01F92CDB7DEB760
:1005300080E790E089839A831C821B820DC08981A9
:100540009A819C012F5F3F4F29833A832FEFFC0153
:1005500020838B818F5F8B838B81873080F382E058
:10056000A7DF82E0CCDF000061E080E490E06ED0A5
:100570008C81882311F481E07EDF2496CDBFDEBF1D
:10058000DF91CF910895CF93DF9300D0CDB7DEB741
:100590008A836B8315DF89838A81882F90E0805955
:1005A0009F4F2A81222F30E020593F4FF9012081AF
:1005B000322F2B8120952323FC012083898110DF9A
:1005C00000002396CDBFDEBFDF91CF910895CF937A
:1005D000DF9300D0CDB7DEB78A839B832091C620FE
:1005E0003091C7208091CA209091CB20AE014F5FFF
:1005F0005F4FBA01F90119958981082E000C990BFA
:100600002396CDBFDEBFDF91CF910895CF93DF93C7
:1006100000D0CDB7DEB789836A837B832091C82061
:100620003091C9208091CA209091CB206981F90135
:10063000199599231CF48FEF9FEF02C081E090E0A1
:100640002396CDBFDEBFDF91CF9108951BBEFC0185
:1006500028ED24BF608308951F920F9200903F0001
:100660000F921124009038000F92109238000090E1
:100670003A000F9210923A008F939F93CF93DF939B
:10068000CDB7DEB78091CC209091CD20019680939C
:10069000CC209093CD200000DF91CF919F918F913E
:1006A0000F9000923A000F90009238000F90009245
:1006B0003F000F901F9018951F920F9200903F00DF
:1006C0000F921124009038000F9210923800009081
:1006D00039000F921092390000903A000F92109258
:1006E0003A0000903B000F9210923B002F933F93F3
:1006F0004F935F936F937F938F939F93AF93BF932A
:10070000EF93FF93CF93DF93CDB7DEB72897CDBF9D
:10071000DEBF2091CC203091CD208091CE209091D1
:10072000CF202817390708F463C080E094E021E067
:10073000FC0122838091D2209091D320892B09F44F
:1007400057C08091CC209091CD20CC01A0E0B0E0AA
:10075000AC013327222780E094E0FC01808591855D
:10076000CC01A0E0B0E0822B932BA42BB52B898386
:100770009A83AB83BC838091CE209091CF20CC0113
:10078000A0E0B0E0AC01332722278091D0209091E7
:10079000D120CC01A0E0B0E0822B932BA42BB52B71
:1007A0008D839E83AF83B8872D813E814F8158858D
:1007B00089819A81AB81BC81281739074A075B0779
:1007C00058F08D819E81AF81B8850196A11DB11D24
:1007D00089839A83AB83BC832091D2203091D3202C
:1007E00089819A81AB81BC81BC01CD01F901199548
:1007F00000002896CDBFDEBFDF91CF91FF91EF9132
:10080000BF91AF919F918F917F916F915F914F9128
:100810003F912F910F9000923B000F9000923A0071
:100820000F90009239000F90009238000F900092C4
:100830003F000F901F9018951F920F9200903F005D
:100840000F921124009038000F92109238000090FF
:1008500039000F921092390000903A000F921092D6
:100860003A0000903B000F9210923B002F933F9371
:100870004F935F936F937F938F939F93AF93BF93A8
:10088000EF93FF93CF93DF93CDB7DEB780916A20CC
:1008900090916B20892B31F080916A2090916B2090
:1008A000FC0119950000DF91CF91FF91EF91BF916D
:1008B000AF919F918F917F916F915F914F913F91F8
:1008C0002F910F9000923B000F9000923A000F90F2
:1008D000009239000F90009238000F9000923F0074
:1008E0000F901F9018951F920F9200903F000F924B
:1008F0001124009038000F921092380000903900B7
:100900000F921092390000903A000F9210923A0024
:1009100000903B000F9210923B002F933F934F9318
:100920005F936F937F938F939F93AF93BF93EF9357
:10093000FF93CF93DF93CDB7DEB780916C2090917A
:100940006D20892B31F080916C2090916D20FC01FD
:1009500019950000DF91CF91FF91EF91BF91AF9179
:100960009F918F917F916F915F914F913F912F91C7
:100970000F9000923B000F9000923A000F9000926F
:1009800039000F90009238000F9000923F000F90B6
:100990001F9018951F920F9200903F000F92112404
:1009A000009038000F9210923800009039000F929A
:1009B0001092390000903A000F9210923A00009085
:1009C0003B000F9210923B002F933F934F935F9306
:1009D0006F937F938F939F93AF93BF93EF93FF9307
:1009E000CF93DF93CDB7DEB780916E2090916F20CB
:1009F000892B31F080916E2090916F20FC01199528
:100A00000000DF91CF91FF91EF91BF91AF919F9146
:100A10008F917F916F915F914F913F912F910F90A7
:100A200000923B000F9000923A000F900092390024
:100A30000F90009238000F9000923F000F901F908F
:100A400018951F920F9200903F000F921124009072
:100A500038000F9210923800009039000F921092D7
:100A6000390000903A000F9210923A0000903B003B
:100A70000F9210923B002F933F934F935F936F938E
:100A80007F938F939F93AF93BF93EF93FF93CF93F6
:100A9000DF93CDB7DEB78091702090917120892BC4
:100AA00031F08091702090917120FC011995000027
:100AB000DF91CF91FF91EF91BF91AF919F918F9176
:100AC0007F916F915F914F913F912F910F90009285
:100AD0003B000F9000923A000F90009239000F9067
:100AE000009238000F9000923F000F901F901895D1
:100AF0001F920F9200903F000F9211240090380037
:100B00000F9210923800009039000F921092390025
:100B100000903A000F9210923A0000903B000F9222
:100B200010923B002F933F934F935F936F937F936C
:100B30008F939F93AF93BF93EF93FF93CF93DF93E5
:100B4000CDB7DEB78091722090917320892B31F060
:100B50008091722090917320FC0119950000DF9123
:100B6000CF91FF91EF91BF91AF919F918F917F9125
:100B70006F915F914F913F912F910F9000923B00A9
:100B80000F9000923A000F90009239000F9000925F
:100B900038000F9000923F000F901F9018951F9201
:100BA0000F9200903F000F921124009038000F9296
:100BB00010923800009039000F9210923900009086
:100BC0003A000F9210923A0000903B000F92109260
:100BD0003B002F933F934F935F936F937F938F933C
:100BE0009F93AF93BF93EF93FF93CF93DF93CDB7D3
:100BF000DEB78091742090917520892B31F080911F
:100C0000742090917520FC0119950000DF91CF911F
:100C1000FF91EF91BF91AF919F918F917F916F91D4
:100C20005F914F913F912F910F9000923B000F9059
:100C300000923A000F90009239000F900092380015
:100C40000F9000923F000F901F9018951F920F92E7
:100C500000903F000F921124009038000F921092E4
:100C60003800009039000F921092390000903A003D
:100C70000F9210923A0000903B000F9210923B00AE
:100C80002F933F934F935F936F937F938F939F9394
:100C9000AF93BF93EF93FF93CF93DF93CDB7DEB7BF
:100CA0008091762090917720892B31F08091762069
:100CB00090917720FC0119950000DF91CF91FF9171
:100CC000EF91BF91AF919F918F917F916F915F91C4
:100CD0004F913F912F910F9000923B000F90009207
:100CE0003A000F90009239000F90009238000F9058
:100CF00000923F000F901F9018951F920F92009046
:100D00003F000F921124009038000F92109238008B
:100D1000009039000F921092390000903A000F9223
:100D200010923A0000903B000F9210923B002F93DC
:100D30003F934F935F936F937F938F939F93AF9363
:100D4000BF93EF93FF93CF93DF93CDB7DEB780913F
:100D5000782090917920892B31F0809178209091A2
:100D60007920FC0119950000DF91CF91FF91EF915F
:100D7000BF91AF919F918F917F916F915F914F91B3
:100D80003F912F910F9000923B000F9000923A00FC
:100D90000F90009239000F90009238000F9000924F
:100DA0003F000F901F9018951F920F9200903F00E8
:100DB0000F921124009038000F921092380000908A
:100DC00039000F921092390000903A000F92109261
:100DD0003A0000903B000F9210923B002F933F93FC
:100DE0004F935F936F937F938F939F93AF93BF9333
:100DF000EF93FF93CF93DF93CDB7DEB780917A2047
:100E000090917B20892B31F080917A2090917B20EA
:100E1000FC0119950000DF91CF91FF91EF91BF91F7
:100E2000AF919F918F917F916F915F914F913F9182
:100E30002F910F9000923B000F9000923A000F907C
:100E4000009239000F90009238000F9000923F00FE
:100E50000F901F9018951F920F9200903F000F92D5
:100E60001124009038000F92109238000090390041
:100E70000F921092390000903A000F9210923A00AF
:100E800000903B000F9210923B002F933F934F93A3
:100E90005F936F937F938F939F93AF93BF93EF93E2
:100EA000FF93CF93DF93CDB7DEB780917C209091F5
:100EB0007D20892B31F080917C2090917D20FC0158
:100EC00019950000DF91CF91FF91EF91BF91AF9104
:100ED0009F918F917F916F915F914F913F912F9152
:100EE0000F9000923B000F9000923A000F900092FA
:100EF00039000F90009238000F9000923F000F9041
:100F00001F9018951F920F9200903F000F9211248E
:100F1000009038000F9210923800009039000F9224
:100F20001092390000903A000F9210923A0000900F
:100F30003B000F9210923B002F933F934F935F9390
:100F40006F937F938F939F93AF93BF93EF93FF9391
:100F5000CF93DF93CDB7DEB780917E2090917F2035
:100F6000892B31F080917E2090917F20FC01199592
:100F70000000DF91CF91FF91EF91BF91AF919F91D1
:100F80008F917F916F915F914F913F912F910F9032
:100F900000923B000F9000923A000F9000923900AF
:100FA0000F90009238000F9000923F000F901F901A
:100FB00018951F920F9200903F000F9211240090FD
:100FC00038000F9210923800009039000F92109262
:100FD000390000903A000F9210923A0000903B00C6
:100FE0000F9210923B002F933F934F935F936F9319
:100FF0007F938F939F93AF93BF93EF93FF93CF9381
:10100000DF93CDB7DEB78091802090918120892B2E
:1010100031F08091802090918120FC011995000091
:10102000DF91CF91FF91EF91BF91AF919F918F9100
:101030007F916F915F914F913F912F910F9000920F
:101040003B000F9000923A000F90009239000F90F1
:10105000009238000F9000923F000F901F9018955B
:101060001F920F9200903F000F92112400903800C1
:101070000F9210923800009039000F9210923900B0
:1010800000903A000F9210923A0000903B000F92AD
:1010900010923B002F933F934F935F936F937F93F7
:1010A0008F939F93AF93BF93EF93FF93CF93DF9370
:1010B000CDB7DEB78091822090918320892B31F0CB
:1010C0008091822090918320FC0119950000DF918E
:1010D000CF91FF91EF91BF91AF919F918F917F91B0
:1010E0006F915F914F913F912F910F9000923B0034
:1010F0000F9000923A000F90009239000F900092EA
:1011000038000F9000923F000F901F9018951F928B
:101110000F9200903F000F921124009038000F9220
:1011200010923800009039000F9210923900009010
:101130003A000F9210923A0000903B000F921092EA
:101140003B002F933F934F935F936F937F938F93C6
:101150009F93AF93BF93EF93FF93CF93DF93CDB75D
:10116000DEB78091842090918520892B31F0809189
:10117000842090918520FC0119950000DF91CF918A
:10118000FF91EF91BF91AF919F918F917F916F915F
:101190005F914F913F912F910F9000923B000F90E4
:1011A00000923A000F90009239000F9000923800A0
:1011B0000F9000923F000F901F9018951F920F9272
:1011C00000903F000F921124009038000F9210926F
:1011D0003800009039000F921092390000903A00C8
:1011E0000F9210923A0000903B000F9210923B0039
:1011F0002F933F934F935F936F937F938F939F931F
:10120000AF93BF93EF93FF93CF93DF93CDB7DEB749
:101210008091862090918720892B31F080918620C3
:1012200090918720FC0119950000DF91CF91FF91EB
:10123000EF91BF91AF919F918F917F916F915F914E
:101240004F913F912F910F9000923B000F90009291
:101250003A000F90009239000F90009238000F90E2
:1012600000923F000F901F9018951F920F920090D0
:101270003F000F921124009038000F921092380016
:10128000009039000F921092390000903A000F92AE
:1012900010923A0000903B000F9210923B002F9367
:1012A0003F934F935F936F937F938F939F93AF93EE
:1012B000BF93EF93FF93CF93DF93CDB7DEB78091CA
:1012C000882090918920892B31F0809188209091FD
:1012D0008920FC0119950000DF91CF91FF91EF91DA
:1012E000BF91AF919F918F917F916F915F914F913E
:1012F0003F912F910F9000923B000F9000923A0087
:101300000F90009239000F90009238000F900092D9
:101310003F000F901F9018951F920F9200903F0072
:101320000F921124009038000F9210923800009014
:1013300039000F921092390000903A000F921092EB
:101340003A0000903B000F9210923B002F933F9386
:101350004F935F936F937F938F939F93AF93BF93BD
:10136000EF93FF93CF93DF93CDB7DEB780918A20C1
:1013700090918B20892B31F080918A2090918B2045
:10138000FC0119950000DF91CF91FF91EF91BF9182
:10139000AF919F918F917F916F915F914F913F910D
:1013A0002F910F9000923B000F9000923A000F9007
:1013B000009239000F90009238000F9000923F0089
:1013C0000F901F9018951F920F9200903F000F9260
:1013D0001124009038000F921092380000903900CC
:1013E0000F921092390000903A000F9210923A003A
:1013F00000903B000F9210923B002F933F934F932E
:101400005F936F937F938F939F93AF93BF93EF936C
:10141000FF93CF93DF93CDB7DEB780918C2090916F
:101420008D20892B31F080918C2090918D20FC01B2
:1014300019950000DF91CF91FF91EF91BF91AF918E
:101440009F918F917F916F915F914F913F912F91DC
:101450000F9000923B000F9000923A000F90009284
:1014600039000F90009238000F9000923F000F90CB
:101470001F9018951F920F9200903F000F92112419
:10148000009038000F9210923800009039000F92AF
:101490001092390000903A000F9210923A0000909A
:1014A0003B000F9210923B002F933F934F935F931B
:1014B0006F937F938F939F93AF93BF93EF93FF931C
:1014C000CF93DF93CDB7DEB780918E2090918F20A0
:1014D000892B31F080918E2090918F20FC011995FD
:1014E0000000DF91CF91FF91EF91BF91AF919F915C
:1014F0008F917F916F915F914F913F912F910F90BD
:1015000000923B000F9000923A000F900092390039
:101510000F90009238000F9000923F000F901F90A4
:1015200018951F920F9200903F000F921124009087
:1015300038000F9210923800009039000F921092EC
:10154000390000903A000F9210923A0000903B0050
:101550000F9210923B002F933F934F935F936F93A3
:101560007F938F939F93AF93BF93EF93FF93CF930B
:10157000DF93CDB7DEB78091902090919120892B99
:1015800031F08091902090919120FC0119950000FC
:10159000DF91CF91FF91EF91BF91AF919F918F918B
:1015A0007F916F915F914F913F912F910F9000929A
:1015B0003B000F9000923A000F90009239000F907C
:1015C000009238000F9000923F000F901F901895E6
:1015D0001F920F9200903F000F921124009038004C
:1015E0000F9210923800009039000F92109239003B
:1015F00000903A000F9210923A0000903B000F9238
:1016000010923B002F933F934F935F936F937F9381
:101610008F939F93AF93BF93EF93FF93CF93DF93FA
:10162000CDB7DEB78091922090919320892B31F035
:101630008091922090919320FC0119950000DF91F8
:10164000CF91FF91EF91BF91AF919F918F917F913A
:101650006F915F914F913F912F910F9000923B00BE
:101660000F9000923A000F90009239000F90009274
:1016700038000F9000923F000F901F9018951F9216
:101680000F9200903F000F921124009038000F92AB
:1016900010923800009039000F921092390000909B
:1016A0003A000F9210923A0000903B000F92109275
:1016B0003B002F933F934F935F936F937F938F9351
:1016C0009F93AF93BF93EF93FF93CF93DF93CDB7E8
:1016D000DEB78091942090919520892B31F08091F4
:1016E000942090919520FC0119950000DF91CF91F5
:1016F000FF91EF91BF91AF919F918F917F916F91EA
:101700005F914F913F912F910F9000923B000F906E
:1017100000923A000F90009239000F90009238002A
:101720000F9000923F000F901F9018951F920F92FC
:1017300000903F000F921124009038000F921092F9
:101740003800009039000F921092390000903A0052
:101750000F9210923A0000903B000F9210923B00C3
:101760002F933F934F935F936F937F938F939F93A9
:10177000AF93BF93EF93FF93CF93DF93CDB7DEB7D4
:101780008091962090919720892B31F0809196201E
:1017900090919720FC0119950000DF91CF91FF9166
:1017A000EF91BF91AF919F918F917F916F915F91D9
:1017B0004F913F912F910F9000923B000F9000921C
:1017C0003A000F90009239000F90009238000F906D
:1017D00000923F000F901F9018951F920F9200905B
:1017E0003F000F921124009038000F9210923800A1
:1017F000009039000F921092390000903A000F9239
:1018000010923A0000903B000F9210923B002F93F1
:101810003F934F935F936F937F938F939F93AF9378
:10182000BF93EF93FF93CF93DF93CDB7DEB7809154
:10183000982090919920892B31F080919820909157
:101840009920FC0119950000DF91CF91FF91EF9154
:10185000BF91AF919F918F917F916F915F914F91C8
:101860003F912F910F9000923B000F9000923A0011
:101870000F90009239000F90009238000F90009264
:101880003F000F901F9018951F920F9200903F00FD
:101890000F921124009038000F921092380000909F
:1018A00039000F921092390000903A000F92109276
:1018B0003A0000903B000F9210923B002F933F9311
:1018C0004F935F936F937F938F939F93AF93BF9348
:1018D000EF93FF93CF93DF93CDB7DEB780919A203C
:1018E00090919B20892B31F080919A2090919B20A0
:1018F000FC0119950000DF91CF91FF91EF91BF910D
:10190000AF919F918F917F916F915F914F913F9197
:101910002F910F9000923B000F9000923A000F9091
:10192000009239000F90009238000F9000923F0013
:101930000F901F9018951F920F9200903F000F92EA
:101940001124009038000F92109238000090390056
:101950000F921092390000903A000F9210923A00C4
:1019600000903B000F9210923B002F933F934F93B8
:101970005F936F937F938F939F93AF93BF93EF93F7
:10198000FF93CF93DF93CDB7DEB780919C209091EA
:101990009D20892B31F080919C2090919D20FC010D
:1019A00019950000DF91CF91FF91EF91BF91AF9119
:1019B0009F918F917F916F915F914F913F912F9167
:1019C0000F9000923B000F9000923A000F9000920F
:1019D00039000F90009238000F9000923F000F9056
:1019E0001F9018951F920F9200903F000F921124A4
:1019F000009038000F9210923800009039000F923A
:101A00001092390000903A000F9210923A00009024
:101A10003B000F9210923B002F933F934F935F93A5
:101A20006F937F938F939F93AF93BF93EF93FF93A6
:101A3000CF93DF93CDB7DEB780919E2090919F200A
:101A4000892B31F080919E2090919F20FC01199567
:101A50000000DF91CF91FF91EF91BF91AF919F91E6
:101A60008F917F916F915F914F913F912F910F9047
:101A700000923B000F9000923A000F9000923900C4
:101A80000F90009238000F9000923F000F901F902F
:101A900018951F920F9200903F000F921124009012
:101AA00038000F9210923800009039000F92109277
:101AB000390000903A000F9210923A0000903B00DB
:101AC0000F9210923B002F933F934F935F936F932E
:101AD0007F938F939F93AF93BF93EF93FF93CF9396
:101AE000DF93CDB7DEB78091A0209091A120892B04
:101AF00031F08091A0209091A120FC011995000067
:101B0000DF91CF91FF91EF91BF91AF919F918F9115
:101B10007F916F915F914F913F912F910F90009224
:101B20003B000F9000923A000F90009239000F9006
:101B3000009238000F9000923F000F901F90189570
:101B40001F920F9200903F000F92112400903800D6
:101B50000F9210923800009039000F9210923900C5
:101B600000903A000F9210923A0000903B000F92C2
:101B700010923B002F933F934F935F936F937F930C
:101B80008F939F93AF93BF93EF93FF93CF93DF9385
:101B9000CDB7DEB78091A2209091A320892B31F0A0
:101BA0008091A2209091A320FC0119950000DF9163
:101BB000CF91FF91EF91BF91AF919F918F917F91C5
:101BC0006F915F914F913F912F910F9000923B0049
:101BD0000F9000923A000F90009239000F900092FF
:101BE00038000F9000923F000F901F9018951F92A1
:101BF0000F9200903F000F921124009038000F9236
:101C000010923800009039000F9210923900009025
:101C10003A000F9210923A0000903B000F921092FF
:101C20003B002F933F934F935F936F937F938F93DB
:101C30009F93AF93BF93EF93FF93CF93DF93CDB772
:101C4000DEB78091A4209091A520892B31F080915E
:101C5000A4209091A520FC0119950000DF91CF915F
:101C6000FF91EF91BF91AF919F918F917F916F9174
:101C70005F914F913F912F910F9000923B000F90F9
:101C800000923A000F90009239000F9000923800B5
:101C90000F9000923F000F901F9018951F920F9287
:101CA00000903F000F921124009038000F92109284
:101CB0003800009039000F921092390000903A00DD
:101CC0000F9210923A0000903B000F9210923B004E
:101CD0002F933F934F935F936F937F938F939F9334
:101CE000AF93BF93EF93FF93CF93DF93CDB7DEB75F
:101CF0008091A6209091A720892B31F08091A62079
:101D00009091A720FC0119950000DF91CF91FF91E0
:101D1000EF91BF91AF919F918F917F916F915F9163
:101D20004F913F912F910F9000923B000F900092A6
:101D30003A000F90009239000F90009238000F90F7
:101D400000923F000F901F9018951F920F920090E5
:101D50003F000F921124009038000F92109238002B
:101D6000009039000F921092390000903A000F92C3
:101D700010923A0000903B000F9210923B002F937C
:101D80003F934F935F936F937F938F939F93AF9303
:101D9000BF93EF93FF93CF93DF93CDB7DEB78091DF
:101DA000A8209091A920892B31F08091A8209091B2
:101DB000A920FC0119950000DF91CF91FF91EF91CF
:101DC000BF91AF919F918F917F916F915F914F9153
:101DD0003F912F910F9000923B000F9000923A009C
:101DE0000F90009239000F90009238000F900092EF
:101DF0003F000F901F9018951F920F9200903F0088
:101E00000F921124009038000F9210923800009029
:101E100039000F921092390000903A000F92109200
:101E20003A0000903B000F9210923B002F933F939B
:101E30004F935F936F937F938F939F93AF93BF93D2
:101E4000EF93FF93CF93DF93CDB7DEB78091AA20B6
:101E50009091AB20892B31F08091AA209091AB20FA
:101E6000FC0119950000DF91CF91FF91EF91BF9197
:101E7000AF919F918F917F916F915F914F913F9122
:101E80002F910F9000923B000F9000923A000F901C
:101E9000009239000F90009238000F9000923F009E
:101EA0000F901F9018951F920F9200903F000F9275
:101EB0001124009038000F921092380000903900E1
:101EC0000F921092390000903A000F9210923A004F
:101ED00000903B000F9210923B002F933F934F9343
:101EE0005F936F937F938F939F93AF93BF93EF9382
:101EF000FF93CF93DF93CDB7DEB78091AC20909165
:101F0000AD20892B31F08091AC209091AD20FC0167
:101F100019950000DF91CF91FF91EF91BF91AF91A3
:101F20009F918F917F916F915F914F913F912F91F1
:101F30000F9000923B000F9000923A000F90009299
:101F400039000F90009238000F9000923F000F90E0
:101F50001F9018951F920F9200903F000F9211242E
:101F6000009038000F9210923800009039000F92C4
:101F70001092390000903A000F9210923A000090AF
:101F80003B000F9210923B002F933F934F935F9330
:101F90006F937F938F939F93AF93BF93EF93FF9331
:101FA000CF93DF93CDB7DEB78091AE209091AF2075
:101FB000892B31F08091AE209091AF20FC011995D2
:101FC0000000DF91CF91FF91EF91BF91AF919F9171
:101FD0008F917F916F915F914F913F912F910F90D2
:101FE00000923B000F9000923A000F90009239004F
:101FF0000F90009238000F9000923F000F901F90BA
:1020000018951F920F9200903F000F92112400909C
:1020100038000F9210923800009039000F92109201
:10202000390000903A000F9210923A0000903B0065
:102030000F9210923B002F933F934F935F936F93B8
:102040007F938F939F93AF93BF93EF93FF93CF9320
:10205000DF93CDB7DEB78091B0209091B120892B6E
:1020600031F08091B0209091B120FC0119950000D1
:10207000DF91CF91FF91EF91BF91AF919F918F91A0
:102080007F916F915F914F913F912F910F900092AF
:102090003B000F9000923A000F90009239000F9091
:1020A000009238000F9000923F000F901F901895FB
:1020B0001F920F9200903F000F9211240090380061
:1020C0000F9210923800009039000F921092390050
:1020D00000903A000F9210923A0000903B000F924D
:1020E00010923B002F933F934F935F936F937F9397
:1020F0008F939F93AF93BF93EF93FF93CF93DF9310
:10210000CDB7DEB78091B2209091B320892B31F00A
:102110008091B2209091B320FC0119950000DF91CD
:10212000CF91FF91EF91BF91AF919F918F917F914F
:102130006F915F914F913F912F910F9000923B00D3
:102140000F9000923A000F90009239000F90009289
:1021500038000F9000923F000F901F9018951F922B
:102160000F9200903F000F921124009038000F92C0
:1021700010923800009039000F92109239000090B0
:102180003A000F9210923A0000903B000F9210928A
:102190003B002F933F934F935F936F937F938F9366
:1021A0009F93AF93BF93EF93FF93CF93DF93CDB7FD
:1021B000DEB78091B4209091B520892B31F08091C9
:1021C000B4209091B520FC0119950000DF91CF91CA
:1021D000FF91EF91BF91AF919F918F917F916F91FF
:1021E0005F914F913F912F910F9000923B000F9084
:1021F00000923A000F90009239000F900092380040
:102200000F9000923F000F901F9018951F920F9211
:1022100000903F000F921124009038000F9210920E
:102220003800009039000F921092390000903A0067
:102230000F9210923A0000903B000F9210923B00D8
:102240002F933F934F935F936F937F938F939F93BE
:10225000AF93BF93EF93FF93CF93DF93CDB7DEB7E9
:102260008091B6209091B720892B31F08091B620D3
:102270009091B720FC0119950000DF91CF91FF915B
:10228000EF91BF91AF919F918F917F916F915F91EE
:102290004F913F912F910F9000923B000F90009231
:1022A0003A000F90009239000F90009238000F9082
:1022B00000923F000F901F9018951F920F92009070
:1022C0003F000F921124009038000F9210923800B6
:1022D000009039000F921092390000903A000F924E
:1022E00010923A0000903B000F9210923B002F9307
:1022F0003F934F935F936F937F938F939F93AF938E
:10230000BF93EF93FF93CF93DF93CDB7DEB7809169
:10231000B8209091B920892B31F08091B82090910C
:10232000B920FC0119950000DF91CF91FF91EF9149
:10233000BF91AF919F918F917F916F915F914F91DD
:102340003F912F910F9000923B000F9000923A0026
:102350000F90009239000F90009238000F90009279
:102360003F000F901F901895CF93DF931F92CDB72A
:10237000DEB78FE390E0FC0180818983F894898146
:102380000F90DF91CF910895CF93DF931F92CDB738
:10239000DEB789838FE390E02981FC012083000070
:1023A0000F90DF91CF9108951F920F9200903F0000
:1023B0000F921124009038000F9210923800009074
:1023C00039000F921092390000903A000F9210924B
:1023D0003A0000903B000F9210923B002F933F93E6
:1023E0004F935F936F937F938F939F93AF93BF931D
:1023F000EF93FF93CF93DF93CDB7DEB743D20000C7
:10240000DF91CF91FF91EF91BF91AF919F918F910C
:102410007F916F915F914F913F912F910F9000921B
:102420003B000F9000923A000F90009239000F90FD
:10243000009238000F9000923F000F901F90189567
:102440001F920F9200903F000F92112400903800CD
:102450000F9210923800009039000F9210923900BC
:1024600000903A000F9210923A0000903B000F92B9
:1024700010923B002F933F934F935F936F937F9303
:102480008F939F93AF93BF93EF93FF93CF93DF937C
:10249000CDB7DEB7F7D10000DF91CF91FF91EF917B
:1024A000BF91AF919F918F917F916F915F914F916C
:1024B0003F912F910F9000923B000F9000923A00B5
:1024C0000F90009239000F90009238000F90009208
:1024D0003F000F901F9018951F920F9200903F00A1
:1024E0000F921124009038000F9210923800009043
:1024F00039000F921092390000903A000F9210921A
:102500003A0000903B000F9210923B002F933F93B4
:102510004F935F936F937F938F939F93AF93BF93EB
:10252000EF93FF93CF93DF93CDB7DEB7ABD100002E
:10253000DF91CF91FF91EF91BF91AF919F918F91DB
:102540007F916F915F914F913F912F910F900092EA
:102550003B000F9000923A000F90009239000F90CC
:10256000009238000F9000923F000F901F90189536
:102570001F920F9200903F000F921124009038009C
:102580000F9210923800009039000F92109239008B
:1025900000903A000F9210923A0000903B000F9288
:1025A00010923B002F933F934F935F936F937F93D2
:1025B0008F939F93AF93BF93EF93FF93CF93DF934B
:1025C000CDB7DEB75FD10000DF91CF91FF91EF91E2
:1025D000BF91AF919F918F917F916F915F914F913B
:1025E0003F912F910F9000923B000F9000923A0084
:1025F0000F90009239000F90009238000F900092D7
:102600003F000F901F901895CF93DF931F921F925A
:10261000CDB7DEB789839A8389819A81FC01848151
:10262000882F90E08370992721E0019709F020E03E
:10263000822F0F900F90DF91CF910895CF93DF936A
:102640001F921F92CDB7DEB78A8305C08A81882387
:1026500011F086EF0FC08091C3208823B9F784DE84
:10266000898381E08093C32080E88093C42089819E
:102670008BDE80E00F900F90DF91CF910895CF9384
:10268000DF931F92CDB7DEB700008091C420803861
:10269000E1F300C08091BA209091BB20B5DF982F64
:1026A00081E089278823B1F78091C4208983109223
:1026B000C32089810F90DF91CF910895CF93DF934D
:1026C000CDB7DEB72897CDBFDEBF8091BA209091FD
:1026D000BB2089839A838091BC209091BD208B83FD
:1026E0009C832091BE203091BF208B819C81FC0176
:1026F0008481958128173907E4F48B819C810196A8
:102700008D839E838091BE209091BF209C012F5F7E
:102710003F4F2093BE203093BF209C018D819E812E
:10272000820F931FFC01208189819A81FC012783FC
:102730003FC02091C0203091C1208B819C81FC0141
:10274000808591852817390760F58091C2208823FC
:1027500059F089819A81FC018681282F2160898125
:102760009A81FC01268324C08B819C81FC01868197
:1027700097818F8398878091C0209091C1209C0180
:102780002F5F3F4F2093C0203093C1202F81388589
:10279000820F931FFC01208189819A81FC0127838C
:1027A00007C089819A8123E0FC0123831092C42011
:1027B00000002896CDBFDEBFDF91CF910895CF9363
:1027C000DF9300D000D0CDB7DEB78091BA209091D2
:1027D000BB2089839A838091BC209091BD208B83FC
:1027E0009C832091C0203091C1208B819C81FC0171
:1027F0008085918528173907B0F58B819C81FC0174
:10280000868197818D839E838091C0209091C12085
:102810009C012F5F3F4F2093C0203093C1202D811A
:102820003E81820F931F29813A81F9012781FC01A2
:1028300020832091C0203091C1208B819C81FC019C
:10284000808591852817390730F489819A8122E0A3
:10285000FC01238310C089819A8127E0FC01238336
:102860001092C42008C089819A8123E0FC0123834F
:1028700089EF8093C42000002696CDBFDEBFDF9194
:10288000CF910895CF93DF931F92CDB7DEB780919C
:10289000BA209091BB20FC01848189838981882F93
:1028A00090E088709927892B99F08091BA209091B7
:1028B000BB2029812860FC0124838091BA2090915B
:1028C000BB2023E0FC01238386EF8093C4202AC031
:1028D0008981882F90E084709927892B39F4898128
:1028E000882F90E080719927892B59F08091BA2028
:1028F0009091BB2023E0FC0123838FEF8093C420C1
:1029000011C08981882F90E080749927892B11F05C
:10291000D5DE08C08981882314F451DF03C08BEF12
:102920008093C42000000F90DF91CF910895CF9342
:10293000DF93CDB7DEB72597CDBFDEBF8A839B83FC
:102940006C837D8388EB89838C819D81FC018481EC
:102950009581A681B781282F8A819B81FC012583DF
:102960008A819B812981FC0121838A819B8121E0CD
:10297000FC0124831092C3201092C42080EA90E0CE
:1029800020EA30E0F90122812260FC012283789460
:1029900080E02596CDBFDEBFDF91CF910895CF9324
:1029A000DF93CDB7DEB72797CDBFDEBF8B839C8388
:1029B0006D837E834F838B819C81892B21F08D8158
:1029C0009E81892B11F488EF49C08D819E81FC0185
:1029D000828534DE89838981882309F03EC08B811A
:1029E0009C818093BA209093BB208D819E8180939F
:1029F000BC209093BD201092BE201092BF20109258
:102A0000C0201092C1208F818093C2208D819E8131
:102A1000FC018081880F8A838D819E81FC018481E5
:102A20009581892B29F49F8181E08927882341F0B2
:102A30008091BA209091BB202A81FC0126830BC093
:102A40008F81882341F08091BA209091BB202A8108
:102A50002160FC01268313DE898389812796CDBFFF
:102A6000DEBFDF91CF910895CF93DF931F921F9226
:102A7000CDB7DEB789839A8389819A81FC018481ED
:102A8000282F206189819A81FC01248300000F9006
:102A90000F90DF91CF910895CF93DF93CDB7DEB73D
:102AA0002597CDBFDEBF89839A836B834C832D83AB
:102AB0009B818C81892B982F8D81882311F088E050
:102AC00001C080E0892B282F89819A81FC01258310
:102AD00000002596CDBFDEBFDF91CF910895CF9343
:102AE000DF931F921F92CDB7DEB789839A838981C6
:102AF0009A81FC018481282F286089819A81FC01B8
:102B0000248300000F900F90DF91CF910895CF9311
:102B1000DF9300D0CDB7DEB789839A836B83898139
:102B20009A81FC018581982F9F738B81892B282F97
:102B300089819A81FC01258300002396CDBFDEBFE9
:102B4000DF91CF910895CF93DF931F921F92CDB75E
:102B5000DEB789839A8389819A81FC018181882FDC
:102B600090E08072992721E0892B09F420E0822FE0
:102B70000F900F90DF91CF910895CF93DF931F9225
:102B80001F92CDB7DEB789839A8389819A81FC0130
:102B90008181882F90E08078992721E0892B09F4A2
:102BA00020E0822F0F900F90DF91CF910895CF9367
:102BB000DF93CDB7DEB780E098E4A8EEB1E0BC01CA
:102BC000CD01DF91CF910895CF93DF931F92CDB7C1
:102BD000DEB71982ECDFDC01CB012981222F30E046
:102BE00004C0B695A795979587952A95D2F7BC010D
:102BF000CD010F90DF91CF910895CF93DF93CDB7A3
:102C0000DEB7E2DFDC01CB01BC01CD01DF91CF916A
:102C10000895CF93DF93CDB7DEB7EFDFDC01CB01B3
:102C2000BC01CD01DF91CF910895CF93DF931F9227
:102C30001F92CDB7DEB789839A8389819A81892BC8
:102C400009F485C189819A81803C910529F460E16C
:102C500080E00E94C3027BC189819A8180349440C4
:102C600029F468E080E00E94C30271C189819A81E1
:102C70008115944029F464E080E00E94C30267C19A
:102C800089819A818038914029F462E080E00E9435
:102C9000C3025DC189819A818115914029F461E067
:102CA00080E00E94C30253C189819A818038934099
:102CB00029F461E081E00E94C30249C189819A81BF
:102CC0008039934029F461E082E00E94C3023FC151
:102CD00089819A818115924029F462E081E00E9405
:102CE000C30235C189819A818034924029F462E01F
:102CF00082E00E94C3022BC189819A818115934091
:102D000029F464E081E00E94C30221C189819A8193
:102D10008032934029F464E082E00E94C30217C12C
:102D200089819A818115984029F461E083E00E94AD
:102D3000C3020DC189819A818115994029F461E00E
:102D400084E00E94C30203C189819A8181159A405F
:102D500029F461E085E00E94C302F9C089819A816B
:102D600081159B4029F461E086E00E94C302EFC018
:102D700089819A818034984029F462E083E00E943E
:102D8000C302E5C089819A818034994029F462E0C8
:102D900084E00E94C302DBC089819A8180349A401A
:102DA00029F462E085E00E94C302D1C089819A8142
:102DB00080349B4029F462E086E00E94C302C7C0D1
:102DC00089819A818039984029F464E083E00E94E7
:102DD000C302BDC089819A818039994029F464E099
:102DE00084E00E94C302B3C089819A8180399A40ED
:102DF00029F464E085E00E94C302A9C089819A8118
:102E000080399B4029F464E086E00E94C3029FC0A1
:102E100089819A81803C984029F468E083E00E948F
:102E2000C30295C089819A81803C994029F468E069
:102E300084E00E94C3028BC089819A81803C9A40C1
:102E400029F468E085E00E94C30281C089819A81EB
:102E5000803C9B4029F468E086E00E94C30277C072
:102E600089819A81803A984029F460E183E00E9448
:102E7000C3026DC089819A81803A994029F460E14A
:102E800084E00E94C30263C089819A81803A9A409B
:102E900029F460E185E00E94C30259C089819A81CA
:102EA000803A9B4029F460E186E00E94C3024FC053
:102EB00089819A81803B984029F460E283E00E94F6
:102EC000C30245C089819A81803B994029F460E220
:102ED00084E00E94C3023BC089819A81803B9A4072
:102EE00029F460E285E00E94C30231C089819A81A1
:102EF000803B9B4029F460E286E00E94C30227C029
:102F000089819A818038944029F460E483E00E94AA
:102F1000C3021DC089819A818039944029F460E4FC
:102F200084E00E94C30213C089819A81803A944050
:102F300029F460E485E00E94C30209C089819A8176
:102F4000803B944021F460E486E00E94C3020000CC
:102F50000F900F90DF91CF9108950F931F93CF9310
:102F6000DF93CDB7DEB72597CDBFDEBF8A839B83C6
:102F70006C837D838A819B8158DE8A819B8160E09E
:102F8000C6DD8C819D81FC0126818C819D81FC01A7
:102F900045818C819D81FC0134818A819B81632FD5
:102FA0007BDD37DE9B01AC018C819D81FC01808142
:102FB0009181A281B381EA81FB8189019A01AC01EF
:102FC000BD01CF0148D089838A819B8188DD8A81B8
:102FD0009B814ADD89812596CDBFDEBFDF91CF91F0
:102FE0001F910F910895CF93DF9300D0CDB7DEB737
:102FF00089839A836B83000089819A81A4DD982F4D
:1030000081E089278823C1F789819A812B81FC017E
:10301000208380E090E02396CDBFDEBFDF91CF918B
:103020000895CF93DF931F921F92CDB7DEB78983A8
:103030009A83000089819A81A0DD982F81E08927F9
:103040008823C1F789819A81FC0180810F900F90BC
:10305000DF91CF910895EF92FF920F931F93CF933B
:10306000DF93CDB7DEB76F97CDBFDEBF8E8B9F8B63
:10307000488F598F6A8F7B8F0C8F1D8F2E8F3F8FBC
:103080008C8D9D8DAE8DBF8D689412F8B695A795E9
:10309000979587951694D1F78E879F87A88BB98BC4
:1030A0008C8D9D8DAE8DBF8D072E76E1B695A79543
:1030B000979587957A95D1F7702D8A879B87AC87EE
:1030C000BD878E899F89FC018481882F90E0847060
:1030D0009927892BC1F48E859F85A889B989B695D2
:1030E000A795979587958E879F87A88BB98B8A859B
:1030F0009B85AC85BD85B695A795979587958A875D
:103100009B87AC87BD87288D398D4A8D5B8D8E85D9
:103110009F85A889B98982179307A407B50768F026
:10312000288D398D4A8D5B8D8A859B85AC85BD85C3
:10313000281739074A075B0710F480E040C18E89E1
:103140009F89FC018481882F90E084709927892BC6
:1031500061F4888D998DAA8DBB8D880F991FAA1F48
:10316000BB1F888F998FAA8FBB8F8FEF90E0A0E055
:10317000B0E08E839F83A887B9878C8D9D8DAE8D9F
:10318000BF8D288D398D4A8D5B8DBC01CD010E948C
:103190003E25DA01C9018A8B9B8BAC8BBD8B89EFF5
:1031A000898328C02A893B894C895D898E819F81CA
:1031B000A885B985281739074A075B07F8F08E817B
:1031C0009F81A885B985880F991FAA1FBB1F8E8371
:1031D0009F83A887B98789818D3F4CF48E819F8119
:1031E000A885B98581608E839F83A887B9878981E7
:1031F0008F5F898389818730ACF201C000008981AB
:1032000088230CF08AC0888D998DAA8DBB8D880F7C
:10321000991FAA1FBB1F880F991FAA1FBB1F880FCA
:10322000991FAA1FBB1F9C01AD018C8D9D8DAE8D7A
:10323000BF8D821B930BA40BB50B8C8F9D8FAE8F14
:10324000BF8F89818E3F94F58981082E000C990BE0
:103250002DEF3FEF281B390B8C8D9D8DAE8DBF8DD3
:103260007C018D0104C0EE0CFF1C001F111F2A956C
:10327000D2F7A8019701888D998DAA8DBB8DB6953F
:10328000A79597958795820F931FA41FB51F288D2B
:10329000398D4A8D5B8DBC01CD010E943E25DA013E
:1032A000C9018A839B83AC83BD8370C08981082E4A
:1032B000000C990B9C012D5F3F4F888D998DAA8D35
:1032C000BB8D04C0880F991FAA1FBB1F2A95D2F778
:1032D000888F998FAA8FBB8F888D998DAA8DBB8D72
:1032E0009C01AD0156954795379527958C8D9D8D01
:1032F000AE8DBF8D820F931FA41FB51F288D398DF2
:103300004A8D5B8DBC01CD010E943E25DA01C901C9
:103310008A839B83AC83BD8339C08981082E000CCE
:10332000990B9C012D5F3F4F888D998DAA8DBB8D88
:1033300004C0880F991FAA1FBB1F2A95D2F7888F38
:10334000998FAA8FBB8F888D998DAA8DBB8D9C017B
:10335000AD0156954795379527958C8D9D8DAE8DF2
:10336000BF8D820F931FA41FB51F288D398D4A8DE5
:103370005B8DBC01CD010E943E25DA01C901019798
:10338000A109B1098A839B83AC83BD838A819B8118
:10339000AC81BD81892F9A2FAB2FBB27982F9F70AF
:1033A00089818295807F292F282B8E899F89FC0116
:1033B00027832A818E899F89FC01268381E06F966D
:1033C000CDBFDEBFDF91CF911F910F91FF90EF90A6
:1033D0000895CF93DF9300D000D0CDB7DEB78A83B6
:1033E0009B836C834D835E83198220C08C81882FE0
:1033F00090E02981222F30E002C0959587952A958B
:10340000E2F781709927892B71F08981882F90E0EC
:1034100040962A813B81820F931F2D813E81232F6D
:103420003327FC01208389818F5F898389818830DC
:10343000E8F28D819E8181709927892BD1F08D8151
:103440009E8182709927892B39F08A819B8105960C
:103450002C81FC01208306C08A819B8106962C81E9
:10346000FC0120838A819B8101962C81FC012083B1
:1034700006C08A819B8102962C81FC01208300007A
:103480002696CDBFDEBFDF91CF910895CF93DF9316
:10349000CDB7DEB72797CDBFDEBF8D836E837F8329
:1034A0008D8189838981882F90E09C012770332743
:1034B00081E090E002C0880F991F2A95E2F7682FFB
:1034C0008D818A838A818B838B818695869586956B
:1034D0008C838C81882F90E0880F991F829592951C
:1034E000907F9827807F98279A5F9C018E819F818B
:1034F000AC01C9016EDF00002796CDBFDEBFDF91B2
:10350000CF910895CF93DF93CDB7DEB763E070E03E
:1035100083E7BCDF60E078E182E7B8DF0000DF919D
:10352000CF910895CF93DF93CDB7DEB780E098E4D5
:10353000A8EEB1E0BC01CD01DF91CF910895CF930A
:10354000DF931F92CDB7DEB71982ECDFDC01CB0130
:103550002981222F30E004C0B695A79597958795CD
:103560002A95D2F7BC01CD010F90DF91CF9108953C
:10357000CF93DF93CDB7DEB7E2DFDC01CB01BC0137
:10358000CD01DF91CF910895CF93DF93CDB7DEB713
:10359000EFDFDC01CB01BC01CD01DF91CF910895BC
:1035A000CF93DF93CDB7DEB7EFDFDC01CB01BC01FA
:1035B000CD01DF91CF910895CF93DF931F921F929A
:1035C000CDB7DEB789839A8389819A81892B09F4E3
:1035D00085C189819A81803C910529F460E180E070
:1035E0000E94C3027BC189819A818034944029F46E
:1035F00068E080E00E94C30271C189819A818115CF
:10360000944029F464E080E00E94C30267C189818C
:103610009A818038914029F462E080E00E94C302E0
:103620005DC189819A818115914029F461E080E032
:103630000E94C30253C189819A818038934029F442
:1036400061E081E00E94C30249C189819A81803989
:10365000934029F461E082E00E94C3023FC1898166
:103660009A818115924029F462E081E00E94C302B0
:1036700035C189819A818034924029F462E082E0E8
:103680000E94C3022BC189819A818115934029F43C
:1036900064E081E00E94C30221C189819A81803265
:1036A000934029F464E082E00E94C30217C189813B
:1036B0009A818115984029F461E083E00E94C30259
:1036C0000DC189819A818115994029F461E084E0D6
:1036D0000E94C30203C189819A8181159A4029F40D
:1036E00061E085E00E94C302F9C089819A81811559
:1036F0009B4029F461E086E00E94C302EFC089810B
:103700009A818034984029F462E083E00E94C302E9
:10371000E5C089819A818034994029F462E084E08F
:103720000E94C302DBC089819A8180349A4029F4C7
:1037300062E085E00E94C302D1C089819A81803411
:103740009B4029F462E086E00E94C302C7C08981E1
:103750009A818039984029F464E083E00E94C30292
:10376000BDC089819A818039994029F464E084E060
:103770000E94C302B3C089819A8180399A4029F49A
:1037800064E085E00E94C302A9C089819A818039E2
:103790009B4029F464E086E00E94C3029FC08981B7
:1037A0009A81803C984029F468E083E00E94C3023B
:1037B00095C089819A81803C994029F468E084E031
:1037C0000E94C3028BC089819A81803C9A4029F46F
:1037D00068E085E00E94C30281C089819A81803CB3
:1037E0009B4029F468E086E00E94C30277C089818B
:1037F0009A81803A984029F460E183E00E94C302F4
:103800006DC089819A81803A994029F460E184E011
:103810000E94C30263C089819A81803A9A4029F448
:1038200060E185E00E94C30259C089819A81803A93
:103830009B4029F460E186E00E94C3024FC0898169
:103840009A81803B984029F460E283E00E94C302A1
:1038500045C089819A81803B994029F460E284E0E7
:103860000E94C3023BC089819A81803B9A4029F41F
:1038700060E285E00E94C30231C089819A81803B69
:103880009B4029F460E286E00E94C30227C0898140
:103890009A818038944029F460E483E00E94C30256
:1038A0001DC089819A818039944029F460E484E0C4
:1038B0000E94C30213C089819A81803A944029F4FE
:1038C00060E485E00E94C30209C089819A81803B3F
:1038D000944021F460E486E00E94C30200000F904F
:1038E0000F90DF91CF910895CF93DF9300D01F9277
:1038F000CDB7DEB789839A836B837C832B813C8130
:1039000089819A8141E0B9014AD82496CDBFDEBFB2
:10391000DF91CF910895CF93DF9300D01F92CDB761
:10392000DEB789839A836B837C832B813C81898179
:103930009A8140E0B90133D82496CDBFDEBFDF9134
:10394000CF910895EF92FF920F931F93CF93DF9340
:1039500000D01F92CDB7DEB789839A836B837C83B7
:103960001FDE7B018C018B819C81FC018081918118
:10397000A281B3819C01AD01220F331F441F551F4B
:10398000C801B7010E943E25DA01C9010597A109C6
:10399000B1092B813C81F90184839583A683B78388
:1039A00089819A8109DE2B813C8189819A81B901C3
:1039B0000E949714082E000C990B2496CDBFDEBFF1
:1039C000DF91CF911F910F91FF90EF900895CF93CA
:1039D000DF93CDB7DEB72E97CDBFDEBF6A877B877B
:1039E0008C879D874E878E858093D42029E0CE01D9
:1039F0000196FC01322F11923A95E9F78A859B8551
:103A0000AC85BD8589839A83AB83BC838E8589878A
:103A1000CE010196BC0180E894E094DF00002E9670
:103A2000CDBFDEBFDF91CF910895CF93DF93CDB7A8
:103A3000DEB72F97CDBFDEBF8C879D876E874F8700
:103A40002BE0CE010196FC01322F11923A95E9F755
:103A50008E8589838F858A8381E090E08D839E8324
:103A60008C859D858F83988782E090E089879A87EF
:103A70000BC084E190E2892F8F9384E190E28F93D1
:103A80000E9454270F900F90CE010196BC0180E850
:103A900094E041DF882369F700002F96CDBFDEBF99
:103AA000DF91CF910895CF93DF93CDB7DEB72F97F6
:103AB000CDBFDEBF8C879D876E874F872BE0CE0101
:103AC0000196FC01322F11923A95E9F78E85898390
:103AD0008F858A8381E090E08D839E838C859D8590
:103AE0008F83988782E090E089879A87CE0101963C
:103AF000BC0180E894E0F8DE00002F96CDBFDEBF69
:103B0000DF91CF910895CF93DF931F921F92CDB78E
:103B1000DEB789839A8389819A81892B09F485C1CB
:103B200089819A81803C910529F460E180E00E94BE
:103B3000C3027BC189819A818034944029F468E072
:103B400080E00E94C30271C189819A8181159440ED
:103B500029F464E080E00E94C30267C189819A81F0
:103B60008038914029F462E080E00E94C3025DC188
:103B700089819A818115914029F461E080E00E9459
:103B8000C30253C189819A818038934029F461E04E
:103B900081E00E94C30249C189819A8180399340A2
:103BA00029F461E082E00E94C3023FC189819A81C9
:103BB0008115924029F462E081E00E94C30235C180
:103BC00089819A818034924029F462E082E00E94E7
:103BD000C3022BC189819A818115934029F464E045
:103BE00081E00E94C30221C189819A818032934081
:103BF00029F464E082E00E94C30217C189819A819E
:103C00008115984029F461E083E00E94C3020DC150
:103C100089819A818115994029F461E084E00E94AC
:103C2000C30203C189819A8181159A4029F461E018
:103C300085E00E94C302F9C089819A8181159B4069
:103C400029F461E086E00E94C302EFC089819A8175
:103C50008034984029F462E083E00E94C302E5C00A
:103C600089819A818034994029F462E084E00E943D
:103C7000C302DBC089819A8180349A4029F462E0D2
:103C800085E00E94C302D1C089819A8180349B4023
:103C900029F462E086E00E94C302C7C089819A814C
:103CA0008039984029F464E083E00E94C302BDC0DB
:103CB00089819A818039994029F464E084E00E94E6
:103CC000C302B3C089819A8180399A4029F464E0A3
:103CD00085E00E94C302A9C089819A8180399B40F6
:103CE00029F464E086E00E94C3029FC089819A8122
:103CF000803C984029F468E083E00E94C30295C0AC
:103D000089819A81803C994029F468E084E00E948E
:103D1000C3028BC089819A81803C9A4029F468E073
:103D200085E00E94C30281C089819A81803C9B40CA
:103D300029F468E086E00E94C30277C089819A81F5
:103D4000803A984029F460E183E00E94C3026DC08C
:103D500089819A81803A994029F460E184E00E9447
:103D6000C30263C089819A81803A9A4029F460E154
:103D700085E00E94C30259C089819A81803A9B40A4
:103D800029F460E186E00E94C3024FC089819A81D4
:103D9000803B984029F460E283E00E94C30245C062
:103DA00089819A81803B994029F460E284E00E94F5
:103DB000C3023BC089819A81803B9A4029F460E22A
:103DC00085E00E94C30231C089819A81803B9B407B
:103DD00029F460E286E00E94C30227C089819A81AB
:103DE0008038944029F460E483E00E94C3021DC03F
:103DF00089819A818039944029F460E484E00E94AA
:103E0000C30213C089819A81803A944029F460E406
:103E100085E00E94C30209C089819A81803B944059
:103E200021F460E486E00E94C30200000F900F902E
:103E3000DF91CF910895CF93DF93CDB7DEB72B9766
:103E4000CDBFDEBF888799876A877B878A859B85F8
:103E5000FC0184818D838A859B85FC0185818E830D
:103E60008A859B85FC0186818F838A859B85FC01E1
:103E700080819181A281B38189839A83AB83BC8342
:103E800088859985803A984021F460E183E00E941A
:103E9000C30288859985803B984021F460E283E0E5
:103EA0000E94C30288859985803A994021F460E197
:103EB00084E00E94C30288859985803B994021F463
:103EC00060E284E00E94C30288859985803A9A4026
:103ED00021F460E185E00E94C30288859985803BDA
:103EE0009A4021F460E285E00E94C30288859985AA
:103EF000803A9B4021F460E186E00E94C3028885FD
:103F00009985803B9B4021F460E286E00E94C302D9
:103F1000888599859E012F5F3F4FB9011ED8882360
:103F200011F081E001C080E02B96CDBFDEBFDF91B4
:103F3000CF910895CF93DF9300D0CDB7DEB78983BB
:103F40009A836B8389819A816B814DD82396CDBFEB
:103F5000DEBFDF91CF910895CF93DF9300D01F9202
:103F6000CDB7DEB789839A836B837C8389819A81FD
:103F700058D8282F8B819C81FC0120830000249637
:103F8000CDBFDEBFDF91CF910895CF93DF9300D0F7
:103F90001F92CDB7DEB789839A836B837C83898137
:103FA0009A818093CA209093CB208AE99FE18093E5
:103FB000C8209093C9208CEA9FE18093C6209093FB
:103FC000C7202B813C8189819A81B90134DF67EE5A
:103FD00072E086E093E01ED700002496CDBFDEBFDE
:103FE000DF91CF910895CF93DF931F921F92CDB7AA
:103FF000DEB789839A8389819A81FC0186819781C2
:10400000A085B1858093062090930720A093082077
:10401000B093092089819A81FC0180819181298155
:104020003A81F90120813181F901408129813A8168
:10403000F9012581242BFC01208389819A81FC01CF
:104040008081918129813A81F90120813181F901B1
:10405000448129813A81F9012581242BFC012483A3
:1040600089819A81FC018081918129813A81F901BC
:1040700020813181F9012081422F29813A81F90182
:10408000248120952423FC01208389819A81FC01CD
:104090008281938138DD89819A81FC0182819381BB
:1040A00066E070E2C8DE00000F900F90DF91CF91C4
:1040B0000895CF93DF93CDB7DEB780EA9AE023DD92
:1040C00080E896E020E836E0F90120812860FC01D4
:1040D00020836DE070E280EA9AE057DF0000DF9114
:1040E000CF910895CF93DF93CDB7DEB780E098E40A
:1040F000A8EEB1E0BC01CD01DF91CF910895CF933F
:10410000DF931F92CDB7DEB71982ECDFDC01CB0164
:104110002981222F30E004C0B695A7959795879501
:104120002A95D2F7BC01CD010F90DF91CF91089570
:10413000CF93DF93CDB7DEB7E2DFDC01CB01BC016B
:10414000CD01DF91CF910895CF93DF93CDB7DEB747
:10415000EFDFDC01CB01BC01CD01DF91CF910895F0
:10416000CF93DF93CDB7DEB7EFDFDC01CB01BC012E
:10417000CD01DF91CF91089504C06150710981098B
:1041800091096115710581059105B9F70895CF93DE
:10419000DF93CDB7DEB780EA90E027E0FC01228311
:1041A0000000DF91CF910895CF93DF931F92CDB799
:1041B000DEB789838981882F90E0009719F00197F5
:1041C00079F018C080EA90E020EA30E0F90122811D
:1041D0002F77FC01228380EA90E0FC0111820AC063
:1041E00080EA90E020EA30E0F90122812068FC01B9
:1041F0002283000000000F90DF91CF9108952F924D
:104200003F924F925F926F927F928F929F92AF9266
:10421000BF92CF92DF92EF92FF920F931F93CF93B3
:10422000DF93CDB7DEB76797CDBFDEBF0E949202A6
:1042300069D93FDF89E190E24AD6A9DF81E0B4DFA6
:10424000789449E260E072EC81E090E0C0DB0E948B
:1042500078011A821B821C821D821E821F82198293
:104260006DE3CE0101960E9425017ADFDC01CB01CE
:104270008C019D0140E050E0BA01088719872A8728
:104280003B874C875D876E877F87288439844A8483
:104290005B846C847D848E849F84222D332D442DF9
:1042A000552D662D772D882D992D02E067D4A22EED
:1042B000B32EC42ED52EE62EF72E082F192F2A2C1A
:1042C0003B2C4C2C5D2C6E2C7F2C802E912E222D85
:1042D000332D442D552D662D772D882D992D02E0F7
:1042E0004DD4A22EB32EC42ED52EE62EF72E082F97
:1042F000192F2A2D3B2D4C2D5D2D6E2D7F2D802FBE
:10430000912FA22CB32CC42CD52CE62CF72C082DE5
:10431000192D56D4A22EB32EC42ED52EE62EF72E4E
:10432000082F192F2A2D3B2D4C2D5D2D6E2D7F2D05
:10433000802F912FA884B984CA84DB84EC84FD8407
:104340000E851F853DD4A22EB32EC42ED52EE62E6B
:10435000F72E082F192F2A2D3B2D4C2D5D2D6E2D5C
:104360007F2D802F912F01E009D4222E332E442E51
:10437000552E662E772E882E992EA22CB32CC42C67
:10438000D52CE62CF72C082D192D2A2C3B2C4C2C47
:104390005D2C6E2C7F2C802E912E0F2EF6E0AF2EF2
:1043A000F02DB12CC12CD12CE12CF12C00E010E02F
:1043B000222D332D442D552D662D772D882D992DA9
:1043C00081D3222E332E442E552E662E772E882E04
:1043D000992EA22CB32CC42CD52CE62CF72C082D0E
:1043E000192D2A2D3B2D4C2D5D2D6E2D7F2D802FCF
:1043F000912F29513C4F4F4F5F4F6F4F7F4F8F4F42
:104400009F4FA22EB32EC42ED52EE62EF72E082FA8
:10441000192F2A2D3B2D4C2D5D2D6E2D7F2D802F9C
:10442000912F8DD2DC01CB0120E030E04AE754E44B
:10443000BC01CD01E2D1DC01CB01BC01CD014AD2EE
:10444000A22EB32EC42ED52EE62EF72E082F192F0E
:10445000D601C501BC01CD018FDE8CE089836DE3FF
:10446000CE0101960E9425017BDEDC01CB015C01BF
:104470006D01E12CF12C87012A2D3B2D4C2D5D2D5A
:104480006E2D7F2D802F912F03E078D3222E332E97
:10449000442E552E662E772E882E992E0F2EF6E05E
:1044A000AF2EF02DB12CC12CD12CE12CF12C00E041
:1044B00010E0222D332D442D552D662D772D882D7E
:1044C000992D00D3222E332E442E552E662E772E74
:1044D000882E992EA22CB32CC42CD52CE62CF72C8C
:1044E000082D192D2A2D3B2D4C2D5D2D6E2D7F2D48
:1044F000802F912F29513C4F4F4F5F4F6F4F7F4F70
:104500008F4F9F4FA22EB32EC42ED52EE62EF72E00
:10451000082F192F2A2D3B2D4C2D5D2D6E2D7F2D13
:10452000802F912F0CD2DC01CB0120E030E04AE754
:1045300054E4BC01CD0161D1DC01CB01BC01CD0152
:10454000C9D1A22EB32EC42ED52EE62EF72E082FBB
:10455000192FD601C501BC01CD010EDE66E3CE01E7
:1045600001960E943A018981882F90E0292F2F938C
:104570008F9389E290E2892F8F9389E290E28F9363
:1045800093D40F900F900F900F906DE3CE01019692
:104590000E943A018981882F90E0292F2F938F93D1
:1045A00089E390E2892F8F9389E390E28F937CD403
:1045B0000F900F900F900F9065E3CE0101960E942F
:1045C0003A018981882F90E0292F2F938F9388E4D7
:1045D00090E2892F8F9388E490E28F9365D40F90B7
:1045E0000F900F900F900E944F01292F2F938F93C0
:1045F00086E590E2892F8F9386E590E28F9354D4DD
:104600000F900F900F900F90ABDDDC01CB018C0170
:104610009D0140E050E0BA01088B198B2A8B3B8B3F
:104620004C8B5D8B6E8B7F8B288839884A885B88A2
:104630006C887D888E889F88222D332D442D552DA2
:10464000662D772D882D992D02E098D2A22EB32EBB
:10465000C42ED52EE62EF72E082F192F2A2C3B2CF0
:104660004C2C5D2C6E2C7F2C802E912E222D332DE8
:10467000442D552D662D772D882D992D05E07ED260
:10468000A22EB32EC42ED52EE62EF72E082F192FCC
:104690002A2D3B2D4C2D5D2D6E2D7F2D802F912FA2
:1046A000A22CB32CC42CD52CE62CF72C082D192DBC
:1046B00087D2A22EB32EC42ED52EE62EF72E082F8B
:1046C000192F2A2D3B2D4C2D5D2D6E2D7F2D802FEA
:1046D000912FA888B988CA88DB88EC88FD880E8964
:1046E0001F8965D2A22EB32EC42ED52EE62EF72E0C
:1046F000082F192F2A2D3B2D4C2D5D2D6E2D7F2D32
:10470000802F912F02E03AD2222E332E442E552EA6
:10471000662E772E882E992EA22CB32CC42CD52C45
:10472000E62CF72C082D192D2A2C3B2C4C2C5D2C1B
:104730006E2C7F2C802E912E0F2EF6E0AF2EF02DBA
:10474000B12CC12CD12CE12CF12C00E010E0222D59
:10475000332D442D552D662D772D882D992DB2D1D1
:10476000222E332E442E552E662E772E882E992EED
:10477000A22CB32CC42CD52CE62CF72C082D192DEB
:104780002A2D3B2D4C2D5D2D6E2D7F2D802F912FB1
:1047900029513C4F4F4F5F4F6F4F7F4F8F4F9F4F70
:1047A000A22EB32EC42ED52EE62EF72E082F192FAB
:1047B0002A2D3B2D4C2D5D2D6E2D7F2D802F912F81
:1047C000BED0DC01CB0120E030E04AE754E4BC017C
:1047D000CD0113D0DC01CB01BC01CD017BD0A22ED9
:1047E000B32EC42ED52EE62EF72E082F192FD60164
:1047F000C501BC01CD01C0DCB1CE0CD005C1FDD0DE
:1048000040F0F4D030F021F45F3F19F0D6C05111E0
:104810002FC1D9C00AD198F39923C9F35523B1F315
:10482000951B550BBB27AA2762177307840738F01F
:104830009F5F5F4F220F331F441FAA1FA9F333D07E
:104840000E2E3AF0E0E830D091505040E695001C32
:10485000CAF729D0FE2F27D0660F771F881FBB1FEE
:10486000261737074807AB07B0E809F0BB0B802DC8
:10487000BF01FF2793585F4F2AF09E3F510568F014
:104880009CC0F6C05F3FECF3983EDCF386957795CD
:104890006795B795F7959F5FC9F7880F911D969516
:1048A000879597F90895E1E0660F771F881FBB1F72
:1048B000621773078407BA0720F0621B730B840B1F
:1048C000BA0BEE1F88F7E0950895BEE304D008F414
:1048D00090E80895BFE322273327A901AED058F10D
:1048E0009F5740F1B91738F1BFE3B91B9927B8506A
:1048F0003AF4660F771F881F991FB395D2F316C03D
:10490000B8504AF0232F342F452F562F672F782F7A
:104910008827B850BAF7B85F49F0869577956795BC
:104920005795479537952795BA95B9F70EF44ED018
:1049300088940895889460E070E0CB010895E8942D
:10494000F92F96EBFF2381F0121613061406440B81
:104950009395F69587957795679557954040FF23F2
:10496000B9F71BC099270895882351F49850D2F7BE
:10497000872B762F652F542F432F322F20E0B1F352
:10498000121613061406440B88233AF09A95440F26
:10499000551F661F771F881FCAF755234AF4440F17
:1049A000551F11F460FF04C06F5F7F4F8F4F9F4F03
:1049B000880F9695879597F9089597F99F6780E8EE
:1049C00070E060E008959FEF80EC089590958095E9
:1049D0007095609550954095309521953F4F4F4F7C
:1049E0005F4F6F4F7F4F8F4F9F4F089500240A9462
:1049F0001616170618060906089500240A941216BA
:104A00001306140605060895092E0394000C11F4EC
:104A1000882352F0BB0F40F4BF2B11F460FF04C099
:104A20006F5F7F4F8F4F9F4F089557FD9058440FF2
:104A3000551F59F05F3F71F04795880F97FB991FFD
:104A400061F09F3F79F087950895121613061406BA
:104A5000551FF2CF4695F1DF08C016161706180647
:104A6000991FF1CF86957105610508940895E89422
:104A7000BB2766277727CB0197F90895A1E21A2E65
:104A8000AA1BBB1BFD010DC0AA1FBB1FEE1FFF1FF2
:104A9000A217B307E407F50720F0A21BB30BE40B42
:104AA000F50B661F771F881F991F1A9469F7609589
:104AB0007095809590959B01AC01BD01CF01089543
:104AC000689401C0E8948F929F92CF93DF9305D0B2
:104AD000DF91CF919F908F90089588249924F401BD
:104AE000E401B0E49F93AA279A158B049C04ED057A
:104AF000FE05CF05D007A10798F4AD2FDC2FCF2FEF
:104B0000FE2FE92D982C892E982F872F762F652F31
:104B1000542F432F322F2227B85031F7BF9127C08F
:104B20001B2EBF91BB27220F331F441F551F661F2B
:104B3000771F881F991F881C991CEE1FFF1FCC1F11
:104B4000DD1FAA1FBB1F8A149B04EC05FD05CE05C3
:104B5000DF05A007B10748F08A189B08EC09FD099A
:104B6000CE09DF09A00BB10B21601A94E1F62EF4F7
:104B70009401AF01BE01CD01000C08950F930830E0
:104B800090F0982F872F762F652F542F432F322F99
:104B900022270850F4CF220F331F441F551F661FD2
:104BA000771F881F991F0A95B2F70F9108952A0D54
:104BB0003B1D4C1D5D1D6E1D7F1D801F911F0895A7
:104BC0002A193B094C095D096E097F09800B910B7D
:104BD00008950F931F93CF93DF938230910510F4C4
:104BE00082E090E0E091D720F091D82020E030E002
:104BF000A0E0B0E0309719F140815181028113812A
:104C000048175907C8F08417950769F4109731F0D1
:104C100012960C93129713961C9327C00093D720DB
:104C20001093D82022C02115310519F042175307DF
:104C300018F49A01BD01EF01DF01F801DBCF211566
:104C40003105F9F0281B390B2430310580F48A81B5
:104C50009B816115710521F0FB018283938304C060
:104C60008093D7209093D820FE01329644C0FE0155
:104C7000E20FF31F819391932250310928833983E6
:104C80003AC02091D5203091D620232B41F4209199
:104C90000220309103202093D5203093D6202091FC
:104CA0000020309101202115310541F42DB73EB788
:104CB0004091042050910520241B350BE091D52014
:104CC000F091D620E217F307A0F42E1B3F0B281714
:104CD000390778F0AC014E5F5F4F2417350748F075
:104CE0004E0F5F1F4093D5205093D6208193919310
:104CF00002C0E0E0F0E0CF01DF91CF911F910F9172
:104D00000895CF93DF93009709F481C0FC01329797
:104D100012821382A091D720B091D820109781F4ED
:104D200020813181820F931F2091D5203091D62090
:104D30002817390751F5E093D520F093D62067C0A6
:104D4000ED0120E030E0CE17DF0740F44A815B81BF
:104D50009E0141155105F1F0EA01F5CFC283D383DD
:104D600040815181840F951FC817D90759F4888154
:104D70009981840F951F0296808391838A819B81FC
:104D8000828393832115310529F4E093D720F09392
:104D9000D8203DC0E901EA83FB8349915991C40FB2
:104DA000D51FEC17FD0761F480819181840F951F59
:104DB0000296E90188839983828193818A839B8308
:104DC000E0E0F0E012968D919C911397009719F016
:104DD000FD01DC01F7CF8D919C9111979D012E5F14
:104DE0003F4F820F931F2091D5203091D620281756
:104DF000390769F4309729F41092D7201092D820FF
:104E000002C012821382A093D520B093D620DF91E6
:104E1000CF9108950F931F93CF93DF93009731F4B1
:104E20006115710519F480E090E039C08B01EC0147
:104E30006EE070E081E090E071D2FC01892B99F383
:104E400080E883830115110571F00287138781E8DB
:104E500083838091D9209091DA20892B21F4E093EB
:104E6000D920F093DA202097C9F0C087D1878381B9
:104E7000826083838091DB209091DC20892B71F408
:104E8000E093DB20F093DC208091DD209091DE2008
:104E9000892B21F4E093DD20F093DE20CF01DF9118
:104EA000CF911F910F910895CF93DF93CDB7DEB7C8
:104EB000AE014A5F5F4FFA0161917191AF0180913C
:104EC000DB209091DC2033D0DF91CF9108950F93B8
:104ED0001F93CF93DF93E091DB20F091DC202381BF
:104EE00021FF1BC08C01D0E0C0E0F80181918F014F
:104EF0006091DB207091DC20DB011896ED91FC9134
:104F00001997882331F01995892B79F3DFEFCFEFCB
:104F1000ECCF8AE01995892B19F08FEF9FEF02C033
:104F20008D2F9C2FDF91CF911F910F9108952F927C
:104F30003F924F925F926F927F928F929F92AF9229
:104F4000BF92CF92DF92EF92FF920F931F93CF9376
:104F5000DF93CDB7DEB72B97CDBFDEBF6C017B01F2
:104F60008A01FC0116821782838181FFBFC1CE01B5
:104F700001963C01F6019381F70193FD859193FF22
:104F800081917F01882309F4ADC1853239F493FD05
:104F9000859193FF81917F01853221F4B60190E0E4
:104FA000F4D1E8CF912C212C312CFFE1F315D8F06E
:104FB0008B3279F038F4803279F08332A1F4232DEA
:104FC00020611DC08D3261F0803369F4232D216092
:104FD00016C0832D8260382EE32DE4603E2E2AC059
:104FE000F32DF8601DC037FC2DC020ED280F2A30AE
:104FF00040F08E32B9F436FC75C1232D2064322E78
:1050000019C036FE06C08AE0989E200D1124922E0B
:1050100011C0EAE02E9E200D1124222EF32DF06205
:105020003F2E08C08C3621F4832D8068382E02C0B4
:10503000883641F4F70193FD859193FF81917F01BB
:105040008111B3CF982F9F7D9554933028F40C5F36
:105050001F4F9FE399830DC0833631F0833771F082
:10506000833509F055C020C0F801808189830E5F27
:105070001F4F88248394912C530112C02801F2E021
:105080004F0E511CF801A080B18036FE03C0692D7F
:1050900070E002C06FEF7FEFC5016CD14C0182015F
:1050A000F32DFF773F2E15C0280122E0420E511C40
:1050B000F801A080B18036FE03C0692D70E002C007
:1050C0006FEF7FEFC50144D14C01F32DF0683F2E07
:1050D000820133FC19C0822D90E088169906A0F455
:1050E000B60180E290E051D12A94F5CFF50137FC6A
:1050F000859137FE81915F01B60190E046D1211084
:105100002A9421E0821A91088114910479F7E1C070
:10511000843611F0893639F5F80137FE07C0608111
:105120007181828193810C5F1F4F08C06081718102
:10513000072E000C880B990B0E5F1F4FF32DFF7687
:105140003F2E97FF09C090958095709561957F4F90
:105150008F4F9F4FF0683F2E2AE030E0A30151D1DE
:10516000882E861844C0853731F4232D2F7EB22E29
:105170002AE030E025C0932D997FB92E8F36C1F0FB
:1051800018F4883579F0AEC0803719F0883721F0EF
:10519000A9C0E92FE061BE2EB4FE0DC0FB2DF46066
:1051A000BF2E09C034FE0AC0292F2660B22E06C0C9
:1051B00028E030E005C020E130E002C020E132E02C
:1051C000F801B7FE07C060817181828193810C5F15
:1051D0001F4F06C06081718180E090E00E5F1F4F1D
:1051E000A3010FD1882E8618FB2DFF773F2E36FEA8
:1051F0000DC0232D2E7FA22E891458F434FE0BC02F
:1052000032FC09C0832D8E7EA82E05C0B82CA32C9D
:1052100003C0B82C01C0B92CA4FE0FC0FE01E80DDC
:10522000F11D8081803321F49A2D997EA92E09C029
:10523000A2FE06C0B394B39404C08A2D867809F008
:10524000B394A3FC10C0A0FE06C0B21480F4280CD6
:10525000922C9B180DC0B21458F4B60180E290E075
:1052600094D0B394F8CFB21418F42B1802C0982C31
:10527000212CA4FE0FC0B60180E390E086D0A2FEF0
:1052800016C0A1FC03C088E790E002C088E590E06A
:10529000B6010CC08A2D867851F0A1FE02C08BE2C7
:1052A00001C080E2A7FC8DE2B60190E06ED08914C7
:1052B00030F4B60180E390E068D09A94F8CF8A94F5
:1052C000F301E80DF11D8081B60190E05ED0811000
:1052D000F6CF222009F44ECEB60180E290E055D000
:1052E0002A94F7CFF6018681978102C08FEF9FEF56
:1052F0002B96CDBFDEBFDF91CF911F910F91FF9015
:10530000EF90DF90CF90BF90AF909F908F907F9065
:105310006F905F904F903F902F9008950F931F9341
:10532000CF93DF93869F8001879F100D969F100D6E
:105330001124C8014EDCEC01009721F0A80160E0C7
:1053400070E011D0CE01DF91CF911F910F910895A0
:10535000FC010590615070400110D8F78095909540
:105360008E0F9F1F0895DC0101C06D934150504086
:10537000E0F70895FC016150704001900110D8F7EA
:10538000809590958E0F9F1F08950F931F93CF9335
:10539000DF93FB01238121FD03C08FEF9FEF2CC022
:1053A00022FF16C046815781248135814217530759
:1053B00044F4A081B1819D012F5F3F4F2083318351
:1053C0008C93268137812F5F3F4F2683378314C00C
:1053D0008B01EC01FB010084F185E02D1995892BEF
:1053E000E1F6D80116968D919C9117970196169625
:1053F0008D939C931797CE01DF91CF911F910F91C1
:105400000895FA01AA27283051F1203181F1E8945A
:105410006F936E7F6E5F7F4F8F4F9F4FAF4FB1E0A7
:105420003ED0B4E03CD0670F781F891F9A1FA11DA2
:10543000680F791F8A1F911DA11D6A0F711D811DA3
:10544000911DA11D20D009F468943F912AE0269F68
:1054500011243019305D3193DEF6CF010895462FC7
:105460004770405D4193B3E00FD0C9F7F6CF462FA8
:105470004F70405D4A3318F0495D31FD4052419311
:1054800002D0A9F7EACFB4E0A695979587957795CE
:105490006795BA95C9F700976105710508959B0155
:1054A000AC010A2E06945795479537952795BA95DE
:1054B000C9F7620F731F841F951FA01D0895F894EC
:0254C000FFCF1C
:1054C2000000DF20200000C2010003000100C20131
:1054D200000300016661696C007561727420697372
:1054E20020776F726B696E670073745F7265737594
:1054F2006C74203D2025690A006F7072206D6F6404
:1055020065203D2025690A0043616C6962737461FC
:10551200742025690A006163656C782025690A0098
:00000001FF
