S011000050726F746F747970652E737265633D
S1130000B3C10000D7C10000D5C10000D3C10000B6
S1130010D1C10000CFC10000CDC10000CBC10000A0
S1130020C9C10000C7C100000C9417320C944732B8
S1130030C1C100000C9401420C944F330C94A633BC
S11300400C94FD330C9454340C94AB340C9402355E
S11300500C9459350C94B0350C9407360C945E36D8
S1130060A9C100000C942126A5C10000A3C1000071
S1130070A1C100009FC100009DC100009BC1000000
S113008099C1000097C1000095C1000093C1000010
S113009091C100008FC100008DC1000064C5000043
S11300A0EEC5000078C6000002C7000083C100004E
S11300B081C100007FC100000C9499420C941B3A4A
S11300C00C94723A0C94C93A0C94203B0C94773BF0
S11300D00C94CE3B0C94253C0C947C3C0C94D33C6B
S11300E00C942A3D67C1000065C1000063C1000093
S11300F061C100005FC100005DC100005BC1000080
S113010059C1000057C1000055C1000053C100008F
S113011051C100004FC100004DC10000F4C20000F5
S11301207EC3000008C4000092C4000043C1000064
S11301300C944D420C94B5360C940C370C946337E4
S11301400C94BA370C9411380C9468380C94BF385A
S11301500C9416390C946D390C94C4392BC10000DD
S113016029C1000027C1000025C1000023C10000EF
S113017021C100001FC100001DC100001BC10000FF
S113018019C1000017C1000015C1000013C100000F
S113019011C100000FC100000DC100000BC100001F
S11301A009C1000007C1000005C100000C94E5422C
S11301B00C94813D0C94D83D0C942F3E0C94863EB7
S11301C00C94DD3E0C94343F0C948B3F0C94E23F32
S11301D00C9439400C949040EDC00000EBC000003A
S11301E0E9C00000E7C000000C94661AE3C00000F8
S11301F00C94161BDFC00000DDC00000FA0B1B0CC2
S11302003C0C5D0C7E0C9F0CC00CE10C0800000043
S1130210BE922449123EABAAAA2ABECDCCCC4C3EF7
S113022000000080BEABAAAAAA3E00000000BF00E6
S11302300000803F0000000000084178D3BB4387E2
S1130240D1133D190E3CC3BD4282AD2B3E68EC82F6
S113025076BED98FE1A93E4C80EFFFBE01C4FF7F7B
S11302603F00000000006E616E00696E6600004091
S11302707A10F35A00A0724E18090010A5D4E800B1
S113028000E87648170000E40B54020000CA9A3BC9
S1130290000000E1F505000080969800000040424F
S11302A00F000000A08601000000102700000000DD
S11302B0E803000000006400000000000A000000E1
S11302C000000100000000002C76D888DC674F088D
S11302D023DFC1DFAE59E1B1B796E5E3E453C63A93
S11302E0E651997696E8E6C28426EB898C9B62ED0A
S11302F0407C6FFCEFBC9C9F40F2BAA56FA5F490C4
S1130300055A2AF75C936B6CF9676DC11BFCE0E43A
S11303100D47FEF520E6B500D0ED902E0300943590
S113032077050080841E080000204E0A000000C8E3
S11303300C333333330F986E12831141EF8D211434
S1130340893BE65516CFFEE6DB18D1844B381BF704
S11303507C1D901DA4BBE424203284725E228100A3
S1130360C9F124ECA1E53D2711241FBECFEFCDBF79
S1130370DFE3DEBF00E00CBF18BE19BE1ABE1BBE11
S113038012E2A0E0B0E2E6E7FCEB00E00BBF02C043
S113039007900D92AC39B107D9F71BBE28E2ACE93E
S11303A0B2E201C01D92AE3EB207E1F70E9477505F
S11303B00C94395E25CECF93DF931F92CDB7DEB771
S11303C08FE390E0FC0180818983F89489810F9008
S11303D0DF91CF910895CF93DF931F92CDB7DEB70E
S11303E089838FE390E02981FC01208300000F9032
S11303F0DF91CF910895CF93DF931F921F92CDB7D2
S1130400DEB78A838A81882F90E08053974DFC0160
S113041080818F3F09F4FFCFCEDF89838A81882FC3
S113042090E09C012053374DF90120812F5F8053C8
S1130430974DFC0120838981CEDF00000F900F903F
S1130440DF91CF910895CF93DF931F921F92CDB781
S1130450DEB78A838A81882F90E08053974DFC0110
S11304608081882309F4FFCFA6DF89838A81882FBE
S113047090E09C012053374DF90120812150805395
S1130480974DFC0120838981A6DF00000F900F9017
S1130490DF91CF910895CF93DF931F921F92CDB731
S11304A0DEB789839A8389819A818115924069F4A0
S11304B080919C2291E0980F90939C228823B1F420
S11304C062E081E00E94873011C089819A81803482
S11304D0924061F480919D2291E0980F90939D2227
S11304E0882321F462E082E00E94873000000F90AC
S11304F00F90DF91CF910895CF93DF931F921F92B6
S1130500CDB7DEB789839A8389819A818115924018
S113051071F480919C22815080939C2280919C2232
S11305208823B9F462E081E00E94AB3012C0898173
S11305309A818034924069F480919D228150809305
S11305409D2280919D22882321F462E082E00E9412
S1130550AB3000000F900F90DF91CF910895CF93AF
S1130560DF9300D0CDB7DEB78A839B8324DF8983F2
S11305708A819B8190DF8A819B81FC018081282F65
S113058021608A819B81FC012083898124DF81E0B1
S113059032DF00002396CDBFDEBFDF91CF910895F7
S11305A0CF93DF9300D0CDB7DEB78A839B8303DF7D
S11305B089838A819B81FC018081282F2E7F8A81F7
S11305C09B81FC0120838A819B8196DF898103DFE3
S11305D081E039DF00002396CDBFDEBFDF91CF91EC
S11305E00895CF93DF931F92CDB7DEB78FE390E0EA
S11305F0FC0180818983F89489810F90DF91CF91E8
S11306000895CF93DF931F92CDB7DEB789838FE32D
S113061090E02981FC01208300000F90DF91CF91AD
S11306200895CF93DF931F92CDB7DEB78983898175
S1130630882F90E0BC0182E00E944F310F90DF913F
S1130640CF910895CF93DF9300D0CDB7DEB78B83DE
S11306508B81882F90E081309105E9F082309105FB
S113066089F1892B09F045C081E2DBDF882F90E016
S113067089839A8389819A81982F882789839A8389
S113068080E2CFDF882F90E029813A81822B932B5F
S113069089839A8330C085E2C4DF882F90E0898300
S11306A09A8389819A81982F882789839A8384E2FF
S11306B0B8DF882F90E029813A81822B932B89839C
S11306C09A8319C08FE2ADDF882F90E089839A83E3
S11306D089819A81982F882789839A838EE2A1DF62
S11306E0882F90E029813A81822B932B89839A83E6
S11306F002C019821A8289819A812396CDBFDEBFF6
S1130700DF91CF9108951F920F9200903F000F92B6
S11307101124009038000F92109238000090390094
S11307200F921092390000903A000F9210923A0002
S113073000903B000F9210923B002F933F934F93F6
S11307405F936F937F938F939F93AF93BF93EF9335
S1130750FF93CF93DF9300D01F92CDB7DEB72091E4
S113076011233091122380E092E089839A8381E0FF
S11307708B831C828B81882F90E083709927892B2F
S113078039F48C818E5F8C838B81869586958B83DF
S11307908B81882F90E081709927892B19F48C81A3
S11307A08F5F8C8389819A81AC01405E5F4F8C811D
S11307B0882F90E0880F991F880F991F880F991F21
S11307C0840F951FFC0184819581AC0161E080E078
S11307D092E0F901199500002496CDBFDEBFDF91A8
S11307E0CF91FF91EF91BF91AF919F918F917F91A5
S11307F06F915F914F913F912F910F9000923B0029
S11308000F9000923A000F90009239000F900092DE
S113081038000F9000923F000F901F9018951F9280
S11308200F9200903F000F921124009038000F9215
S113083010923800009039000F9210923900009005
S11308403A000F9210923A0000903B000F921092DF
S11308503B002F933F934F935F936F937F938F93BB
S11308609F93AF93BF93EF93FF93CF93DF9300D006
S11308701F92CDB7DEB7209111233091122380E06F
S113088092E089839A8382E08B831C828B81882FF8
S113089090E083709927892B39F48C818E5F8C8347
S11308A08B81869586958B838B81882F90E08170D0
S11308B09927892B19F48C818F5F8C8389819A8184
S11308C0AC01405E5F4F8C81882F90E0880F991FA8
S11308D0880F991F880F991F840F951FFC0184812D
S11308E09581AC0162E080E092E0F9011995000085
S11308F02496CDBFDEBFDF91CF91FF91EF91BF91E1
S1130900AF919F918F917F916F915F914F913F91A3
S11309102F910F9000923B000F9000923A000F909D
S1130920009239000F90009238000F9000923F001F
S11309300F901F9018951F920F9200903F000F92F6
S11309401124009038000F92109238000090390062
S11309500F921092390000903A000F9210923A00D0
S113096000903B000F9210923B002F933F934F93C4
S11309705F936F937F938F939F93AF93BF93EF9303
S1130980FF93CF93DF9300D01F92CDB7DEB72091B2
S113099011233091122380E092E089839A8384E0CA
S11309A08B831C828B81882F90E083709927892BFD
S11309B039F48C818E5F8C838B81869586958B83AD
S11309C08B81882F90E081709927892B19F48C8171
S11309D08F5F8C8389819A81AC01405E5F4F8C81EB
S11309E0882F90E0880F991F880F991F880F991FEF
S11309F0840F951FFC0184819581AC0164E080E043
S1130A0092E0F901199500002496CDBFDEBFDF9175
S1130A10CF91FF91EF91BF91AF919F918F917F9172
S1130A206F915F914F913F912F910F9000923B00F6
S1130A300F9000923A000F90009239000F900092AC
S1130A4038000F9000923F000F901F9018951F924E
S1130A500F9200903F000F921124009038000F92E3
S1130A6010923800009039000F92109239000090D3
S1130A703A000F9210923A0000903B000F921092AD
S1130A803B002F933F934F935F936F937F938F9389
S1130A909F93AF93BF93EF93FF93CF93DF9300D0D4
S1130AA01F92CDB7DEB7209111233091122380E03D
S1130AB092E089839A8388E08B831C828B81882FC0
S1130AC090E083709927892B39F48C818E5F8C8315
S1130AD08B81869586958B838B81882F90E081709E
S1130AE09927892B19F48C818F5F8C8389819A8152
S1130AF0AC01405E5F4F8C81882F90E0880F991F76
S1130B00880F991F880F991F840F951FFC018481FA
S1130B109581AC0168E080E092E0F901199500004C
S1130B202496CDBFDEBFDF91CF91FF91EF91BF91AE
S1130B30AF919F918F917F916F915F914F913F9171
S1130B402F910F9000923B000F9000923A000F906B
S1130B50009239000F90009238000F9000923F00ED
S1130B600F901F9018951F920F9200903F000F92C4
S1130B701124009038000F92109238000090390030
S1130B800F921092390000903A000F9210923A009E
S1130B9000903B000F9210923B002F933F934F9392
S1130BA05F936F937F938F939F93AF93BF93EF93D1
S1130BB0FF93CF93DF9300D01F92CDB7DEB7209180
S1130BC00F233091102380E492E089839A8381E09B
S1130BD08B831C828B81882F90E083709927892BCB
S1130BE039F48C818E5F8C838B81869586958B837B
S1130BF08B81882F90E081709927892B19F48C813F
S1130C008F5F8C8389819A81AC01405E5F4F8C81B8
S1130C10882F90E0880F991F880F991F880F991FBC
S1130C20840F951FFC0184819581AC0161E080E40F
S1130C3092E0F901199500002496CDBFDEBFDF9143
S1130C40CF91FF91EF91BF91AF919F918F917F9140
S1130C506F915F914F913F912F910F9000923B00C4
S1130C600F9000923A000F90009239000F9000927A
S1130C7038000F9000923F000F901F9018951F921C
S1130C800F9200903F000F921124009038000F92B1
S1130C9010923800009039000F92109239000090A1
S1130CA03A000F9210923A0000903B000F9210927B
S1130CB03B002F933F934F935F936F937F938F9357
S1130CC09F93AF93BF93EF93FF93CF93DF9300D0A2
S1130CD01F92CDB7DEB720910F233091102380E40B
S1130CE092E089839A8382E08B831C828B81882F94
S1130CF090E083709927892B39F48C818E5F8C83E3
S1130D008B81869586958B838B81882F90E081706B
S1130D109927892B19F48C818F5F8C8389819A811F
S1130D20AC01405E5F4F8C81882F90E0880F991F43
S1130D30880F991F880F991F840F951FFC018481C8
S1130D409581AC0162E080E492E0F901199500001C
S1130D502496CDBFDEBFDF91CF91FF91EF91BF917C
S1130D60AF919F918F917F916F915F914F913F913F
S1130D702F910F9000923B000F9000923A000F9039
S1130D80009239000F90009238000F9000923F00BB
S1130D900F901F9018951F920F9200903F000F9292
S1130DA01124009038000F921092380000903900FE
S1130DB00F921092390000903A000F9210923A006C
S1130DC000903B000F9210923B002F933F934F9360
S1130DD05F936F937F938F939F93AF93BF93EF939F
S1130DE0FF93CF93DF9300D01F92CDB7DEB720914E
S1130DF00F233091102380E492E089839A8384E066
S1130E008B831C828B81882F90E083709927892B98
S1130E1039F48C818E5F8C838B81869586958B8348
S1130E208B81882F90E081709927892B19F48C810C
S1130E308F5F8C8389819A81AC01405E5F4F8C8186
S1130E40882F90E0880F991F880F991F880F991F8A
S1130E50840F951FFC0184819581AC0164E080E4DA
S1130E6092E0F901199500002496CDBFDEBFDF9111
S1130E70CF91FF91EF91BF91AF919F918F917F910E
S1130E806F915F914F913F912F910F9000923B0092
S1130E900F9000923A000F90009239000F90009248
S1130EA038000F9000923F000F901F9018951F92EA
S1130EB00F9200903F000F921124009038000F927F
S1130EC010923800009039000F921092390000906F
S1130ED03A000F9210923A0000903B000F92109249
S1130EE03B002F933F934F935F936F937F938F9325
S1130EF09F93AF93BF93EF93FF93CF93DF9300D070
S1130F001F92CDB7DEB720910F233091102380E4D8
S1130F1092E089839A8388E08B831C828B81882F5B
S1130F2090E083709927892B39F48C818E5F8C83B0
S1130F308B81869586958B838B81882F90E0817039
S1130F409927892B19F48C818F5F8C8389819A81ED
S1130F50AC01405E5F4F8C81882F90E0880F991F11
S1130F60880F991F880F991F840F951FFC01848196
S1130F709581AC0168E080E492E0F90119950000E4
S1130F802496CDBFDEBFDF91CF91FF91EF91BF914A
S1130F90AF919F918F917F916F915F914F913F910D
S1130FA02F910F9000923B000F9000923A000F9007
S1130FB0009239000F90009238000F9000923F0089
S1130FC00F901F901895CF93DF93CDB7DEB7289776
S1130FD0CDBFDEBF8D839E836F8378878D819E8195
S1130FE08115924029F480E02DDB89839A830AC01D
S1130FF08D819E818034924009F056C081E022DBCD
S113100089839A83EEDA8B838D819E8144DA8D8184
S11310109E81FC01808181708C838D819E8122E080
S1131020FC0120838D819E8129813A81FC012487E2
S113103035878F819885FC01258136818D819E813C
S1131040FC01208F318F8F819885FC0122818D8155
S11310509E81FC0122838F819885FC0124818D81EE
S11310609E81FC0124838F819885FC0123818D81DD
S11310709E81FC0123838F819885FC0121818D81D0
S11310809E81FC0121838F819885FC0190818C8154
S1131090292F282B8D819E81FC0120838D819E81A7
S11310A02BDA8B81AEDA01C000002896CDBFDEBFFB
S11310B0DF91CF910895CF93DF93CDB7DEB7259716
S11310C0CDBFDEBF8A839B836C837D838ADA898369
S11310D08A819B81E0D98A819B81FC018081282FB0
S11310E0207C8C819D81FC0120838A819B81FC0171
S11310F0208D318D8C819D81FC01258336838A81ED
S11311009B81FC0122818C819D81FC0122838A8147
S11311109B81FC0124818C819D81FC0124838A8133
S11311209B81FC0123818C819D81FC0123838A8125
S11311309B81FC0121818C819D81FC0121838A8119
S11311409B81DAD989815DDA00002596CDBFDEBFA7
S1131150DF91CF910895CF93DF93CDB7DEB72C976E
S1131160CDBFDEBF888799876A874B875C87888570
S113117099858C839D838A858E831F828E81882F97
S113118090E083709927892B39F48F818E5F8F8348
S11311908E81869586958E838E81882F90E08170CE
S11311A09927892B19F48F818F5F8F838C819D817F
S11311B09C01205E3F4F8F81882F90E0880F991FFC
S11311C0880F991F880F991F820F931F89839A8311
S11311D008DA8B83888599855ED98B859C85FC018B
S11311E0208189819A81FC0120838B859C85FC0167
S11311F0228189819A81FC0122838B859C85FC0153
S1131200218189819A81FC0121838A85882F90E03C
S113121081709927892B41F08B859C85FC01238162
S113122089819A81FC0126838885998565D98B817A
S1131230E8D900002C96CDBFDEBFDF91CF91089591
S1131240CF93DF93CDB7DEB72C97CDBFDEBF8887B2
S113125099876A874B875C87888599858C839D836A
S11312608A858E831F828E81882F90E083709927D0
S1131270892B39F48F818E5F8F838E818695869535
S11312808E838E81882F90E081709927892B19F4A1
S11312908F818F5F8F838C819D819C01205E3F4F66
S11312A08F81882F90E0880F991F880F991F880FCE
S11312B0991F820F931F89839A8393D98B8388857F
S11312C09985E9D889819A81FC0120818B859C8547
S11312D0FC01208389819A81FC0122818B859C8574
S11312E0FC01228389819A81FC0121818B859C8563
S11312F0FC0121838A85882F90E081709927892BAE
S113130041F089819A81FC0126818B859C85FC01B1
S1131310238388859985F0D88B8173D900002C9616
S1131320CDBFDEBFDF91CF910895CF93DF93CDB7CB
S1131330DEB780E09CE6ACEDB2E0BC01CD01DF910C
S1131340CF910895CF93DF931F92CDB7DEB7198263
S1131350ECDFDC01CB012981222F30E004C0B695FB
S1131360A795979587952A95D2F7BC01CD010F9043
S1131370DF91CF910895CF93DF93CDB7DEB7E2DF4E
S1131380DC01CB01BC01CD01DF91CF910895CF9356
S1131390DF93CDB7DEB7EFDFDC01CB01BC01CD01BC
S11313A0DF91CF910895CF93DF93CDB7DEB7EFDF11
S11313B0DC01CB01BC01CD01DF91CF910895CF9326
S11313C0DF9300D0CDB7DEB789839A836B8389819D
S11313D09A81FC018081982F907F8B81892B282F03
S11313E089819A81FC01208300002396CDBFDEBF52
S11313F0DF91CF910895CF93DF9300D01F92CDB7A3
S1131400DEB789839A836B837C8389819A812B815C
S11314103C81FC0126A337A300002496CDBFDEBF88
S1131420DF91CF910895CF93DF9300D0CDB7DEB78E
S113143089839A836B8389819A8180749927892B04
S113144061F489819A81FC0191818B81292F282B58
S113145089819A81FC01218313C089819A818074D6
S11314609927892B69F089819A81FC018181982FC0
S11314708B818073892B282F89819A81FC01218398
S113148000002396CDBFDEBFDF91CF910895CF93A7
S1131490DF93CDB7DEB72597CDBFDEBF89839A83AF
S11314A06B834C835D8389819A8180749927892B0E
S11314B099F58B81882F90E082309105A1F08330DB
S11314C091051CF4019739F046C08330910599F0D9
S11314D00497C9F040C089819A812C813D81FC0127
S11314E020AF31AF38C089819A812C813D81FC01C4
S11314F022AF33AF30C089819A812C813D81FC01B8
S113150024AF35AF28C089819A812C813D81FC01AB
S113151026AF37AF00001FC089819A818074992754
S1131520892BC9F08B81882F90E08130910519F0C7
S1131530029749F010C089819A812C813D81FC0178
S113154020AF31AF08C089819A812C813D81FC0193
S113155022AF33AF00002596CDBFDEBFDF91CF9120
S11315600895CF93DF9300D0CDB7DEB789839A83F4
S11315706B8389819A81FC018181982F987F8B816B
S1131580892B282F89819A81FC01218300002396CD
S1131590CDBFDEBFDF91CF910895CF93DF9300D00D
S11315A0CDB7DEB789839A836B8389819A81FC01E5
S11315B0858196819C0140E050E08B81882F90E0EA
S11315C0A0E0B0E0BC01CD010E945459DC01CB0184
S11315D024E630E040E050E0BC01CD010E947759A0
S11315E0DA01C9019C0189819A81FC0162818981A6
S11315F09A81FC0180819181A90149DF0000239631
S1131600CDBFDEBFDF91CF910895EF92FF920F938C
S11316101F93CF93DF93CDB7DEB72C97CDBFDEBF3B
S113162089879A876B877C87BEDEDC01CB018B833D
S11316309C83AD83BE838B859C859C0140E050E0F8
S11316408B819C81AD81BE81BC01CD010E94775903
S1131650DA01C9012FEF3FEF40E050E0BC01CD01BA
S11316600E947759DA01C9018F8398878F81988501
S1131670892B51F481E090E089839A8389859A8546
S113168021E0FC01248352C08F819885029750F495
S113169082E090E089839A8389859A8522E0FC011F
S11316A0248344C08F819885049750F484E090E0AB
S11316B089839A8389859A8523E0FC01248336C033
S11316C08F819885089750F488E090E089839A8305
S11316D089859A8524E0FC01248328C08F8198851C
S11316E08034910550F480E490E089839A8389855D
S11316F09A8525E0FC01248319C08F8198858F3F4A
S1131700910509F050F480E091E089839A838985FA
S11317109A8526E0FC01248309C080E094E0898353
S11317209A8389859A8527E0FC01248389819A819B
S11317309C0140E050E08B819C81AD81BE81BC0165
S1131740CD010E947759DA01C9017C018D018B8595
S11317509C859C0140E050E0C801B7010E94775984
S1131760DA01C9019C0189859A85FC0125833683A8
S113177089859A85FC01858196818436910548F492
S113178089859A85FC01148289859A85FC011582D4
S1131790168200002C96CDBFDEBFDF91CF911F9142
S11317A00F91FF90EF900895CF93DF93CDB7DEB7FD
S11317B02797CDBFDEBF8A839B836C834D832E83A3
S11317C03F8319828C81882F90E0092E000CAA0B8C
S11317D0BB0B40E050E027E030E0841B950B28175A
S11317E0390708F40FC1FC018827E250FF4F8F4FDF
S11317F00C94B5598A819B8120E038E0FC01208358
S1131800318380E496E020E436E0F9012081622F00
S11318102D81222F30E0A9014150510921E030E00F
S113182002C0220F331F4A95E2F7262BFC012083C6
S113183084E08983E8C08A819B8120E438E0FC014C
S11318402083318380E496E020E436E0F9012081AE
S1131850622F2D81222F30E0A9014D5F5F4F21E0DF
S113186030E002C0220F331F4A95E2F7262BFC0119
S1131870208382E08983C7C08A819B8120E039E08C
S1131880FC012083318380E696E020E636E0F9010E
S11318902081622F2D81222F30E0A901415051096E
S11318A021E030E002C0220F331F4A95E2F7262BD5
S11318B0FC01208384E08983A6C08A819B8120E483
S11318C039E0FC012083318380E696E020E636E0AF
S11318D0F9012081622F2D81222F30E0A9014D5F73
S11318E05F4F21E030E002C0220F331F4A95E2F738
S11318F0262BFC01208382E0898385C08A819B8119
S113190020E03AE0FC012083318380E896E020E87F
S113191036E0F9012081622F2D81222F30E0A901C8
S11319204150510921E030E002C0220F331F4A9593
S1131930E2F7262BFC01208384E0898364C08A813A
S11319409B8120E43AE0FC012083318380E896E027
S113195020E836E0F9012081622F2D81222F30E02A
S1131960A9014D5F5F4F21E030E002C0220F331F19
S11319704A95E2F7262BFC01208382E0898343C049
S11319808A819B8120E03BE0FC012083318380EA53
S113199096E020EA36E0F9012081622F2D81222F82
S11319A030E0A9014150510921E030E002C0220F8A
S11319B0331F4A95E2F7262BFC01208384E08983B8
S11319C022C08A819B8120E43BE0FC012083318397
S11319D080EA96E020EA36E0F9012081622F2D8129
S11319E0222F30E0A9014D5F5F4F21E030E002C0BB
S11319F0220F331F4A95E2F7262BFC01208382E055
S1131A00898301C000008A819B812D81FC0122838E
S1131A108D81882F90E08230910591F0833091057B
S1131A201CF4019739F01EC08330910579F00497B6
S1131A3099F018C08A819B8120E1FC01238312C0A4
S1131A408A819B8120E2FC0123830CC08A819B81D3
S1131A5020E4FC01238306C08A819B8120E8FC01E9
S1131A60238300008A819B81FC01808191810E94F3
S1131A70E7408A819B81FC018081918163E071DD73
S1131A808A819B81FC01158216828A819B81FC01DB
S1131A9014828A819B81FC018081918160E08FDCCA
S1131AA02E813F818A819B81B901AFDD0000279699
S1131AB0CDBFDEBFDF91CF910895CF93DF9300D0E8
S1131AC0CDB7DEB789839A836B8389819A816B81D1
S1131AD064DD89819A81FC012581368189819A811D
S1131AE0FC0180819181B90186DC89819A81FC01A4
S1131AF0238189819A81FC0180819181622F93DC09
S1131B0089819A81FC01248189819A81FC018081E7
S1131B109181622F54DC00002396CDBFDEBFDF919C
S1131B20CF910895CF93DF931F92CDB7DEB78FE3A4
S1131B3090E0FC0180818983F89489810F90DF9182
S1131B40CF910895CF93DF931F92CDB7DEB78983EA
S1131B508FE390E02981FC01208300000F90DF9146
S1131B60CF910895CF93DF93CDB7DEB780E09CE6A5
S1131B70ACEDB2E0BC01CD01DF91CF910895CF93DC
S1131B80DF931F92CDB7DEB71982ECDFDC01CB0106
S1131B902981222F30E004C0B695A79597958795A3
S1131BA02A95D2F7BC01CD010F90DF91CF91089512
S1131BB0CF93DF93CDB7DEB7E2DFDC01CB01BC010D
S1131BC0CD01DF91CF910895CF93DF93CDB7DEB7E9
S1131BD0EFDFDC01CB01BC01CD01DF91CF91089592
S1131BE0CF93DF9300D01F92CDB7DEB78A839B8358
S1131BF06C8398DF89838A819B81FC018081282FF3
S1131C008C81882F90E0880F991F880F991F822B51
S1131C10282F8A819B81FC012083898193DF000026
S1131C202496CDBFDEBFDF91CF910895CF93DF938C
S1131C3000D0CDB7DEB789839A836B8389819A817B
S1131C40FC0196818B8189232396CDBFDEBFDF9172
S1131C50CF910895CF93DF9300D0CDB7DEB78983BA
S1131C609A836B8389819A812B81FC0126830000EE
S1131C702396CDBFDEBFDF91CF910895CF93DF933D
S1131C8000D0CDB7DEB789839A836B8389819A812B
S1131C906B81CCDF982F8B819817C1F789819A814A
S1131CA06B81D8DF00002396CDBFDEBFDF91CF91DB
S1131CB00895CF93DF93CDB7DEB72D97CDBFDEBFA9
S1131CC0888799874A875B876C877D877DDFDC01FE
S1131CD0CB018A839B83AC83BD838A819B81AC8146
S1131CE0BD812A853B854C855D85BC01CD010E9463
S1131CF07759DA01C9018E839F838E819F8105976D
S1131D0010F419822FC08E819F81099718F481E005
S1131D10898328C08E819F81419718F482E089834A
S1131D2021C08E819F81819718F483E089831AC032
S1131D308E819F818134910518F484E0898312C0D7
S1131D408E819F818138910518F485E089830AC0CA
S1131D508E819F818130914018F486E0898302C08E
S1131D6087E08983888599852981FC012483000083
S1131D702D96CDBFDEBFDF91CF910895CF93DF9332
S1131D80CDB7DEB72597CDBFDEBF89839A836B833A
S1131D904C832D8389819A81FC018181282F297E9E
S1131DA089819A81FC01218389819A81FC01918135
S1131DB02C818B81822B292F282B89819A81FC01EC
S1131DC0218389819A81FC018281282F2F7889813E
S1131DD09A81FC01228389819A81FC0192818D81FF
S1131DE0292F282B89819A81FC01228300002596C2
S1131DF0CDBFDEBFDF91CF910895CF93DF93CDB7F1
S1131E00DEB72597CDBFDEBF89839A836B834C836E
S1131E102D838B81882F90E08230910511F18330DE
S1131E2091052CF4009771F00197B9F1A9C08430A1
S1131E30910509F453C084309105D4F1059709F450
S1131E4076C09EC089819A81FC018181282F277FD9
S1131E5089819A81FC01218389819A81FC01138201
S1131E608FC089819A81FC018181282F277F8981F4
S1131E709A81FC0121838D81882F90E0880F991F1E
S1131E80880F991F880F991F982F8C81892B282FD1
S1131E9089819A81FC01238373C089819A81FC0121
S1131EA08181282F286089819A81FC01218368C05F
S1131EB089819A81FC018181282F286089819A81F6
S1131EC0FC0121838C818150282F2295220F220F1F
S1131ED0207C89819A81FC01238352C089819A8163
S1131EE0FC018181282F277F89819A81FC0121832C
S1131EF08C81882F90E0019700249695879507940C
S1131F00969587950794982F802D282F8D81882F5B
S1131F1090E0880F991F880F991F880F991F822BB3
S1131F208560282F89819A81FC01238329C08981B6
S1131F309A81FC018181282F277F89819A81FC0164
S1131F4021838C81882F90E00197002496958795B2
S1131F500794969587950794982F802D282F8D8127
S1131F60882F90E0880F991F880F991F880F991F59
S1131F70822B8660282F89819A81FC0123830000AB
S1131F8000002596CDBFDEBFDF91CF910895CF939A
S1131F90DF931F92CDB7DEB789838981882F90E0C4
S1131FA08830910551F1893091057CF48130910597
S1131FB0F1F0823091051CF4892BB9F028C08230ED
S1131FC09105B9F00497B9F022C080329105C9F0A7
S1131FD0813291051CF4409791F019C08034910529
S1131FE091F08F3F910589F012C08CE111C080E01F
S1131FF00FC084E00DC088E00BC08CE009C080E114
S113200007C084E105C088E103C080E001C080E02E
S11320100F90DF91CF910895CF93DF93CDB7DEB7C3
S11320202597CDBFDEBF89839A836B834C832D8331
S11320308B81803178F089819A81FC0110828B81B7
S11320408051282F220F220F220F89819A81FC01AF
S1132050218387C08C818A3079F489819A8121E037
S1132060FC0120838B81282F220F220F220F8981CC
S11320709A81FC01218375C08C818430B8F48981F4
S11320809A8122E0FC0120838B81882F90E0880FC5
S1132090991F880F991F880F991F982F8C81892B5E
S11320A0282F89819A81FC0121835BC08C8188302F
S11320B0D8F48D816CDF282F236089819A81FC01FB
S11320C020838B81882F90E0880F991F880F991F98
S11320D0880F991F982F8C818450892B282F8981F0
S11320E09A81FC0121833DC08D818130E1F4898195
S11320F09A8122E0FC0120838B81882F90E0880F55
S1132100991F880F991F880F991F982F8C818830E9
S113211011F485E001C087E0892B282F89819A81F9
S1132120FC0121831EC08D8132DF282F2360898129
S11321309A81FC0120838B81882F90E0880F991F5E
S1132140880F991F880F991F982F8C81893011F45B
S113215084E001C087E0892B282F89819A81FC01C2
S1132160218300002596CDBFDEBFDF91CF91089576
S1132170CF93DF93CDB7DEB72E97CDBFDEBF8C876D
S11321809D876E878C859D859E012F5F3F4FB9018A
S11321900E945B089E01285F3F4F8C859D85A901A5
S11321A06E854ED820E140E060E0CE010196E6DD88
S11321B020E041E060E0CE0101961FDE40E45DE0F6
S11321C063E070E0CE01019674DDCE01089620E054
S11321D04AE060E021DF8C859D859E012F5F3F4FA3
S11321E0B9010E94E3079E01285F3F4F8C859D85BE
S11321F0A9016E850E94AB0800002E96CDBFDEBFFC
S1132200DF91CF910895CF93DF93CDB7DEB761E02F
S113221080E092E0ADDF8FE490E20E94625D000016
S1132220DF91CF910895CF93DF93CDB7DEB761E00F
S113223080E492E09DDF87E690E20E94625D000008
S1132240DF91CF910895CF93DF93CDB7DEB7299770
S1132250CDBFDEBF8F83988769878F8198850E9461
S1132260AF028F8198856985BBDC8F8198856985EC
S113227005DD8F8198858B839C8389858D831E8260
S11322808D81882F90E083709927892B39F48E8172
S11322908E5F8E838D81869586958D838D81882F23
S11322A090E081709927892B19F48E818F5F8E833A
S11322B08B819C819C01205E3F4F8E81882F90E012
S11322C0880F991F880F991F880F991F820F931FDA
S11322D0FC018481958189839A838F8198850E94EA
S11322E0D00289819A81CC01A0E0B0E0BC01CD018B
S11322F00E94F253DC01CB01BC01CD012996CDBF74
S1132300DEBFDF91CF910895CF93DF9300D01F926A
S1132310CDB7DEB761E080E492E095DFDC01CB016C
S113232020E030E040E855E4BC01CD010E941F5399
S1132330DC01CB019C01AD01BC01CD010E94B7526F
S1132340DC01CB0189839A83AB83BC8389819A8125
S1132350AB81BC81BC01CD012496CDBFDEBFDF9132
S1132360CF910895CF93DF93CDB7DEB72897CDBF34
S1132370DEBF61E080E092E066DFDC01CB0125EEA8
S113238030ED42E25FE3BC01CD010E943B55DC012C
S1132390CB0189839A83AB83BC8329813A814B81A6
S11323A05C8160E070E080E895E40E941F53DC01EA
S11323B0CB0120E030E040E85FE3BC01CD010E94A6
S11323C0B652DC01CB01BC01CD010E94FB54DC01FF
S11323D0CB012CE734ED43E859E3BC01CD010E9465
S11323E03B55DC01CB012FE03FEC4BE55BE3BC014B
S11323F0CD010E94B752DC01CB019C01AD0160E02C
S113240070E080E89FE30E941F53DC01CB01BC0114
S1132410CD010E94C653DC01CB018D839E83AF8323
S1132420B8876D817E818F8198850E94F253DC018B
S1132430CB0123E333E948E853E4BC01CD010E9416
S1132440B652DC01CB01BC01CD012896CDBFDEBF65
S1132450DF91CF910895CF93DF93CDB7DEB7279760
S1132460CDBFDEBF8E839F838FEF89831A821B8249
S11324701C821D828E819F8180939E2290939F2235
S113248080919E2290919F22DC011996ED91FC91FE
S11324901A9780919E2290919F22DC0118963C917C
S11324A0CE01039621E0AC0167E0832F199589835F
S11324B080919E2290919F22DC011B96ED91FC91CC
S11324C01C9780919E2290919F22DC0118963C914A
S11324D0CE01029621E0AC0160E0832F1995982F7C
S11324E08981890F898380919E2290919F222A81DC
S11324F0FC01208380919E2290919F22DC011B96F7
S1132500ED91FC911C9780919E2290919F22DC0179
S113251018963C91CE01029621E0AC0161E0832F34
S11325201995982F8981890F898380919E22909192
S11325309F222A81FC01248380919E2290919F22D4
S1132540DC011B96ED91FC911C9780919E22909149
S11325509F22DC0118963C91CE01029621E0AC0149
S113256062E0832F1995982F8981890F898380913F
S11325709E2290919F222A81FC01258380919E2294
S113258090919F22DC011B96ED91FC911C97809108
S11325909E2290919F22DC0118963C91CE010296D6
S11325A021E0AC0163E0832F1995982F8981890F6D
S11325B0898380919E2290919F222A81FC01268307
S11325C080919E2290919F22DC011B96ED91FC91BB
S11325D01C9780919E2290919F22DC0118963C9139
S11325E0CE01029621E0AC0166E0832F1995982F65
S11325F08981890F898380919E2290919F222A81CB
S1132600FC01278380919E2290919F22DC011B96DE
S1132610ED91FC911C9780919E2290919F22DC0168
S113262018963C91CE01049622E0AC0164E0832F1D
S11326301995982F8981890F89838C818C83809146
S11326409E2290919F222D81222F30E0522F4427E9
S11326502C81222F30E0242B352BFC012183328363
S113266080919E2290919F22DC011B96ED91FC911A
S11326701C9780919E2290919F22DC0118963C9198
S1132680CE01029621E0AC0167E0832F1995982FC3
S11326908981890F898380919E2290919F222A812A
S11326A0FC01238389812796CDBFDEBFDF91CF91C3
S11326B00895CF93DF93CDB7DEB72597CDBFDEBFA7
S11326C08A836B837C834D838FEF898380919E22E1
S11326D090919F22892B11F481E819C080919E2248
S11326E090919F22DC011996ED91FC911A978091AB
S11326F09E2290919F22DC0118963C918B819C81B3
S11327002D81AC016A81832F19958983898125964E
S1132710CDBFDEBFDF91CF910895CF93DF9300D07B
S1132720CDB7DEB78B838FEF89831A8280919E2287
S113273090919F22892B11F481E846C080919E22BA
S113274090919F22DC011B96ED91FC911C97809146
S11327509E2290919F22DC0118963C91CE01029614
S113276021E0AC0167E0832F19958983898188234F
S113277041F58B818A8380919E2290919F22DC0176
S11327801996ED91FC911A9780919E2290919F2227
S1132790DC0118963C91CE01029621E0AC0167E081
S11327A0832F1995982F8981890F8983898188239B
S11327B051F480919E2290919F222B81FC012383CE
S11327C002C08FEF898389812396CDBFDEBFDF915D
S11327D0CF910895CF93DF93CDB7DEB72A97CDBFBE
S11327E0DEBF89879A878FEF898326E0CE0103961F
S11327F0DC01E22F1D92EA95E9F78FEF8A8380913D
S11328009E2290919F22892B11F481E872C08091BD
S11328109E2290919F22DC0113968C91882319F0BB
S113282080E07BDF8A838A81882349F080919E221D
S113283090919F22FC018381882309F057C08091E5
S11328409E2290919F22DC011B96ED91FC911C9796
S113285080919E2290919F22DC0118963C91CE019A
S1132860039626E0AC016AE1832F199589838B8155
S11328708B838C818C838C81082E000C990B382FD0
S113288022278B81882F90E0282B392B89859A85E4
S1132890FC01208331838D818D838E818E838E8193
S11328A0082E000C990B382F22278D81882F90E059
S11328B0282B392B89859A85DC0112962D933C931C
S11328C013978F818F83888588878885082E000CCD
S11328D0990B382F22278F81882F90E0282B392BB2
S11328E089859A85FC012483358302C08FEF89830F
S11328F089812A96CDBFDEBFDF91CF910895CF9312
S1132900DF93CDB7DEB72A97CDBFDEBF89879A871D
S11329108FEF898326E0CE010396DC01E22F1D921E
S1132920EA95E9F78FEF8A8380919E2290919F2206
S1132930892B11F481E872C080919E2290919F228C
S1132940DC0113968C91882319F080E0E6DE8A83FB
S11329508A81882349F080919E2290919F22FC01D4
S11329608381882309F057C080919E2290919F22F1
S1132970DC011B96ED91FC911C9780919E22909115
S11329809F22DC0118963C91CE01039626E0AC010F
S113299068E2832F199589838B818B838C818C8347
S11329A08C81082E000C990B382F22278B81882FBD
S11329B090E0282B392B89859A85FC01208331836B
S11329C08D818D838E818E838E81082E000C990BD0
S11329D0382F22278D81882F90E0282B392B898549
S11329E09A85DC0112962D933C9313978F818F83E4
S11329F0888588878885082E000C990B382F222714
S1132A008F81882F90E0282B392B89859A85FC01AA
S1132A102483358302C08FEF898389812A96CDBFB1
S1132A20DEBFDF91CF910895CF93DF93CDB7DEB7AB
S1132A302A97CDBFDEBF89879A878FEF89831A8251
S1132A401B821C821D821E821F821886CE0108965C
S1132A5064D289838885882331F080E0BBD2982FA3
S1132A608981890F89838981882309F066C0CE0111
S1132A700296B0DE982F8981890F89838981882302
S1132A8009F058C08A819B81092E000CAA0BBB0B4C
S1132A90BC01CD010E94F453DC01CB0120E030E005
S1132AA040E851E4BC01CD010E941F53DC01CB017D
S1132AB029853A85F90180839183A283B3838E812A
S1132AC09F81092E000CAA0BBB0BBC01CD010E94F7
S1132AD0F453DC01CB0120E030E040E851E4BC01D8
S1132AE0CD010E941F53DC01CB0129853A85F901F0
S1132AF080879187A287B3878C819D81092E000CE2
S1132B00AA0BBB0BBC01CD010E94F453DC01CB0129
S1132B1020E030E040E851E4BC01CD010E941F53A5
S1132B20DC01CB0129853A85F90184839583A68349
S1132B30B78305C08FEF898302C08FEF89838981B2
S1132B402A96CDBFDEBFDF91CF910895CF93DF9357
S1132B50CDB7DEB72997CDBFDEBF888799878FEFC2
S1132B6089831A821B821C821D821E821F82CE01CF
S1132B700296C5DE89838981882309F058C08A8139
S1132B809B81092E000CAA0BBB0BBC01CD010E943A
S1132B90F453DC01CB0120E030E048EC52E4BC010A
S1132BA0CD010E941F53DC01CB0128853985F90131
S1132BB080839183A283B3838C819D81092E000C31
S1132BC0AA0BBB0BBC01CD010E94F453DC01CB0169
S1132BD020E030E048EC52E4BC01CD010E941F53D8
S1132BE0DC01CB0128853985F90184839583A6838B
S1132BF0B7838E819F81092E000CAA0BBB0BBC01ED
S1132C00CD010E94F453DC01CB0120E030E048EC1C
S1132C1052E4BC01CD010E941F53DC01CB01288585
S1132C203985F90180879187A287B38702C08FEF26
S1132C30898389812996CDBFDEBFDF91CF91089525
S1132C40CF93DF93CDB7DEB72597CDBFDEBF8C839F
S1132C509D838FEF89831B828FEF8A8380919E22CD
S1132C6090919F22892B11F481E83AC080919E2291
S1132C7090919F22DC0113968C91882319F080E0B7
S1132C804CDD8A838A81882341F080919E22909131
S1132C909F22FC018381882301F580919E229091DB
S1132CA09F22DC011B96ED91FC911C9780919E2242
S1132CB090919F22DC0118963C91CE01039621E06D
S1132CC0AC0165E3832F199589838B81282F2370A9
S1132CD08C819D81FC01208302C08FEF89838981CF
S1132CE02596CDBFDEBFDF91CF910895CF93DF93BB
S1132CF0CDB7DEB72597CDBFDEBF8C839D838FEF25
S1132D0089831B828FEF8A8380919E2290919F22D8
S1132D10892B11F481E841C080919E2290919F22D9
S1132D20DC0113968C91882319F080E0F6DC8A8309
S1132D308A81882341F080919E2290919F22FC01F8
S1132D408381882339F580919E2290919F22DC0112
S1132D501B96ED91FC911C9780919E2290919F224D
S1132D60DC0118963C91CE01039621E0AC0165E3A9
S1132D70832F199589838B81882F90E08C709927F4
S1132D809595879595958795282F8C819D81FC0134
S1132D90208302C08FEF898389812596CDBFDEBF52
S1132DA0DF91CF910895CF93DF93CDB7DEB7259709
S1132DB0CDBFDEBF8C839D838FEF89831B828FEF12
S1132DC08A8380919E2290919F22892B11F481E81D
S1132DD045C080919E2290919F22DC0113968C9194
S1132DE0882319F080E099DC8A838A81882341F062
S1132DF080919E2290919F22FC018381882359F522
S1132E0080919E2290919F22DC011B96ED91FC9172
S1132E101C9780919E2290919F22DC0118963C91F0
S1132E20CE01039621E0AC0165E3832F19958983D4
S1132E308B81882F90E08073992795958795959538
S1132E4087959595879595958795282F8C819D8154
S1132E50FC01208302C08FEF898389812596CDBF31
S1132E60DEBFDF91CF910895CF93DF93CDB7DEB767
S1132E702597CDBFDEBF8C839D838FEF89831B8213
S1132E808FEF8A8380919E2290919F22892B11F447
S1132E9081E83DC080919E2290919F22DC0113968F
S1132EA08C91882319F080E038DC8A838A81882316
S1132EB041F080919E2290919F22FC01838188237E
S1132EC019F580919E2290919F22DC011B96ED9131
S1132ED0FC911C9780919E2290919F22DC01189670
S1132EE03C91CE01039621E0AC0165E3832F199553
S1132EF089838B81282F22952695269523708C8192
S1132F009D81FC01208302C08FEF898389812596EE
S1132F10CDBFDEBFDF91CF910895CF93DF93CDB7BF
S1132F20DEB72597CDBFDEBF8C839D838FEF89836A
S1132F301B828FEF8A8380919E2290919F22892BFE
S1132F4011F481E841C080919E2290919F22DC017E
S1132F5013968C91882319F080E0DFDB8A838A81C1
S1132F60882341F080919E2290919F22FC018381CD
S1132F70882339F580919E2290919F22DC011B9633
S1132F80ED91FC911C9780919E2290919F22DC01EF
S1132F9018963C91CE01039621E0AC016BE3832F9C
S1132FA0199589838B81882F90E084709927959552
S1132FB0879595958795282F8C819D81FC01208389
S1132FC002C08FEF898389812596CDBFDEBFDF9153
S1132FD0CF910895CF93DF93CDB7DEB72597CDBFBB
S1132FE0DEBF8D838FEF89831B821C828FEF8A83E0
S1132FF080919E2290919F22892B11F481E868C0D0
S1133000CE0104966BD08A838A81882309F054C048
S11330108C81882331F080E0B7D0982F8A81890F82
S11330208A838A81882309F044C080919E229091EA
S11330309F22DC011B96ED91FC911C9780919E22AE
S113304090919F22DC0118963C91CE01039621E0D9
S1133050AC016BE3832F199589838981882371F5EA
S11330608B81282F2B7F8D81882F90E0880F991FCB
S1133070880F991F8470822B8B8380919E2290915C
S11330809F22DC011996ED91FC911A9780919E2262
S113309090919F22DC0118963C91CE01039621E089
S11330A0AC016BE3832F1995982F8981890F89834C
S11330B005C08FEF898302C08FEF89838C818823B9
S11330C031F08C8161D0982F8981890F898389811E
S11330D02596CDBFDEBFDF91CF910895CF93DF93C7
S11330E0CDB7DEB72597CDBFDEBF8C839D838FEF31
S11330F089831B828FEF8A8380919E2290919F22E5
S1133100892B11F481E83AC080919E2290919F22EC
S1133110DC0113968C91882319F080E0FEDA8A830F
S11331208A81882341F080919E2290919F22FC0104
S11331308381882301F580919E2290919F22DC0156
S11331401B96ED91FC911C9780919E2290919F2259
S1133150DC0118963C91CE01039621E0AC016DE3AD
S1133160832F199589838B81282F2F708C819D81C2
S1133170FC01208302C08FEF898389812596CDBF0E
S1133180DEBFDF91CF910895CF93DF93CDB7DEB744
S11331902597CDBFDEBF8D838FEF89831B821C8271
S11331A08FEF8A8380919E2290919F22892B11F424
S11331B081E8D9C0CE01049691DF8A838A8188236D
S11331C009F0CEC08C81882309F04AC080919E22E8
S11331D090919F22DC011B96ED91FC911C978091AC
S11331E09E2290919F22DC0118963C91CE01039679
S11331F021E0AC016DE3832F1995898389818823AC
S113320009F0B0C08B81982F907F8D818F70892BAE
S11332108B8380919E2290919F22DC011996ED91DF
S1133220FC911A9780919E2290919F22DC0118961E
S11332303C91CE01039621E0AC016DE3832F1995F7
S1133240982F8981890F898380919E2290919F2252
S1133250FC012585368588E592E0F901199582C03F
S113326080919E2290919F22DC011B96ED91FC910E
S11332701C9780919E2290919F22DC0118963C918C
S1133280CE01039621E0AC016DE3832F1995898368
S113329089818823C1F48B81807F8B83CE0103963F
S11332A041E0BC018DE305DA982F8981890F898378
S11332B080919E2290919F22FC012585368584E190
S11332C090E0F90119958D81882309F44BC0809110
S11332D09E2290919F22DC011B96ED91FC911C97FC
S11332E080919E2290919F22DC0118963C91CE0100
S11332F0039621E0AC016DE3832F199589838981BD
S1133300882381F58B81982F907F8D818F70892BF5
S11333108B8380919E2290919F22DC011996ED91DE
S1133320FC911A9780919E2290919F22DC0118961D
S11333303C91CE01039621E0AC016DE3832F1995F6
S1133340982F8981890F898380919E2290919F2251
S1133350FC012585368588E592E0F901199502C0BE
S11333608FEF898389812596CDBFDEBFDF91CF9111
S11333700895CF93DF93CDB7DEB72597CDBFDEBFDA
S11333808D838FEF89831B821C828FEF8A838091C8
S11333909E2290919F22892B11F481E862C0CE0174
S11333A004969CDE8A838A81882309F04EC08C812E
S11333B0882331F080E0E8DE982F8A81890F8A83A0
S11333C08A81882309F03EC080919E2290919F2299
S11333D0DC011B96ED91FC911C9780919E229091AB
S11333E09F22DC0118963C91CE01039621E0AC01AA
S11333F06EE3832F199589838981882341F58B8115
S1133400982F9C7F8D818370892B8B8380919E2242
S113341090919F22DC011996ED91FC911A9780916D
S11334209E2290919F22DC0118963C91CE01039636
S113343021E0AC016EE3832F1995982F8981890FC0
S1133440898305C08FEF898302C08FEF89838C81C4
S1133450882331F08C8198DE982F8981890F8983A4
S113346089812596CDBFDEBFDF91CF910895CF939B
S1133470DF931F921F92CDB7DEB780EB9BE024E170
S1133480FC01238310927B2819821A8210928626CB
S113349000000F900F90DF91CF910895CF93DF93A9
S11334A0CDB7DEB740E051E06EED76E28EE796E20E
S11334B00E94DE2640E450E06EED77E28EE198E271
S11334C00E94DE260000DF91CF9108951F920F9293
S11334D000903F000F921124009038000F92109238
S11334E03800009039000F921092390000903A0091
S11334F00F9210923A0000903B000F9210923B0002
S11335002F933F934F935F936F937F938F939F93E7
S1133510AF93BF93EF93FF93CF93DF931F92CDB7F6
S1133520DEB780EB9BE0FC01808189838091DD26FE
S1133530813041F589818A30B1F480917B28882FCC
S113354090E0AC016EE776E286E298E20E945A26A9
S11335508091DD268093862610927B2885E08093D7
S1133560DD2610927D2680917B28882F90E08A5D4D
S1133570974D2981FC01208380917B288F5F809364
S11335807B280AC08981843239F48091DD2688231E
S113359019F481E080937D2680917D26882321F192
S11335A08091DD26882301F580917D268530B9F44C
S11335B089818734A1F481E08093DD2645E050E0E1
S11335C06CE770E286E298E20E94AC5C85E080934E
S11335D07B2880917D268F5F80937D2605C0809116
S11335E07D268F5F80937D2600000F90DF91CF9121
S11335F0FF91EF91BF91AF919F918F917F916F91C7
S11336005F914F913F912F910F9000923B000F904B
S113361000923A000F90009239000F900092380007
S11336200F9000923F000F901F9018951F920F92D9
S113363000903F000F921124009038000F921092D6
S11336403800009039000F921092390000903A002F
S11336500F9210923A0000903B000F9210923B00A0
S11336602F933F934F935F936F937F938F939F9386
S1133670AF93BF93EF93FF93CF93DF93CDB7DEB7B1
S113368041E050E060EB7BE08EE198E20E94092784
S113369061E070E08EE198E20E9476270000DF91FD
S11336A0CF91FF91EF91BF91AF919F918F917F91B6
S11336B06F915F914F913F912F910F9000923B003A
S11336C00F9000923A000F90009239000F900092F0
S11336D038000F9000923F000F901F901895CF93E1
S11336E0DF93CDB7DEB780E09CE6ACEDB2E0BC0181
S11336F0CD01DF91CF910895CF93DF931F92CDB782
S1133700DEB71982ECDFDC01CB012981222F30E006
S113371004C0B695A795979587952A95D2F7BC01CD
S1133720CD010F90DF91CF910895CF93DF93CDB763
S1133730DEB7E2DFDC01CB01BC01CD01DF91CF912B
S11337400895CF93DF93CDB7DEB7EFDFDC01CB0174
S1133750BC01CD01DF91CF910895CF93DF93CDB715
S1133760DEB7EFDFDC01CB01BC01CD01DF91CF91EE
S11337700895CF93DF931F921F92CDB7DEB789834D
S11337809A8389819A81892B09F485C189819A81D7
S1133790803C910529F460E180E00E9487307BC180
S11337A089819A818034944029F468E080E00E9401
S11337B0873071C189819A818115944029F464E02C
S11337C080E00E94873067C189819A818038914066
S11337D029F462E080E00E9487305DC189819A818A
S11337E08115914029F461E080E00E94873053C143
S11337F089819A818038934029F461E081E00E94B4
S1133800873049C189819A818039934029F461E0E4
S113381082E00E9487303FC189819A81811592405C
S113382029F462E081E00E94873035C189819A8160
S11338308034924029F462E082E00E9487302BC1F8
S113384089819A818115934029F464E081E00E9482
S1133850873021C189819A818032934029F464E0C0
S113386082E00E94873017C189819A81811598402E
S113387029F461E083E00E9487300DC189819A8137
S11338808115994029F461E084E00E94873003C1E6
S113389089819A8181159A4029F461E085E00E942A
S11338A08730F9C089819A8181159B4029F461E0B0
S11338B086E00E948730EFC089819A8180349840E5
S11338C029F462E083E00E948730E5C089819A810F
S11338D08034994029F462E084E00E948730DBC0A0
S11338E089819A8180349A4029F462E085E00E94BB
S11338F08730D1C089819A8180349B4029F462E069
S113390086E00E948730C7C089819A8180399840B7
S113391029F464E083E00E948730BDC089819A81E4
S11339208039994029F464E084E00E948730B3C070
S113393089819A8180399A4029F464E085E00E9463
S11339408730A9C089819A8180399B4029F464E039
S113395086E00E9487309FC089819A81803C98408C
S113396029F468E083E00E94873095C089819A81B8
S1133970803C994029F468E084E00E9487308BC041
S113398089819A81803C9A4029F468E085E00E940C
S1133990873081C089819A81803C9B4029F468E00A
S11339A086E00E94873077C089819A81803A984066
S11339B029F460E183E00E9487306DC089819A8197
S11339C0803A994029F460E184E00E94873063C022
S11339D089819A81803A9A4029F460E185E00E94C5
S11339E0873059C089819A81803A9B4029F460E1EB
S11339F086E00E9487304FC089819A81803B98403D
S1133A0029F460E283E00E94873045C089819A816D
S1133A10803B994029F460E284E00E9487303BC0F7
S1133A2089819A81803B9A4029F460E285E00E9472
S1133A30873031C089819A81803B9B4029F460E2C0
S1133A4086E00E94873027C089819A81803894401B
S1133A5029F460E483E00E9487301DC089819A8143
S1133A608039944029F460E484E00E94873013C0D4
S1133A7089819A81803A944029F460E485E00E9427
S1133A80873009C089819A81803B944021F460E4A5
S1133A9086E00E94873000000F900F90DF91CF9155
S1133AA0089504C061507109810991096115710576
S1133AB081059105B9F70895CF93DF9300D01F9244
S1133AC0CDB7DEB789839A836B837C832B813C815A
S1133AD089819A8141E0B9010E94FC442496CDBFBA
S1133AE0DEBFDF91CF910895CF93DF9300D01F9273
S1133AF0CDB7DEB789839A836B837C832B813C812A
S1133B0089819A8140E0B9010E94FC442496CDBF8A
S1133B10DEBFDF91CF910895CF93DF931F921F9261
S1133B20CDB7DEB789839A8389819A81FC0181812B
S1133B30282F286089819A81FC01218300000F903D
S1133B400F90DF91CF910895CF93DF93CDB7DEB778
S1133B502C97CDBFDEBF109281281092822810923C
S1133B608328109284281092B0281092B1281092C1
S1133B70B2281092B3281092B9281092BA28109241
S1133B80BB281092BC281092AC281092AD28109239
S1133B90AE281092AF281092C3281092C428109215
S1133BA0C5281092C6281092B4281092B5281092F5
S1133BB0B6281092B72810927D2810927E28109271
S1133BC07F281092802860E486E00E94873080EB92
S1133BD094E0CFDD29E0CE010396FC01322F11924F
S1133BE03A95E9F780E89AE1A6E0B0E08B839C83FC
S1133BF0AD83BE8383E290E0A0E0B0E08F8398873A
S1133C00A987BA8780EB94E0B4DDCE010396BC01AA
S1133C1080EB94E00E94C44480EB94E07DDF8DE26D
S1133C2090E280938E2890938F288FEB90E280937C
S1133C3090289093912883E491E280939228909322
S1133C40932888E280938D2885E898E20E942B12BD
S1133C50898389818823A1F08981082E000C990B1E
S1133C60292F2F938F9382E890E2892F8F9382E8F4
S1133C7090E28F930E944F5D0F900F900F900F90E2
S1133C8080E077DB8CE080DA8A838A818823A1F064
S1133C908A81082E000C990B292F2F938F9386EA83
S1133CA090E2892F8F9386EA90E28F930E944F5D72
S1133CB00F900F900F900F901C86CE010C960EDA89
S1133CC08C858C30F1F08A81282F880F330B8C85FA
S1133CD0882F90E0432F4F932F931F922CE02F9324
S1133CE0292F2F938F9384EC90E2892F8F9384EC68
S1133CF090E28F930E944F5D8DB79EB70896CDBF1B
S1133D00DEBF8DE091E20E94625D00002C96CDBF83
S1133D10DEBFDF91CF910895CF92DF92EF92FF92B1
S1133D200F931F93CF93DF93CDB7DEB784E998E267
S1133D300E94A61580EA98E20E94141581EC98E28C
S1133D400E94761687EC98E22ED888EB98E20E94BF
S1133D50201682EC98E288D88091B4289091B528F6
S1133D60A091B628B091B72880937D2890937E289F
S1133D70A0937F28B09380280E94A131DC01CB015D
S1133D80BC01CD010E94F253DC01CB018093B42825
S1133D909093B528A093B628B093B7288091BD28F6
S1133DA09091BE28A091BF28B091C0288093B928D3
S1133DB09093BA28A093BB28B093BC28E8D0DC0128
S1133DC0CB018093BD289093BE28A093BF28B093C5
S1133DD0C0288091812890918228A0918328B09155
S1133DE084288093AC289093AD28A093AE28B093F8
S1133DF0AF288091B9289091BA28A091BB28B0919E
S1133E00BC282091BD283091BE284091BF285091F4
S1133E10C028BC01CD010E94B752DC01CB0120E0D7
S1133E2030E040E050E4BC01CD010E941F53DC01AE
S1133E30CB016C017D018091B4289091B528A091AB
S1133E40B628B091B72820917D2830917E284091E2
S1133E507F2850918028BC01CD010E94B652DC011C
S1133E60CB019C01AD01C701B6010E943B55DC01A9
S1133E70CB017C018D018091AC289091AD28A0915B
S1133E80AE28B091AF289C01AD01C801B7010E94D2
S1133E90B752DC01CB018093812890938228A093B0
S1133EA08328B09384288091B0289091B128A09160
S1133EB0B228B091B3288093C3289093C428A093C8
S1133EC0C528B093C6288091812890918228A0911A
S1133ED08328B09184282091AC283091AD2840915A
S1133EE0AE285091AF28BC01CD010E94B752DC012D
S1133EF0CB0120E030E040E050E4BC01CD010E9461
S1133F001F53DC01CB016C017D018091B428909199
S1133F10B528A091B628B091B72820917D2830917A
S1133F207E2840917F2850918028BC01CD010E94B9
S1133F30B652DC01CB019C01AD01C701B6010E9460
S1133F403B55DC01CB017C018D018091C32890910C
S1133F50C428A091C528B091C6289C01AD01C80110
S1133F60B7010E94B752DC01CB018093B028909333
S1133F70B128A093B228B093B3280000DF91CF9169
S1133F801F910F91FF90EF90DF90CF900895CF9302
S1133F90DF93CDB7DEB780919C2890919D28A091A6
S1133FA09E28B0919F28BC01CD01DF91CF91089547
S1133FB0CF93DF93CDB7DEB780918128909182288B
S1133FC0A0918328B0918428BC01CD01DF91CF91C9
S1133FD00895CF93DF93CDB7DEB78091B028909149
S1133FE0B128A091B228B091B328BC01CD01DF91D2
S1133FF0CF910895CF93DF93CDB7DEB78091A428F6
S11340009091A528A091A628B091A728BC01CD0124
S1134010DF91CF910895CF93DF93CDB7DEB7809131
S1134020A8289091A928A091AA28B091AB28BC01F6
S1134030CD01DF91CF910895CF93DF93CDB7DEB754
S11340408091A0289091A128A091A228B091A328A2
S1134050BC01CD01DF91CF910895CF93DF93CDB70C
S1134060DEB7C255D109CDBFDEBFFE01E25BFF4F13
S11340708083CE01815B9F4FFC016083CE01805B16
S11340809F4FFC0140835183CE018E5A9F4FFC0108
S1134090208319821A82CE018E5A9F4FFC0180819F
S11340A0823058F08EE191E2892F8F938EE191E274
S11340B08F930E944F5D0F900F90CE018E5A9F4FA9
S11340C09E012E5A3F4FF90120812F5FFC0120836E
S11340D01B82CE01805B9F4FFC0180819181FC019A
S11340E080818C83CE01815B9F4FFC0180812FEF07
S11340F0280FCE018D5B9F4FFC012183CE018D5B88
S11341009F4F21E030E0FC0124833583CE01825BA4
S11341109F4FFC012081CE018D5B9F4FFC012083CA
S1134120CE018D5B9F4F9E012D5F3F4FFC01268387
S11341303783CE018E5A9F4FFC018081282F30E0B7
S1134140CE018D5B9F4FFC0120873187CE018D5BB3
S11341509F4FFC011286CE018D5B9F4FBC0180EB0B
S113416094E0C2DC082E000C990B89839A83898120
S1134170CE5ADF4FCDBFDEBFDF91CF910895CF93ED
S1134180DF93CDB7DEB7C255D109CDBFDEBFFE0187
S1134190E25BFF4F8083CE01815B9F4FFC01608314
S11341A0CE01805B9F4FFC0140835183CE018E5A28
S11341B09F4FFC01208319821A8220E4CE010396CA
S11341C0FC01322F11923A95E9F7CE018D5B9F4F96
S11341D09E01215B3F4FF9012081FC012183CE0127
S11341E08D5B9F4F21E030E0FC0124833583CE01B9
S11341F0825B9F4FFC012081CE018D5B9F4FFC01B0
S11342002083CE018D5B9F4F9E012D5F3F4FFC01AC
S113421026833783CE018E5A9F4FFC018081282F3D
S113422030E0CE018D5B9F4FFC0120873187CE01AA
S11342308D5B9F4FFC011286CE018D5B9F4FBC01AD
S113424080EB94E039DC082E000C990B89839A8367
S1134250CE018E5A9F4FFC018081482F50E09E0171
S11342602D5F3F4FCE01805B9F4FFC018081918188
S1134270B9010E94AC5C8981CE5ADF4FCDBFDEBF4D
S1134280DF91CF9108952F923F924F925F926F9258
S11342907F928F929F92AF92BF92CF92DF92EF92D2
S11342A0FF920F931F93CF93DF931F921F92CDB76B
S11342B0DEB789839A8389819A81892B09F497C00F
S11342C089819A811C01412C512C612C712C430150
S11342D044DADC01CB019C01AD0160E070E0CB016C
S11342E0A22EB32EC42ED52EE62EF72E082F192F6C
S11342F0222D332D442D552D662D772D882D992D66
S11343000E94C859A22EB32EC42ED52EE62EF72E07
S1134310082F192F2A2C3B2C4C2C5D2C6E2C7F2C17
S1134320802E912E0F2EF6E0AF2EF02DB12CC12C45
S1134330D12CE12CF12C00E010E0222D332D442D62
S1134340552D662D772D882D992D0E941B5A222ECE
S1134350332E442E552E662E772E882E992EA22C7F
S1134360B32CC42CD52CE62CF72C082D192D2A2D72
S11343703B2D4C2D5D2D6E2D7F2D802F912F29519E
S11343803C4F4F4F5F4F6F4F7F4F8F4F9F4FA22E2A
S1134390B32EC42ED52EE62EF72E082F192F2A2D34
S11343A03B2D4C2D5D2D6E2D7F2D802F912F0E9446
S11343B02F54DC01CB0120E030E04AE754E4BC0197
S11343C0CD010E941F53DC01CB01BC01CD010E9431
S11343D08C53A22EB32EC42ED52EE62EF72E082FE4
S11343E0192FD601C501BC01CD015BDB6CC0B5D969
S11343F0DC01CB011C012D01612C712C43010F2E1A
S1134400F6E0AF2EF02DB12CC12CD12CE12CF12CE7
S113441000E010E0222D332D442D552D662D772DEF
S1134420882D992D0E941B5A222E332E442E552E50
S1134430662E772E882E992EA22CB32CC42CD52C24
S1134440E62CF72C082D192D2A2D3B2D4C2D5D2DF6
S11344506E2D7F2D802F912F215C3D4B404F5F4F60
S11344606F4F7F4F8F4F9F4FA22EB32EC42ED52E4A
S1134470E62EF72E082F192F2A2D3B2D4C2D5D2DBE
S11344806E2D7F2D802F912F0E942F54DC01CB01A4
S113449020E034E244E759E4BC01CD010E941F53FB
S11344A0DC01CB01BC01CD010E948C53A22EB32EA2
S11344B0C42ED52EE62EF72E082F192FD601C501AE
S11344C0BC01CD01EEDA00000F900F90DF91CF9187
S11344D01F910F91FF90EF90DF90CF90BF90AF901E
S11344E09F908F907F906F905F904F903F902F9010
S11344F00895CF93DF93CDB7DEB724EF31E041E0E9
S113450064E088EC98E20E94D40B84EA91E20E9471
S1134510625D0000DF91CF910895CF93DF931F92E6
S11345201F92CDB7DEB789839A838981682F88EC7F
S113453098E20E945D0D8A818F9389818F9388EB25
S113454091E2892F8F9388EB91E28F930E944F5DC4
S11345500F900F900F900F9000000F900F90DF912D
S1134560CF910895CF93DF93CDB7DEB780E496E083
S113457020E436E0F90121812160FC01218380E4FB
S113458096E020E436E0F90125812160FC012583D1
S113459087ED91E20E94625D0000DF91CF91089562
S11345A0CF93DF9300D0CDB7DEB789839A836B8333
S11345B089819A81FC018681282F2C7F89819A81A7
S11345C0FC01268389819A81FC0196818B81292FA4
S11345D0282B89819A81FC01268300002396CDBF74
S11345E0DEBFDF91CF910895CF93DF9300D0CDB795
S11345F0DEB789839A836B8389819A81FC018081E8
S1134600982F907F8B81892B282F89819A81FC0197
S1134610208300002396CDBFDEBFDF91CF910895A4
S1134620CF93DF9300D01F92CDB7DEB789839A83EF
S11346306B837C8389819A812B813C81FC0126A335
S113464037A300002496CDBFDEBFDF91CF9108953C
S1134650CF93DF931F921F92CDB7DEB789839A83DE
S113466089819A81FC018485282F216089819A811E
S1134670FC01248700000F900F90DF91CF910895E3
S1134680CF93DF9300D0CDB7DEB789839A836B8352
S113469089819A81FC018181982F987F8B81892B54
S11346A0282F89819A81FC01218300002396CDBFA4
S11346B0DEBFDF91CF910895CF93DF93CDB7DEB7FF
S11346C09BD080E098E0C4DF0000DF91CF91089593
S11346D0CF93DF93CDB7DEB780E092ECA1E0B0E0FA
S11346E08093A6229093A722A093A822B093A922F4
S11346F080E496E08093A0229093A12280EA98E03F
S11347008093A2229093A32288E08093A52284E040
S11347108093A42280EA92E20E94304D80EA98E0DD
S113472024E1FC0123838CEE91E20E94625D80E02F
S113473098E00E94E7406CE573E280E098E00E9414
S1134740714160E080E098E09BDF62E370E080E02C
S113475098E066DF61E080E098E022DF789461E031
S113476080E098E041DF0000DF91CF910895CF937E
S1134770DF931F921F92CDB7DEB789839A8380910E
S11347803C23882399F589819A810E94B55C9C0118
S113479089819A81A901BC0180EA98E00E94E030F5
S11347A080913D2390913E23A0913F23B0914023DB
S11347B00196A11DB11D80933D2390933E23A093A8
S11347C03F23B093402389819A81292F2F938F937C
S11347D08EEF91E2892F8F938EEF91E28F930E9457
S11347E04F5D0F900F900F900F9001C000000F903D
S11347F00F90DF91CF910895CF93DF93CDB7DEB7BC
S1134800C054D340CDBFDEBF8BE190E28B839C8349
S113481083E092E289839A838091232390912423D5
S1134820A0912523B09126232B2F2F932A2F2F934A
S1134830292F2F938F9388E092E2892F8F9388E01A
S113484092E28F93CE018F5F9D4F292F2F938F93E9
S11348500E94925D8DB79EB70896CDBFDEBF809152
S11348603D2390913E23A0913F23B09140232B2FD1
S11348702F932A2F2F93292F2F938F9388E092E23F
S1134880892F8F9388E092E28F93CE018B5E9D4FA8
S1134890292F2F938F930E94925DEDB7FEB7389620
S11348A0CDBFDEBF8091412390914223A091432349
S11348B0B09144232B2F2F932A2F2F93292F2F93FB
S11348C08F938BE092E2892F8F938BE092E28F9308
S11348D0CE01875D9D4F292F2F938F930E94925D68
S11348E08DB79EB70896CDBFDEBF80912B239091E4
S11348F02C23A0912D23B0912E232B2F2F932A2FDD
S11349002F93292F2F938F9388E092E2892F8F93EF
S113491088E092E28F93CE01835C9D4F292F2F93E1
S11349208F930E94925DEDB7FEB73896CDBFDEBF80
S113493080911F2390912023A0912123B0912223C1
S11349402B2F2F932A2F2F93292F2F938F938BE085
S113495092E2892F8F938BE092E28F93CE018F5A4C
S11349609D4F292F2F938F930E94925D8DB79EB7F1
S11349700896CDBFDEBF8091272390912823A09174
S11349802923B0912A232B2F2F932A2F2F93292FBA
S11349902F938F938BE092E2892F8F938BE092E297
S11349A08F93CE018B599D4F292F2F938F930E9464
S11349B0925DEDB7FEB73896CDBFDEBF20913822A9
S11349C030913922CE0187589D4FFC0120833183D9
S11349D02091382230913922CE0183579D4FFC011A
S11349E0208331832091382230913922CE018F5592
S11349F09D4FFC012083318320913822309139224C
S1134A00CE018B549D4FFC012083318320913822A9
S1134A1030913922CE0187539D4FFC01208331838D
S1134A208091BE239091BF23A091C023B091C12354
S1134A302B2F2F932A2F2F93292F2F938F938BE094
S1134A4092E2892F8F938BE092E28F93CE0183526F
S1134A509D4F292F2F938F930E94925D8DB79EB700
S1134A600896CDBFDEBF8091C2239091C323A0914D
S1134A70C423B091C5232B2F2F932A2F2F93292F93
S1134A802F938F938BE092E2892F8F938BE092E2A6
S1134A908F93CE018F509D4F292F2F938F930E9478
S1134AA0925DEDB7FEB73896CDBFDEBF20913822B8
S1134AB030913922CE018B5F9C4FFC0120833183DE
S1134AC080913723882F90E0292F2F938F9388E0AC
S1134AD092E2892F8F9388E092E28F93CE01875ED2
S1134AE09C4F292F2F938F930E94925D0F900F90CC
S1134AF00F900F900F900F908091CE259091CF251D
S1134B00A091D025B091D1252B2F2F932A2F2F930D
S1134B10292F2F938F938BE092E2892F8F938BE031
S1134B2092E28F93CE01835D9C4F292F2F938F9315
S1134B300E94925D8DB79EB70896CDBFDEBFCE01B1
S1134B40835D9C4F292F2F938F93CE01875E9C4FBB
S1134B50292F2F938F93CE018B5F9C4F292F2F9357
S1134B608F93CE018F509D4F292F2F938F93CE017A
S1134B7083529D4F292F2F938F93CE0187539D4F9F
S1134B80292F2F938F93CE018B549D4F292F2F9331
S1134B908F93CE018F559D4F292F2F938F93CE0145
S1134BA083579D4F292F2F938F93CE0187589D4F65
S1134BB0292F2F938F93CE018B599D4F292F2F93FC
S1134BC08F93CE018F5A9D4F292F2F938F93CE0110
S1134BD0835C9D4F292F2F938F93CE01875D9D4F2B
S1134BE0292F2F938F93CE018B5E9D4F292F2F93C7
S1134BF08F93CE018F5F9D4F292F2F938F938A819F
S1134C008F9389818F938DE190E2892F8F938DE12A
S1134C1090E28F93CE010396292F2F938F930E94B6
S1134C20925DEDB7FEB7B696CDBFDEBFCE0103965B
S1134C309EDD0000C05CDC4FCDBFDEBFDF91CF91B5
S1134C4008951F920F9200903F000F92112400903C
S1134C5038000F921092380000903A000F92109290
S1134C603A0000903B000F9210923B008F939F9369
S1134C70EF93FF93CF93DF93CDB7DEB780EA98E04D
S1134C80FC0180818093CF280000DF91CF91FF91B8
S1134C90EF919F918F910F9000923B000F900092A3
S1134CA03A000F90009238000F9000923F000F904E
S1134CB01F901895CF93DF93CDB7DEB72797CDBF5D
S1134CC0DEBF8A839B836C837D834E835F831982DB
S1134CD065C08A819B81FC01268137818A819B8101
S1134CE0FC0182819381820F931F2981222F30E05E
S1134CF04C815D81240F351FF9012081FC01208343
S1134D008A819B81FC01828193819C012F5F3F4FAB
S1134D108A819B81FC01228333838A819B81FC01EC
S1134D20228133818A819B81FC01808191812817B2
S1134D30390729F48A819B81FC01128213828A81BA
S1134D409B81FC01228133818A819B81FC018481C6
S1134D50958128173907F9F48A819B81FC018481A4
S1134D6095819C012F5F3F4F8A819B81FC012483A5
S1134D7035838A819B81FC01248135818A819B81D1
S1134D80FC01808191812817390729F48A819B814C
S1134D90FC011482158289818F5F89838981282F80
S1134DA030E08E819F812817390708F492CF0000E4
S1134DB02796CDBFDEBFDF91CF910895CF93DF93C8
S1134DC000D000D0CDB7DEB789839A836B837C8310
S1134DD04D835E8389819A81FC01128213828981C9
S1134DE09A81FC011482158289819A812B813C81EC
S1134DF0FC012683378389819A812D813E81FC01C0
S1134E002083318300002696CDBFDEBFDF91CF9192
S1134E100895CF93DF93CDB7DEB72A97CDBFDEBF1A
S1134E208D839E836F83788749875A878D819E817E
S1134E30FC018481958189839A831B821C821B8255
S1134E401C822DC02F8138858B819C81820F931FFA
S1134E502D813E81F9014681578129813A81240FB0
S1134E60351FF9012081FC0120838D819E81FC0185
S1134E70808191819C012150310989819A8128176F
S1134E80390719F419821A8205C089819A81019619
S1134E9089839A838B819C8101968B839C838D81EA
S1134EA09E818CD09C0189859A852817390720F426
S1134EB08D819E8183D002C089859A852B813C8116
S1134EC02817390708F4BECF8D819E8177D09C01C5
S1134ED089859A852817390710F481E001C080E09C
S1134EE02A96CDBFDEBFDF91CF910895CF93DF9394
S1134EF000D000D0CDB7DEB78B839C836D837E83D7
S1134F008B819C815BD09C018D819E81821793074C
S1134F1020F08B819C8152D002C08D819E81898337
S1134F209A838B819C814AD09C0189819A818217C2
S1134F30930720F18B819C81FC0124813581898137
S1134F409A81A901480F591F8B819C81FC01208102
S1134F503181CA01B9010E9463599C018B819C81F2
S1134F60FC01248335838B819C81FC012481358160
S1134F708B819C81FC012283338319C08B819C81AA
S1134F80FC012481358189819A81A901480F591F27
S1134F908B819C81FC0120813181CA01B9010E946D
S1134FA063599C018B819C81FC012483358300001F
S1134FB02696CDBFDEBFDF91CF910895CF93DF93C7
S1134FC01F921F92CDB7DEB789839A8389819A8114
S1134FD0FC012281338189819A81FC01848195813C
S1134FE02817390778F089819A81FC01228133815D
S1134FF089819A81FC0184819581A901481B590BFF
S1135000CA0115C089819A81FC012081318189817D
S11350109A81FC014281538189819A81FC018481B6
S11350209581BA01681B790BCB01820F931F0F90F6
S11350300F90DF91CF910895CF93DF931F921F922A
S1135040CDB7DEB789839A8389819A81892B09F444
S113505067C189819A81803C910529F460E180E0EF
S11350600E9487305DC189819A818034944029F4FB
S113507068E080E00E94873053C189819A8181155C
S1135080944029F464E080E00E94873049C189811A
S11350909A818038914029F462E080E00E94873050
S11350A03FC189819A818115914029F461E080E0B2
S11350B00E94873035C189819A818038934029F4D0
S11350C061E081E00E9487302BC189819A81803917
S11350D0934029F461E082E00E94873021C18981F4
S11350E09A818115924029F462E081E00E94873020
S11350F017C189819A818034924029F462E082E068
S11351000E9487300DC189819A818115934021F4D1
S113511064E081E0FCD704C189819A8180329340A4
S113512021F464E082E0F3D7FBC089819A81811580
S1135130984021F461E083E0EAD7F2C089819A8142
S11351408115994021F461E084E0E1D7E9C08981C7
S11351509A8181159A4021F461E085E0D8D7E0C0B6
S113516089819A8181159B4021F461E086E0CFD743
S1135170D7C089819A818034984021F462E083E029
S1135180C6D7CEC089819A818034994021F462E0E7
S113519084E0BDD7C5C089819A8180349A4021F4C6
S11351A062E085E0B4D7BCC089819A8180349B4099
S11351B021F462E086E0ABD7B3C089819A8180395B
S11351C0984021F464E083E0A2D7AAC089819A813F
S11351D08039994021F464E084E099D7A1C08981A1
S11351E09A8180399A4021F464E085E090D798C090
S11351F089819A8180399B4021F464E086E087D7D5
S11352008FC089819A81803C984021F468E083E0D2
S11352107ED786C089819A81803C994021F468E0D8
S113522084E075D77DC089819A81803C9A4021F4BD
S113523068E085E06CD774C089819A81803C9B408A
S113524021F468E086E063D76BC089819A81803A53
S1135250984021F460E183E05AD762C089819A8141
S1135260803A994021F460E184E051D759C08981A2
S11352709A81803A9A4021F460E185E048D750C091
S113528089819A81803A9B4021F460E186E03FD78E
S113529047C089819A81803B984021F460E283E091
S11352A036D73EC089819A81803B994021F460E2DF
S11352B084E02DD735C089819A81803B9A4021F4BE
S11352C060E285E024D72CC089819A81803B9B4091
S11352D021F460E286E01BD723C089819A8180385B
S11352E0944021F460E483E012D71AC089819A8142
S11352F08039944021F460E484E009D711C08981A5
S11353009A81803A944021F460E485E000D708C093
S113531089819A81803B944019F460E486E0F7D651
S113532000000F900F90DF91CF910895CF93DF93FA
S1135330CDB7DEB72A97CDBFDEBF8A878A8589833A
S113534081E08A8389818B838B818C838C81869590
S1135350869586958D838D81882F90E0880F991F7F
S113536082959295907F9827807F98279A5F8E8365
S11353709F838A818823A9F0898188878885882FDB
S113538090E09C012770332781E090E002C0880FF1
S1135390991F2A95E2F7282F8E819F81FC0125838E
S11353A014C0898189878985882F90E09C012770A2
S11353B0332781E090E002C0880F991F2A95E2F715
S11353C0282F8E819F81FC01268300002A96CDBF61
S11353D0DEBFDF91CF910895CF93DF93CDB7DEB7D2
S11353E02B97CDBFDEBF888799876A877B878A859D
S11353F09B85FC0184818D838A859B85FC01858145
S11354008E838A859B85FC0186818F838A859B8513
S1135410FC0180819181A281B38189839A83AB83CA
S1135420BC8388859985803A984019F460E183E0CB
S11354306ED688859985803B984019F460E283E0B4
S113544066D688859985803A994019F460E184E0AC
S11354505ED688859985803B994019F460E284E0A2
S113546056D688859985803A9A4019F460E185E09A
S11354704ED688859985803B9A4019F460E285E090
S113548046D688859985803A9B4019F460E186E088
S11354903ED688859985803B9B4019F460E286E07E
S11354A036D6888599859E012F5F3F4FB9010E94AA
S11354B0DA47882311F081E001C080E02B96CDBF4C
S11354C0DEBFDF91CF910895CF93DF93CDB7DEB7E1
S11354D080EA96E020EA36E0F90120812068FC01A8
S11354E0208380EA96E020EA36E0F90120812F7BD0
S11354F0FC0120838FE21ADF80EB9BE09DDD66E0F8
S113550070E280EB9BE068DF0000DF91CF910895AB
S1135510CF93DF93CDB7DEB72597CDBFDEBF8A83A8
S11355209B836C837D8319828981882F90E02C81F1
S11355303D81820F931FFC018081882311F481E057
S113554020C08981882F90E02C813D81820F931F98
S1135550FC018081282F880F330B8981882F90E0EC
S11355604A815B81840F951FFC018081882F90E024
S11355702817390711F080E004C089818F5F89837F
S1135580D3CF2596CDBFDEBFDF91CF9108958F9203
S11355909F92AF92BF92CF92DF92EF92FF920F93BE
S11355A01F93CF93DF93CDB7DEB7ED97CDBFDEBFAB
S11355B089AF9AAF6BAF7CAF4DAF19821B861C8647
S11355C01D861E861F86188A198A1A8A1B8A1C8AB7
S11355D01D8A1E8A1F8A188E198E1A821B828BAD11
S11355E09CAD6EE072E294DF882309F4CAC31A8288
S11355F01B82BCC38A819B812BAD3CAD820F931F60
S1135600FC0180818C3209F0ACC389818F5F89836E
S11356108981813009F05BC08A819B8101962BAD21
S11356203CAD820F931FFC018081882F90E0C097CE
S1135630880F982F990F990F482F490F8A819B81C2
S113564002962BAD3CAD820F931FFC018081840F29
S113565080538CAB8A819B8103962BAD3CAD820F2A
S1135660931FFC018081882F90E0C097880F982FAA
S1135670990F990F482F490F8A819B8104962BAD6E
S11356803CAD820F931FFC018081840F80538DAB4E
S11356908A819B8105962BAD3CAD820F931FFC0143
S11356A08081882F90E0C097880F982F990F990FC9
S11356B0482F490F8A819B8106962BAD3CAD820F02
S11356C0931FFC018081840F80538EAB4AC3898170
S11356D0823009F02CC18A819B8101962BAD3CADAF
S11356E0820F931FFC0180818C3209F420C18A81CE
S11356F09B8101962BAD3CAD820F931FFC018081F1
S1135700882F90E0C097880F991F9C01220F331FA8
S1135710220F331F280F391F8A819B8102964BADBC
S11357205CAD840F951FFC018081882F90E0C097A9
S1135730820F931F8A8F9B8F8A819B8103962BAD47
S11357403CAD820F931FFC018081882F90E0C097AD
S1135750092E000CAA0BBB0B9C01AD0160EA76E894
S113576081E090E00E9454597B018C018A819B81E5
S113577004962BAD3CAD820F931FFC018081882FD2
S113578090E0C0979C01990F440B550B80E197E280
S1135790DC010E94BE59DC01CB01E80EF91E0A1F90
S11357A01B1F8A819B8106962BAD3CAD820F931FF4
S11357B0FC018081882F90E0C0979C01990F440BD5
S11357C0550B88EE93E0DC010E94BE59DC01CB014D
S11357D0E80EF91E0A1F1B1F8A819B8107962BADB9
S11357E03CAD820F931FFC018081882F90E0C0970D
S11357F09C01990F440B550B84E690E0DC010E9458
S1135800BE59DC01CB01A8019701280F391F4A1F9B
S11358105B1F8A819B8108966BAD7CAD860F971FB9
S1135820FC018081882F90E0C097092E000CAA0B00
S1135830BB0B880F991FAA1FBB1F7C018D01EE0CA7
S1135840FF1C001F111FEE0CFF1C001F111F8E0DEB
S11358509F1DA01FB11F280F391F4A1F5B1F8A817C
S11358609B8109966BAD7CAD860F971FFC018081EF
S1135870882F90E0C097092E000CAA0BBB0B820F57
S1135880931FA41FB51F8C8F9D8FAE8FBF8F8A81EE
S11358909B810B962BAD3CAD820F931FFC01808145
S11358A08E3449F40F2EC12CD12CF0E8EF2EFFE3F7
S11358B0FF2EF02D08C00F2EC12CD12CF0E8EF2EB6
S11358C0FFEBFF2EF02D8A8D9B8DCC01A0E0B0E084
S11358D0BC01CD010E94F2534B015C018C8D9D8D66
S11358E0AE8DBF8DBC01CD010E94F253DC01CB0112
S11358F020E03CE742E159E4BC01CD010E941F5382
S1135900DC01CB019C01AD01C501B4010E94B75279
S1135910DC01CB019C01AD01C701B6010E943B55DE
S1135920DC01CB0189A39AA3ABA3BCA31AC28981CE
S1135930823029F419A21AA21BA21CA212C28981C4
S1135940843009F040C18A819B8101962BAD3CAD26
S1135950820F931FFC0180818C3209F434C18A8147
S11359609B8101962BAD3CAD820F931FFC0180817E
S1135970882F90E0C09744E6489F9001499F300DDE
S113598011248A819B8102964BAD5CAD840F951FD7
S1135990FC018081882F90E0C097880F991FAC018B
S11359A0440F551F440F551F840F951F280F391F8F
S11359B08A819B8103964BAD5CAD840F951FFC01DE
S11359C08081882F90E0C097820F931F8DA39EA3A0
S11359D08A819B8104962BAD3CAD820F931FFC0101
S11359E08081882F90E0C097092E000CAA0BBB0B76
S11359F09C01AD0160EA76E881E090E00E94545990
S1135A007B018C018A819B8105962BAD3CAD820F75
S1135A10931FFC018081882F90E0C0979C01990F0F
S1135A20440B550B80E197E2DC010E94BE59DC0176
S1135A30CB01E80EF91E0A1F1B1F8A819B81079662
S1135A402BAD3CAD820F931FFC018081882F90E029
S1135A50C0979C01990F440B550B88EE93E0DC0131
S1135A600E94BE59DC01CB01E80EF91E0A1F1B1F60
S1135A708A819B8108962BAD3CAD820F931FFC015C
S1135A808081882F90E0C0979C01990F440B550B9F
S1135A9084E690E0DC010E94BE59DC01CB01A80140
S1135AA09701280F391F4A1F5B1F8A819B81099622
S1135AB06BAD7CAD860F971FFC018081882F90E031
S1135AC0C097092E000CAA0BBB0B880F991FAA1FA5
S1135AD0BB1F7C018D01EE0CFF1C001F111FEE0C7F
S1135AE0FF1C001F111F8E0D9F1DA01FB11F280F2B
S1135AF0391F4A1F5B1F8A819B810A966BAD7CAD5F
S1135B00860F971FFC018081882F90E0C097092E93
S1135B10000CAA0BBB0B820F931FA41FB51F8FA3EE
S1135B2098A7A9A7BAA78A819B810C962BAD3CADF7
S1135B30820F931FFC018081853449F40F2EC12C00
S1135B40D12CF0E8EF2EFFE3FF2EF02D08C00F2E2E
S1135B50C12CD12CF0E8EF2EFFEBFF2EF02D8DA100
S1135B609EA1CC01A0E0B0E0BC01CD010E94F253A3
S1135B704B015C018FA198A5A9A5BAA5BC01CD01D3
S1135B800E94F253DC01CB0120E03CE742E159E4FE
S1135B90BC01CD010E941F53DC01CB019C01AD016E
S1135BA0C501B4010E94B752DC01CB019C01AD01D7
S1135BB0C701B6010E943B55DC01CB018CA79DA710
S1135BC0AEA7BFA7CEC08981843029F41CA61DA628
S1135BD01EA61FA6C6C08981863061F48A819B8176
S1135BE001962BAD3CAD820F931FFC018081805345
S1135BF08FABB7C08981873009F4B3C089818930FC
S1135C0009F0AFC01C821E821F82188619861A866C
S1135C108FC08A85282F30E08A819B81820F931F51
S1135C2001962BAD3CAD820F931FFC0180818E3217
S1135C3029F481E08C8381E08D8377C08C81882373
S1135C40D1F520E030E040E251E46E817F81888527
S1135C5099850E943B55DC01CB018E839F83A887E5
S1135C60B9878A85282F30E08A819B81820F931F10
S1135C7001962BAD3CAD820F931FFC018081882FD0
S1135C8090E0C097092E000CAA0BBB0BBC01CD0100
S1135C900E94F453DC01CB019C01AD016E817F8134
S1135CA0888599850E94B752DC01CB018E839F833E
S1135CB0A887B9873AC08C818823B9F18D81813056
S1135CC0A1F58A85282F30E08A819B81820F931F5A
S1135CD001962BAD3CAD820F931FFC018081882F70
S1135CE090E0C097092E000CAA0BBB0BBC01CD01A0
