:10000000FDC0000021C100001FC100001DC1000093
:100010001BC1000019C1000017C1000015C100007C
:1000200013C1000011C1000010C1000031C1000067
:100030000BC100000C94230BAFC10000E5C1000010
:100040001BC2000051C2000087C20000BDC20000F8
:10005000F3C2000029C300005FC3000095C3000085
:10006000F3C00000F1C00000EFC00000EDC00000D0
:10007000EBC00000E9C00000E7C00000E5C00000E0
:10008000E3C00000E1C00000DFC00000DDC00000F0
:10009000DBC00000D9C00000D7C00000D5C0000000
:1000A000D3C00000D1C00000CFC00000CDC0000010
:1000B000CBC00000C9C000000C94870BCDC5000068
:1000C00003C6000039C600006FC60000A5C60000C8
:1000D000DBC6000011C7000047C700007DC7000055
:1000E000B3C70000B1C00000AFC00000ADC0000049
:1000F000ABC00000A9C00000A7C00000A5C0000060
:10010000A3C00000A1C000009FC000009DC000006F
:100110009BC0000099C0000097C0000095C000007F
:1001200093C0000091C000008FC000008DC000008F
:100130000C94550B61C3000097C30000CDC30000B1
:1001400003C4000039C400006FC40000A5C400004F
:10015000DBC4000011C5000047C5000075C00000E9
:1001600073C0000071C000006FC000006DC00000CF
:100170006BC0000069C0000067C0000065C00000DF
:1001800063C0000061C000005FC000005DC00000EF
:100190005BC0000059C0000057C0000055C00000FF
:1001A00053C0000051C000004FC000000C94B90BB8
:1001B00083C70000B9C70000EFC700000C94040912
:1001C0000C943C090C9474090C94AC090C94E4094B
:1001D0000C941C0A0C94540A37C0000035C000006F
:1001E00033C0000031C000002FC000002DC000004F
:1001F0002BC0000029C0000027C0000011241FBE32
:10020000CFEFCDBFDFE3DEBF00E00CBF18BE19BEED
:100210001ABE1BBE10E2A0E0B0E2E8E9F1E200E0A5
:100220000BBF02C007900D92A030B107D9F71BBEDB
:1002300020E2A0E0B0E201C01D92A536B207E1F7CE
:100240000E94B10F0C94CA10DBCE1F920F920FB612
:100250000F92112408B60F9218BE0BB60F921BBE58
:100260008F939F93EF93FF93EDE5F0E2808191816F
:10027000019680839183FF91EF919F918F910F90D1
:100280000BBE0F9008BE0F900FBE0F901F901895D9
:100290001F920F920FB60F92112408B60F9218BE3C
:1002A00009B60F9219BE0BB60F921BBECF92DF920A
:1002B000EF92FF920F931F932F933F934F935F9370
:1002C0006F937F938F939F93AF93BF93EF93FF931E
:1002D000EDE5F0E2808191812281338182179307DD
:1002E000F0F121E020930204E0916320F09164207A
:1002F0003097A9F16091080470910904A0E0B0E082
:10030000DC0199278827AB0160E070E08C019D013A
:10031000042B152B262B372BC901B801ADE5B0E214
:1003200012960D911C91139720E030E0980111274F
:1003300000271496CD90DC901597E12CF12C0C2918
:100340001D292E293F29061717072807390730F0DE
:10035000C901B8016F5F7F4F8F4F9F4F1995FF9174
:10036000EF91BF91AF919F918F917F916F915F912D
:100370004F913F912F911F910F91FF90EF90DF9040
:10038000CF900F900BBE0F9009BE0F9008BE0F903C
:100390000FBE0F901F9018951F920F920FB60F92DD
:1003A000112408B60F9218BE09B60F9219BE0BB6EB
:1003B0000F921BBE2F933F934F935F936F937F9347
:1003C0008F939F93AF93BF93EF93FF93E0914E2052
:1003D000F0914F20309709F01995FF91EF91BF915F
:1003E000AF919F918F917F916F915F914F913F91CD
:1003F0002F910F900BBE0F9009BE0F9008BE0F906B
:100400000FBE0F901F9018951F920F920FB60F926C
:10041000112408B60F9218BE09B60F9219BE0BB67A
:100420000F921BBE2F933F934F935F936F937F93D6
:100430008F939F93AF93BF93EF93FF93E0914C20E3
:10044000F0914D20309709F01995FF91EF91BF91F0
:10045000AF919F918F917F916F915F914F913F915C
:100460002F910F900BBE0F9009BE0F9008BE0F90FA
:100470000FBE0F901F9018951F920F920FB60F92FC
:10048000112408B60F9218BE09B60F9219BE0BB60A
:100490000F921BBE2F933F934F935F936F937F9366
:1004A0008F939F93AF93BF93EF93FF93E0914A2075
:1004B000F0914B20309709F01995FF91EF91BF9182
:1004C000AF919F918F917F916F915F914F913F91EC
:1004D0002F910F900BBE0F9009BE0F9008BE0F908A
:1004E0000FBE0F901F9018951F920F920FB60F928C
:1004F000112408B60F9218BE09B60F9219BE0BB69A
:100500000F921BBE2F933F934F935F936F937F93F5
:100510008F939F93AF93BF93EF93FF93E091482006
:10052000F0914920309709F01995FF91EF91BF9113
:10053000AF919F918F917F916F915F914F913F917B
:100540002F910F900BBE0F9009BE0F9008BE0F9019
:100550000FBE0F901F9018951F920F920FB60F921B
:10056000112408B60F9218BE09B60F9219BE0BB629
:100570000F921BBE2F933F934F935F936F937F9385
:100580008F939F93AF93BF93EF93FF93E091462098
:10059000F0914720309709F01995FF91EF91BF91A5
:1005A000AF919F918F917F916F915F914F913F910B
:1005B0002F910F900BBE0F9009BE0F9008BE0F90A9
:1005C0000FBE0F901F9018951F920F920FB60F92AB
:1005D000112408B60F9218BE09B60F9219BE0BB6B9
:1005E0000F921BBE2F933F934F935F936F937F9315
:1005F0008F939F93AF93BF93EF93FF93E09144202A
:10060000F0914520309709F01995FF91EF91BF9136
:10061000AF919F918F917F916F915F914F913F919A
:100620002F910F900BBE0F9009BE0F9008BE0F9038
:100630000FBE0F901F9018951F920F920FB60F923A
:10064000112408B60F9218BE09B60F9219BE0BB648
:100650000F921BBE2F933F934F935F936F937F93A4
:100660008F939F93AF93BF93EF93FF93E0914220BB
:10067000F0914320309709F01995FF91EF91BF91C8
:10068000AF919F918F917F916F915F914F913F912A
:100690002F910F900BBE0F9009BE0F9008BE0F90C8
:1006A0000FBE0F901F9018951F920F920FB60F92CA
:1006B000112408B60F9218BE09B60F9219BE0BB6D8
:1006C0000F921BBE2F933F934F935F936F937F9334
:1006D0008F939F93AF93BF93EF93FF93E09140204D
:1006E000F0914120309709F01995FF91EF91BF915A
:1006F000AF919F918F917F916F915F914F913F91BA
:100700002F910F900BBE0F9009BE0F9008BE0F9057
:100710000FBE0F901F9018951F920F920FB60F9259
:10072000112408B60F9218BE09B60F9219BE0BB667
:100730000F921BBE2F933F934F935F936F937F93C3
:100740008F939F93AF93BF93EF93FF93E0913E20DE
:10075000F0913F20309709F01995FF91EF91BF91EB
:10076000AF919F918F917F916F915F914F913F9149
:100770002F910F900BBE0F9009BE0F9008BE0F90E7
:100780000FBE0F901F9018951F920F920FB60F92E9
:10079000112408B60F9218BE09B60F9219BE0BB6F7
:1007A0000F921BBE2F933F934F935F936F937F9353
:1007B0008F939F93AF93BF93EF93FF93E0913C2070
:1007C000F0913D20309709F01995FF91EF91BF917D
:1007D000AF919F918F917F916F915F914F913F91D9
:1007E0002F910F900BBE0F9009BE0F9008BE0F9077
:1007F0000FBE0F901F9018951F920F920FB60F9279
:10080000112408B60F9218BE09B60F9219BE0BB686
:100810000F921BBE2F933F934F935F936F937F93E2
:100820008F939F93AF93BF93EF93FF93E0913A2001
:10083000F0913B20309709F01995FF91EF91BF910E
:10084000AF919F918F917F916F915F914F913F9168
:100850002F910F900BBE0F9009BE0F9008BE0F9006
:100860000FBE0F901F9018951F920F920FB60F9208
:10087000112408B60F9218BE09B60F9219BE0BB616
:100880000F921BBE2F933F934F935F936F937F9372
:100890008F939F93AF93BF93EF93FF93E091382093
:1008A000F0913920309709F01995FF91EF91BF91A0
:1008B000AF919F918F917F916F915F914F913F91F8
:1008C0002F910F900BBE0F9009BE0F9008BE0F9096
:1008D0000FBE0F901F9018951F920F920FB60F9298
:1008E000112408B60F9218BE09B60F9219BE0BB6A6
:1008F0000F921BBE2F933F934F935F936F937F9302
:100900008F939F93AF93BF93EF93FF93E091362024
:10091000F0913720309709F01995FF91EF91BF9131
:10092000AF919F918F917F916F915F914F913F9187
:100930002F910F900BBE0F9009BE0F9008BE0F9025
:100940000FBE0F901F9018951F920F920FB60F9227
:10095000112408B60F9218BE09B60F9219BE0BB635
:100960000F921BBE2F933F934F935F936F937F9391
:100970008F939F93AF93BF93EF93FF93E0913420B6
:10098000F0913520309709F01995FF91EF91BF91C3
:10099000AF919F918F917F916F915F914F913F9117
:1009A0002F910F900BBE0F9009BE0F9008BE0F90B5
:1009B0000FBE0F901F9018951F920F920FB60F92B7
:1009C000112408B60F9218BE09B60F9219BE0BB6C5
:1009D0000F921BBE2F933F934F935F936F937F9321
:1009E0008F939F93AF93BF93EF93FF93E091322048
:1009F000F0913320309709F01995FF91EF91BF9155
:100A0000AF919F918F917F916F915F914F913F91A6
:100A10002F910F900BBE0F9009BE0F9008BE0F9044
:100A20000FBE0F901F9018951F920F920FB60F9246
:100A3000112408B60F9218BE09B60F9219BE0BB654
:100A40000F921BBE2F933F934F935F936F937F93B0
:100A50008F939F93AF93BF93EF93FF93E0913020D9
:100A6000F0913120309709F01995FF91EF91BF91E6
:100A7000AF919F918F917F916F915F914F913F9136
:100A80002F910F900BBE0F9009BE0F9008BE0F90D4
:100A90000FBE0F901F9018951F920F920FB60F92D6
:100AA000112408B60F9218BE09B60F9219BE0BB6E4
:100AB0000F921BBE2F933F934F935F936F937F9340
:100AC0008F939F93AF93BF93EF93FF93E0912E206B
:100AD000F0912F20309709F01995FF91EF91BF9178
:100AE000AF919F918F917F916F915F914F913F91C6
:100AF0002F910F900BBE0F9009BE0F9008BE0F9064
:100B00000FBE0F901F9018951F920F920FB60F9265
:100B1000112408B60F9218BE09B60F9219BE0BB673
:100B20000F921BBE2F933F934F935F936F937F93CF
:100B30008F939F93AF93BF93EF93FF93E0912C20FC
:100B4000F0912D20309709F01995FF91EF91BF9109
:100B5000AF919F918F917F916F915F914F913F9155
:100B60002F910F900BBE0F9009BE0F9008BE0F90F3
:100B70000FBE0F901F9018951F920F920FB60F92F5
:100B8000112408B60F9218BE09B60F9219BE0BB603
:100B90000F921BBE2F933F934F935F936F937F935F
:100BA0008F939F93AF93BF93EF93FF93E0912A208E
:100BB000F0912B20309709F01995FF91EF91BF919B
:100BC000AF919F918F917F916F915F914F913F91E5
:100BD0002F910F900BBE0F9009BE0F9008BE0F9083
:100BE0000FBE0F901F9018951F920F920FB60F9285
:100BF000112408B60F9218BE09B60F9219BE0BB693
:100C00000F921BBE2F933F934F935F936F937F93EE
:100C10008F939F93AF93BF93EF93FF93E09128201F
:100C2000F0912920309709F01995FF91EF91BF912C
:100C3000AF919F918F917F916F915F914F913F9174
:100C40002F910F900BBE0F9009BE0F9008BE0F9012
:100C50000FBE0F901F9018951F920F920FB60F9214
:100C6000112408B60F9218BE09B60F9219BE0BB622
:100C70000F921BBE2F933F934F935F936F937F937E
:100C80008F939F93AF93BF93EF93FF93E0912620B1
:100C9000F0912720309709F01995FF91EF91BF91BE
:100CA000AF919F918F917F916F915F914F913F9104
:100CB0002F910F900BBE0F9009BE0F9008BE0F90A2
:100CC0000FBE0F901F9018951F920F920FB60F92A4
:100CD000112408B60F9218BE09B60F9219BE0BB6B2
:100CE0000F921BBE2F933F934F935F936F937F930E
:100CF0008F939F93AF93BF93EF93FF93E091242043
:100D0000F0912520309709F01995FF91EF91BF914F
:100D1000AF919F918F917F916F915F914F913F9193
:100D20002F910F900BBE0F9009BE0F9008BE0F9031
:100D30000FBE0F901F9018951F920F920FB60F9233
:100D4000112408B60F9218BE09B60F9219BE0BB641
:100D50000F921BBE2F933F934F935F936F937F939D
:100D60008F939F93AF93BF93EF93FF93E0912220D4
:100D7000F0912320309709F01995FF91EF91BF91E1
:100D8000AF919F918F917F916F915F914F913F9123
:100D90002F910F900BBE0F9009BE0F9008BE0F90C1
:100DA0000FBE0F901F9018951F920F920FB60F92C3
:100DB000112408B60F9218BE09B60F9219BE0BB6D1
:100DC0000F921BBE2F933F934F935F936F937F932D
:100DD0008F939F93AF93BF93EF93FF93E091202066
:100DE000F0912120309709F01995FF91EF91BF9173
:100DF000AF919F918F917F916F915F914F913F91B3
:100E00002F910F900BBE0F9009BE0F9008BE0F9050
:100E10000FBE0F901F9018951F920F920FB60F9252
:100E2000112408B60F9218BE09B60F9219BE0BB660
:100E30000F921BBE2F933F934F935F936F937F93BC
:100E40008F939F93AF93BF93EF93FF93E0911E20F7
:100E5000F0911F20309709F01995FF91EF91BF9104
:100E6000AF919F918F917F916F915F914F913F9142
:100E70002F910F900BBE0F9009BE0F9008BE0F90E0
:100E80000FBE0F901F9018951F920F920FB60F92E2
:100E9000112408B60F9218BE09B60F9219BE0BB6F0
:100EA0000F921BBE2F933F934F935F936F937F934C
:100EB0008F939F93AF93BF93EF93FF93E0911C2089
:100EC000F0911D20309709F01995FF91EF91BF9196
:100ED000AF919F918F917F916F915F914F913F91D2
:100EE0002F910F900BBE0F9009BE0F9008BE0F9070
:100EF0000FBE0F901F9018951F920F920FB60F9272
:100F0000112408B60F9218BE09B60F9219BE0BB67F
:100F10000F921BBE2F933F934F935F936F937F93DB
:100F20008F939F93AF93BF93EF93FF93E0911A201A
:100F3000F0911B20309709F01995FF91EF91BF9127
:100F4000AF919F918F917F916F915F914F913F9161
:100F50002F910F900BBE0F9009BE0F9008BE0F90FF
:100F60000FBE0F901F9018951F920F920FB60F9201
:100F7000112408B60F9218BE09B60F9219BE0BB60F
:100F80000F921BBE2F933F934F935F936F937F936B
:100F90008F939F93AF93BF93EF93FF93E0911820AC
:100FA000F0911920309709F01995FF91EF91BF91B9
:100FB000AF919F918F917F916F915F914F913F91F1
:100FC0002F910F900BBE0F9009BE0F9008BE0F908F
:100FD0000FBE0F901F9018951F920F920FB60F9291
:100FE000112408B60F9218BE09B60F9219BE0BB69F
:100FF0000F921BBE2F933F934F935F936F937F93FB
:101000008F939F93AF93BF93EF93FF93E09116203D
:10101000F0911720309709F01995FF91EF91BF914A
:10102000AF919F918F917F916F915F914F913F9180
:101030002F910F900BBE0F9009BE0F9008BE0F901E
:101040000FBE0F901F9018951F920F920FB60F9220
:10105000112408B60F9218BE09B60F9219BE0BB62E
:101060000F921BBE2F933F934F935F936F937F938A
:101070008F939F93AF93BF93EF93FF93E0911420CF
:10108000F0911520309709F01995FF91EF91BF91DC
:10109000AF919F918F917F916F915F914F913F9110
:1010A0002F910F900BBE0F9009BE0F9008BE0F90AE
:1010B0000FBE0F901F9018951F920F920FB60F92B0
:1010C000112408B60F9218BE09B60F9219BE0BB6BE
:1010D0000F921BBE2F933F934F935F936F937F931A
:1010E0008F939F93AF93BF93EF93FF93E091122061
:1010F000F0911320309709F01995FF91EF91BF916E
:10110000AF919F918F917F916F915F914F913F919F
:101110002F910F900BBE0F9009BE0F9008BE0F903D
:101120000FBE0F901F9018951F920F920FB60F923F
:10113000112408B60F9218BE09B60F9219BE0BB64D
:101140000F921BBE2F933F934F935F936F937F93A9
:101150008F939F93AF93BF93EF93FF93E0911020F2
:10116000F0911120309709F01995FF91EF91BF91FF
:10117000AF919F918F917F916F915F914F913F912F
:101180002F910F900BBE0F9009BE0F9008BE0F90CD
:101190000FBE0F901F9018951F920F920FB60F92CF
:1011A000112408B60F9218BE09B60F9219BE0BB6DD
:1011B0000F921BBE2F933F934F935F936F937F9339
:1011C0008F939F93AF93BF93EF93FF93E0910E2084
:1011D000F0910F20309709F01995FF91EF91BF9191
:1011E000AF919F918F917F916F915F914F913F91BF
:1011F0002F910F900BBE0F9009BE0F9008BE0F905D
:101200000FBE0F901F9018951F920F920FB60F925E
:10121000112408B60F9218BE09B60F9219BE0BB66C
:101220000F921BBE2F933F934F935F936F937F93C8
:101230008F939F93AF93BF93EF93FF93E0910C2015
:10124000F0910D20309709F01995FF91EF91BF9122
:10125000AF919F918F917F916F915F914F913F914E
:101260002F910F900BBE0F9009BE0F9008BE0F90EC
:101270000FBE0F901F9018951F920F920FB60F92EE
:10128000112408B60F9218BE09B60F9219BE0BB6FC
:101290000F921BBE2F933F934F935F936F937F9358
:1012A0008F939F93AF93BF93EF93FF93E0910A20A7
:1012B000F0910B20309709F01995FF91EF91BF91B4
:1012C000AF919F918F917F916F915F914F913F91DE
:1012D0002F910F900BBE0F9009BE0F9008BE0F907C
:1012E0000FBE0F901F9018951F920F920FB60F927E
:1012F000112408B60F9218BE09B60F9219BE0BB68C
:101300000F921BBE2F933F934F935F936F937F93E7
:101310008F939F93AF93BF93EF93FF93E091082038
:10132000F0910920309709F01995FF91EF91BF9145
:10133000AF919F918F917F916F915F914F913F916D
:101340002F910F900BBE0F9009BE0F9008BE0F900B
:101350000FBE0F901F9018951F920F920FB60F920D
:10136000112408B60F9218BE09B60F9219BE0BB61B
:101370000F921BBE2F933F934F935F936F937F9377
:101380008F939F93AF93BF93EF93FF93E0910620CA
:10139000F0910720309709F01995FF91EF91BF91D7
:1013A000AF919F918F917F916F915F914F913F91FD
:1013B0002F910F900BBE0F9009BE0F9008BE0F909B
:1013C0000FBE0F901F9018951F920F920FB60F929D
:1013D000112408B60F9218BE09B60F9219BE0BB6AB
:1013E0000F921BBE2F933F934F935F936F937F9307
:1013F0008F939F93AF93BF93EF93FF93E09104205C
:10140000F0910520309709F01995FF91EF91BF9168
:10141000AF919F918F917F916F915F914F913F918C
:101420002F910F900BBE0F9009BE0F9008BE0F902A
:101430000FBE0F901F9018951F920F920FB60F922C
:10144000112408B60F9218BE09B60F9219BE0BB63A
:101450000F921BBE2F933F934F935F936F937F9396
:101460008F939F93AF93BF93EF93FF93E0910220ED
:10147000F0910320309709F01995FF91EF91BF91FA
:10148000AF919F918F917F916F915F914F913F911C
:101490002F910F900BBE0F9009BE0F9008BE0F90BA
:1014A0000FBE0F901F9018951F920F920FB60F92BC
:1014B000112408B60F9218BE09B60F9219BE0BB6CA
:1014C0000F921BBE2F933F934F935F936F937F9326
:1014D0008F939F93AF93BF93EF93FF93E09100207F
:1014E000F0910120309709F01995FF91EF91BF918C
:1014F000AF919F918F917F916F915F914F913F91AC
:101500002F910F900BBE0F9009BE0F9008BE0F9049
:101510000FBE0F901F901895CF93DF93E09150204E
:10152000F0915120848183FF08C08860848383E028
:10153000838386EF80935A2083C0982F947131F073
:1015400083E083838FEF80935A207AC086FF43C065
:10155000C0E5D0E2AA81BB818C819D8114962D913A
:101560003C911597821793076CF49C012F5F3F4FB6
:101570002093542030935520A80FB91F11968C91B9
:1015800087835EC0809156209091572018962D91A8
:101590003C91199782179307C8F420915820222371
:1015A00021F08681816086834BC016962D913C91F7
:1015B0001797AC014F5F5F4F4093562050935720D1
:1015C000D901A80FB91F8C9187833AC083E0838328
:1015D00010925A2035C0882384F5A0E5B0E2129617
:1015E000CD91DC91139716968D919C911797288534
:1015F000398582179307D8F46E817F819C012F5F14
:101600003F4F20935620309357204781DB01A80F8E
:10161000B91F4C93888599852817390718F482E0FB
:1016200083830EC087E0838310925A2009C083E031
:10163000838389EF80935A2003C08BEF80935A20D5
:10164000DF91CF9108951F920F920FB60F92112440
:1016500008B60F9218BE09B60F9219BE0BB60F92BC
:101660001BBE2F933F934F935F936F937F938F9303
:101670009F93AF93BF93EF93FF934EDFFF91EF9153
:10168000BF91AF919F918F917F916F915F914F919A
:101690003F912F910F900BBE0F9009BE0F9008BE87
:1016A0000F900FBE0F901F9018951F920F920FB6BC
:1016B0000F92112408B60F9218BE09B60F9219BEE8
:1016C0000BB60F921BBE2F933F934F935F936F9375
:1016D0007F938F939F93AF93BF93EF93FF931CDF01
:1016E000FF91EF91BF91AF919F918F917F916F91FA
:1016F0005F914F913F912F910F900BBE0F9009BEBC
:101700000F9008BE0F900FBE0F901F9018951F925C
:101710000F920FB60F92112408B60F9218BE09B699
:101720000F9219BE0BB60F921BBE2F933F934F9390
:101730005F936F937F938F939F93AF93BF93EF9339
:10174000FF93EADEFF91EF91BF91AF919F918F914F
:101750007F916F915F914F913F912F910F900BBEB1
:101760000F9009BE0F9008BE0F900FBE0F901F90F4
:1017700018951F920F920FB60F92112408B60F9270
:1017800018BE09B60F9219BE0BB60F921BBE2F934F
:101790003F934F935F936F937F938F939F93AF93F9
:1017A000BF93EF93FF93B8DEFF91EF91BF91AF919D
:1017B0009F918F917F916F915F914F913F912F9169
:1017C0000F900BBE0F9009BE0F9008BE0F900FBE7A
:1017D0000F901F9018951F93CF93DF9300D01F9207
:1017E000CDB7DEB719821A821B821C8280935B20E0
:1017F00090935C20DC011996ED91FC911A9721E001
:10180000AE014E5F5F4F67E018968C911995182FC7
:10181000A0915B20B0915C201B96ED91FC911C97F0
:1018200021E0AE014F5F5F4F60E018968C911995F3
:10183000180FA0915B20B0915C2089818C931B963E
:10184000ED91FC911C9721E0AE014F5F5F4F61E08D
:1018500018968C911995180FA0915B20B0915C207F
:10186000898114968C9314971B96ED91FC911C978B
:1018700021E0AE014F5F5F4F62E018968C911995A1
:10188000180FA0915B20B0915C20898115968C93F4
:1018900015971B96ED91FC911C9721E0AE014F5FCF
:1018A0005F4F63E018968C911995180FA0915B20FB
:1018B000B0915C20898116968C9316971B96ED91BA
:1018C000FC911C9721E0AE014F5F5F4F66E01896D8
:1018D0008C911995180FA0915B20B0915C208981A3
:1018E00017968C9317971B96ED91FC911C9722E00D
:1018F000AE014D5F5F4F64E018968C911995180FFB
:10190000A0915B20B0915C208C8190E0982F88277B
:101910002B81822B11968D939C9312971B96ED91A0
:10192000FC911C9721E0AE014F5F5F4F67E0189676
:101930008C911995E0915B20F0915C2099819383C3
:10194000810F2496CDBFDEBFDF91CF911F91089507
:10195000A0915B20B0915C20109759F0242FAB012F
:10196000682F1996ED91FC911A9718968C911995FC
:10197000089581E808951F93CF93DF931F92CDB709
:10198000DEB71982A0915B20B0915C20109741F1E5
:10199000182F1B96ED91FC911C9721E0AE014F5F33
:1019A0005F4F67E018968C91199581111BC01983C0
:1019B000A0915B20B0915C201996ED91FC911A9753
:1019C00021E0AE014F5F5F4F67E018968C9119954B
:1019D000811109C0E0915B20F0915C20138303C06A
:1019E00081E801C08FEF0F90DF91CF911F91089593
:1019F0000F931F93CF93DF9300D000D0CDB7DEB706
:101A00008C01FE01319696E0DF011D929A95E9F76F
:101A1000E0915B20F0915C20309709F43EC0838117
:101A2000882359F080E0A7DF882339F0E0915B201C
:101A3000F0915C208381811132C0A0915B20B09134
:101A40005C201B96ED91FC911C9726E0AE014F5F48
:101A50005F4F6AE118968C9119952A81022E000C2D
:101A6000330B322F22279981292BF80120833183D0
:101A70002C81022E000C330B322F22279B81292B25
:101A8000228333832E81022E000C330B322F222728
:101A90009D81292B2483358303C081E801C08FEF0A
:101AA0002696CDBFDEBFDF91CF911F910F91089594
:101AB0000F931F93CF93DF931F92CDB7DEB7198299
:101AC000E0915B20F0915C20309731F18C018381B3
:101AD000882359F080E04FDF882339F0E0915B20C4
:101AE000F0915C208381811119C0A0915B20B0919D
:101AF0005C201B96ED91FC911C9721E0AE014F5F9D
:101B00005F4F6BE318968C911995998192FB9927F9
:101B100090F9F801908303C081E801C08FEF0F9026
:101B2000DF91CF911F910F9108950F931F93CF9342
:101B3000DF931F92CDB7DEB71982E0915B20F09161
:101B40005C20309721F18C018381882359F080E05B
:101B500012DF882339F0E0915B20F0915C208381D3
:101B6000811117C0A0915B20B0915C201B96ED9174
:101B7000FC911C9721E0AE014F5F5F4F6DE318961B
:101B80008C91199599819F70F801908303C081E829
:101B900001C08FEF0F90DF91CF911F910F910895AA
:101BA0000F931F93CF93DF931F921F92CDB7DEB792
:101BB00019821A8220915B2030915C20232B09F43A
:101BC0009CC0082FCE010296B0DF811198C08A8197
:101BD000811135C0A0915B20B0915C201B96ED91E6
:101BE000FC911C9721E0AE014F5F5F4F6DE31896AB
:101BF0008C911995811185C08981982F907F802FB4
:101C00008F70892B8983A0915B20B0915C201996FD
:101C1000ED91FC911A9721E0AE014F5F5F4F6DE3AC
:101C200018968C911995182FE0915B20F0915C200B
:101C30000584F685E02D88E592E0199565C0A091B0
:101C40005B20B0915C201B96ED91FC911C9721E0EC
:101C5000AE014F5F5F4F6DE318968C911995182F69
:101C6000811114C08981807F898341E0BE016F5F4B
:101C70007F4F8DE36DDE182FE0915B20F0915C20AB
:101C80000584F685E02D84E190E019950023E1F1CB
:101C9000A0915B20B0915C201B96ED91FC911C976C
:101CA00021E0AE014F5F5F4F6DE318968C9119955F
:101CB000811129C08981982F907F802F8F70892B67
:101CC0008983A0915B20B0915C201996ED91FC91E5
:101CD0001A9721E0AE014F5F5F4F6DE318968C912C
:101CE0001995182FE0915B20F0915C200584F68512
:101CF000E02D88E592E0199507C011E805C01FEFB7
:101D000003C0182F01C0182F812F0F900F90DF9163
:101D1000CF911F910F9108950F931F93CF93DF934E
:101D20001F921F92CDB7DEB719821A8220915B20D5
:101D300030915C20232B09F444C0082FCE01029679
:101D4000F4DE811135C08A81882321F080E028DF0C
:101D5000811130C0A0915B20B0915C201B96ED9169
:101D6000FC911C9721E0AE014F5F5F4F6BE318962B
:101D70008C911995182F81111EC08981982F9B7FF6
:101D8000802F880F880F8470892B8983A0915B2016
:101D9000B0915C201996ED91FC911A9721E0AE016B
:101DA0004F5F5F4F6BE318968C911995182F03C006
:101DB0001FEF01C01FEF8A81882329F0F1DE810F18
:101DC00003C081E801C0812F0F900F90DF91CF9168
:101DD0001F910F910895EF92FF921F93CF93DF937E
:101DE000CDB7DEB72797CDBFDEBF7C0119821A823F
:101DF0001B821C821D821E821F82CE01079658DE26
:101E0000182F8F81882319F080E086DF180F1111B9
:101E100039C0CE010196ECDD811136C069817A812D
:101E2000072E000C880B990BC6D020E030E040E86C
:101E30005DE34DD1F70160837183828393836D816C
:101E40007E81072E000C880B990BB5D020E030E086
:101E500040E85DE33CD1F701608771878287938713
:101E60006B817C81072E000C880B990BA4D020E09D
:101E700030E040E85DE32BD1F7016483758386830E
:101E8000978303C01FEF01C01FEF812F2796CDBF9F
:101E9000DEBFDF91CF911F91FF90EF900895CF9318
:101EA000DF93FC0120E030E0C62FD0E0DE01022EFF
:101EB00002C0B595A7950A94E2F7A0FD508B2F5F5D
:101EC0003F4F31962830310589F740FF0AC041FF66
:101ED00003C0FC01658302C0FC016683FC016183D1
:101EE00002C0FC016283DF91CF91089543E050E08E
:101EF00068E080EC97E0D3DF40E058E164E080ECFC
:101F000097E0CDCF0895222321F080E08F5F281342
:101F1000FDCF80E00895CF93DF93CDB7DEB728974C
:101F2000CDBFDEBFFE01319688E0DF011D928A95AC
:101F3000E9F76983222369F0DF01FA01215030E0DB
:101F40002F5F3F4F420F531F8D918193E417F50789
:101F5000D9F780E02896CDBFDEBFDF91CF910895FD
:101F60000895CF93DF93CDB7DEB76B97CDBFDEBFBC
:101F7000BDDF8BE89FE08C879D8783E89FE08A87A1
:101F80009B8780EB9FE08E879F8788E28987CE01C1
:101F9000019621DC8CE004DECE0140961CDFE0ECF3
:101FA000F7E098E0808582FF02C09683FBCF95839F
:101FB000F9CFE89409C097FB3EF490958095709511
:101FC00061957F4F8F4F9F4F9923A9F0F92F96E985
:101FD000BB279395F695879577956795B795F111FA
:101FE000F8CFFAF4BB0F11F460FF1BC06F5F7F4F97
:101FF0008F4F9F4F16C0882311F096E911C07723A9
:1020000021F09EE8872F762F05C0662371F096E8B1
:10201000862F70E060E02AF09A95660F771F881F80
:10202000DAF7880F9695879597F9089597F99F673E
:1020300080E870E060E008959FEF80EC0895002450
:102040000A941616170618060906089500240A941D
:1020500012161306140605060895092E0394000CA3
:1020600011F4882352F0BB0F40F4BF2B11F460FF32
:1020700004C06F5F7F4F8F4F9F4F089557FD90585B
:10208000440F551F59F05F3F71F04795880F97FB3C
:10209000991F61F09F3F79F08795089512161306F6
:1020A0001406551FF2CF4695F1DF08C01616170625
:1020B0001806991FF1CF869571056105089408955A
:1020C000E894BB2766277727CB0197F908950BD0B3
:1020D000C4CFB5DF28F0BADF18F0952309F0A6CFFA
:1020E000ABCF1124EECFCADFA0F3959FD1F3950FAC
:1020F00050E0551F629FF001729FBB27F00DB11D8C
:10210000639FAA27F00DB11DAA1F649F6627B00D1B
:10211000A11D661F829F2227B00DA11D621F739F04
:10212000B00DA11D621F839FA00D611D221F749F12
:102130003327A00D611D231F849F600D211D822F59
:10214000762F6A2F11249F5750408AF0E1F08823A0
:102150004AF0EE0FFF1FBB1F661F771F881F9150AD
:102160005040A9F79E3F510570F060CFAACF5F3F66
:10217000ECF3983EDCF3869577956795B795F795E0
:10218000E7959F5FC1F7FE2B880F911D9695879568
:0821900097F90895F894FFCFC0
:00000001FF
