S011000050726F746F747970652E737265633D
S1130000ABC10000CFC10000CDC10000CBC10000D6
S1130010C9C10000C7C10000C5C10000C3C10000C0
S1130020C1C10000BFC100000C94402E0C94702E7E
S1130030B9C100000C94823E0C94F02F0C9447300C
S11300400C949E300C94F5300C944C310C94A331E8
S11300500C94FA310C9451320C94A8320C94FF3263
S1130060A1C100000C9428259DC100009BC1000083
S113007099C1000097C1000095C1000093C1000020
S113008091C100008FC100008DC100008BC1000030
S113009089C1000087C1000085C10000EFC70000CE
S11300A00C94CA080C9456090C94E2097BC1000014
S11300B079C1000077C100000C941A3F0C94BC363F
S11300C00C9413370C946A370C94C1370C94183879
S11300D00C946F380C94C6380C941D390C947439F4
S11300E00C94CB395FC100005DC100005BC100000E
S11300F059C1000057C1000055C1000053C10000A0
S113010051C100004FC100004DC100004BC10000AF
S113011049C1000047C1000045C100007FC500007F
S113012009C6000093C600001DC700003BC10000C3
S11301300C94CE3E0C9456330C94AD330C9404348E
S11301400C945B340C94B2340C9409350C946035E3
S11301500C94B7350C940E360C94653623C100000C
S113016021C100001FC100001DC100001BC100000F
S113017019C1000017C1000015C1000013C100001F
S113018011C100000FC100000DC100000BC100002F
S113019009C1000007C1000005C1000003C100003F
S11301A001C10000FFC00000FDC000000C94663FC8
S11301B00C94223A0C94793A0C94D03A0C94273B40
S11301C00C947E3B0C94D53B0C942C3C0C94833CBB
S11301D00C94DA3C0C94313DE5C00000E3C000000F
S11301E0E1C00000DFC000000C944517DBC0000034
S11301F00C940818D7C00000D5C000000800000007
S1130200BE922449123EABAAAA2ABECDCCCC4C3E07
S113021000000080BEABAAAAAA3E00000000BF00F6
S11302200000803F0000000000084178D3BB4387F2
S1130230D1133D190E3CC3BD4282AD2B3E68EC8206
S113024076BED98FE1A93E4C80EFFFBE01C4FF7F8B
S11302503F00000000006E616E00696E66000040A1
S11302607A10F35A00A0724E18090010A5D4E800C1
S113027000E87648170000E40B54020000CA9A3BD9
S1130280000000E1F505000080969800000040425F
S11302900F000000A08601000000102700000000ED
S11302A0E803000000006400000000000A000000F1
S11302B000000100000000002C76D888DC674F089D
S11302C023DFC1DFAE59E1B1B796E5E3E453C63AA3
S11302D0E651997696E8E6C28426EB898C9B62ED1A
S11302E0407C6FFCEFBC9C9F40F2BAA56FA5F490D4
S11302F0055A2AF75C936B6CF9676DC11BFCE0E44B
S11303000D47FEF520E6B500D0ED902E03009435A0
S113031077050080841E080000204E0A000000C8F3
S11303200C333333330F986E12831141EF8D211444
S1130330893BE65516CFFEE6DB18D1844B381BF714
S11303407C1D901DA4BBE424203284725E228100B3
S1130350C9F124ECA1E53D2711241FBECFEFCDBF89
S1130360DFE3DEBF00E00CBF18BE19BE1ABE1BBE21
S113037011E2A0E0B0E2EAE4F9EB00E00BBF02C056
S113038007900D92AC3BB107D9F71BBE28E2ACEB4A
S1130390B1E201C01D92A132B207E1F70E94064CFE
S11303A00C94A35C2DCECF93DF93CDB7DEB72A9701
S11303B0CDBFDEBF8A878A8589831A8289818B8330
S11303C08B818C838C818695869586958D838D8192
S11303D0882F90E0880F991F82959295907F982797
S11303E0807F98279A5F8E839F838A818823A9F0D0
S11303F0898188878885882F90E09C01277033271E
S113040081E090E002C0880F991F2A95E2F7282F17
S11304108E819F81FC01258314C089818987898508
S1130420882F90E09C012770332781E090E002C080
S1130430880F991F2A95E2F7282F8E819F81FC014E
S1130440268300002A96CDBFDEBFDF91CF910895A9
S1130450CF93DF93CDB7DEB72A97CDBFDEBF8A87B0
S11304608A85898381E08A8389818B838B818C83CC
S11304708C818695869586958D838D81882F90E0D5
S1130480880F991F82959295907F9827807F98274F
S11304909A5F8E839F838A818823A9F089818887C4
S11304A08885882F90E09C012770332781E090E0B5
S11304B002C0880F991F2A95E2F7282F8E819F8109
S11304C0FC01258314C0898189878985882F90E060
S11304D09C012770332781E090E002C0880F991FA8
S11304E02A95E2F7282F8E819F81FC012683000044
S11304F02A96CDBFDEBFDF91CF910895CF93DF93CE
S113050000D0CDB7DEB789839A836B8389819A81C2
S11305102B81FC01238300002396CDBFDEBFDF9136
S1130520CF910895CF93DF931F921F92CDB7DEB77B
S113053089839A8389819A81FC0183810F900F902A
S1130540DF91CF910895CF93DF931F921F92CDB780
S1130550DEB789839A8389819A81FC018281881F0D
S11305608827881F0F900F90DF91CF910895CF9324
S1130570DF931F921F92CDB7DEB789839A83898157
S11305809A81FC018081282F206189819A81FC0154
S1130590208300000F900F90DF91CF910895CF93A7
S11305A0DF9300D01F92CDB7DEB789839A836B8324
S11305B07C8389819A81B6DF282F8B819C81FC0101
S11305C0208300002496CDBFDEBFDF91CF91089534
S11305D0CF93DF931F921F92CDB7DEB789839A839F
S11305E089819A81B0DF0F900F90DF91CF910895A8
S11305F0CF93DF93CDB7DEB780E09CE6ACEDB2E0FD
S1130600BC01CD01DF91CF910895CF93DF931F9269
S1130610CDB7DEB71982ECDFDC01CB012981222FB3
S113062030E004C0B695A795979587952A95D2F79B
S1130630BC01CD010F90DF91CF910895CF93DF934B
S1130640CDB7DEB7E2DFDC01CB01BC01CD01DF9128
S1130650CF910895CF93DF93CDB7DEB7EFDFDC0101
S1130660CB01BC01CD01DF91CF910895CF93DF93EE
S1130670CDB7DEB7EFDFDC01CB01BC01CD01DF91EB
S1130680CF910895CF93DF931F921F92CDB7DEB71A
S113069089839A8389819A81803C984021F468E017
S11306A083E00E94B02C89819A81803C994021F496
S11306B068E084E00E94B02C89819A81803C9A4051
S11306C021F468E085E00E94B02C89819A81803C05
S11306D09B4021F468E086E00E94B02C89819A81D5
S11306E046DF00000F900F90DF91CF910895CF92D5
S11306F0DF92EF92FF920F931F93CF93DF93CDB7C7
S1130700DEB72D97CDBFDEBF89839A836B837C834D
S11307104D830E831F8328873987CA86DB86EC8640
S1130720FD86A4DF9B01AC018E819F81A885B985DC
S1130730E981FA8189019A01AC01BD01CF010E94CE
S1130740302F8823ACF089819A81FC018081282F85
S1130750237F8D81882F90E0880F991F880F991F20
S11307608C70822B282F89819A81FC01208301C0FF
S113077000002D96CDBFDEBFDF91CF911F910F9169
S1130780FF90EF90DF90CF900895CF93DF93CDB794
S1130790DEB72997CDBFDEBF8C839D836E837F83B5
S11307A0488759871BC08E819F819C012F5F3F4FD3
S11307B02E833F83FC0120818C819D8189839A83D0
S11307C02B8389819A816B8199DE00008C819D81C4
S11307D0FFDE982F81E089278823C1F788859985D2
S11307E09C012150310928873987892BE1F680E063
S11307F02996CDBFDEBFDF91CF910895CF93DF93CC
S1130800CDB7DEB72997CDBFDEBF8C839D836E83C2
S11308107F83488759871EC08C819D8189839A83F1
S11308208FEF8B8389819A816B8168DE00008C81D4
S11308309D81CEDE982F81E089278823C1F72E8100
S11308403F818C819D81B901AADE8E819F810196B1
S11308508E839F83888599859C012150310928873F
S11308603987892BC9F680E02996CDBFDEBFDF9199
S1130870CF910895CF93DF9300D01F92CDB7DEB709
S113088089839A836B837C838B819C81FC01808127
S11308908ADD00002496CDBFDEBFDF91CF9108959D
S11308A0CF93DF9300D01F92CDB7DEB789839A83AD
S11308B06B837C838B819C81FC018081C9DD00007A
S11308C02496CDBFDEBFDF91CF910895CF93DF9300
S11308D01F92CDB7DEB78FE390E0FC01808189835E
S11308E0F89489810F90DF91CF910895CF93DF938E
S11308F01F92CDB7DEB789838FE390E02981FC0195
S1130900208300000F90DF91CF910895CF93DF9360
S11309101F921F92CDB7DEB78A838A81882F90E019
S11309208D5F974DFC0180818F3F09F4FFCFCEDFAF
S113093089838A81882F90E09C012D5F374DF901CE
S113094020812F5F8D5F974DFC0120838981CEDF4D
S113095000000F900F90DF91CF910895CF93DF9314
S11309601F921F92CDB7DEB78A838A81882F90E0C9
S11309708D5F974DFC018081882309F4FFCFA6DFAA
S113098089838A81882F90E09C012D5F374DF9017E
S1130990208121508D5F974DFC0120838981A6DF42
S11309A000000F900F90DF91CF910895CF93DF93C4
S11309B01F921F92CDB7DEB789839A8389819A816A
S11309C08115924069F48091BC2191E0980F909335
S11309D0BC218823B1F462E081E00E94B02C11C0F4
S11309E089819A818034924061F48091BD2191E0A3
S11309F0980F9093BD21882321F462E082E00E9445
S1130A00B02C00000F900F90DF91CF910895CF93F9
S1130A10DF931F921F92CDB7DEB789839A838981B2
S1130A209A818115924071F48091BC218150809308
S1130A30BC218091BC218823B9F462E081E00E944A
S1130A40D42C12C089819A818034924069F48091B7
S1130A50BD2181508093BD218091BD21882321F443
S1130A6062E082E00E94D42C00000F900F90DF918E
S1130A70CF910895CF93DF9300D0CDB7DEB78A83AB
S1130A809B8324DF89838A819B8190DF8A819B8178
S1130A90FC018081282F21608A819B81FC012083B5
S1130AA0898124DF81E032DF00002396CDBFDEBFE1
S1130AB0DF91CF910895CF93DF9300D0CDB7DEB708
S1130AC08A839B8303DF89838A819B81FC018081E4
S1130AD0282F2E7F8A819B81FC0120838A819B8120
S1130AE096DF898103DF81E039DF00002396CDBFE3
S1130AF0DEBFDF91CF910895CF93DF931F92CDB7DF
S1130B00DEB78FE390E0FC0180818983F8948981CA
S1130B100F90DF91CF910895CF93DF931F92CDB7BC
S1130B20DEB789838FE390E02981FC0120830000F4
S1130B300F90DF91CF910895CF93DF931F92CDB79C
S1130B40DEB789838981882F90E0BC0182E00E940E
S1130B50782D0F90DF91CF910895CF93DF9300D03C
S1130B60CDB7DEB78B838B81882F90E081309105E0
S1130B70E9F08230910589F1892B09F045C081E2C1
S1130B80DBDF882F90E089839A8389819A81982F6B
S1130B90882789839A8380E2CFDF882F90E0298198
S1130BA03A81822B932B89839A8330C085E2C4DFF8
S1130BB0882F90E089839A8389819A81982F882746
S1130BC089839A8384E2B8DF882F90E029813A816F
S1130BD0822B932B89839A8319C08FE2ADDF882FF0
S1130BE090E089839A8389819A81982F88278983C1
S1130BF09A838EE2A1DF882F90E029813A81822BAB
S1130C00932B89839A8302C019821A8289819A81DB
S1130C102396CDBFDEBFDF91CF9108951F920F922F
S1130C2000903F000F921124009038000F92109210
S1130C303800009039000F921092390000903A0069
S1130C400F9210923A0000903B000F9210923B00DA
S1130C502F933F934F935F936F937F938F939F93C0
S1130C60AF93BF93EF93FF93CF93DF9300D01F9283
S1130C70CDB7DEB7209131223091322280E092E06C
S1130C8089839A8381E08B831C828B81882F90E0F7
S1130C9083709927892B39F48C818E5F8C838B81A7
S1130CA0869586958B838B81882F90E08170992718
S1130CB0892B19F48C818F5F8C8389819A81AC0193
S1130CC0405E5F4F8C81882F90E0880F991F880FBA
S1130CD0991F880F991F840F951FFC0184819581AA
S1130CE0AC0161E080E092E0F901199500002496DE
S1130CF0CDBFDEBFDF91CF91FF91EF91BF91AF9157
S1130D009F918F917F916F915F914F913F912F911F
S1130D100F9000923B000F9000923A000F900092C7
S1130D2039000F90009238000F9000923F000F900E
S1130D301F9018951F920F9200903F000F9211245C
S1130D40009038000F9210923800009039000F92F2
S1130D501092390000903A000F9210923A000090DD
S1130D603B000F9210923B002F933F934F935F935E
S1130D706F937F938F939F93AF93BF93EF93FF935F
S1130D80CF93DF9300D01F92CDB7DEB720913122ED
S1130D903091322280E092E089839A8382E08B83CF
S1130DA01C828B81882F90E083709927892B39F4DA
S1130DB08C818E5F8C838B81869586958B838B81CA
S1130DC0882F90E081709927892B19F48C818F5F8B
S1130DD08C8389819A81AC01405E5F4F8C81882F1E
S1130DE090E0880F991F880F991F880F991F840F0F
S1130DF0951FFC0184819581AC0162E080E092E062
S1130E00F901199500002496CDBFDEBFDF91CF9183
S1130E10FF91EF91BF91AF919F918F917F916F91CE
S1130E205F914F913F912F910F9000923B000F9053
S1130E3000923A000F90009239000F90009238000F
S1130E400F9000923F000F901F9018951F920F92E1
S1130E5000903F000F921124009038000F921092DE
S1130E603800009039000F921092390000903A0037
S1130E700F9210923A0000903B000F9210923B00A8
S1130E802F933F934F935F936F937F938F939F938E
S1130E90AF93BF93EF93FF93CF93DF9300D01F9251
S1130EA0CDB7DEB7209131223091322280E092E03A
S1130EB089839A8384E08B831C828B81882F90E0C2
S1130EC083709927892B39F48C818E5F8C838B8175
S1130ED0869586958B838B81882F90E081709927E6
S1130EE0892B19F48C818F5F8C8389819A81AC0161
S1130EF0405E5F4F8C81882F90E0880F991F880F88
S1130F00991F880F991F840F951FFC018481958177
S1130F10AC0164E080E092E0F901199500002496A8
S1130F20CDBFDEBFDF91CF91FF91EF91BF91AF9124
S1130F309F918F917F916F915F914F913F912F91ED
S1130F400F9000923B000F9000923A000F90009295
S1130F5039000F90009238000F9000923F000F90DC
S1130F601F9018951F920F9200903F000F9211242A
S1130F70009038000F9210923800009039000F92C0
S1130F801092390000903A000F9210923A000090AB
S1130F903B000F9210923B002F933F934F935F932C
S1130FA06F937F938F939F93AF93BF93EF93FF932D
S1130FB0CF93DF9300D01F92CDB7DEB720913122BB
S1130FC03091322280E092E089839A8388E08B8397
S1130FD01C828B81882F90E083709927892B39F4A8
S1130FE08C818E5F8C838B81869586958B838B8198
S1130FF0882F90E081709927892B19F48C818F5F59
S11310008C8389819A81AC01405E5F4F8C81882FEB
S113101090E0880F991F880F991F880F991F840FDC
S1131020951FFC0184819581AC0168E080E092E029
S1131030F901199500002496CDBFDEBFDF91CF9151
S1131040FF91EF91BF91AF919F918F917F916F919C
S11310505F914F913F912F910F9000923B000F9021
S113106000923A000F90009239000F9000923800DD
S11310700F9000923F000F901F9018951F920F92AF
S113108000903F000F921124009038000F921092AC
S11310903800009039000F921092390000903A0005
S11310A00F9210923A0000903B000F9210923B0076
S11310B02F933F934F935F936F937F938F939F935C
S11310C0AF93BF93EF93FF93CF93DF9300D01F921F
S11310D0CDB7DEB720912F223091302280E492E008
S11310E089839A8381E08B831C828B81882F90E093
S11310F083709927892B39F48C818E5F8C838B8143
S1131100869586958B838B81882F90E081709927B3
S1131110892B19F48C818F5F8C8389819A81AC012E
S1131120405E5F4F8C81882F90E0880F991F880F55
S1131130991F880F991F840F951FFC018481958145
S1131140AC0161E080E492E0F90119950000249675
S1131150CDBFDEBFDF91CF91FF91EF91BF91AF91F2
S11311609F918F917F916F915F914F913F912F91BB
S11311700F9000923B000F9000923A000F90009263
S113118039000F90009238000F9000923F000F90AA
S11311901F9018951F920F9200903F000F921124F8
S11311A0009038000F9210923800009039000F928E
S11311B01092390000903A000F9210923A00009079
S11311C03B000F9210923B002F933F934F935F93FA
S11311D06F937F938F939F93AF93BF93EF93FF93FB
S11311E0CF93DF9300D01F92CDB7DEB720912F228B
S11311F03091302280E492E089839A8382E08B8369
S11312001C828B81882F90E083709927892B39F475
S11312108C818E5F8C838B81869586958B838B8165
S1131220882F90E081709927892B19F48C818F5F26
S11312308C8389819A81AC01405E5F4F8C81882FB9
S113124090E0880F991F880F991F880F991F840FAA
S1131250951FFC0184819581AC0162E080E492E0F9
S1131260F901199500002496CDBFDEBFDF91CF911F
S1131270FF91EF91BF91AF919F918F917F916F916A
S11312805F914F913F912F910F9000923B000F90EF
S113129000923A000F90009239000F9000923800AB
S11312A00F9000923F000F901F9018951F920F927D
S11312B000903F000F921124009038000F9210927A
S11312C03800009039000F921092390000903A00D3
S11312D00F9210923A0000903B000F9210923B0044
S11312E02F933F934F935F936F937F938F939F932A
S11312F0AF93BF93EF93FF93CF93DF9300D01F92ED
S1131300CDB7DEB720912F223091302280E492E0D5
S113131089839A8384E08B831C828B81882F90E05D
S113132083709927892B39F48C818E5F8C838B8110
S1131330869586958B838B81882F90E08170992781
S1131340892B19F48C818F5F8C8389819A81AC01FC
S1131350405E5F4F8C81882F90E0880F991F880F23
S1131360991F880F991F840F951FFC018481958113
S1131370AC0164E080E492E0F90119950000249640
S1131380CDBFDEBFDF91CF91FF91EF91BF91AF91C0
S11313909F918F917F916F915F914F913F912F9189
S11313A00F9000923B000F9000923A000F90009231
S11313B039000F90009238000F9000923F000F9078
S11313C01F9018951F920F9200903F000F921124C6
S11313D0009038000F9210923800009039000F925C
S11313E01092390000903A000F9210923A00009047
S11313F03B000F9210923B002F933F934F935F93C8
S11314006F937F938F939F93AF93BF93EF93FF93C8
S1131410CF93DF9300D01F92CDB7DEB720912F2258
S11314203091302280E492E089839A8388E08B8330
S11314301C828B81882F90E083709927892B39F443
S11314408C818E5F8C838B81869586958B838B8133
S1131450882F90E081709927892B19F48C818F5FF4
S11314608C8389819A81AC01405E5F4F8C81882F87
S113147090E0880F991F880F991F880F991F840F78
S1131480951FFC0184819581AC0168E080E492E0C1
S1131490F901199500002496CDBFDEBFDF91CF91ED
S11314A0FF91EF91BF91AF919F918F917F916F9138
S11314B05F914F913F912F910F9000923B000F90BD
S11314C000923A000F90009239000F900092380079
S11314D00F9000923F000F901F901895CF93DF93C9
S11314E0CDB7DEB72897CDBFDEBF8D839E836F83D4
S11314F078878D819E818115924029F480E02DDBCF
S113150089839A830AC08D819E818034924009F038
S113151056C081E022DB89839A83EEDA8B838D8146
S11315209E8144DA8D819E81FC01808181708C834F
S11315308D819E8122E0FC0120838D819E81298101
S11315403A81FC01248735878F819885FC012581A8
S113155036818D819E81FC01208F318F8F8198850A
S1131560FC0122818D819E81FC0122838F819885DB
S1131570FC0124818D819E81FC0124838F819885C7
S1131580FC0123818D819E81FC0123838F819885B9
S1131590FC0121818D819E81FC0121838F819885AD
S11315A0FC0190818C81292F282B8D819E81FC0147
S11315B020838D819E812BDA8B81AEDA01C00000FD
S11315C02896CDBFDEBFDF91CF910895CF93DF93EF
S11315D0CDB7DEB72597CDBFDEBF8A839B836C83EF
S11315E07D838ADA89838A819B81E0D98A819B8180
S11315F0FC018081282F207C8C819D81FC0120832B
S11316008A819B81FC01208D318D8C819D81FC011F
S1131610258336838A819B81FC0122818C819D8173
S1131620FC0122838A819B81FC0124818C819D8120
S1131630FC0124838A819B81FC0123818C819D810F
S1131640FC0123838A819B81FC0121818C819D8102
S1131650FC0121838A819B81DAD989815DDA0000CA
S11316602596CDBFDEBFDF91CF910895CF93DF9351
S1131670CDB7DEB72C97CDBFDEBF888799876A8741
S11316804B875C87888599858C839D838A858E8327
S11316901F828E81882F90E083709927892B39F4DB
S11316A08F818E5F8F838E81869586958E838E81C2
S11316B0882F90E081709927892B19F48F818F5F8F
S11316C08F838C819D819C01205E3F4F8F81882F69
S11316D090E0880F991F880F991F880F991F820F18
S11316E0931F89839A8308DA8B83888599855ED9C9
S11316F08B859C85FC01208189819A81FC01208352
S11317008B859C85FC01228189819A81FC0122833D
S11317108B859C85FC01218189819A81FC0121832F
S11317208A85882F90E081709927892B41F08B85D9
S11317309C85FC01238189819A81FC01268388850B
S1131740998565D98B81E8D900002C96CDBFDEBF81
S1131750DF91CF910895CF93DF93CDB7DEB72C9768
S1131760CDBFDEBF888799876A874B875C8788856A
S113177099858C839D838A858E831F828E81882F91
S113178090E083709927892B39F48F818E5F8F8342
S11317908E81869586958E838E81882F90E08170C8
S11317A09927892B19F48F818F5F8F838C819D8179
S11317B09C01205E3F4F8F81882F90E0880F991FF6
S11317C0880F991F880F991F820F931F89839A830B
S11317D093D98B8388859985E9D889819A81FC017D
S11317E020818B859C85FC01208389819A81FC0161
S11317F022818B859C85FC01228389819A81FC014D
S113180021818B859C85FC0121838A85882F90E02A
S113181081709927892B41F089819A81FC01268165
S11318208B859C85FC01238388859985F0D88B81E1
S113183073D900002C96CDBFDEBFDF91CF91089500
S1131840CF93DF931F92CDB7DEB78FE390E0FC0117
S113185080818983F89489810F90DF91CF910895D5
S1131860CF93DF931F92CDB7DEB789838FE390E0E8
S11318702981FC01208300000F90DF91CF9108950E
S1131880CF93DF93CDB7DEB780E09CE6ACEDB2E05A
S1131890BC01CD01DF91CF910895CF93DF931F92C7
S11318A0CDB7DEB71982ECDFDC01CB012981222F11
S11318B030E004C0B695A795979587952A95D2F7F9
S11318C0BC01CD010F90DF91CF910895CF93DF93A9
S11318D0CDB7DEB7E2DFDC01CB01BC01CD01DF9186
S11318E0CF910895CF93DF93CDB7DEB7EFDFDC015F
S11318F0CB01BC01CD01DF91CF910895CF93DF934C
S113190000D01F92CDB7DEB78A839B836C8398DFA8
S113191089838A819B81FC018081282F8C81882F77
S113192090E0880F991F880F991F822B282F8A8196
S11319309B81FC012083898193DF00002496CDBF25
S1131940DEBFDF91CF910895CF93DF9300D0CDB761
S1131950DEB789839A836B8389819A81FC0196819E
S11319608B8189232396CDBFDEBFDF91CF9108956C
S1131970CF93DF9300D0CDB7DEB789839A836B838F
S113198089819A812B81FC01268300002396CDBF97
S1131990DEBFDF91CF910895CF93DF9300D0CDB711
S11319A0DEB789839A836B8389819A816B81CCDFCB
S11319B0982F8B819817C1F789819A816B81D8DF21
S11319C000002396CDBFDEBFDF91CF910895CF9362
S11319D0DF93CDB7DEB72D97CDBFDEBF888799875C
S11319E04A875B876C877D877DDFDC01CB018A8337
S11319F09B83AC83BD838A819B81AC81BD812A8515
S1131A003B854C855D85BC01CD010E94C257DA013E
S1131A10C9018E839F838E819F81059710F419825B
S1131A202FC08E819F81099718F481E0898328C093
S1131A308E819F81419718F482E0898321C08E8131
S1131A409F81819718F483E089831AC08E819F81D6
S1131A508134910518F484E0898312C08E819F81BA
S1131A608138910518F485E089830AC08E819F81AD
S1131A708130914018F486E0898302C087E089832D
S1131A80888599852981FC01248300002D96CDBF8A
S1131A90DEBFDF91CF910895CF93DF93CDB7DEB74B
S1131AA02597CDBFDEBF89839A836B834C832D83B7
S1131AB089819A81FC018181282F297E89819A81DB
S1131AC0FC01218389819A81FC0191812C818B8184
S1131AD0822B292F282B89819A81FC0121838981DA
S1131AE09A81FC018281282F2F7889819A81FC01B7
S1131AF0228389819A81FC0192818D81292F282B4F
S1131B0089819A81FC01228300002596CDBFDEBF26
S1131B10DF91CF910895CF93DF93CDB7DEB72597AB
S1131B20CDBFDEBF89839A836B834C832D838B81E6
S1131B30882F90E08230910511F1833091052CF4C7
S1131B40009771F00197B9F1A9C08430910509F4A7
S1131B5053C084309105D4F1059709F476C09EC032
S1131B6089819A81FC018181282F277F89819A812B
S1131B70FC01218389819A81FC0113828FC08981B0
S1131B809A81FC018181282F277F89819A81FC0118
S1131B9021838D81882F90E0880F991F880F991FCA
S1131BA0880F991F982F8C81892B282F89819A81DE
S1131BB0FC01238373C089819A81FC018181282FD0
S1131BC0286089819A81FC01218368C089819A8176
S1131BD0FC018181282F286089819A81FC0121835D
S1131BE08C818150282F2295220F220F207C8981FD
S1131BF09A81FC01238352C089819A81FC018181ED
S1131C00282F277F89819A81FC0121838C81882F49
S1131C1090E001970024969587950794969587956B
S1131C200794982F802D282F8D81882F90E0880F7E
S1131C30991F880F991F880F991F822B8560282F61
S1131C4089819A81FC01238329C089819A81FC01BD
S1131C508181282F277F89819A81FC0121838C81AE
S1131C60882F90E001970024969587950794969580
S1131C7087950794982F802D282F8D81882F90E0A9
S1131C80880F991F880F991F880F991F822B8660D0
S1131C90282F89819A81FC01238300000000259666
S1131CA0CDBFDEBFDF91CF910895CF93DF931F9215
S1131CB0CDB7DEB789838981882F90E0883091057C
S1131CC051F1893091057CF481309105F1F0823035
S1131CD091051CF4892BB9F028C082309105B9F024
S1131CE00497B9F022C080329105C9F08132910580
S1131CF01CF4409791F019C08034910591F08F3F06
S1131D00910589F012C08CE111C080E00FC084E01D
S1131D100DC088E00BC08CE009C080E107C084E1FD
S1131D2005C088E103C080E001C080E00F90DF912E
S1131D30CF910895CF93DF93CDB7DEB72597CDBF6D
S1131D40DEBF89839A836B834C832D838B8180319F
S1131D5078F089819A81FC0110828B818051282F2F
S1131D60220F220F220F89819A81FC01218387C0CF
S1131D708C818A3079F489819A8121E0FC01208365
S1131D808B81282F220F220F220F89819A81FC0137
S1131D90218375C08C818430B8F489819A8122E0D2
S1131DA0FC0120838B81882F90E0880F991F880F76
S1131DB0991F880F991F982F8C81892B282F89812F
S1131DC09A81FC0121835BC08C818830D8F48D8199
S1131DD06CDF282F236089819A81FC0120838B8109
S1131DE0882F90E0880F991F880F991F880F991FDB
S1131DF0982F8C818450892B282F89819A81FC010A
S1131E0021833DC08D818130E1F489819A8122E072
S1131E10FC0120838B81882F90E0880F991F880F05
S1131E20991F880F991F982F8C81883011F485E0B1
S1131E3001C087E0892B282F89819A81FC012183A5
S1131E401EC08D8132DF282F236089819A81FC0195
S1131E5020838B81882F90E0880F991F880F991F0A
S1131E60880F991F982F8C81893011F484E001C068
S1131E7087E0892B282F89819A81FC012183000026
S1131E802596CDBFDEBFDF91CF910895CF93DF9329
S1131E90CDB7DEB72E97CDBFDEBF8C879D876E870B
S1131EA08C859D859E012F5F3F4FB9018FDB9E017D
S1131EB0285F3F4F8C859D85A9016E854CDC20E110
S1131EC040E060E0CE010196E7DD20E041E060E023
S1131ED0CE01019620DE40E45DE063E070E0CE01D7
S1131EE0019675DDCE01089620E04AE060E022DF2D
S1131EF08C859D859E012F5F3F4FB901EFDA9E01CE
S1131F00285F3F4F8C859D85A9016E85AFDB00005E
S1131F102E96CDBFDEBFDF91CF910895CF93DF938F
S1131F20CDB7DEB761E080E092E0B0DF87E590E214
S1131F300E94CC5B0000DF91CF910895CF93DF9393
S1131F40CDB7DEB761E080E492E0A0DF8FE690E2F7
S1131F500E94CC5B0000DF91CF910895CF93DF9373
S1131F60CDB7DEB72997CDBFDEBF8F83988769874A
S1131F708F8198850E943A058F8198856985BEDC9A
S1131F808F819885698508DD8F8198858B839C83F3
S1131F9089858D831E828D81882F90E08370992797
S1131FA0892B39F48E818E5F8E838D8186958695FB
S1131FB08D838D81882F90E081709927892B19F466
S1131FC08E818F5F8E838B819C819C01205E3F4F2D
S1131FD08E81882F90E0880F991F880F991F880F92
S1131FE0991F820F931FFC018481958189839A83B1
S1131FF08F8198850E945B0589819A81CC01A0E03C
S1132000B0E0BC01CD010E944C52DC01CB01BC010B
S1132010CD012996CDBFDEBFDF91CF910895CF9337
S1132020DF9300D01F92CDB7DEB761E080E492E089
S113203095DFDC01CB0120E030E040E855E4BC0151
S1132040CD010E947951DC01CB019C01AD01BC01A1
S1132050CD010E941151DC01CB0189839A83AB83AA
S1132060BC8389819A81AB81BC81BC01CD0124965A
S1132070CDBFDEBFDF91CF910895CF93DF93CDB76E
S1132080DEB72897CDBFDEBF61E080E092E066DF77
S1132090DC01CB0125EE30ED42E25FE3BC01CD0172
S11320A00E949553DC01CB0189839A83AB83BC8363
S11320B029813A814B815C8160E070E080E895E49D
S11320C00E947951DC01CB0120E030E040E85FE37D
S11320D0BC01CD010E941051DC01CB01BC01CD013A
S11320E00E945553DC01CB012CE734ED43E859E35E
S11320F0BC01CD010E949553DC01CB012FE03FECE4
S11321004BE55BE3BC01CD010E941151DC01CB0125
S11321109C01AD0160E070E080E89FE30E9479518A
S1132120DC01CB01BC01CD010E942052DC01CB01BA
S11321308D839E83AF83B8876D817E818F819885DF
S11321400E944C52DC01CB0123E333E948E853E419
S1132150BC01CD010E941051DC01CB01BC01CD01B9
S11321602896CDBFDEBFDF91CF910895CF93DF9343
S1132170CDB7DEB72597CDBFDEBF8A836B837C8363
S11321804D838FEF89838091BE219091BF21892B4C
S113219011F481E819C08091BE219091BF21DC0126
S11321A01996ED91FC911A978091BE219091BF21CF
S11321B0DC0118963C918B819C812D81AC016A8154
S11321C0832F1995898389812596CDBFDEBFDF9141
S11321D0CF910895CF93DF9300D0CDB7DEB78B8333
S11321E08FEF89831A828091BE219091BF21892B20
S11321F011F481E846C08091BE219091BF21DC0199
S11322001B96ED91FC911C978091BE219091BF216A
S1132210DC0118963C91CE01029621E0AC0167E006
S1132220832F199589838981882341F58B818A833A
S11322308091BE219091BF21DC011996ED91FC9112
S11322401A978091BE219091BF21DC0118963C9190
S1132250CE01029621E0AC0167E0832F1995982FF7
S11322608981890F89838981882351F48091BE21D2
S11322709091BF212B81FC01238302C08FEF8983BE
S113228089812396CDBFDEBFDF91CF910895CF938F
S1132290DF93CDB7DEB72A97CDBFDEBF89879A8794
S11322A08FEF898326E0CE010396DC01E22F1D9295
S11322B0EA95E9F78FEF8A838091BE219091BF213F
S11322C0892B11F481E872C08091BE219091BF21C5
S11322D0DC0113968C91882319F080E07BDF8A83DC
S11322E08A81882349F08091BE219091BF21FC010D
S11322F08381882309F057C08091BE219091BF212A
S1132300DC011B96ED91FC911C978091BE2190916C
S1132310BF21DC0118963C91CE01039626E0AC0166
S11323206AE1832F199589838B818B838C818C83BC
S11323308C81082E000C990B382F22278B81882F33
S113234090E0282B392B89859A85FC0120833183E1
S11323508D818D838E818E838E81082E000C990B46
S1132360382F22278D81882F90E0282B392B8985BF
S11323709A85DC0112962D933C9313978F818F835A
S1132380888588878885082E000C990B382F22278A
S11323908F81882F90E0282B392B89859A85FC0121
S11323A02483358302C08FEF898389812A96CDBF28
S11323B0DEBFDF91CF910895CF93DF93CDB7DEB722
S11323C02A97CDBFDEBF89879A878FEF898326E05E
S11323D0CE010396DC01E22F1D92EA95E9F78FEF17
S11323E08A838091BE219091BF21892B11F481E8C9
S11323F072C08091BE219091BF21DC0113968C9113
S1132400882319F080E0E6DE8A838A81882349F0F4
S11324108091BE219091BF21FC018381882309F022
S113242057C08091BE219091BF21DC011B96ED9194
S1132430FC911C978091BE219091BF21DC011896DC
S11324403C91CE01039626E0AC0168E2832F1995F6
S113245089838B818B838C818C838C81082E000CE7
S1132460990B382F22278B81882F90E0282B392B2A
S113247089859A85FC01208331838D818D838E81AA
S11324808E838E81082E000C990B382F22278D8184
S1132490882F90E0282B392B89859A85DC011296A8
S11324A02D933C9313978F818F83888588878885A4
S11324B0082E000C990B382F22278F81882F90E04B
S11324C0282B392B89859A85FC012483358302C006
S11324D08FEF898389812A96CDBFDEBFDF91CF91AB
S11324E00895CF93DF93CDB7DEB72A97CDBFDEBF74
S11324F089879A878FEF89831A821B821C821D82A7
S11325001E821F821886CE01089664D2898388852C
S1132510882331F080E0BBD2982F8981890F898389
S11325208981882309F066C0CE010296B0DE982F17
S11325308981890F89838981882309F058C08A8118
S11325409B81092E000CAA0BBB0BBC01CD010E9480
S11325504E52DC01CB0120E030E040E851E4BC0104
S1132560CD010E947951DC01CB0129853A85F9011D
S113257080839183A283B3838E819F81092E000C73
S1132580AA0BBB0BBC01CD010E944E52DC01CB0156
S113259020E030E040E851E4BC01CD010E947951D3
S11325A0DC01CB0129853A85F90180879187A287CF
S11325B0B3878C819D81092E000CAA0BBB0BBC0137
S11325C0CD010E944E52DC01CB0120E030E040E816
S11325D051E4BC01CD010E947951DC01CB01298574
S11325E03A85F90184839583A683B78305C08FEF69
S11325F0898302C08FEF898389812A96CDBFDEBF8C
S1132600DF91CF910895CF93DF93CDB7DEB72997AC
S1132610CDBFDEBF888799878FEF89831A821B829B
S11326201C821D821E821F82CE010296C5DE898312
S11326308981882309F058C08A819B81092E000C66
S1132640AA0BBB0BBC01CD010E944E52DC01CB0195
S113265020E030E048EC52E4BC01CD010E94795105
S1132660DC01CB0128853985F90180839183A2831C
S1132670B3838C819D81092E000CAA0BBB0BBC017A
S1132680CD010E944E52DC01CB0120E030E048EC49
S113269052E4BC01CD010E947951DC01CB012885B3
S11326A03985F90184839583A683B7838E819F81BD
S11326B0092E000CAA0BBB0BBC01CD010E944E528B
S11326C0DC01CB0120E030E048EC52E4BC01CD0158
S11326D00E947951DC01CB0128853985F901808775
S11326E09187A287B38702C08FEF89838981299656
S11326F0CDBFDEBFDF91CF910895CF93DF93CDB7E8
S1132700DEB72597CDBFDEBF8C839D838FEF898392
S11327101B828FEF8A838091BE219091BF21892BE8
S113272011F481E83AC08091BE219091BF21DC016F
S113273013968C91882319F080E04CDD8A838A817A
S1132740882341F08091BE219091BF21FC018381B7
S1132750882301F58091BE219091BF21DC011B9655
S1132760ED91FC911C978091BE219091BF21DC01D9
S113277018963C91CE01039621E0AC0165E3832FCA
S1132780199589838B81282F23708C819D81FC016D
S1132790208302C08FEF898389812596CDBFDEBF58
S11327A0DF91CF910895CF93DF93CDB7DEB725970F
S11327B0CDBFDEBF8C839D838FEF89831B828FEF18
S11327C08A838091BE219091BF21892B11F481E8E5
S11327D041C08091BE219091BF21DC0113968C9160
S11327E0882319F080E0F6DC8A838A81882341F00B
S11327F08091BE219091BF21FC018381882339F50A
S11328008091BE219091BF21DC011B96ED91FC913A
S11328101C978091BE219091BF21DC0118963C91B8
S1132820CE01039621E0AC0165E3832F19958983DA
S11328308B81882F90E08C70992795958795959535
S11328408795282F8C819D81FC01208302C08FEF06
S1132850898389812596CDBFDEBFDF91CF9108950D
S1132860CF93DF93CDB7DEB72597CDBFDEBF8C8383
S11328709D838FEF89831B828FEF8A838091BE2192
S11328809091BF21892B11F481E845C08091BE212C
S11328909091BF21DC0113968C91882319F080E07C
S11328A099DC8A838A81882341F08091BE219091AA
S11328B0BF21FC018381882359F58091BE21909129
S11328C0BF21DC011B96ED91FC911C978091BE21E8
S11328D09091BF21DC0118963C91CE01039621E032
S11328E0AC0165E3832F199589838B81882F90E050
S11328F0807399279595879595958795959587954F
S113290095958795282F8C819D81FC01208302C099
S11329108FEF898389812596CDBFDEBFDF91CF916B
S11329200895CF93DF93CDB7DEB72597CDBFDEBF34
S11329308C839D838FEF89831B828FEF8A838091A1
S1132940BE219091BF21892B11F481E83DC0809173
S1132950BE219091BF21DC0113968C91882319F03C
S113296080E038DC8A838A81882341F08091BE210B
S11329709091BF21FC018381882319F58091BE21A8
S11329809091BF21DC011B96ED91FC911C978091E5
S1132990BE219091BF21DC0118963C91CE01039693
S11329A021E0AC0165E3832F199589838B81282F5E
S11329B022952695269523708C819D81FC01208388
S11329C002C08FEF898389812596CDBFDEBFDF9159
S11329D0CF910895CF93DF93CDB7DEB72597CDBFC1
S11329E0DEBF8C839D838FEF89831B828FEF8A8365
S11329F08091BE219091BF21892B11F481E841C0BF
S1132A008091BE219091BF21DC0113968C91882383
S1132A1019F080E0DFDB8A838A81882341F080918A
S1132A20BE219091BF21FC018381882339F58091D7
S1132A30BE219091BF21DC011B96ED91FC911C9766
S1132A408091BE219091BF21DC0118963C91CE016A
S1132A50039621E0AC016BE3832F199589838B8165
S1132A60882F90E0847099279595879595958795FB
S1132A70282F8C819D81FC01208302C08FEF8983E4
S1132A8089812596CDBFDEBFDF91CF910895CF9385
S1132A90DF93CDB7DEB72597CDBFDEBF8D838FEF34
S1132AA089831B821C828FEF8A838091BE2190913F
S1132AB0BF21892B11F481E868C0CE0104966BD044
S1132AC08A838A81882309F054C08C81882331F059
S1132AD080E0B7D0982F8A81890F8A838A818823DE
S1132AE009F044C08091BE219091BF21DC011B9666
S1132AF0ED91FC911C978091BE219091BF21DC0146
S1132B0018963C91CE01039621E0AC016BE3832F30
S1132B10199589838981882371F58B81282F2B7FCF
S1132B208D81882F90E0880F991F880F991F8470DA
S1132B30822B8B838091BE219091BF21DC01199659
S1132B40ED91FC911A978091BE219091BF21DC01F7
S1132B5018963C91CE01039621E0AC016BE3832FE0
S1132B601995982F8981890F898305C08FEF8983EF
S1132B7002C08FEF89838C81882331F08C8161D0EE
S1132B80982F8981890F898389812596CDBFDEBFDE
S1132B90DF91CF910895CF93DF93CDB7DEB725971B
S1132BA0CDBFDEBF8C839D838FEF89831B828FEF24
S1132BB08A838091BE219091BF21892B11F481E8F1
S1132BC03AC08091BE219091BF21DC0113968C9173
S1132BD0882319F080E0FEDA8A838A81882341F011
S1132BE08091BE219091BF21FC018381882301F54E
S1132BF08091BE219091BF21DC011B96ED91FC9147
S1132C001C978091BE219091BF21DC0118963C91C4
S1132C10CE01039621E0AC016DE3832F19958983DE
S1132C208B81282F2F708C819D81FC01208302C011
S1132C308FEF898389812596CDBFDEBFDF91CF9148
S1132C400895CF93DF93CDB7DEB72597CDBFDEBF11
S1132C508D838FEF89831B821C828FEF8A838091FF
S1132C60BE219091BF21892B11F481E8D9C0CE01F6
S1132C70049691DF8A838A81882309F0CEC08C81EF
S1132C80882309F04AC08091BE219091BF21DC01C4
S1132C901B96ED91FC911C978091BE219091BF21D0
S1132CA0DC0118963C91CE01039621E0AC016DE362
S1132CB0832F199589838981882309F0B0C08B817A
S1132CC0982F907F8D818F70892B8B838091BE216B
S1132CD09091BF21DC011996ED91FC911A97809196
S1132CE0BE219091BF21DC0118963C91CE01039640
S1132CF021E0AC016DE3832F1995982F8981890F09
S1132D0089838091BE219091BF21FC012585368560
S1132D1088E592E0F901199582C08091BE219091D5
S1132D20BF21DC011B96ED91FC911C978091BE2183
S1132D309091BF21DC0118963C91CE01039621E0CD
S1132D40AC016DE3832F1995898389818823C1F4AC
S1132D508B81807F8B83CE01039641E0BC018DE3A0
S1132D6005DA982F8981890F89838091BE219091FA
S1132D70BF21FC012585368584E190E0F901199590
S1132D808D81882309F44BC08091BE219091BF218D
S1132D90DC011B96ED91FC911C978091BE219091D2
S1132DA0BF21DC0118963C91CE01039621E0AC01D1
S1132DB06DE3832F199589838981882381F58B811C
S1132DC0982F907F8D818F70892B8B838091BE216A
S1132DD09091BF21DC011996ED91FC911A97809195
S1132DE0BE219091BF21DC0118963C91CE0103963F
S1132DF021E0AC016DE3832F1995982F8981890F08
S1132E0089838091BE219091BF21FC01258536855F
S1132E1088E592E0F901199502C08FEF89838981D1
S1132E202596CDBFDEBFDF91CF910895CF93DF9379
S1132E301F921F92CDB7DEB780EB9BE024E1FC012B
S1132E40238310929B2719821A821092A6250000D0
S1132E500F900F90DF91CF910895CF93DF93CDB76B
S1132E60DEB740E051E06EEF75E28EE995E20E9434
S1132E70E52540E450E06EEF76E28EE397E20E94AF
S1132E80E5250000DF91CF9108951F920F920090E5
S1132E903F000F921124009038000F9210923800D6
S1132EA0009039000F921092390000903A000F926E
S1132EB010923A0000903B000F9210923B002F9327
S1132EC03F934F935F936F937F938F939F93AF93AE
S1132ED0BF93EF93FF93CF93DF931F92CDB7DEB7EA
S1132EE080EB9BE0FC01808189838981882F90E0BD
S1132EF0292F2F938F9384E890E2892F8F9384E86E
S1132F0090E28F930E94B95B0F900F900F900F90F7
S1132F108091FD25813041F589818A30B1F4809119
S1132F209B27882F90E0AC016EE975E286E497E276
S1132F300E9461258091FD258093A62510929B27F0
S1132F4085E08093FD2510929D2580919B27882FF5
S1132F5090E08A5B984D2981FC01208380919B2716
S1132F608F5F80939B270AC08981843239F48091D2
S1132F70FD25882319F481E080939D2580919D256A
S1132F80882321F18091FD25882301F580919D25D9
S1132F908530B9F489818734A1F481E08093FD25DB
S1132FA045E050E068E870E286E497E20E94075B3F
S1132FB085E080939B2780919D258F5F80939D253D
S1132FC005C080919D258F5F80939D2500000F9003
S1132FD0DF91CF91FF91EF91BF91AF919F918F912D
S1132FE07F916F915F914F913F912F910F9000923C
S1132FF03B000F9000923A000F90009239000F901E
S1133000009238000F9000923F000F901F90189587
S11330101F920F9200903F000F92112400903800ED
S11330200F9210923800009039000F9210923900DC
S113303000903A000F9210923A0000903B000F92D9
S113304010923B002F933F934F935F936F937F9323
S11330508F939F93AF93BF93EF93FF93CF93DF939C
S1133060CDB7DEB741E050E060EB7BE08EE397E262
S11330700E94102661E070E08EE397E20E947D26B4
S11330800000DF91CF91FF91EF91BF91AF919F919C
S11330908F917F916F915F914F913F912F910F90FD
S11330A000923B000F9000923A000F90009239007A
S11330B00F90009238000F9000923F000F901F90E5
S11330C01895CF92DF92EF92FF920F931F93CF93B5
S11330D0DF93CDB7DEB784EB97E295DA80EC97E225
S11330E000DA81EE97E25FDB87EE97E2B9DB88EDE9
S11330F097E203DB82EE97E214DC8091D42790916F
S1133100D527A091D627B091D72780939D27909358
S11331109E27A0939F27B093A0270E94CA2DDC016D
S1133120CB01BC01CD010E944C52DC01CB01809348
S1133130D4279093D527A093D627B093D7278091EF
S1133140DD279091DE27A091DF27B091E0278093BF
S1133150D9279093DA27A093DB27B093DC27E8D014
S1133160DC01CB018093DD279093DE27A093DF273A
S1133170B093E0278091A1279091A227A091A32743
S1133180B091A4278093CC279093CD27A093CE27EA
S1133190B093CF278091D9279091DA27A091DB278C
S11331A0B091DC272091DD273091DE274091DF2785
S11331B05091E027BC01CD010E941151DC01CB01EB
S11331C020E030E040E050E4BC01CD010E947951A0
S11331D0DC01CB016C017D018091D4279091D5272E
S11331E0A091D627B091D72720919D2730919E2773
S11331F040919F275091A027BC01CD010E941051FE
S1133200DC01CB019C01AD01C701B6010E949553BD
S1133210DC01CB017C018D018091CC279091CD27DD
S1133220A091CE27B091CF279C01AD01C801B70171
S11332300E941151DC01CB018093A1279093A22716
S1133240A093A327B093A4278091D0279091D1274E
S1133250A091D227B091D3278093E3279093E427BA
S1133260A093E527B093E6278091A1279091A22708
S1133270A091A327B091A4272091CC273091CD27EA
S11332804091CE275091CF27BC01CD010E9411510E
S1133290DC01CB0120E030E040E050E4BC01CD0192
S11332A00E947951DC01CB016C017D018091D4270E
S11332B09091D527A091D627B091D72720919D270B
S11332C030919E2740919F275091A027BC01CD01AA
S11332D00E941051DC01CB019C01AD01C701B60174
S11332E00E949553DC01CB017C018D018091E32781
S11332F09091E427A091E527B091E6279C01AD01C8
S1133300C801B7010E941151DC01CB018093D02781
S11333109093D127A093D227B093D3270000DF91B5
S1133320CF911F910F91FF90EF90DF90CF90089570
S1133330CF93DF93CDB7DEB78091BC279091BD27A3
S1133340A091BE27B091BF27BC01CD01DF91CF91E1
S11333500895CF93DF93CDB7DEB78091A1279091E5
S1133360A227A091A327B091A427BC01CD01DF918E
S1133370CF910895CF93DF93CDB7DEB78091D02757
S11333809091D127A091D227B091D327BC01CD0130
S1133390DF91CF910895CF93DF93CDB7DEB78091BE
S11333A0C4279091C527A091C627B091C727BC0117
S11333B0CD01DF91CF910895CF93DF93CDB7DEB7E1
S11333C08091C8279091C927A091CA27B091CB2793
S11333D0BC01CD01DF91CF910895CF93DF93CDB799
S11333E0DEB78091C0279091C127A091C227B091E8
S11333F0C327BC01CD01DF91CF910895CF93DF9313
S1133400CDB7DEB780E896E020E836E0F901218107
S11334102160FC01218380E896E020E836E0F90190
S113342025812160FC0125838EE890E20E94CC5B1B
S11334300000DF91CF910895CF93DF93CDB7DEB72E
S113344080E496E020E436E0F90121812160FC016A
S1133450218380E496E020E436E0F90125812160AF
S1133460FC01258381EC90E20E94CC5B0000DF919B
S1133470CF910895CF93DF93CDB7DEB780E496E084
S113348020E436E0F90121812160FC01218380E4FC
S113349096E020E436E0F90125812E7FFC012583A6
S11334A08BEC90E20E94CC5B0000DF91CF910895F9
S11334B0CF93DF93CDB7DEB780E09CE6ACEDB2E00E
S11334C0BC01CD01DF91CF910895CF93DF931F927B
S11334D0CDB7DEB71982ECDFDC01CB012981222FC5
S11334E030E004C0B695A795979587952A95D2F7AD
S11334F0BC01CD010F90DF91CF910895CF93DF935D
S1133500CDB7DEB7E2DFDC01CB01BC01CD01DF9139
S1133510CF910895CF93DF93CDB7DEB7EFDFDC0112
S1133520CB01BC01CD01DF91CF910895CF93DF93FF
S1133530CDB7DEB7EFDFDC01CB01BC01CD01DF91FC
S1133540CF91089504C061507109810991096115F1
S1133550710581059105B9F70895CF93DF931F9203
S11335601F92CDB7DEB789839A8389819A81FC0142
S11335708081282F206489819A81FC0120830000A6
S11335800F900F90DF91CF910895CF93DF93CDB734
S1133590DEB743E050E062E080E496E00E94A0459C
S11335A040E058E160E180E496E00E94A04543E0F9
S11335B050E060E280E496E00E94A04540E050E0E4
S11335C060E480E496E00E94A04543E050E060E8B7
S11335D080E496E00E94A0450000DF91CF91089519
S11335E0CF92DF92EF92FF920F931F93CF93DF93CB
S11335F01F92CDB7DEB7C9DF81E1898380EC98E003
S11336000E944203C12CD12C760100E412E42FE085
S113361030E040E0CE010196BC0180EC98E00E94CD
S1133620770380EC98E099DF41E050E066ED70E2CA
S113363080EC98E00E94C50316D08BED90E2892FB0
S11336408F938BED90E28F930E94B95B0F900F9054
S113365000000F90DF91CF911F910F91FF90EF9099
S1133660DF90CF9008952F923F924F925F926F9286
S11336707F928F929F92AF92BF92CF92DF92EF92FE
S1133680FF920F931F93CF93DF93CDB7DEB7A49729
S1133690CDBFDEBF81E18A83CE010296BC0180ECFE
S11336A098E00E943A0486E0EDE1F0E2DE01139630
S11336B001900D928A95E1F71982E5C18981882FDD
S11336C090E09E012D5F3F4F820F931FFC0180818C
S11336D0882F90E041E050E0BC0180EC98E00E942B
S11336E0C50324DFDC01CB018C019D0140E050E0E7
S11336F0BA010D8B1E8B2F8B388F498F5A8F6B8F8E
S11337007C8F2D883E884F88588C698C7A8C8B8C62
S11337109C8C222D332D442D552D662D772D882DEF
S1133720992D03E00E949358A22EB32EC42ED52EB9
S1133730E62EF72E082F192F2A2C3B2C4C2C5D2C0F
S11337406E2C7F2C802E912E222D332D442D552D21
S1133750662D772D882D992D02E00E949358A22E74
S1133760B32EC42ED52EE62EF72E082F192F2A2D70
S11337703B2D4C2D5D2D6E2D7F2D802F912FA22C56
S1133780B32CC42CD52CE62CF72C082D192D0E9413
S1133790DF58A22EB32EC42ED52EE62EF72E082FD8
S11337A0192F2A2D3B2D4C2D5D2D6E2D7F2D802F15
S11337B0912FAD88BE88CF88D88CE98CFA8C0B8D7C
S11337C01C8D0E94CA58222E332E442E552E662E4E
S11337D0772E882E992E0F2EF6E0AF2EF02DB12CD9
S11337E0C12CD12CE12CF12C00E010E0222D332D42
S11337F0442D552D662D772D882D992D0E943758EF
S1133800222E332E442E552E662E772E882E992E58
S1133810A22CB32CC42CD52CE62CF72C082D192D56
S11338202A2D3B2D4C2D5D2D6E2D7F2D802F912F1C
S113383029513C4F4F4F5F4F6F4F7F4F8F4F9F4FDB
S1133840A22EB32EC42ED52EE62EF72E082F192F16
S11338502A2D3B2D4C2D5D2D6E2D7F2D802F912FEC
S11338600E948952DC01CB0120E030E04AE754E4B5
S1133870BC01CD010E947951DC01CB01BC01CD0119
S11338800E94E651A22EB32EC42ED52EE62EF72E7C
S1133890082F192FD601C501BC01CD0153DE898142
S11338A0882F90E09E01275F3F4F820F931FFC01FA
S11338B08081882F90E042E050E0BC0180EC98E0E9
S11338C00E94FE0333DEDC01CB018C019D0140E04C
S11338D050E0BA010D8F1E8F2F8F38A349A35AA32E
S11338E06BA37CA32D8C3E8C4F8C58A069A07AA02E
S11338F08BA09CA0222D332D442D552D662D772D84
S1133900882D992D03E00E949358A22EB32EC42E25
S1133910D52EE62EF72E082F192F2A2C3B2C4C2CB3
S11339205D2C6E2C7F2C802E912E222D332D442D38
S1133930552D662D772D882D992D02E00E949358E0
S1133940A22EB32EC42ED52EE62EF72E082F192F15
S11339502A2D3B2D4C2D5D2D6E2D7F2D802F912FEB
S1133960A22CB32CC42CD52CE62CF72C082D192D05
S11339700E94DF58A22EB32EC42ED52EE62EF72E8B
S1133980082F192F2A2D3B2D4C2D5D2D6E2D7F2DAB
S1133990802F912FAD8CBE8CCF8CD8A0E9A0FAA03B
S11339A00BA11CA10E94CA58222E332E442E552E40
S11339B0662E772E882E992E0F2EF6E0AF2EF02D40
S11339C0B12CC12CD12CE12CF12C00E010E0222DE3
S11339D0332D442D552D662D772D882D992D0E943C
S11339E03758222E332E442E552E662E772E882EAF
S11339F0992EA22CB32CC42CD52CE62CF72C082DF4
S1133A00192D2A2D3B2D4C2D5D2D6E2D7F2D802FB4
S1133A10912F29513C4F4F4F5F4F6F4F7F4F8F4F27
S1133A209F4FA22EB32EC42ED52EE62EF72E082F8E
S1133A30192F2A2D3B2D4C2D5D2D6E2D7F2D802F82
S1133A40912F0E948952DC01CB0120E030E04AE74B
S1133A5054E4BC01CD010E947951DC01CB01BC01CD
S1133A60CD010E94E651A22EB32EC42ED52EE62EF1
S1133A70F72E082F192FD601C501BC01CD0162DD37
S1133A8089818F5F89838981873008F417CE89857E
S1133A90882F90E0382F22278A85882F90E0822B68
S1133AA0932B8093E8279093E9278B85882F90E0C8
S1133AB0382F22278C85882F90E0822B932B80939C
S1133AC0EC279093ED278D85882F90E0382F2227BF
S1133AD08E85882F90E0822B932B8093EA279093F6
S1133AE0EB278F85882F90E0382F22278889882F0D
S1133AF090E0822B932B8093FC279093FD27898958
S1133B00882F90E0382F22278A89882F90E0822BF3
S1133B10932B8093FA279093FB278B89882F90E02F
S1133B20382F22278C89882F90E0822B932B809327
S1133B30EE279093EF27CE010296BC0180EC98E02B
S1133B400E9450040000A496CDBFDEBFDF91CF9148
S1133B501F910F91FF90EF90DF90CF90BF90AF90A7
S1133B609F908F907F906F905F904F903F902F9099
S1133B7008952F923F924F925F926F927F928F920D
S1133B809F92AF92BF92CF92DF92EF92FF920F93E8
S1133B901F93CF93DF93CDB7DEB7C254D109CDBF06
S1133BA0DEBF81E18AA3CE018296BC0180EC98E05D
S1133BB00E943A04198223C08981882F90E08A5F89
S1133BC09F4DFC018081882F90E041E050E0BC01D2
S1133BD080EC98E00E94C5038981882F90E08C5086
S1133BE0984DFC018081882F90E043E050E0BC01B7
S1133BF080EC98E00E94FE0389818F5F898389812C
S1133C008230D0F2CE018296BC0180EC98E00E9412
S1133C1050048091F427882F90E0A0E0B0E0AC013C
S1133C20332722278091F527882F90E0982F882723
S1133C30092E000CAA0BBB0B282B392B4A2B5B2B10
S1133C408091F627882F90E0A0E0B0E0822B932BA0
S1133C50A42BB52B8A839B83AC83BD838D818F93E7
S1133C608C818F938B818F938A818F938DEB90E2DC
S1133C70892F8F938DEB90E28F930E94B95B0F9005
S1133C800F900F900F900F900F908091F427882F32
S1133C9090E0A0E0B0E0AC01332722278091F52723
S1133CA0882F90E0982F8827092E000CAA0BBB0BB5
S1133CB0282B392B4A2B5B2B8091F627882F90E0F9
S1133CC0A0E0B0E0822B932BA42BB52B8093FE278E
S1133CD09093FF27A0930028B09301288091F727A1
S1133CE0882F90E0A0E0B0E0AC0133272227809138
S1133CF0F827882F90E0982F8827092E000CAA0B0C
S1133D00BB0B282B392B4A2B5B2B8091F927882F4F
S1133D1090E0A0E0B0E0822B932BA42BB52B8093F2
S1133D20F0279093F127A093F227B093F3272091E3
S1133D30F0273091F1274091F2275091F327809199
S1133D40FA279091FB27CC01A0E0B0E0BA2FA92F6D
S1133D50982F882779018A01E81AF90A0A0B1B0BA4
S1133D60D801C7018E839F83A887B9878E819F81DD
S1133D70A885B9851C012D01BB0F880B982FDC0188
S1133D80682E782E882E982E8091EE279091EF271A
S1133D909C0140E050E060E070E0CB01A22EB32E25
S1133DA0C42ED52EE62EF72E082F192F222D332DB3
S1133DB0442D552D662D772D882D992D0E94E4577D
S1133DC0A22EB32EC42ED52EE62EF72E082F192F91
S1133DD02A2D3B2D4C2D5D2D6E2D7F2D802F912F67
S1133DE0A22EB32EC42ED52EE62EF72E082F192F71
S1133DF02A2D3B2D4C2D5D2D6E2D7F2D802F912F47
S1133E00A0E00E94E85804F52A2D3B2D4C2D5D2D91
S1133E106E2D7F2D802F912F2150310940485F4F07
S1133E206F4F7F4F8F4F9F4F222E332E442E552E90
S1133E30662E772E882E992EA22CB32CC42CD52C2A
S1133E40E62CF72C082D192D2A2D3B2D4C2D5D2DFC
S1133E506E2D7F2D802F912F07E10E94AC58A22E4A
S1133E60B32EC42ED52EE62EF72E082F192F2A2D69
S1133E703B2D4C2D5D2D6E2D7F2D802F912FDA0142
S1133E80C9018053984FAF4FBF4F8A879B87AC8738
S1133E90BD878091EC279091ED275C01C12CD12C3A
S1133EA0E12CF12C87012A2D3B2D4C2D5D2D6E2DFF
S1133EB07F2D802F912F01E10E9493582BA33CA3C7
S1133EC04DA35EA36FA378A789A79AA78091FC2727
S1133ED09091FD271C01412C512C612C712C430124
S1133EE08E819F81A885B9858BA79CA7ADA7BEA706
S1133EF0BB0F880B982FDC018FA788AB89AB8AABEB
S1133F00ABA4BCA4CDA4DEA4EFA4F8A809A91AA963
S1133F10222D332D442D552D662D772D882D992D49
S1133F200E94E457A22EB32EC42ED52EE62EF72ED1
S1133F30082F192F2A2D3B2D4C2D5D2D6E2D7F2DF5
S1133F40802F912FA22EB32EC42ED52EE62EF72E1F
S1133F50082F192F2A2D3B2D4C2D5D2D6E2D7F2DD5
S1133F60802F912FA0E00E94E858DCF42A2D3B2DED
S1133F704C2D5D2D6E2D7F2D802F912FAFE30E9450
S1133F80D358222E332E442E552E662E772E882E6D
S1133F90992EA22CB32CC42CD52CE62CF72C082D4E
S1133FA0192D2A2D3B2D4C2D5D2D6E2D7F2D802F0F
S1133FB0912F06E00E94AC58A22EB32EC42ED52E0B
S1133FC0E62EF72E082F192F2A2C3B2C4C2C5D2C77
S1133FD06E2C7F2C802E912E2BA13CA14DA15EA195
S1133FE06FA178A589A59AA5A22CB32CC42CD52C95
S1133FF0E62CF72C082D192D0E94CA582E873F87CE
S1134000488B598B6A8B7B8B8C8B9D8B8091E8279B
S11340109091E9275C01C12CD12CE12CF12C870172
S11340202A2D3B2D4C2D5D2D6E2D7F2D802F912F14
S113403000E10E9493582BAB3CAB4DAB5EAB6FAB36
S113404078AF89AF9AAF8091EA279091EB271C0152
S1134050412C512C612C712C43018E819F81A885A8
S1134060B9858BAF9CAFADAFBEAFBB0F880B982F9C
S1134070DC018FAF21968FAF219722968FAF2297C5
S113408023968FAF2397ABACBCACCDACDEACEFAC1E
S11340902196FFAC219722960FAD229723961FAD50
S11340A02397222D332D442D552D662D772D882DC4
S11340B0992D0E94E457A22EB32EC42ED52EE62E9F
S11340C0F72E082F192F2A2D3B2D4C2D5D2D6E2DEB
S11340D07F2D802F912FA22EB32EC42ED52EE62E07
S11340E0F72E082F192F2A2D3B2D4C2D5D2D6E2DCB
S11340F07F2D802F912FA0E00E94E858DCF42A2D18
S11341003B2D4C2D5D2D6E2D7F2D802F912FAFE7F4
S11341100E94D358222E332E442E552E662E772EEF
S1134120882E992EA22CB32CC42CD52CE62CF72C3B
S1134130082D192D2A2D3B2D4C2D5D2D6E2D7F2DF7
S1134140802F912F07E00E94AC58A22EB32EC42ECC
S1134150D52EE62EF72E082F192F2A2C3B2C4C2C6B
S11341605D2C6E2C7F2C802E912E2BA93CA94DA961
S11341705EA96FA978AD89AD9AADA22CB32CC42CDD
S1134180D52CE62CF72C082D192D0E94CA582E8BFD
S11341903F8B488F598F6A8F7B8F8C8F9D8F809137
S11341A0FE279091FF27A0910028B09101281C01BF
S11341B02D01612C712C4301AE88BF88C88CD98C29
S11341C0EA8CFB8C0C8D1D8D222D332D442D552D09
S11341D0662D772D882D992D0E94E457A22EB32E9B
S11341E0C42ED52EE62EF72E082F192F2A2D3B2D5F
S11341F04C2D5D2D6E2D7F2D802F912FA22EB32E51
S1134200C42ED52EE62EF72E082F192F2A2D3B2D3E
S11342104C2D5D2D6E2D7F2D802F912FA0E00E94BF
S1134220E85804F52A2D3B2D4C2D5D2D6E2D7F2D48
S1134230802F912F21503109404E5F4F6F4F7F4F98
S11342408F4F9F4F222E332E442E552E662E772EBF
S1134250882E992EA22CB32CC42CD52CE62CF72C0A
S1134260082D192D2A2D3B2D4C2D5D2D6E2D7F2DC6
S1134270802F912F05E10E94AC58222E332E442E1C
S1134280552E662E772E882E992EA22CB32CC42C54
S1134290D52CE62CF72C082D192D2A2D3B2D4C2D31
S11342A05D2D6E2D7F2D802F912FAE84BF84C88805
S11342B0D988EA88FB880C891D890E94DF58222E40
S11342C0332E442E552E662E772E882E992EA22C10
S11342D0B32CC42CD52CE62CF72C082D192D2A2D03
S11342E03B2D4C2D5D2D6E2D7F2D802F912FA0E029
S11342F00E94E85804F52A2D3B2D4C2D5D2D6E2D82
S11343007F2D802F912F215030484F4F5F4F6F4F9B
S11343107F4F8F4F9F4F222E332E442E552E662EC5
S1134320772E882E992EA22CB32CC42CD52CE62CB7
S1134330F72C082D192D2A2D3B2D4C2D5D2D6E2D7E
S11343407F2D802F912F0FE00E94AC58A22EB32E08
S1134350C42ED52EE62EF72E082F192F2A2D3B2DED
S11343604C2D5D2D6E2D7F2D802F912F2E8F3F8F05
S113437048A359A38E8D9F8D292F2F938F9384EE5D
S113438090E2892F8F9384EE90E28F930E946E5B6C
S11343900F900F900F900F908E8D9F8DA8A1B9A1B3
S11343A0BC01CD01CE5BDF4FCDBFDEBFDF91CF912E
S11343B01F910F91FF90EF90DF90CF90BF90AF903F
S11343C09F908F907F906F905F904F903F902F9031
S11343D00895CF93DF9300D0CDB7DEB789839A8356
S11343E06B8389819A81FC018681282F2C7F8981A6
S11343F09A81FC01268389819A81FC0196818B81B3
S1134400292F282B89819A81FC0126830000239679
S1134410CDBFDEBFDF91CF910895CF93DF9300D05E
S1134420CDB7DEB789839A836B8389819A81FC0136
S11344308081982F907F8B81892B282F89819A8165
S1134440FC01208300002396CDBFDEBFDF91CF9116
S11344500895CF93DF9300D01F92CDB7DEB7898341
S11344609A836B837C8389819A812B813C81FC01B3
S113447026A337A300002496CDBFDEBFDF91CF91E2
S11344800895CF93DF931F921F92CDB7DEB7898330
S11344909A8389819A81FC018485282F21608981EE
S11344A09A81FC01248700000F900F90DF91CF9137
S11344B00895CF93DF9300D0CDB7DEB789839A8375
S11344C06B8389819A81FC018181982F987F8B81EC
S11344D0892B282F89819A81FC012183000023964E
S11344E0CDBFDEBFDF91CF910895CF93DF93CDB7DA
S11344F0DEB789D080E098E0C4DF0000DF91CF917F
S11345000895CF93DF93CDB7DEB780E092ECA1E0BE
S1134510B0E08093C6219093C721A093C821B093A3
S1134520C92180E496E08093C0219093C12180EA60
S113453098E08093C2219093C32188E08093C521A1
S113454084E08093C42180EC91E20E94BA4880EA1E
S113455098E024E1FC01238388EE90E20E94CC5B86
S113456080E098E00E94883D65E772E280E098E090
S11345700E94123E60E080E098E09BDF61E17AE710
S113458080E098E066DF61E080E098E022DF7894E4
S113459061E080E098E041DF0000DF91CF91089571
S11345A0CF93DF931F921F92CDB7DEB789839A838F
S11345B080915C22882309F589819A810E94105B8D
S11345C09C0189819A81A901BC0180EA98E00E943A
S11345D0092D80915D2290915E22A0915F22B0917D
S11345E060220196A11DB11D80935D2290935E22ED
S11345F0A0935F22B093602201C000000F900F903F
S1134600DF91CF910895CF93DF93CDB7DEB7C05438
S1134610D340CDBFDEBF83E290E28B839C838AEFDD
S113462090E289839A838091432290914422A091BD
S11346304522B09146222B2F2F932A2F2F93292FD7
S11346402F938F938FEF90E2892F8F938FEF90E2C8
S11346508F93CE018F5F9D4F292F2F938F930E94AD
S1134660FC5B8DB79EB70896CDBFDEBF80915D22FF
S113467090915E22A0915F22B09160222B2F2F9304
S11346802A2F2F93292F2F938F938FEF90E2892F27
S11346908F938FEF90E28F93CE018B5E9D4F292FE6
S11346A02F938F930E94FC5BEDB7FEB73896CDBF76
S11346B0DEBF8091612290916222A0916322B09129
S11346C064222B2F2F932A2F2F93292F2F938F93ED
S11346D082E091E2892F8F9382E091E28F93CE0161
S11346E0875D9D4F292F2F938F930E94FC5B8DB77D
S11346F09EB70896CDBFDEBF80914B2290914C228D
S1134700A0914D22B0914E222B2F2F932A2F2F931D
S1134710292F2F938F938FEF90E2892F8F938FEF11
S113472090E28F93CE01835C9D4F292F2F938F931B
S11347300E94FC5BEDB7FEB73896CDBFDEBF80911B
S11347403F2290914022A0914122B09142222B2FEE
S11347502F932A2F2F93292F2F938F9382E091E267
S1134760892F8F9382E091E28F93CE018F5A9D4FD0
S1134770292F2F938F930E94FC5B8DB79EB70896C9
S1134780CDBFDEBF8091472290914822A09149225B
S1134790B0914A222B2F2F932A2F2F93292F2F9317
S11347A08F9382E091E2892F8F9382E091E28F933D
S11347B0CE018B599D4F292F2F938F930E94FC5B21
S11347C0EDB7FEB73896CDBFDEBF209128213091DA
S11347D02921CE0187589D4FFC01208331832091EC
S11347E0282130912921CE0183579D4FFC0120833C
S11347F031832091282130912921CE018F559D4F5D
S1134800FC01208331832091282130912921CE017C
S11348108B549D4FFC0120833183209128213091BA
S11348202921CE0187539D4FFC0120833183809140
S1134830DE229091DF22A091E022B091E1222B2F81
S11348402F932A2F2F93292F2F938F9382E091E276
S1134850892F8F9382E091E28F93CE0183529D4FF3
S1134860292F2F938F930E94FC5B8DB79EB70896D8
S1134870CDBFDEBF8091E2229091E322A091E42299
S1134880B091E5222B2F2F932A2F2F93292F2F938B
S11348908F9382E091E2892F8F9382E091E28F934C
S11348A0CE018F509D4F292F2F938F930E94FC5B35
S11348B0EDB7FEB73896CDBFDEBF209128213091E9
S11348C02921CE018B5F9C4FFC0120833183809191
S11348D05722882F90E0292F2F938F938FEF90E208
S11348E0892F8F938FEF90E28F93CE01875E9C4F39
S11348F0292F2F938F930E94FC5B0F900F900F90A2
S11349000F900F900F908091EE249091EF24A0913E
S1134910F024B091F1242B2F2F932A2F2F93292F9A
S11349202F938F9382E091E2892F8F9382E091E21B
S11349308F93CE01835D9C4F292F2F938F930E94D9
S1134940FC5B8DB79EB70896CDBFDEBFCE01835DFD
S11349509C4F292F2F938F93CE01875E9C4F292F35
S11349602F938F93CE018B5F9C4F292F2F938F937F
S1134970CE018F509D4F292F2F938F93CE018352B9
S11349809D4F292F2F938F93CE0187539D4F292F0E
S11349902F938F93CE018B549D4F292F2F938F9359
S11349A0CE018F559D4F292F2F938F93CE0183577F
S11349B09D4F292F2F938F93CE0187589D4F292FD9
S11349C02F938F93CE018B599D4F292F2F938F9324
S11349D0CE018F5A9D4F292F2F938F93CE01835C45
S11349E09D4F292F2F938F93CE01875D9D4F292FA4
S11349F02F938F93CE018B5E9D4F292F2F938F93EF
S1134A00CE018F5F9D4F292F2F938F938A818F9390
S1134A1089818F9385E290E2892F8F9385E290E2DA
S1134A208F93CE010396292F2F938F930E94FC5BC3
S1134A30EDB7FEB7B696CDBFDEBFCE010396B0DDAF
S1134A400000C05CDC4FCDBFDEBFDF91CF91089585
S1134A501F920F9200903F000F9211240090380093
S1134A600F921092380000903A000F9210923A0080
S1134A7000903B000F9210923B008F939F93EF9313
S1134A80FF93CF93DF93CDB7DEB780EA98E0FC01C4
S1134A908081809302280000DF91CF91FF91EF91F4
S1134AA09F918F910F9000923B000F9000923A00DB
S1134AB00F90009238000F9000923F000F901F90CB
S1134AC01895CF93DF93CDB7DEB72797CDBFDEBF61
S1134AD08A839B836C837D834E835F83198265C045
S1134AE08A819B81FC01268137818A819B81FC011B
S1134AF082819381820F931F2981222F30E04C8180
S1134B005D81240F351FF9012081FC0120838A81F6
S1134B109B81FC01828193819C012F5F3F4F8A819D
S1134B209B81FC01228333838A819B81FC01228146
S1134B3033818A819B81FC01808191812817390707
S1134B4029F48A819B81FC01128213828A819B81D0
S1134B50FC01228133818A819B81FC0184819581BE
S1134B6028173907F9F48A819B81FC018481958196
S1134B709C012F5F3F4F8A819B81FC0124833583F5
S1134B808A819B81FC01248135818A819B81FC017E
S1134B90808191812817390729F48A819B81FC013E
S1134BA01482158289818F5F89838981282F30E05F
S1134BB08E819F812817390708F492CF0000279629
S1134BC0CDBFDEBFDF91CF910895CF93DF9300D0A7
S1134BD000D0CDB7DEB789839A836B837C834D8302
S1134BE05E8389819A81FC011282138289819A8170
S1134BF0FC011482158289819A812B813C81FC01FC
S1134C002683378389819A812D813E81FC0120830B
S1134C10318300002696CDBFDEBFDF91CF9108958A
S1134C20CF93DF93CDB7DEB72A97CDBFDEBF8D8399
S1134C309E836F83788749875A878D819E81FC0183
S1134C408481958189839A831B821C821B821C82A6
S1134C502DC02F8138858B819C81820F931F2D81DC
S1134C603E81F9014681578129813A81240F351FFC
S1134C70F9012081FC0120838D819E81FC018081CA
S1134C8091819C012150310989819A812817390722
S1134C9019F419821A8205C089819A81019689833F
S1134CA09A838B819C8101968B839C838D819E81C9
S1134CB08CD09C0189859A852817390720F48D8129
S1134CC09E8183D002C089859A852B813C812817D7
S1134CD0390708F4BECF8D819E8177D09C018985E8
S1134CE09A852817390710F481E001C080E02A96DC
S1134CF0CDBFDEBFDF91CF910895CF93DF9300D076
S1134D0000D0CDB7DEB78B839C836D837E838B818C
S1134D109C815BD09C018D819E818217930720F03A
S1134D208B819C8152D002C08D819E8189839A831C
S1134D308B819C814AD09C0189819A818217930737
S1134D4020F18B819C81FC012481358189819A81A8
S1134D50A901480F591F8B819C81FC01208131815D
S1134D60CA01B9010E94AE579C018B819C81FC0150
S1134D70248335838B819C81FC01248135818B8143
S1134D809C81FC012283338319C08B819C81FC01AB
S1134D902481358189819A81A901480F591F8B810A
S1134DA09C81FC0120813181CA01B9010E94AE5766
S1134DB09C018B819C81FC01248335830000269611
S1134DC0CDBFDEBFDF91CF910895CF93DF931F92C4
S1134DD01F92CDB7DEB789839A8389819A81FC01BA
S1134DE02281338189819A81FC01848195812817EC
S1134DF0390778F089819A81FC0122813381898184
S1134E009A81FC0184819581A901481B590BCA012F
S1134E1015C089819A81FC012081318189819A811F
S1134E20FC014281538189819A81FC0184819581AD
S1134E30BA01681B790BCB01820F931F0F900F905F
S1134E40DF91CF910895CF93DF931F921F92CDB737
S1134E50DEB789839A8389819A81892B09F45EC19B
S1134E6089819A81803C910521F460E180E078D5C4
S1134E7055C189819A818034944021F468E080E0AE
S1134E806FD54CC189819A818115944021F464E0E5
S1134E9080E066D543C189819A818038914021F4AC
S1134EA062E080E05DD53AC189819A8181159140A3
S1134EB021F461E080E054D531C189819A81803840
S1134EC0934021F461E081E04BD528C189819A8126
S1134ED08039934021F461E082E042D51FC1898189
S1134EE09A818115924021F462E081E039D516C19E
S1134EF089819A818034924021F462E082E030D545
S1134F000DC189819A818115934021F464E081E087
S1134F1027D504C189819A818032934021F464E0C9
S1134F2082E01ED5FBC089819A818115984021F4C5
S1134F3061E083E015D5F2C089819A818115994099
S1134F4021F461E084E00CD5E9C089819A8181155E
S1134F509A4021F461E085E003D5E0C089819A811B
S1134F6081159B4021F461E086E0FAD4D7C08981A1
S1134F709A818034984021F462E083E0F1D4CEC079
S1134F8089819A818034994021F462E084E0E8D4F4
S1134F90C5C089819A8180349A4021F462E085E019
S1134FA0DFD4BCC089819A8180349B4021F462E0C3
S1134FB086E0D6D4B3C089819A818039984021F49F
S1134FC064E083E0CDD4AAC089819A818039994074
S1134FD021F464E084E0C4D4A1C089819A81803939
S1134FE09A4021F464E085E0BBD498C089819A8119
S1134FF080399B4021F464E086E0B2D48FC089817B
S11350009A81803C984021F468E083E0A9D486C06A
S113501089819A81803C994021F468E084E0A0D49D
S11350207DC089819A81803C9A4021F468E085E0C2
S113503097D474C089819A81803C9B4021F468E0B4
S113504086E08ED46BC089819A81803A984021F49D
S113505060E183E085D462C089819A81803A994075
S113506021F460E184E07CD459C089819A81803A3A
S11350709A4021F460E185E073D450C089819A811B
S1135080803A9B4021F460E186E06AD447C089817C
S11350909A81803B984021F460E283E061D43EC071
S11350A089819A81803B994021F460E284E058D45C
S11350B035C089819A81803B9A4021F460E285E081
S11350C04FD42CC089819A81803B9B4021F460E2BB
S11350D086E046D423C089819A818038944021F4A3
S11350E060E483E03DD41AC089819A818039944078
S11350F021F460E484E034D411C089819A81803A37
S1135100944021F460E485E02BD408C089819A811D
S1135110803B944019F460E486E022D400000F90B0
S11351200F90DF91CF910895CF93DF93CDB7DEB782
S11351302A97CDBFDEBF8A878A85898381E08A83E7
S113514089818B838B818C838C81869586958695CA
S11351508D838D81882F90E0880F991F8295929579
S1135160907F9827807F98279A5F8E839F838A8178
S11351708823A9F0898188878885882F90E09C01FD
S11351802770332781E090E002C0880F991F2A9589
S1135190E2F7282F8E819F81FC01258314C0898129
S11351A089878985882F90E09C012770332781E0C7
S11351B090E002C0880F991F2A95E2F7282F8E816C
S11351C09F81FC01268300002A96CDBFDEBFDF91BC
S11351D0CF910895CF93DF93CDB7DEB72B97CDBF93
S11351E0DEBF888799876A877B878A859B85FC01D0
S11351F084818D838A859B85FC0185818E838A8544
S11352009B85FC0186818F838A859B85FC01808137
S11352109181A281B38189839A83AB83BC8388857E
S11352209985803A984019F460E183E099D38885A0
S11352309985803B984019F460E283E091D3888596
S11352409985803A994019F460E184E089D388858E
S11352509985803B994019F460E284E081D3888584
S11352609985803A9A4019F460E185E079D388857C
S11352709985803B9A4019F460E285E071D3888572
S11352809985803A9B4019F460E186E069D388856A
S11352909985803B9B4019F460E286E061D3888560
S11352A099859E012F5F3F4FB9010E946443882373
S11352B011F081E001C080E02B96CDBFDEBFDF910D
S11352C0CF910895CF93DF93CDB7DEB780EA96E010
S11352D020EA36E0F90120812068FC01208380EA7D
S11352E096E020EA36E0F90120812F7BFC0120833F
S11352F08FE21ADF80EB9BE0A6DD68E070E280EBD2
S11353009BE068DF0000DF91CF910895CF93DF9396
S113531000D01F92CDB7DEB789839A836B837C83D9
S11353202B813C8189819A81A901BC0188E06BD0E1
S113533000002496CDBFDEBFDF91CF910895CF93B7
S1135340DF9300D01F92CDB7DEB789839A836B8336
S11353507C832B813C8189819A81A901BC0181E0F4
S113536052D000002496CDBFDEBFDF91CF910895C7
S1135370CF93DF9300D01F92CDB7DEB789839A8392
S11353806B837C832B813C8189819A81A901BC0137
S113539083E039D000002496CDBFDEBFDF91CF91EA
S11353A00895CF93DF9300D01F92CDB7DEB78983E2
S11353B09A836B837C832B813C8189819A81A901A7
S11353C0BC0180E020D000002496CDBFDEBFDF9179
S11353D0CF910895CF93DF9300D01F92CDB7DEB75E
S11353E089839A836B837C832B813C8189819A8115
S11353F0A901BC0186E007D000002496CDBFDEBF22
S1135400DF91CF910895CF93DF93CDB7DEB728977F
S1135410CDBFDEBF8C836D837E834F835887198213
S11354201A8259C099818DEC989F812D11248295FF
S113543086958695837020E5829F802D1124292FDF
S1135440281B822F882F90E02D813E81820F931F8D
S1135450FC018081082E000C990B892B09F4CDC026
S113546099818DEC989F812D11248295869586953E
S1135470837020E5829F802D1124F92FF81B8F2F34
S1135480882F90E02D813E81820F931FFC01808143
S11354908A3009F4B2C099818DEC989F812D112432
S11354A0829586958695837020E5829F802D1124B0
S11354B0F92FF81B8F2F882F90E02D813E81820FCA
S11354C0931FFC0180818C3219F48A818F5F8A8357
S11354D089818F5F89839A818C81981708F4A2CF80
S11354E01B826FC099818DEC989F812D1124829528
S11354F086958695837020E5829F802D1124F92F4F
S1135500F81B8F2F882F90E02D813E81820F931FEF
S1135510FC018081082E000C990B892B09F46FC0C3
S113552099818DEC989F812D11248295869586957D
S1135530837020E5829F802D1124F92FF81B8F2F73
S1135540882F90E02D813E81820F931FFC01808182
S11355508A3009F454C09B818DEC989F812D1124CD
S1135560869586958695880F282F220F220F820F05
S1135570F92FF81B8F2F882F90E02F813885820F09
S1135580931F39812DEC329F212D112422952695CC
S11355902695237040E5249F202D1124432F421B80
S11355A0242F222F30E04D815E81240F351FF90115
S11355B02081FC0120838B818F5F8B8389818F5FA6
S11355C0898399818DEC989F812D112482958695EC
S11355D08695837020E5829F802D1124F92FF81B76
S11355E08F2F882F90E02D813E81820F931FFC0125
S11355F080818C3209F076CF03C0000001C0000026
S11356002896CDBFDEBFDF91CF910895CF93DF936E
S1135610CDB7DEB780E092ECA1E0B0E08093D0217A
S11356209093D121A093D221B093D32180E496E02A
S11356308093CA219093CB2180EA98E08093CC2177
S11356409093CD2188E08093CF2184E08093CE2174
S11356508AEC91E20E94BA4885E091E20E94CC5B18
S11356600000DF91CF910895CF93DF931F92CDB7C0
S1135670DEB78FE390E0FC0180818983F89489810F
S11356800F90DF91CF910895CF93DF931F92CDB701
S1135690DEB789838FE390E02981FC012083000039
S11356A00F90DF91CF910895CF93DF931F921F92B4
S11356B0CDB7DEB78A83D8DF898380E590E020E523
S11356C030E0F90130812A81232BFC012083898178
S11356D0DBDF00000F900F90DF91CF910895CF93FF
S11356E0DF931F921F92CDB7DEB78A8380E590E0E7
S11356F022E0FC012283B8DF898380E590E020E585
S113570030E0F90130812A81232BFC012083898137
S1135710BBDF00000F900F90DF91CF910895CF93DE
S1135720DF931F921F92CDB7DEB78A839DDF8983F3
S113573080E590E020E530E0F9012081322F2A81D4
S113574020952323FC01208389819EDF00000F9094
S11357500F90DF91CF910895CF93DF931F92CDB730
S1135760DEB789838981883019F089819DDF02C081
S11357708981B5DF00000F90DF91CF910895CF9319
S1135780DF931F92CDB7DEB7898380E590E0FC01FB
S113579091818981982381E0992309F480E00F9015
S11357A0DF91CF910895CF93DF9300D0CDB7DEB7CB
S11357B089836A837B838981882F90E08130910576
S11357C019F0029781F01EC088E690E09E012E5FDA
S11357D03F4FF9012081FC01228388E690E02B8170
S11357E0FC0123830FC080E690E09E012E5F3F4FB3
S11357F0F9012081FC01228380E690E02B81FC01E9
S11358002383000000002396CDBFDEBFDF91CF913C
S11358100895CF93DF931F92CDB7DEB7898300003D
S11358208981ADDF982F81E089278823C9F700009B
S11358300F90DF91CF910895CF93DF931F92CDB74F
S1135840DEB789838981882F90E08A309105A1F0A1
S11358508B30910534F48230910571F0049739F05E
S113586010C08C30910519F00E9731F00AC084E015
S113587073DF84E0CEDF05C088E06EDF88E0C9DF37
S1135880000080E490E029812160FC012383000072
S11358900F90DF91CF910895CF93DF931F92CDB7EF
S11358A0DEB789838981882F90E0BC0182E020D112
S11358B00F90DF91CF9108950F931F93CF93DF93B0
S11358C000D000D0CDB7DEB780E790E089839A831B
S11358D01C821B820DC089819A819C012F5F3F4FDE
S11358E029833A832FEFFC0120838B818F5F8B8385
S11358F08B81873080F38E010B5F1F4F0F5F1F4F2B
S11359008CE1CADFF80180838E010B5F1F4F8DE1AC
S1135910C3DFF80180838D819E81019621F480E4A8
S113592093E28D839E838D819E81BC0182E03BDF67
S113593082E012DF82E06DDF000061E080E490E04D
S1135940D1D08C81882311F481E0E9DE80E074DF1A
S11359502696CDBFDEBFDF91CF911F910F910895A1
S1135960CF93DF9300D0CDB7DEB78A836B837CDE21
S113597089838A81882F90E080599F4F2A81222F22
S113598030E020593F4FF9012081322F2B8120959F
S11359902323FC012083898177DE00002396CDBF79
S11359A0DEBFDF91CF910895CF93DF9300D0CDB7C1
S11359B0DEB78A836B8358DE89838A81882F90E0DF
S11359C080599F4F2A81222F30E020593F4FF901FF
S11359D030812B81232BFC012083898155DE00003B
S11359E02396CDBFDEBFDF91CF910895CF93DF9390
S11359F000D0CDB7DEB789839A836B8389819A817E
S1135A006B810E94AA432396CDBFDEBFDF91CF9165
S1135A100895CF93DF9300D000D0CDB7DEB789834C
S1135A209A836B837C834D835E8312C08B819C81BC
S1135A30FC01208189819A81622FD8DF8D819E812A
S1135A4001978D839E838B819C8101968B839C839C
S1135A508D819E81892B51F780E02696CDBFDEBFD4
S1135A60DF91CF910895CF93DF9300D0CDB7DEB708
S1135A708A839B832091092830910A2880910D28DC
S1135A8090910E28AE014F5F5F4FBA01F90119954D
S1135A908981082E000C990B2396CDBFDEBFDF91C0
S1135AA0CF910895CF93DF9300D0CDB7DEB789832C
S1135AB06A837B8320910B2830910C2880910D28D8
S1135AC090910E286981F901199599231CF48FEF9F
S1135AD09FEF02C081E090E02396CDBFDEBFDF914F
S1135AE0CF9108951BBEFC0128ED24BF6083089567
S1135AF04091CA01E62FF72F8093CA018491409305
S1135B00CA010895CF93DF931F92CDB7DEB78FE319
S1135B1090E0FC0180818983F89489810F90DF9162
S1135B20CF910895CF93DF931F92CDB7DEB78983CA
S1135B308FE390E02981FC01208300000F90DF9126
S1135B40CF910895CF93DF931F921F92CDB7DEB705
S1135B508A838A81882F90E08D5F974DFC01808134
S1135B608F3F09F4FFCFCEDF89838A81882F90E0AD
S1135B709C012D5F374DF90120812F5F8D5F974D7B
S1135B80FC0120838981CEDF00000F900F90DF910C
S1135B90CF910895CF93DF93CDB7DEB72597CDBFCF
S1135BA0DEBF000080E094E0FC018181882F90E05A
S1135BB08170992721E0892B09F420E0222391F7B1
S1135BC0A1DF8B8380910F289091102889839A8379
S1135BD080E094E0FC01808591858C839D838C8199
S1135BE09D81892B79F480E094E0FC018381882FE6
S1135BF090E081709927892B29F089819A810196F7
S1135C0089839A838B818EDF89819A81CC01A0E07C
S1135C10B0E0AC01332722278C819D81CC01A0E028
S1135C20B0E0822B932BA42BB52BBC01CD01259680
S1135C30CDBFDEBFDF91CF910895CF93DF93CDB772
S1135C40DEB764E080E08CDE80E094E02FEF3FEF8D
S1135C50FC012287338780E094E0FC0110861186E2
S1135C6083E070DF80E094E021E0FC01228380E0A7
S1135C7094E027E0FC0120830000DF91CF91089598
S1135C801F920F9200903F000F9211240090380051
S1135C900F921092380000903A000F9210923A003E
S1135CA08F939F93CF93DF93CDB7DEB780910F2867
S1135CB090911028019680930F289093102800004B
S1135CC0DF91CF919F918F910F9000923A000F90A6
S1135CD0009238000F9000923F000F901F9018958B
S1135CE01F920F9200903F000F92112400903800F1
