S011000050726F746F747970652E737265633D
S1130000ABC10000CFC10000CDC10000CBC10000D6
S1130010C9C10000C7C10000C5C10000C3C10000C0
S1130020C1C10000BFC100000C940B310C943B31E2
S1130030B9C100000C944D410C94BB320C941233A2
S11300400C9469330C94C0330C9417340C946E34B0
S11300500C94C5340C941C350C9473350C94CA352B
S1130060A1C100000C9415259DC100009BC1000096
S113007099C1000097C1000095C1000093C1000020
S113008091C100008FC100008DC100008BC1000030
S113009089C1000087C1000085C10000EFC70000CE
S11300A00C94CA080C9456090C94E2097BC1000014
S11300B079C1000077C100000C94E5410C948739A4
S11300C00C94DE390C94353A0C948C3A0C94E33A43
S11300D00C943A3B0C94913B0C94E83B0C943F3CBD
S11300E00C94963C5FC100005DC100005BC1000040
S11300F059C1000057C1000055C1000053C10000A0
S113010051C100004FC100004DC100004BC10000AF
S113011049C1000047C1000045C100007FC500007F
S113012009C6000093C600001DC700003BC10000C3
S11301300C9499410C9421360C9478360C94CF3657
S11301400C9426370C947D370C94D4370C942B38AC
S11301500C9482380C94D9380C94303923C10000A3
S113016021C100001FC100001DC100001BC100000F
S113017019C1000017C1000015C1000013C100001F
S113018011C100000FC100000DC100000BC100002F
S113019009C1000007C1000005C1000003C100003F
S11301A001C10000FFC00000FDC000000C943142FA
S11301B00C94ED3C0C94443D0C949B3D0C94F23D0A
S11301C00C94493E0C94A03E0C94F73E0C944E3F84
S11301D00C94A53F0C94FC3FE5C00000E3C0000074
S11301E0E1C00000DFC000000C944517DBC0000034
S11301F00C94F517D7C00000D5C00000080000001B
S1130200BE922449123EABAAAA2ABECDCCCC4C3E07
S113021000000080BEABAAAAAA3E00000000BF00F6
S11302200000803F0000000000084178D3BB4387F2
S1130230D1133D190E3CC3BD4282AD2B3E68EC8206
S113024076BED98FE1A93E4C80EFFFBE01C4FF7F8B
S11302503F00000000006E616E00696E66000040A1
S11302607A10F35A00A0724E18090010A5D4E800C1
S113027000E87648170000E40B54020000CA9A3BD9
S1130280000000E1F505000080969800000040425F
S11302900F000000A08601000000102700000000ED
S11302A0E803000000006400000000000A000000F1
S11302B000000100000000002C76D888DC674F089D
S11302C023DFC1DFAE59E1B1B796E5E3E453C63AA3
S11302D0E651997696E8E6C28426EB898C9B62ED1A
S11302E0407C6FFCEFBC9C9F40F2BAA56FA5F490D4
S11302F0055A2AF75C936B6CF9676DC11BFCE0E44B
S11303000D47FEF520E6B500D0ED902E03009435A0
S113031077050080841E080000204E0A000000C8F3
S11303200C333333330F986E12831141EF8D211444
S1130330893BE65516CFFEE6DB18D1844B381BF714
S11303407C1D901DA4BBE424203284725E228100B3
S1130350C9F124ECA1E53D2711241FBECFEFCDBF89
S1130360DFE3DEBF00E00CBF18BE19BE1ABE1BBE21
S113037011E2A0E0B0E2E6EFFBEB00E00BBF02C04D
S113038007900D92AE38B107D9F71BBE27E2AEE84D
S1130390B1E201C01D92A33FB207E1F70E94CA4E29
S11303A00C94F95D2DCECF93DF93CDB7DEB72A97AA
S11303B0CDBFDEBF8A878A8589831A8289818B8330
S11303C08B818C838C818695869586958D838D8192
S11303D0882F90E0880F991F82959295907F982797
S11303E0807F98279A5F8E839F838A818823A9F0D0
S11303F0898188878885882F90E09C01277033271E
S113040081E090E002C0880F991F2A95E2F7282F17
S11304108E819F81FC01258314C089818987898508
S1130420882F90E09C012770332781E090E002C080
S1130430880F991F2A95E2F7282F8E819F81FC014E
S1130440268300002A96CDBFDEBFDF91CF910895A9
S1130450CF93DF93CDB7DEB72A97CDBFDEBF8A87B0
S11304608A85898381E08A8389818B838B818C83CC
S11304708C818695869586958D838D81882F90E0D5
S1130480880F991F82959295907F9827807F98274F
S11304909A5F8E839F838A818823A9F089818887C4
S11304A08885882F90E09C012770332781E090E0B5
S11304B002C0880F991F2A95E2F7282F8E819F8109
S11304C0FC01258314C0898189878985882F90E060
S11304D09C012770332781E090E002C0880F991FA8
S11304E02A95E2F7282F8E819F81FC012683000044
S11304F02A96CDBFDEBFDF91CF910895CF93DF93CE
S113050000D0CDB7DEB789839A836B8389819A81C2
S11305102B81FC01238300002396CDBFDEBFDF9136
S1130520CF910895CF93DF931F921F92CDB7DEB77B
S113053089839A8389819A81FC0183810F900F902A
S1130540DF91CF910895CF93DF931F921F92CDB780
S1130550DEB789839A8389819A81FC018281881F0D
S11305608827881F0F900F90DF91CF910895CF9324
S1130570DF931F921F92CDB7DEB789839A83898157
S11305809A81FC018081282F206189819A81FC0154
S1130590208300000F900F90DF91CF910895CF93A7
S11305A0DF9300D01F92CDB7DEB789839A836B8324
S11305B07C8389819A81B6DF282F8B819C81FC0101
S11305C0208300002496CDBFDEBFDF91CF91089534
S11305D0CF93DF931F921F92CDB7DEB789839A839F
S11305E089819A81B0DF0F900F90DF91CF910895A8
S11305F0CF93DF93CDB7DEB780E09CE6ACEDB2E0FD
S1130600BC01CD01DF91CF910895CF93DF931F9269
S1130610CDB7DEB71982ECDFDC01CB012981222FB3
S113062030E004C0B695A795979587952A95D2F79B
S1130630BC01CD010F90DF91CF910895CF93DF934B
S1130640CDB7DEB7E2DFDC01CB01BC01CD01DF9128
S1130650CF910895CF93DF93CDB7DEB7EFDFDC0101
S1130660CB01BC01CD01DF91CF910895CF93DF93EE
S1130670CDB7DEB7EFDFDC01CB01BC01CD01DF91EB
S1130680CF910895CF93DF931F921F92CDB7DEB71A
S113069089839A8389819A81803C984021F468E017
S11306A083E00E947B2F89819A81803C994021F4C8
S11306B068E084E00E947B2F89819A81803C9A4083
S11306C021F468E085E00E947B2F89819A81803C37
S11306D09B4021F468E086E00E947B2F89819A8107
S11306E046DF00000F900F90DF91CF910895CF92D5
S11306F0DF92EF92FF920F931F93CF93DF93CDB7C7
S1130700DEB72D97CDBFDEBF89839A836B837C834D
S11307104D830E831F8328873987CA86DB86EC8640
S1130720FD86A4DF9B01AC018E819F81A885B985DC
S1130730E981FA8189019A01AC01BD01CF010E94CE
S1130740FB318823ACF089819A81FC018081282FB8
S1130750237F8D81882F90E0880F991F880F991F20
S11307608C70822B282F89819A81FC01208301C0FF
S113077000002D96CDBFDEBFDF91CF911F910F9169
S1130780FF90EF90DF90CF900895CF93DF93CDB794
S1130790DEB72997CDBFDEBF8C839D836E837F83B5
S11307A0488759871BC08E819F819C012F5F3F4FD3
S11307B02E833F83FC0120818C819D8189839A83D0
S11307C02B8389819A816B8199DE00008C819D81C4
S11307D0FFDE982F81E089278823C1F788859985D2
S11307E09C012150310928873987892BE1F680E063
S11307F02996CDBFDEBFDF91CF910895CF93DF93CC
S1130800CDB7DEB72997CDBFDEBF8C839D836E83C2
S11308107F83488759871EC08C819D8189839A83F1
S11308208FEF8B8389819A816B8168DE00008C81D4
S11308309D81CEDE982F81E089278823C1F72E8100
S11308403F818C819D81B901AADE8E819F810196B1
S11308508E839F83888599859C012150310928873F
S11308603987892BC9F680E02996CDBFDEBFDF9199
S1130870CF910895CF93DF9300D01F92CDB7DEB709
S113088089839A836B837C838B819C81FC01808127
S11308908ADD00002496CDBFDEBFDF91CF9108959D
S11308A0CF93DF9300D01F92CDB7DEB789839A83AD
S11308B06B837C838B819C81FC018081C9DD00007A
S11308C02496CDBFDEBFDF91CF910895CF93DF9300
S11308D01F92CDB7DEB78FE390E0FC01808189835E
S11308E0F89489810F90DF91CF910895CF93DF938E
S11308F01F92CDB7DEB789838FE390E02981FC0195
S1130900208300000F90DF91CF910895CF93DF9360
S11309101F921F92CDB7DEB78A838A81882F90E019
S11309208B52984DFC0180818F3F09F4FFCFCEDFBD
S113093089838A81882F90E09C012B52384DF901DC
S113094020812F5F8B52984DFC0120838981CEDF5B
S113095000000F900F90DF91CF910895CF93DF9314
S11309601F921F92CDB7DEB78A838A81882F90E0C9
S11309708B52984DFC018081882309F4FFCFA6DFB8
S113098089838A81882F90E09C012B52384DF9018C
S1130990208121508B52984DFC0120838981A6DF50
S11309A000000F900F90DF91CF910895CF93DF93C4
S11309B01F921F92CDB7DEB789839A8389819A816A
S11309C08115924069F480918E2191E0980F909363
S11309D08E218823B1F462E081E00E947B2F11C054
S11309E089819A818034924061F480918F2191E0D1
S11309F0980F90938F21882321F462E082E00E9473
S1130A007B2F00000F900F90DF91CF910895CF932B
S1130A10DF931F921F92CDB7DEB789839A838981B2
S1130A209A818115924071F480918E218150809336
S1130A308E2180918E218823B9F462E081E00E94A6
S1130A409F2F12C089819A818034924069F48091E9
S1130A508F21815080938F2180918F21882321F4CD
S1130A6062E082E00E949F2F00000F900F90DF91C0
S1130A70CF910895CF93DF9300D0CDB7DEB78A83AB
S1130A809B8324DF89838A819B8190DF8A819B8178
S1130A90FC018081282F21608A819B81FC012083B5
S1130AA0898124DF81E032DF00002396CDBFDEBFE1
S1130AB0DF91CF910895CF93DF9300D0CDB7DEB708
S1130AC08A839B8303DF89838A819B81FC018081E4
S1130AD0282F2E7F8A819B81FC0120838A819B8120
S1130AE096DF898103DF81E039DF00002396CDBFE3
S1130AF0DEBFDF91CF910895CF93DF931F92CDB7DF
S1130B00DEB78FE390E0FC0180818983F8948981CA
S1130B100F90DF91CF910895CF93DF931F92CDB7BC
S1130B20DEB789838FE390E02981FC0120830000F4
S1130B300F90DF91CF910895CF93DF931F92CDB79C
S1130B40DEB789838981882F90E0BC0182E00E940E
S1130B5043300F90DF91CF910895CF93DF9300D06E
S1130B60CDB7DEB78B838B81882F90E081309105E0
S1130B70E9F08230910589F1892B09F045C081E2C1
S1130B80DBDF882F90E089839A8389819A81982F6B
S1130B90882789839A8380E2CFDF882F90E0298198
S1130BA03A81822B932B89839A8330C085E2C4DFF8
S1130BB0882F90E089839A8389819A81982F882746
S1130BC089839A8384E2B8DF882F90E029813A816F
S1130BD0822B932B89839A8319C08FE2ADDF882FF0
S1130BE090E089839A8389819A81982F88278983C1
S1130BF09A838EE2A1DF882F90E029813A81822BAB
S1130C00932B89839A8302C019821A8289819A81DB
S1130C102396CDBFDEBFDF91CF9108951F920F922F
S1130C2000903F000F921124009038000F92109210
S1130C303800009039000F921092390000903A0069
S1130C400F9210923A0000903B000F9210923B00DA
S1130C502F933F934F935F936F937F938F939F93C0
S1130C60AF93BF93EF93FF93CF93DF9300D01F9283
S1130C70CDB7DEB7209103223091042280E092E0C8
S1130C8089839A8381E08B831C828B81882F90E0F7
S1130C9083709927892B39F48C818E5F8C838B81A7
S1130CA0869586958B838B81882F90E08170992718
S1130CB0892B19F48C818F5F8C8389819A81AC0193
S1130CC0405E5F4F8C81882F90E0880F991F880FBA
S1130CD0991F880F991F840F951FFC0184819581AA
S1130CE0AC0161E080E092E0F901199500002496DE
S1130CF0CDBFDEBFDF91CF91FF91EF91BF91AF9157
S1130D009F918F917F916F915F914F913F912F911F
S1130D100F9000923B000F9000923A000F900092C7
S1130D2039000F90009238000F9000923F000F900E
S1130D301F9018951F920F9200903F000F9211245C
S1130D40009038000F9210923800009039000F92F2
S1130D501092390000903A000F9210923A000090DD
S1130D603B000F9210923B002F933F934F935F935E
S1130D706F937F938F939F93AF93BF93EF93FF935F
S1130D80CF93DF9300D01F92CDB7DEB7209103221B
S1130D903091042280E092E089839A8382E08B83FD
S1130DA01C828B81882F90E083709927892B39F4DA
S1130DB08C818E5F8C838B81869586958B838B81CA
S1130DC0882F90E081709927892B19F48C818F5F8B
S1130DD08C8389819A81AC01405E5F4F8C81882F1E
S1130DE090E0880F991F880F991F880F991F840F0F
S1130DF0951FFC0184819581AC0162E080E092E062
S1130E00F901199500002496CDBFDEBFDF91CF9183
S1130E10FF91EF91BF91AF919F918F917F916F91CE
S1130E205F914F913F912F910F9000923B000F9053
S1130E3000923A000F90009239000F90009238000F
S1130E400F9000923F000F901F9018951F920F92E1
S1130E5000903F000F921124009038000F921092DE
S1130E603800009039000F921092390000903A0037
S1130E700F9210923A0000903B000F9210923B00A8
S1130E802F933F934F935F936F937F938F939F938E
S1130E90AF93BF93EF93FF93CF93DF9300D01F9251
S1130EA0CDB7DEB7209103223091042280E092E096
S1130EB089839A8384E08B831C828B81882F90E0C2
S1130EC083709927892B39F48C818E5F8C838B8175
S1130ED0869586958B838B81882F90E081709927E6
S1130EE0892B19F48C818F5F8C8389819A81AC0161
S1130EF0405E5F4F8C81882F90E0880F991F880F88
S1130F00991F880F991F840F951FFC018481958177
S1130F10AC0164E080E092E0F901199500002496A8
S1130F20CDBFDEBFDF91CF91FF91EF91BF91AF9124
S1130F309F918F917F916F915F914F913F912F91ED
S1130F400F9000923B000F9000923A000F90009295
S1130F5039000F90009238000F9000923F000F90DC
S1130F601F9018951F920F9200903F000F9211242A
S1130F70009038000F9210923800009039000F92C0
S1130F801092390000903A000F9210923A000090AB
S1130F903B000F9210923B002F933F934F935F932C
S1130FA06F937F938F939F93AF93BF93EF93FF932D
S1130FB0CF93DF9300D01F92CDB7DEB720910322E9
S1130FC03091042280E092E089839A8388E08B83C5
S1130FD01C828B81882F90E083709927892B39F4A8
S1130FE08C818E5F8C838B81869586958B838B8198
S1130FF0882F90E081709927892B19F48C818F5F59
S11310008C8389819A81AC01405E5F4F8C81882FEB
S113101090E0880F991F880F991F880F991F840FDC
S1131020951FFC0184819581AC0168E080E092E029
S1131030F901199500002496CDBFDEBFDF91CF9151
S1131040FF91EF91BF91AF919F918F917F916F919C
S11310505F914F913F912F910F9000923B000F9021
S113106000923A000F90009239000F9000923800DD
S11310700F9000923F000F901F9018951F920F92AF
S113108000903F000F921124009038000F921092AC
S11310903800009039000F921092390000903A0005
S11310A00F9210923A0000903B000F9210923B0076
S11310B02F933F934F935F936F937F938F939F935C
S11310C0AF93BF93EF93FF93CF93DF9300D01F921F
S11310D0CDB7DEB7209101223091022280E492E064
S11310E089839A8381E08B831C828B81882F90E093
S11310F083709927892B39F48C818E5F8C838B8143
S1131100869586958B838B81882F90E081709927B3
S1131110892B19F48C818F5F8C8389819A81AC012E
S1131120405E5F4F8C81882F90E0880F991F880F55
S1131130991F880F991F840F951FFC018481958145
S1131140AC0161E080E492E0F90119950000249675
S1131150CDBFDEBFDF91CF91FF91EF91BF91AF91F2
S11311609F918F917F916F915F914F913F912F91BB
S11311700F9000923B000F9000923A000F90009263
S113118039000F90009238000F9000923F000F90AA
S11311901F9018951F920F9200903F000F921124F8
S11311A0009038000F9210923800009039000F928E
S11311B01092390000903A000F9210923A00009079
S11311C03B000F9210923B002F933F934F935F93FA
S11311D06F937F938F939F93AF93BF93EF93FF93FB
S11311E0CF93DF9300D01F92CDB7DEB720910122B9
S11311F03091022280E492E089839A8382E08B8397
S11312001C828B81882F90E083709927892B39F475
S11312108C818E5F8C838B81869586958B838B8165
S1131220882F90E081709927892B19F48C818F5F26
S11312308C8389819A81AC01405E5F4F8C81882FB9
S113124090E0880F991F880F991F880F991F840FAA
S1131250951FFC0184819581AC0162E080E492E0F9
S1131260F901199500002496CDBFDEBFDF91CF911F
S1131270FF91EF91BF91AF919F918F917F916F916A
S11312805F914F913F912F910F9000923B000F90EF
S113129000923A000F90009239000F9000923800AB
S11312A00F9000923F000F901F9018951F920F927D
S11312B000903F000F921124009038000F9210927A
S11312C03800009039000F921092390000903A00D3
S11312D00F9210923A0000903B000F9210923B0044
S11312E02F933F934F935F936F937F938F939F932A
S11312F0AF93BF93EF93FF93CF93DF9300D01F92ED
S1131300CDB7DEB7209101223091022280E492E031
S113131089839A8384E08B831C828B81882F90E05D
S113132083709927892B39F48C818E5F8C838B8110
S1131330869586958B838B81882F90E08170992781
S1131340892B19F48C818F5F8C8389819A81AC01FC
S1131350405E5F4F8C81882F90E0880F991F880F23
S1131360991F880F991F840F951FFC018481958113
S1131370AC0164E080E492E0F90119950000249640
S1131380CDBFDEBFDF91CF91FF91EF91BF91AF91C0
S11313909F918F917F916F915F914F913F912F9189
S11313A00F9000923B000F9000923A000F90009231
S11313B039000F90009238000F9000923F000F9078
S11313C01F9018951F920F9200903F000F921124C6
S11313D0009038000F9210923800009039000F925C
S11313E01092390000903A000F9210923A00009047
S11313F03B000F9210923B002F933F934F935F93C8
S11314006F937F938F939F93AF93BF93EF93FF93C8
S1131410CF93DF9300D01F92CDB7DEB72091012286
S11314203091022280E492E089839A8388E08B835E
S11314301C828B81882F90E083709927892B39F443
S11314408C818E5F8C838B81869586958B838B8133
S1131450882F90E081709927892B19F48C818F5FF4
S11314608C8389819A81AC01405E5F4F8C81882F87
S113147090E0880F991F880F991F880F991F840F78
S1131480951FFC0184819581AC0168E080E492E0C1
S1131490F901199500002496CDBFDEBFDF91CF91ED
S11314A0FF91EF91BF91AF919F918F917F916F9138
S11314B05F914F913F912F910F9000923B000F90BD
S11314C000923A000F90009239000F900092380079
S11314D00F9000923F000F901F901895CF93DF93C9
S11314E0CDB7DEB72897CDBFDEBF8D839E836F83D4
S11314F078878D819E818115924029F480E02DDBCF
S113150089839A830AC08D819E818034924009F038
S113151056C081E022DB89839A83EEDA8B838D8146
S11315209E8144DA8D819E81FC01808181708C834F
S11315308D819E8122E0FC0120838D819E81298101
S11315403A81FC01248735878F819885FC012581A8
S113155036818D819E81FC01208F318F8F8198850A
S1131560FC0122818D819E81FC0122838F819885DB
S1131570FC0124818D819E81FC0124838F819885C7
S1131580FC0123818D819E81FC0123838F819885B9
S1131590FC0121818D819E81FC0121838F819885AD
S11315A0FC0190818C81292F282B8D819E81FC0147
S11315B020838D819E812BDA8B81AEDA01C00000FD
S11315C02896CDBFDEBFDF91CF910895CF93DF93EF
S11315D0CDB7DEB72597CDBFDEBF8A839B836C83EF
S11315E07D838ADA89838A819B81E0D98A819B8180
S11315F0FC018081282F207C8C819D81FC0120832B
S11316008A819B81FC01208D318D8C819D81FC011F
S1131610258336838A819B81FC0122818C819D8173
S1131620FC0122838A819B81FC0124818C819D8120
S1131630FC0124838A819B81FC0123818C819D810F
S1131640FC0123838A819B81FC0121818C819D8102
S1131650FC0121838A819B81DAD989815DDA0000CA
S11316602596CDBFDEBFDF91CF910895CF93DF9351
S1131670CDB7DEB72C97CDBFDEBF888799876A8741
S11316804B875C87888599858C839D838A858E8327
S11316901F828E81882F90E083709927892B39F4DB
S11316A08F818E5F8F838E81869586958E838E81C2
S11316B0882F90E081709927892B19F48F818F5F8F
S11316C08F838C819D819C01205E3F4F8F81882F69
S11316D090E0880F991F880F991F880F991F820F18
S11316E0931F89839A8308DA8B83888599855ED9C9
S11316F08B859C85FC01208189819A81FC01208352
S11317008B859C85FC01228189819A81FC0122833D
S11317108B859C85FC01218189819A81FC0121832F
S11317208A85882F90E081709927892B41F08B85D9
S11317309C85FC01238189819A81FC01268388850B
S1131740998565D98B81E8D900002C96CDBFDEBF81
S1131750DF91CF910895CF93DF93CDB7DEB72C9768
S1131760CDBFDEBF888799876A874B875C8788856A
S113177099858C839D838A858E831F828E81882F91
S113178090E083709927892B39F48F818E5F8F8342
S11317908E81869586958E838E81882F90E08170C8
S11317A09927892B19F48F818F5F8F838C819D8179
S11317B09C01205E3F4F8F81882F90E0880F991FF6
S11317C0880F991F880F991F820F931F89839A830B
S11317D093D98B8388859985E9D889819A81FC017D
S11317E020818B859C85FC01208389819A81FC0161
S11317F022818B859C85FC01228389819A81FC014D
S113180021818B859C85FC0121838A85882F90E02A
S113181081709927892B41F089819A81FC01268165
S11318208B859C85FC01238388859985F0D88B81E1
S113183073D900002C96CDBFDEBFDF91CF91089500
S1131840CF93DF931F92CDB7DEB78FE390E0FC0117
S113185080818983F89489810F90DF91CF910895D5
S1131860CF93DF931F92CDB7DEB789838FE390E0E8
S11318702981FC01208300000F90DF91CF9108950E
S1131880CF93DF93CDB7DEB780E09CE6ACEDB2E05A
S1131890BC01CD01DF91CF910895CF93DF931F92C7
S11318A0CDB7DEB71982ECDFDC01CB012981222F11
S11318B030E004C0B695A795979587952A95D2F7F9
S11318C0BC01CD010F90DF91CF910895CF93DF93A9
S11318D0CDB7DEB7E2DFDC01CB01BC01CD01DF9186
S11318E0CF910895CF93DF93CDB7DEB7EFDFDC015F
S11318F0CB01BC01CD01DF91CF910895CF93DF934C
S113190000D01F92CDB7DEB78A839B836C8398DFA8
S113191089838A819B81FC018081282F8C81882F77
S113192090E0880F991F880F991F822B282F8A8196
S11319309B81FC012083898193DF00002496CDBF25
S1131940DEBFDF91CF910895CF93DF9300D0CDB761
S1131950DEB789839A836B8389819A81FC0196819E
S11319608B8189232396CDBFDEBFDF91CF9108956C
S1131970CF93DF9300D0CDB7DEB789839A836B838F
S113198089819A812B81FC01268300002396CDBF97
S1131990DEBFDF91CF910895CF93DF9300D0CDB711
S11319A0DEB789839A836B8389819A816B81CCDFCB
S11319B0982F8B819817C1F789819A816B81D8DF21
S11319C000002396CDBFDEBFDF91CF910895CF9362
S11319D0DF93CDB7DEB72D97CDBFDEBF888799875C
S11319E04A875B876C877D877DDFDC01CB018A8337
S11319F09B83AC83BD838A819B81AC81BD812A8515
S1131A003B854C855D85BC01CD010E940D59DA01F1
S1131A10C9018E839F838E819F81059710F419825B
S1131A202FC08E819F81099718F481E0898328C093
S1131A308E819F81419718F482E0898321C08E8131
S1131A409F81819718F483E089831AC08E819F81D6
S1131A508134910518F484E0898312C08E819F81BA
S1131A608138910518F485E089830AC08E819F81AD
S1131A708130914018F486E0898302C087E089832D
S1131A80888599852981FC01248300002D96CDBF8A
S1131A90DEBFDF91CF910895CF93DF93CDB7DEB74B
S1131AA02597CDBFDEBF89839A836B834C832D83B7
S1131AB089819A81FC018181282F297E89819A81DB
S1131AC0FC01218389819A81FC0191812C818B8184
S1131AD0822B292F282B89819A81FC0121838981DA
S1131AE09A81FC018281282F2F7889819A81FC01B7
S1131AF0228389819A81FC0192818D81292F282B4F
S1131B0089819A81FC01228300002596CDBFDEBF26
S1131B10DF91CF910895CF93DF93CDB7DEB72597AB
S1131B20CDBFDEBF89839A836B834C832D838B81E6
S1131B30882F90E08230910511F1833091052CF4C7
S1131B40009771F00197B9F1A9C08430910509F4A7
S1131B5053C084309105D4F1059709F476C09EC032
S1131B6089819A81FC018181282F277F89819A812B
S1131B70FC01218389819A81FC0113828FC08981B0
S1131B809A81FC018181282F277F89819A81FC0118
S1131B9021838D81882F90E0880F991F880F991FCA
S1131BA0880F991F982F8C81892B282F89819A81DE
S1131BB0FC01238373C089819A81FC018181282FD0
S1131BC0286089819A81FC01218368C089819A8176
S1131BD0FC018181282F286089819A81FC0121835D
S1131BE08C818150282F2295220F220F207C8981FD
S1131BF09A81FC01238352C089819A81FC018181ED
S1131C00282F277F89819A81FC0121838C81882F49
S1131C1090E001970024969587950794969587956B
S1131C200794982F802D282F8D81882F90E0880F7E
S1131C30991F880F991F880F991F822B8560282F61
S1131C4089819A81FC01238329C089819A81FC01BD
S1131C508181282F277F89819A81FC0121838C81AE
S1131C60882F90E001970024969587950794969580
S1131C7087950794982F802D282F8D81882F90E0A9
S1131C80880F991F880F991F880F991F822B8660D0
S1131C90282F89819A81FC01238300000000259666
S1131CA0CDBFDEBFDF91CF910895CF93DF931F9215
S1131CB0CDB7DEB789838981882F90E0883091057C
S1131CC051F1893091057CF481309105F1F0823035
S1131CD091051CF4892BB9F028C082309105B9F024
S1131CE00497B9F022C080329105C9F08132910580
S1131CF01CF4409791F019C08034910591F08F3F06
S1131D00910589F012C08CE111C080E00FC084E01D
S1131D100DC088E00BC08CE009C080E107C084E1FD
S1131D2005C088E103C080E001C080E00F90DF912E
S1131D30CF910895CF93DF93CDB7DEB72597CDBF6D
S1131D40DEBF89839A836B834C832D838B8180319F
S1131D5078F089819A81FC0110828B818051282F2F
S1131D60220F220F220F89819A81FC01218387C0CF
S1131D708C818A3079F489819A8121E0FC01208365
S1131D808B81282F220F220F220F89819A81FC0137
S1131D90218375C08C818430B8F489819A8122E0D2
S1131DA0FC0120838B81882F90E0880F991F880F76
S1131DB0991F880F991F982F8C81892B282F89812F
S1131DC09A81FC0121835BC08C818830D8F48D8199
S1131DD06CDF282F236089819A81FC0120838B8109
S1131DE0882F90E0880F991F880F991F880F991FDB
S1131DF0982F8C818450892B282F89819A81FC010A
S1131E0021833DC08D818130E1F489819A8122E072
S1131E10FC0120838B81882F90E0880F991F880F05
S1131E20991F880F991F982F8C81883011F485E0B1
S1131E3001C087E0892B282F89819A81FC012183A5
S1131E401EC08D8132DF282F236089819A81FC0195
S1131E5020838B81882F90E0880F991F880F991F0A
S1131E60880F991F982F8C81893011F484E001C068
S1131E7087E0892B282F89819A81FC012183000026
S1131E802596CDBFDEBFDF91CF910895CF93DF9329
S1131E90CDB7DEB72E97CDBFDEBF8C879D876E870B
S1131EA08C859D859E012F5F3F4FB9018FDB9E017D
S1131EB0285F3F4F8C859D85A9016E854CDC20E110
S1131EC040E060E0CE010196E7DD20E041E060E023
S1131ED0CE01019620DE40E45DE063E070E0CE01D7
S1131EE0019675DDCE01089620E04AE060E022DF2D
S1131EF08C859D859E012F5F3F4FB901EFDA9E01CE
S1131F00285F3F4F8C859D85A9016E85AFDB00005E
S1131F102E96CDBFDEBFDF91CF910895CF93DF938F
S1131F20CDB7DEB761E080E092E0B0DF87E590E214
S1131F300E94215D0000DF91CF910895CF93DF933C
S1131F40CDB7DEB761E080E492E0A0DF8FE690E2F7
S1131F500E94215D0000DF91CF910895CF93DF931C
S1131F60CDB7DEB72997CDBFDEBF8F83988769874A
S1131F708F8198850E943A058F8198856985BEDC9A
S1131F808F819885698508DD8F8198858B839C83F3
S1131F9089858D831E828D81882F90E08370992797
S1131FA0892B39F48E818E5F8E838D8186958695FB
S1131FB08D838D81882F90E081709927892B19F466
S1131FC08E818F5F8E838B819C819C01205E3F4F2D
S1131FD08E81882F90E0880F991F880F991F880F92
S1131FE0991F820F931FFC018481958189839A83B1
S1131FF08F8198850E945B0589819A81CC01A0E03C
S1132000B0E0BC01CD010E948853DC01CB01BC01CE
S1132010CD012996CDBFDEBFDF91CF910895CF9337
S1132020DF9300D01F92CDB7DEB761E080E492E089
S113203095DFDC01CB0120E030E040E855E4BC0151
S1132040CD010E94B552DC01CB019C01AD01BC0164
S1132050CD010E944D52DC01CB0189839A83AB836D
S1132060BC8389819A81AB81BC81BC01CD0124965A
S1132070CDBFDEBFDF91CF910895CF93DF93CDB76E
S1132080DEB72897CDBFDEBF61E080E092E066DF77
S1132090DC01CB0125EE30ED42E25FE3BC01CD0172
S11320A00E94D154DC01CB0189839A83AB83BC8326
S11320B029813A814B815C8160E070E080E895E49D
S11320C00E94B552DC01CB0120E030E040E85FE340
S11320D0BC01CD010E944C52DC01CB01BC01CD01FD
S11320E00E949154DC01CB012CE734ED43E859E321
S11320F0BC01CD010E94D154DC01CB012FE03FECA7
S11321004BE55BE3BC01CD010E944D52DC01CB01E8
S11321109C01AD0160E070E080E89FE30E94B5524D
S1132120DC01CB01BC01CD010E945C53DC01CB017D
S11321308D839E83AF83B8876D817E818F819885DF
S11321400E948853DC01CB0123E333E948E853E4DC
S1132150BC01CD010E944C52DC01CB01BC01CD017C
S11321602896CDBFDEBFDF91CF910895CF93DF9343
S1132170CDB7DEB72597CDBFDEBF8A836B837C8363
S11321804D838FEF89838091902190919121892BA8
S113219011F481E819C08091902190919121DC0182
S11321A01996ED91FC911A9780919021909191212B
S11321B0DC0118963C918B819C812D81AC016A8154
S11321C0832F1995898389812596CDBFDEBFDF9141
S11321D0CF910895CF93DF9300D0CDB7DEB78B8333
S11321E08FEF89831A828091902190919121892B7C
S11321F011F481E846C08091902190919121DC01F5
S11322001B96ED91FC911C978091902190919121C6
S1132210DC0118963C91CE01029621E0AC0167E006
S1132220832F199589838981882341F58B818A833A
S11322308091902190919121DC011996ED91FC916E
S11322401A978091902190919121DC0118963C91EC
S1132250CE01029621E0AC0167E0832F1995982FF7
S11322608981890F89838981882351F48091902100
S1132270909191212B81FC01238302C08FEF8983EC
S113228089812396CDBFDEBFDF91CF910895CF938F
S1132290DF93CDB7DEB72A97CDBFDEBF89879A8794
S11322A08FEF898326E0CE010396DC01E22F1D9295
S11322B0EA95E9F78FEF8A8380919021909191219B
S11322C0892B11F481E872C0809190219091912121
S11322D0DC0113968C91882319F080E07BDF8A83DC
S11322E08A81882349F08091902190919121FC0169
S11322F08381882309F057C0809190219091912186
S1132300DC011B96ED91FC911C978091902190919A
S11323109121DC0118963C91CE01039626E0AC0194
S11323206AE1832F199589838B818B838C818C83BC
S11323308C81082E000C990B382F22278B81882F33
S113234090E0282B392B89859A85FC0120833183E1
S11323508D818D838E818E838E81082E000C990B46
S1132360382F22278D81882F90E0282B392B8985BF
S11323709A85DC0112962D933C9313978F818F835A
S1132380888588878885082E000C990B382F22278A
S11323908F81882F90E0282B392B89859A85FC0121
S11323A02483358302C08FEF898389812A96CDBF28
S11323B0DEBFDF91CF910895CF93DF93CDB7DEB722
S11323C02A97CDBFDEBF89879A878FEF898326E05E
S11323D0CE010396DC01E22F1D92EA95E9F78FEF17
S11323E08A838091902190919121892B11F481E825
S11323F072C08091902190919121DC0113968C916F
S1132400882319F080E0E6DE8A838A81882349F0F4
S11324108091902190919121FC018381882309F07E
S113242057C08091902190919121DC011B96ED91F0
S1132430FC911C978091902190919121DC01189638
S11324403C91CE01039626E0AC0168E2832F1995F6
S113245089838B818B838C818C838C81082E000CE7
S1132460990B382F22278B81882F90E0282B392B2A
S113247089859A85FC01208331838D818D838E81AA
S11324808E838E81082E000C990B382F22278D8184
S1132490882F90E0282B392B89859A85DC011296A8
S11324A02D933C9313978F818F83888588878885A4
S11324B0082E000C990B382F22278F81882F90E04B
S11324C0282B392B89859A85FC012483358302C006
S11324D08FEF898389812A96CDBFDEBFDF91CF91AB
S11324E00895CF93DF93CDB7DEB72A97CDBFDEBF74
S11324F089879A878FEF89831A821B821C821D82A7
S11325001E821F821886CE01089664D2898388852C
S1132510882331F080E0BBD2982F8981890F898389
S11325208981882309F066C0CE010296B0DE982F17
S11325308981890F89838981882309F058C08A8118
S11325409B81092E000CAA0BBB0BBC01CD010E9480
S11325508A53DC01CB0120E030E040E851E4BC01C7
S1132560CD010E94B552DC01CB0129853A85F901E0
S113257080839183A283B3838E819F81092E000C73
S1132580AA0BBB0BBC01CD010E948A53DC01CB0119
S113259020E030E040E851E4BC01CD010E94B55296
S11325A0DC01CB0129853A85F90180879187A287CF
S11325B0B3878C819D81092E000CAA0BBB0BBC0137
S11325C0CD010E948A53DC01CB0120E030E040E8D9
S11325D051E4BC01CD010E94B552DC01CB01298537
S11325E03A85F90184839583A683B78305C08FEF69
S11325F0898302C08FEF898389812A96CDBFDEBF8C
S1132600DF91CF910895CF93DF93CDB7DEB72997AC
S1132610CDBFDEBF888799878FEF89831A821B829B
S11326201C821D821E821F82CE010296C5DE898312
S11326308981882309F058C08A819B81092E000C66
S1132640AA0BBB0BBC01CD010E948A53DC01CB0158
S113265020E030E048EC52E4BC01CD010E94B552C8
S1132660DC01CB0128853985F90180839183A2831C
S1132670B3838C819D81092E000CAA0BBB0BBC017A
S1132680CD010E948A53DC01CB0120E030E048EC0C
S113269052E4BC01CD010E94B552DC01CB01288576
S11326A03985F90184839583A683B7838E819F81BD
S11326B0092E000CAA0BBB0BBC01CD010E948A534E
S11326C0DC01CB0120E030E048EC52E4BC01CD0158
S11326D00E94B552DC01CB0128853985F901808738
S11326E09187A287B38702C08FEF89838981299656
S11326F0CDBFDEBFDF91CF910895CF93DF93CDB7E8
S1132700DEB72597CDBFDEBF8C839D838FEF898392
S11327101B828FEF8A838091902190919121892B44
S113272011F481E83AC08091902190919121DC01CB
S113273013968C91882319F080E04CDD8A838A817A
S1132740882341F08091902190919121FC01838113
S1132750882301F58091902190919121DC011B96B1
S1132760ED91FC911C978091902190919121DC0135
S113277018963C91CE01039621E0AC0165E3832FCA
S1132780199589838B81282F23708C819D81FC016D
S1132790208302C08FEF898389812596CDBFDEBF58
S11327A0DF91CF910895CF93DF93CDB7DEB725970F
S11327B0CDBFDEBF8C839D838FEF89831B828FEF18
S11327C08A838091902190919121892B11F481E841
S11327D041C08091902190919121DC0113968C91BC
S11327E0882319F080E0F6DC8A838A81882341F00B
S11327F08091902190919121FC018381882339F566
S11328008091902190919121DC011B96ED91FC9196
S11328101C978091902190919121DC0118963C9114
S1132820CE01039621E0AC0165E3832F19958983DA
S11328308B81882F90E08C70992795958795959535
S11328408795282F8C819D81FC01208302C08FEF06
S1132850898389812596CDBFDEBFDF91CF9108950D
S1132860CF93DF93CDB7DEB72597CDBFDEBF8C8383
S11328709D838FEF89831B828FEF8A8380919021C0
S113288090919121892B11F481E845C08091902188
S113289090919121DC0113968C91882319F080E0AA
S11328A099DC8A838A81882341F0809190219091D8
S11328B09121FC018381882359F580919021909185
S11328C09121DC011B96ED91FC911C978091902144
S11328D090919121DC0118963C91CE01039621E060
S11328E0AC0165E3832F199589838B81882F90E050
S11328F0807399279595879595958795959587954F
S113290095958795282F8C819D81FC01208302C099
S11329108FEF898389812596CDBFDEBFDF91CF916B
S11329200895CF93DF93CDB7DEB72597CDBFDEBF34
S11329308C839D838FEF89831B828FEF8A838091A1
S1132940902190919121892B11F481E83DC08091CF
S1132950902190919121DC0113968C91882319F098
S113296080E038DC8A838A81882341F08091902139
S113297090919121FC018381882319F58091902104
S113298090919121DC011B96ED91FC911C97809113
S1132990902190919121DC0118963C91CE010396EF
S11329A021E0AC0165E3832F199589838B81282F5E
S11329B022952695269523708C819D81FC01208388
S11329C002C08FEF898389812596CDBFDEBFDF9159
S11329D0CF910895CF93DF93CDB7DEB72597CDBFC1
S11329E0DEBF8C839D838FEF89831B828FEF8A8365
S11329F08091902190919121892B11F481E841C01B
S1132A008091902190919121DC0113968C918823DF
S1132A1019F080E0DFDB8A838A81882341F080918A
S1132A20902190919121FC018381882339F5809133
S1132A30902190919121DC011B96ED91FC911C97C2
S1132A408091902190919121DC0118963C91CE01C6
S1132A50039621E0AC016BE3832F199589838B8165
S1132A60882F90E0847099279595879595958795FB
S1132A70282F8C819D81FC01208302C08FEF8983E4
S1132A8089812596CDBFDEBFDF91CF910895CF9385
S1132A90DF93CDB7DEB72597CDBFDEBF8D838FEF34
S1132AA089831B821C828FEF8A838091902190916D
S1132AB09121892B11F481E868C0CE0104966BD072
S1132AC08A838A81882309F054C08C81882331F059
S1132AD080E0B7D0982F8A81890F8A838A818823DE
S1132AE009F044C08091902190919121DC011B96C2
S1132AF0ED91FC911C978091902190919121DC01A2
S1132B0018963C91CE01039621E0AC016BE3832F30
S1132B10199589838981882371F58B81282F2B7FCF
S1132B208D81882F90E0880F991F880F991F8470DA
S1132B30822B8B838091902190919121DC011996B5
S1132B40ED91FC911A978091902190919121DC0153
S1132B5018963C91CE01039621E0AC016BE3832FE0
S1132B601995982F8981890F898305C08FEF8983EF
S1132B7002C08FEF89838C81882331F08C8161D0EE
S1132B80982F8981890F898389812596CDBFDEBFDE
S1132B90DF91CF910895CF93DF93CDB7DEB725971B
S1132BA0CDBFDEBF8C839D838FEF89831B828FEF24
S1132BB08A838091902190919121892B11F481E84D
S1132BC03AC08091902190919121DC0113968C91CF
S1132BD0882319F080E0FEDA8A838A81882341F011
S1132BE08091902190919121FC018381882301F5AA
S1132BF08091902190919121DC011B96ED91FC91A3
S1132C001C978091902190919121DC0118963C9120
S1132C10CE01039621E0AC016DE3832F19958983DE
S1132C208B81282F2F708C819D81FC01208302C011
S1132C308FEF898389812596CDBFDEBFDF91CF9148
S1132C400895CF93DF93CDB7DEB72597CDBFDEBF11
S1132C508D838FEF89831B821C828FEF8A838091FF
S1132C60902190919121892B11F481E8D9C0CE0152
S1132C70049691DF8A838A81882309F0CEC08C81EF
S1132C80882309F04AC08091902190919121DC0120
S1132C901B96ED91FC911C9780919021909191212C
S1132CA0DC0118963C91CE01039621E0AC016DE362
S1132CB0832F199589838981882309F0B0C08B817A
S1132CC0982F907F8D818F70892B8B838091902199
S1132CD090919121DC011996ED91FC911A978091C4
S1132CE0902190919121DC0118963C91CE0103969C
S1132CF021E0AC016DE3832F1995982F8981890F09
S1132D0089838091902190919121FC0125853685BC
S1132D1088E592E0F901199582C080919021909103
S1132D209121DC011B96ED91FC911C9780919021DF
S1132D3090919121DC0118963C91CE01039621E0FB
S1132D40AC016DE3832F1995898389818823C1F4AC
S1132D508B81807F8B83CE01039641E0BC018DE3A0
S1132D6005DA982F8981890F898380919021909128
S1132D709121FC012585368584E190E0F9011995BE
S1132D808D81882309F44BC08091902190919121E9
S1132D90DC011B96ED91FC911C9780919021909100
S1132DA09121DC0118963C91CE01039621E0AC01FF
S1132DB06DE3832F199589838981882381F58B811C
S1132DC0982F907F8D818F70892B8B838091902198
S1132DD090919121DC011996ED91FC911A978091C3
S1132DE0902190919121DC0118963C91CE0103969B
S1132DF021E0AC016DE3832F1995982F8981890F08
S1132E0089838091902190919121FC0125853685BB
S1132E1088E592E0F901199502C08FEF89838981D1
S1132E202596CDBFDEBFDF91CF910895CF93DF9379
S1132E301F921F92CDB7DEB780EB9BE024E1FC012B
S1132E40238310926D2719821A821092782500002C
S1132E500F900F90DF91CF910895CF93DF93CDB76B
S1132E60DEB740E051E060ED75E280E795E20E9454
S1132E70D22540E450E060ED76E280E197E20E94E2
S1132E80D2250000DF91CF9108951F920F920090F8
S1132E903F000F921124009038000F9210923800D6
S1132EA0009039000F921092390000903A000F926E
S1132EB010923A0000903B000F9210923B002F9327
S1132EC03F934F935F936F937F938F939F93AF93AE
S1132ED0BF93EF93FF93CF93DF931F92CDB7DEB7EA
S1132EE080EB9BE0FC01808189838091CF25813038
S1132EF041F589818A30B1F480916D27882F90E063
S1132F00AC0160E775E288E197E20E944E2580916A
S1132F10CF258093782510926D2785E08093CF2567
S1132F2010926F2580916D27882F90E0885E984DD0
S1132F302981FC01208380916D278F5F80936D2709
S1132F400AC08981843239F48091CF25882319F409
S1132F5081E080936F2580916F25882321F18091F2
S1132F60CF25882301F580916F258530B9F48981B7
S1132F708734A1F481E08093CF2545E050E064E8F4
S1132F8070E288E197E20E945C5C85E080936D27A3
S1132F9080916F258F5F80936F2505C080916F2589
S1132FA08F5F80936F2500000F90DF91CF91FF9189
S1132FB0EF91BF91AF919F918F917F916F915F91AD
S1132FC04F913F912F910F9000923B000F900092F0
S1132FD03A000F90009239000F90009238000F9041
S1132FE000923F000F901F9018951F920F9200902F
S1132FF03F000F921124009038000F921092380075
S1133000009039000F921092390000903A000F920C
S113301010923A0000903B000F9210923B002F93C5
S11330203F934F935F936F937F938F939F93AF934C
S1133030BF93EF93FF93CF93DF93CDB7DEB741E018
S113304050E060EB7BE080E197E20E94FD2561E0C7
S113305070E080E197E20E946A260000DF91CF9140
S1133060FF91EF91BF91AF919F918F917F916F915C
S11330705F914F913F912F910F9000923B000F90E1
S113308000923A000F90009239000F90009238009D
S11330900F9000923F000F901F901895CF92DF92EF
S11330A0EF92FF920F931F93CF93DF93CDB7DEB7C9
S11330B086E897E2A8DA82E997E213DA83EB97E2EB
S11330C072DB89EB97E2CCDB8AEA97E216DB84EBCE
S11330D097E227DC8091A6279091A727A091A827A3
S11330E0B091A92780936F2790937027A09371279D
S11330F0B09372270E949530DC01CB01BC01CD0155
S11331000E948853DC01CB018093A6279093A727C4
S1133110A093A827B093A9278091AF279091B027B7
S1133120A091B127B091B2278093AB279093AC279D
S1133130A093AD27B093AE27E8D0DC01CB018093F8
S1133140AF279093B027A093B127B093B227809173
S1133150732790917427A0917527B0917627809357
S11331609E2790939F27A093A027B093A127809197
S1133170AB279091AC27A091AD27B091AE272091B9
S1133180AF273091B0274091B1275091B227BC01AD
S1133190CD010E944D52DC01CB0120E030E040E043
S11331A050E4BC01CD010E94B552DC01CB016C019D
S11331B07D018091A6279091A727A091A827B0917F
S11331C0A92720916F273091702740917127509142
S11331D07227BC01CD010E944C52DC01CB019C0141
S11331E0AD01C701B6010E94D154DC01CB017C01C1
S11331F08D0180919E2790919F27A091A027B09147
S1133200A1279C01AD01C801B7010E944D52DC0108
S1133210CB018093732790937427A0937527B09361
S113322076278091A2279091A327A091A427B091FB
S1133230A5278093B5279093B627A093B727B0937B
S1133240B8278091732790917427A0917527B09126
S1133250762720919E2730919F274091A027509157
S1133260A127BC01CD010E944D52DC01CB0120E01D
S113327030E040E050E4BC01CD010E94B552DC01D5
S1133280CB016C017D018091A6279091A727A09185
S1133290A827B091A92720916F27309170274091DA
S11332A0712750917227BC01CD010E944C52DC0160
S11332B0CB019C01AD01C701B6010E94D154DC01D0
S11332C0CB017C018D018091B5279091B627A09107
S11332D0B727B091B8279C01AD01C801B7010E947E
S11332E04D52DC01CB018093A2279093A327A09396
S11332F0A427B093A5270000DF91CF911F910F91D0
S1133300FF90EF90DF90CF900895CF93DF93CDB7E8
S1133310DEB780918E2790918F27A0919027B0914E
S11333209127BC01CD01DF91CF910895CF93DF9315
S1133330CDB7DEB78091732790917427A09175273C
S1133340B0917627BC01CD01DF91CF910895CF9341
S1133350DF93CDB7DEB78091A2279091A327A091E8
S1133360A427B091A527BC01CD01DF91CF91089589
S1133370CF93DF93CDB7DEB78091962790919727AF
S1133380A0919827B0919927BC01CD01DF91CF91ED
S11333900895CF93DF93CDB7DEB780919A279091AC
S11333A09B27A0919C27B0919D27BC01CD01DF9163
S11333B0CF910895CF93DF93CDB7DEB78091922755
S11333C090919327A0919427B0919527BC01CD01AA
S11333D0DF91CF910895CF93DF93CDB7DEB780E827
S11333E096E020E836E0F90121812160FC01218387
S11333F080E896E020E836E0F90125812160FC01AF
S113340025838AE890E20E94215D0000DF91CF913C
S11334100895CF93DF93CDB7DEB780E496E020E440
S113342036E0F90121812160FC01218380E496E0EA
S113343020E436E0F90125812160FC0125838DEB30
S113344090E20E94215D0000DF91CF910895CF9317
S1133450DF93CDB7DEB780E496E020E436E0F901EF
S113346021812160FC01218380E496E020E436E0A0
S1133470F90125812E7FFC01258387EC90E20E94CF
S1133480215D0000DF91CF910895CF93DF93CDB7F5
S1133490DEB780E09CE6ACEDB2E0BC01CD01DF918B
S11334A0CF910895CF93DF931F92CDB7DEB71982E2
S11334B0ECDFDC01CB012981222F30E004C0B6957A
S11334C0A795979587952A95D2F7BC01CD010F90C2
S11334D0DF91CF910895CF93DF93CDB7DEB7E2DFCD
S11334E0DC01CB01BC01CD01DF91CF910895CF93D5
S11334F0DF93CDB7DEB7EFDFDC01CB01BC01CD013B
S1133500DF91CF910895CF93DF93CDB7DEB7EFDF8F
S1133510DC01CB01BC01CD01DF91CF91089504C042
S11335206150710981099109611571058105910540
S1133530B9F70895CF93DF931F921F92CDB7DEB7EB
S113354089839A8389819A81FC018081282F206450
S113355089819A81FC01208300000F900F90DF91F4
S1133560CF910895CF93DF93CDB7DEB743E050E01A
S113357062E080E496E00E946B4840E058E160E13C
S113358080E496E00E946B4843E050E060E280E40F
S113359096E00E946B4840E050E060E480E496E0EE
S11335A00E946B4843E050E060E880E496E00E94AB
S11335B06B480000DF91CF910895CF92DF92EF9294
S11335C0FF920F931F93CF93DF931F92CDB7DEB774
S11335D0C9DF81E1898380EC98E00E944203C12C19
S11335E0D12C760100E412E42FE030E040E0CE017B
S11335F00196BC0180EC98E00E94770380EC98E08F
S113360099DF41E050E062ED70E280EC98E00E94C6
S1133610C50316D087ED90E2892F8F9387ED90E252
S11336208F930E940E5D0F900F9000000F90DF911A
S1133630CF911F910F91FF90EF90DF90CF9008955D
S11336402F923F924F925F926F927F928F929F92AE
S1133650AF92BF92CF92DF92EF92FF920F931F939C
S1133660CF93DF93CDB7DEB7A497CDBFDEBF81E1A3
S11336708A83CE010296BC0180EC98E00E943A0451
S113368086E0EDE1F0E2DE01139601900D928A9559
S1133690E1F71982E5C18981882F90E09E012D5FB1
S11336A03F4F820F931FFC018081882F90E041E0FF
S11336B050E0BC0180EC98E00E94C50324DFDC01EB
S11336C0CB018C019D0140E050E0BA010D8B1E8BB3
S11336D02F8B388F498F5A8F6B8F7C8F2D883E8824
S11336E04F88588C698C7A8C8B8C9C8C222D332D32
S11336F0442D552D662D772D882D992D03E00E949C
S1133700E859A22EB32EC42ED52EE62EF72E082F5E
S1133710192F2A2C3B2C4C2C5D2C6E2C7F2C802EAC
S1133720912E222D332D442D552D662D772D882D48
S1133730992D02E00E94E859A22EB32EC42ED52E54
S1133740E62EF72E082F192F2A2D3B2D4C2D5D2DFB
S11337506E2D7F2D802F912FA22CB32CC42CD52C11
S1133760E62CF72C082D192D0E94345AA22EB32EC4
S1133770C42ED52EE62EF72E082F192F2A2D3B2DD9
S11337804C2D5D2D6E2D7F2D802F912FAD88BE8801
S1133790CF88D88CE98CFA8C0B8D1C8D0E941F5A13
S11337A0222E332E442E552E662E772E882E992EB9
S11337B00F2EF6E0AF2EF02DB12CC12CD12CE12C24
S11337C0F12C00E010E0222D332D442D552D662DD3
S11337D0772D882D992D0E948C59222E332E442E1C
S11337E0552E662E772E882E992EA22CB32CC42CFF
S11337F0D52CE62CF72C082D192D2A2D3B2D4C2DDC
S11338005D2D6E2D7F2D802F912F29513C4F4F4FD1
S11338105F4F6F4F7F4F8F4F9F4FA22EB32EC42EFB
S1133820D52EE62EF72E082F192F2A2D3B2D4C2DA1
S11338305D2D6E2D7F2D802F912F0E94C553DC01AD
S1133840CB0120E030E04AE754E4BC01CD010E9402
S1133850B552DC01CB01BC01CD010E942253A22E42
S1133860B32EC42ED52EE62EF72E082F192FD601EF
S1133870C501BC01CD0153DE8981882F90E09E01F2
S1133880275F3F4F820F931FFC018081882F90E0B8
S113389042E050E0BC0180EC98E00E94FE0333DE7D
S11338A0DC01CB018C019D0140E050E0BA010D8F99
S11338B01E8F2F8F38A349A35AA36BA37CA32D8CEF
S11338C03E8C4F8C58A069A07AA08BA09CA0222D7E
S11338D0332D442D552D662D772D882D992D03E0FC
S11338E00E94E859A22EB32EC42ED52EE62EF72E12
S11338F0082F192F2A2C3B2C4C2C5D2C6E2C7F2C42
S1133900802E912E222D332D442D552D662D772D6D
S1133910882D992D02E00E94E859A22EB32EC42EC0
S1133920D52EE62EF72E082F192F2A2D3B2D4C2DA0
S11339305D2D6E2D7F2D802F912FA22CB32CC42CA6
S1133940D52CE62CF72C082D192D0E94345AA22EC2
S1133950B32EC42ED52EE62EF72E082F192F2A2D7E
S11339603B2D4C2D5D2D6E2D7F2D802F912FAD8CF9
S1133970BE8CCF8CD8A0E9A0FAA00BA11CA10E94F8
S11339801F5A222E332E442E552E662E772E882E25
S1133990992E0F2EF6E0AF2EF02DB12CC12CD12C88
S11339A0E12CF12C00E010E0222D332D442D552D77
S11339B0662D772D882D992D0E948C59222E332E19
S11339C0442E552E662E772E882E992EA22CB32C9B
S11339D0C42CD52CE62CF72C082D192D2A2D3B2D83
S11339E04C2D5D2D6E2D7F2D802F912F29513C4F15
S11339F04F4F5F4F6F4F7F4F8F4F9F4FA22EB32E6E
S1133A00C42ED52EE62EF72E082F192F2A2D3B2D46
S1133A104C2D5D2D6E2D7F2D802F912F0E94C5532F
S1133A20DC01CB0120E030E04AE754E4BC01CD01E5
S1133A300E94B552DC01CB01BC01CD010E9422538E
S1133A40A22EB32EC42ED52EE62EF72E082F192F14
S1133A50D601C501BC01CD0162DD89818F5F8983F7
S1133A608981873008F417CE8985882F90E0382F14
S1133A7022278A85882F90E0822B932B8093BA2764
S1133A809093BB278B85882F90E0382F22278C8535
S1133A90882F90E0822B932B8093BE279093BF278F
S1133AA08D85882F90E0382F22278E85882F90E0EF
S1133AB0822B932B8093BC279093BD278F85882FCF
S1133AC090E0382F22278889882F90E0822B932B2F
S1133AD08093CE279093CF278989882F90E0382F21
S1133AE022278A89882F90E0822B932B8093CC27DE
S1133AF09093CD278B89882F90E0382F22278C89AB
S1133B00882F90E0822B932B8093C0279093C1271A
S1133B10CE010296BC0180EC98E00E9450040000A3
S1133B20A496CDBFDEBFDF91CF911F910F91FF907F
S1133B30EF90DF90CF90BF90AF909F908F907F9049
S1133B406F905F904F903F902F9008952F923F92E7
S1133B504F925F926F927F928F929F92AF92BF9299
S1133B60CF92DF92EF92FF920F931F93CF93DF9345
S1133B70CDB7DEB7C254D109CDBFDEBF81E18AA380
S1133B80CE018296BC0180EC98E00E943A0419822E
S1133B9023C08981882F90E08A5F9F4DFC0180813A
S1133BA0882F90E041E050E0BC0180EC98E00E9456
S1133BB0C5038981882F90E08A53984DFC01808148
S1133BC0882F90E043E050E0BC0180EC98E00E9434
S1133BD0FE0389818F5F898389818230D0F2CE018F
S1133BE08296BC0180EC98E00E9450048091C62724
S1133BF0882F90E0A0E0B0E0AC0133272227809129
S1133C00C727882F90E0982F8827092E000CAA0B2D
S1133C10BB0B282B392B4A2B5B2B8091C827882F71
S1133C2090E0A0E0B0E0822B932BA42BB52B8A83E9
S1133C309B83AC83BD838D818F938C818F938B8188
S1133C408F938A818F9389EB90E2892F8F9389EBED
S1133C5090E28F930E940E5D0F900F900F900F9043
S1133C600F900F908091C627882F90E0A0E0B0E0DD
S1133C70AC01332722278091C727882F90E0982F03
S1133C808827092E000CAA0BBB0B282B392B4A2B97
S1133C905B2B8091C827882F90E0A0E0B0E0822BB6
S1133CA0932BA42BB52B8093D0279093D127A0934B
S1133CB0D227B093D3278091C927882F90E0A0E022
S1133CC0B0E0AC01332722278091CA27882F90E0E7
S1133CD0982F8827092E000CAA0BBB0B282B392BF5
S1133CE04A2B5B2B8091CB27882F90E0A0E0B0E09B
S1133CF0822B932BA42BB52B8093C2279093C3279D
S1133D00A093C427B093C5272091C2273091C3271D
S1133D104091C4275091C5278091CC279091CD27FD
S1133D20CC01A0E0B0E0BA2FA92F982F8827790101
S1133D308A01E81AF90A0A0B1B0BD801C7018E8302
S1133D409F83A887B9878E819F81A885B9851C0127
S1133D502D01BB0F880B982FDC01682E782E882E3E
S1133D60982E8091C0279091C1279C0140E050E09B
S1133D7060E070E0CB01A22EB32EC42ED52EE62E29
S1133D80F72E082F192F222D332D442D552D662D56
S1133D90772D882D992D0E943959A22EB32EC42E29
S1133DA0D52EE62EF72E082F192F2A2D3B2D4C2D1C
S1133DB05D2D6E2D7F2D802F912FA22EB32EC42E1C
S1133DC0D52EE62EF72E082F192F2A2D3B2D4C2DFC
S1133DD05D2D6E2D7F2D802F912FA0E00E943D5AE6
S1133DE004F52A2D3B2D4C2D5D2D6E2D7F2D802F1E
S1133DF0912F2150310940485F4F6F4F7F4F8F4FB4
S1133E009F4F222E332E442E552E662E772E882E2B
S1133E10992EA22CB32CC42CD52CE62CF72C082DCF
S1133E20192D2A2D3B2D4C2D5D2D6E2D7F2D802F90
S1133E30912F07E10E94015AA22EB32EC42ED52E33
S1133E40E62EF72E082F192F2A2D3B2D4C2D5D2DF4
S1133E506E2D7F2D802F912FDA01C9018053984F49
S1133E60AF4FBF4F8A879B87AC87BD878091BE27A2
S1133E709091BF275C01C12CD12CE12CF12C87013E
S1133E802A2D3B2D4C2D5D2D6E2D7F2D802F912FB6
S1133E9001E10E94E8592BA33CA34DA35EA36FA3A9
S1133EA078A789A79AA78091CE279091CF271C0144
S1133EB0412C512C612C712C43018E819F81A8854A
S1133EC0B9858BA79CA7ADA7BEA7BB0F880B982F5E
S1133ED0DC018FA788AB89AB8AABABA4BCA4CDA40F
S1133EE0DEA4EFA4F8A809A91AA9222D332D442D84
S1133EF0552D662D772D882D992D0E943959A22E86
S1133F00B32EC42ED52EE62EF72E082F192F2A2DC8
S1133F103B2D4C2D5D2D6E2D7F2D802F912FA22EAC
S1133F20B32EC42ED52EE62EF72E082F192F2A2DA8
S1133F303B2D4C2D5D2D6E2D7F2D802F912FA0E0DC
S1133F400E943D5ADCF42A2D3B2D4C2D5D2D6E2D07
S1133F507F2D802F912FAFE30E94285A222E332EDB
S1133F60442E552E662E772E882E992EA22CB32CF5
S1133F70C42CD52CE62CF72C082D192D2A2D3B2DDD
S1133F804C2D5D2D6E2D7F2D802F912F06E00E94EC
S1133F90015AA22EB32EC42ED52EE62EF72E082FAC
S1133FA0192F2A2C3B2C4C2C5D2C6E2C7F2C802E14
S1133FB0912E2BA13CA14DA15EA16FA178A589A54D
S1133FC09AA5A22CB32CC42CD52CE62CF72C082DA6
S1133FD0192D0E941F5A2E873F87488B598B6A8B55
S1133FE07B8B8C8B9D8B8091BA279091BB275C0136
S1133FF0C12CD12CE12CF12C87012A2D3B2D4C2DE9
S11340005D2D6E2D7F2D802F912F00E10E94E859A8
S11340102BAB3CAB4DAB5EAB6FAB78AF89AF9AAF1C
S11340208091BC279091BD271C01412C512C612CFF
S1134030712C43018E819F81A885B9858BAF9CAF7C
S1134040ADAFBEAFBB0F880B982FDC018FAF2196AD
S11340508FAF219722968FAF229723968FAF239706
S1134060ABACBCACCDACDEACEFAC2196FFAC2197D5
S113407022960FAD229723961FAD2397222D332D21
S1134080442D552D662D772D882D992D0E94395953
S1134090A22EB32EC42ED52EE62EF72E082F192FBE
S11340A02A2D3B2D4C2D5D2D6E2D7F2D802F912F94
S11340B0A22EB32EC42ED52EE62EF72E082F192F9E
S11340C02A2D3B2D4C2D5D2D6E2D7F2D802F912F74
S11340D0A0E00E943D5ADCF42A2D3B2D4C2D5D2D91
S11340E06E2D7F2D802F912FAFE70E94285A222E0C
S11340F0332E442E552E662E772E882E992EA22CE2
S1134100B32CC42CD52CE62CF72C082D192D2A2DD4
S11341103B2D4C2D5D2D6E2D7F2D802F912F07E093
S11341200E94015AA22EB32EC42ED52EE62EF72EAF
S1134130082F192F2A2C3B2C4C2C5D2C6E2C7F2CF9
S1134140802E912E2BA93CA94DA95EA96FA978AD0B
S113415089AD9AADA22CB32CC42CD52CE62CF72C0B
S1134160082D192D0E941F5A2E8B3F8B488F598F73
S11341706A8F7B8F8C8F9D8F8091D0279091D127D0
S1134180A091D227B091D3271C012D01612C712C51
S11341904301AE88BF88C88CD98CEA8CFB8C0C8D0B
S11341A01D8D222D332D442D552D662D772D882DD3
S11341B0992D0E943959A22EB32EC42ED52EE62E47
S11341C0F72E082F192F2A2D3B2D4C2D5D2D6E2DEA
S11341D07F2D802F912FA22EB32EC42ED52EE62E06
S11341E0F72E082F192F2A2D3B2D4C2D5D2D6E2DCA
S11341F07F2D802F912FA0E00E943D5A04F52A2D97
S11342003B2D4C2D5D2D6E2D7F2D802F912F215018
S11342103109404E5F4F6F4F7F4F8F4F9F4F222E7C
S1134220332E442E552E662E772E882E992EA22CB0
S1134230B32CC42CD52CE62CF72C082D192D2A2DA3
S11342403B2D4C2D5D2D6E2D7F2D802F912F05E163
S11342500E94015A222E332E442E552E662E772E7E
S1134260882E992EA22CB32CC42CD52CE62CF72CFA
S1134270082D192D2A2D3B2D4C2D5D2D6E2D7F2DB6
S1134280802F912FAE84BF84C888D988EA88FB88A0
S11342900C891D890E94345A222E332E442E552E09
S11342A0662E772E882E992EA22CB32CC42CD52CB6
S11342B0E62CF72C082D192D2A2D3B2D4C2D5D2D88
S11342C06E2D7F2D802F912FA0E00E943D5A04F582
S11342D02A2D3B2D4C2D5D2D6E2D7F2D802F912F62
S11342E0215030484F4F5F4F6F4F7F4F8F4F9F4F3D
S11342F0222E332E442E552E662E772E882E992E5E
S1134300A22CB32CC42CD52CE62CF72C082D192D5B
S11343102A2D3B2D4C2D5D2D6E2D7F2D802F912F21
S11343200FE00E94015AA22EB32EC42ED52EE62EE3
S1134330F72E082F192F2A2D3B2D4C2D5D2D6E2D78
S11343407F2D802F912F2E8F3F8F48A359A38E8DC1
S11343509F8D292F2F938F9380EE90E2892F8F9337
S113436080EE90E28F930E94C35C0F900F900F90A9
S11343700F908E8D9F8DA8A1B9A1BC01CD01CE5BFC
S1134380DF4FCDBFDEBFDF91CF911F910F91FF9023
S1134390EF90DF90CF90BF90AF909F908F907F90E1
S11343A06F905F904F903F902F900895CF93DF933D
S11343B000D0CDB7DEB789839A836B8389819A81D4
S11343C0FC018681282F2C7F89819A81FC01268318
S11343D089819A81FC0196818B81292F282B8981DF
S11343E09A81FC01268300002396CDBFDEBFDF91B6
S11343F0CF910895CF93DF9300D0CDB7DEB78983F3
S11344009A836B8389819A81FC018081982F907FA4
S11344108B81892B282F89819A81FC0120830000BC
S11344202396CDBFDEBFDF91CF910895CF93DF9365
S113443000D01F92CDB7DEB789839A836B837C83C8
S113444089819A812B813C81FC0126A337A300003A
S11344502496CDBFDEBFDF91CF910895CF93DF9334
S11344601F921F92CDB7DEB789839A8389819A817F
S1134470FC018485282F216089819A81FC0124878D
S113448000000F900F90DF91CF910895CF93DF93A9
S113449000D0CDB7DEB789839A836B8389819A81F3
S11344A0FC018181982F987F8B81892B282F89810A
S11344B09A81FC01218300002396CDBFDEBFDF91EA
S11344C0CF910895CF93DF93CDB7DEB789D080E045
S11344D098E0C4DF0000DF91CF910895CF93DF937C
S11344E0CDB7DEB780E092ECA1E0B0E080939821F4
S11344F090939921A0939A21B0939B2180E496E014
S1134500809392219093932180EA98E08093942160
S11345109093952188E08093972184E0809396215D
S113452082E991E20E94854B80EA98E024E1FC0153
S1134530238384EE90E20E94215D80E098E00E9453
S1134540534062E672E280E098E00E94DD4060E061
S113455080E098E09BDF61E17AE780E098E066DF45
S113456061E080E098E022DF789461E080E098E008
S113457041DF0000DF91CF910895CF93DF931F9225
S11345801F92CDB7DEB789839A8380912E22882328
S113459009F589819A810E94655C9C0189819A81CF
S11345A0A901BC0180EA98E00E94D42F80912F22B7
S11345B090913022A0913122B09132220196A11D16
S11345C0B11D80932F2290933022A0933122B09377
S11345D0322201C000000F900F90DF91CF91089517
S11345E0CF93DF93CDB7DEB7C054D340CDBFDEBF8A
S11345F083E290E28B839C8386EF90E289839A83A3
S11346008091152290911622A0911722B091182220
S11346102B2F2F932A2F2F93292F2F938F938BEFA9
S113462090E2892F8F938BEF90E28F93CE018F5F6F
S11346309D4F292F2F938F930E94515D8DB79EB765
S11346400896CDBFDEBF80912F2290913022A09199
S11346503122B09132222B2F2F932A2F2F93292FDF
S11346602F938F938BEF90E2892F8F938BEF90E2B0
S11346708F93CE018B5E9D4F292F2F938F930E9492
S1134680515DEDB7FEB73896CDBFDEBF80913322C2
S113469090913422A0913522B09136222B2F2F9362
S11346A02A2F2F93292F2F938F938EEF90E2892F08
S11346B08F938EEF90E28F93CE01875D9D4F292FCC
S11346C02F938F930E94515D8DB79EB70896CDBFEF
S11346D0DEBF80911D2290911E22A0911F22B091D5
S11346E020222B2F2F932A2F2F93292F2F938F9311
S11346F08BEF90E2892F8F938BEF90E28F93CE0113
S1134700835C9D4F292F2F938F930E94515DEDB7AA
S1134710FEB73896CDBFDEBF809111229091122250
S1134720A0911322B09114222B2F2F932A2F2F9371
S1134730292F2F938F938EEF90E2892F8F938EEFF3
S113474090E28F93CE018F5A9D4F292F2F938F93F1
S11347500E94515D8DB79EB70896CDBFDEBF809194
S1134760192290911A22A0911B22B0911C222B2F66
S11347702F932A2F2F93292F2F938F938EEF90E22D
S1134780892F8F938EEF90E28F93CE018B599D4F9B
S1134790292F2F938F930E94515DEDB7FEB7389662
S11347A0CDBFDEBF20912B2130912C21CE01875823
S11347B09D4FFC012083318320912B2130912C21AA
S11347C0CE0183579D4FFC012083318320912B21FF
S11347D030912C21CE018F559D4FFC0120833183D4
S11347E020912B2130912C21CE018B549D4FFC0123
S11347F02083318320912B2130912C21CE018753AA
S11348009D4FFC01208331838091B0229091B1228D
S1134810A091B222B091B3222B2F2F932A2F2F9342
S1134820292F2F938F938EEF90E2892F8F938EEF02
S113483090E28F93CE0183529D4F292F2F938F9314
S11348400E94515D8DB79EB70896CDBFDEBF8091A3
S1134850B4229091B522A091B622B091B7222B2F09
S11348602F932A2F2F93292F2F938F938EEF90E23C
S1134870892F8F938EEF90E28F93CE018F509D4FAF
S1134880292F2F938F930E94515DEDB7FEB7389671
S1134890CDBFDEBF20912B2130912C21CE018B5F27
S11348A09C4FFC012083318380912922882F90E042
S11348B0292F2F938F938BEF90E2892F8F938BEF78
S11348C090E28F93CE01875E9C4F292F2F938F9375
S11348D00E94515D0F900F900F900F900F900F90CA
S11348E08091C0249091C124A091C224B091C3248A
S11348F02B2F2F932A2F2F93292F2F938F938EEFC4
S113490090E2892F8F938EEF90E28F93CE01835D97
S11349109C4F292F2F938F930E94515D8DB79EB783
S11349200896CDBFDEBFCE01835D9C4F292F2F9308
S11349308F93CE01875E9C4F292F2F938F93CE01A7
S11349408B5F9C4F292F2F938F93CE018F509D4FB8
S1134950292F2F938F93CE0183529D4F292F2F936D
S11349608F93CE0187539D4F292F2F938F93CE0181
S11349708B549D4F292F2F938F93CE018F559D4F8D
S1134980292F2F938F93CE0183579D4F292F2F9338
S11349908F93CE0187589D4F292F2F938F93CE014C
S11349A08B599D4F292F2F938F93CE018F5A9D4F53
S11349B0292F2F938F93CE01835C9D4F292F2F9303
S11349C08F93CE01875D9D4F292F2F938F93CE0117
S11349D08B5E9D4F292F2F938F93CE018F5F9D4F19
S11349E0292F2F938F938A818F9389818F9385E2C7
S11349F090E2892F8F9385E290E28F93CE01039604
S1134A00292F2F938F930E94515DEDB7FEB7B69671
S1134A10CDBFDEBFCE010396B0DD0000C05CDC4F2D
S1134A20CDBFDEBFDF91CF9108951F920F9200900A
S1134A303F000F921124009038000F92109238001A
S1134A4000903A000F9210923A0000903B000F92AF
S1134A5010923B008F939F93EF93FF93CF93DF9339
S1134A60CDB7DEB780EA98E0FC0180818093D4273B
S1134A700000DF91CF91FF91EF919F918F910F9063
S1134A8000923B000F9000923A000F900092380081
S1134A900F9000923F000F901F901895CF93DF93D3
S1134AA0CDB7DEB72797CDBFDEBF8A839B836C83E8
S1134AB07D834E835F83198265C08A819B81FC015B
S1134AC0268137818A819B81FC0182819381820FB7
S1134AD0931F2981222F30E04C815D81240F351FE3
S1134AE0F9012081FC0120838A819B81FC01828160
S1134AF093819C012F5F3F4F8A819B81FC0122831C
S1134B0033838A819B81FC01228133818A819B8149
S1134B10FC01808191812817390729F48A819B81BE
S1134B20FC01128213828A819B81FC0122813381E0
S1134B308A819B81FC018481958128173907F9F4C6
S1134B408A819B81FC01848195819C012F5F3F4F69
S1134B508A819B81FC01248335838A819B81FC01AA
S1134B60248135818A819B81FC0180819181281770
S1134B70390729F48A819B81FC0114821582898179
S1134B808F5F89838981282F30E08E819F81281748
S1134B90390708F492CF00002796CDBFDEBFDF911E
S1134BA0CF910895CF93DF9300D000D0CDB7DEB777
S1134BB089839A836B837C834D835E8389819A8105
S1134BC0FC011282138289819A81FC01148215826C
S1134BD089819A812B813C81FC01268337838981D9
S1134BE09A812D813E81FC01208331830000269629
S1134BF0CDBFDEBFDF91CF910895CF93DF93CDB7C3
S1134C00DEB72A97CDBFDEBF8D839E836F837887FF
S1134C1049875A878D819E81FC018481958189838E
S1134C209A831B821C821B821C822DC02F81388593
S1134C308B819C81820F931F2D813E81F9014681D6
S1134C40578129813A81240F351FF9012081FC0104
S1134C5020838D819E81FC01808191819C01215062
S1134C60310989819A812817390719F419821A821E
S1134C7005C089819A81019689839A838B819C815D
S1134C8001968B839C838D819E818CD09C01898528
S1134C909A852817390720F48D819E8183D002C01C
S1134CA089859A852B813C812817390708F4BECF62
S1134CB08D819E8177D09C0189859A852817390733
S1134CC010F481E001C080E02A96CDBFDEBFDF9101
S1134CD0CF910895CF93DF9300D000D0CDB7DEB746
S1134CE08B839C836D837E838B819C815BD09C01B1
S1134CF08D819E818217930720F08B819C8152D0F5
S1134D0002C08D819E8189839A838B819C814AD044
S1134D109C0189819A818217930720F18B819C8160
S1134D20FC012481358189819A81A901480F591F89
S1134D308B819C81FC0120813181CA01B9010E94CF
S1134D40F9589C018B819C81FC01248335838B81E0
S1134D509C81FC01248135818B819C81FC0122830F
S1134D60338319C08B819C81FC0124813581898125
S1134D709A81A901480F591F8B819C81FC012081D4
S1134D803181CA01B9010E94F9589C018B819C812F
S1134D90FC012483358300002696CDBFDEBFDF915E
S1134DA0CF910895CF93DF931F921F92CDB7DEB7B3
S1134DB089839A8389819A81FC0122813381898143
S1134DC09A81FC01848195812817390778F08981BB
S1134DD09A81FC012281338189819A81FC01848139
S1134DE09581A901481B590BCA0115C089819A8173
S1134DF0FC012081318189819A81FC0142815381A6
S1134E0089819A81FC0184819581BA01681B790B9F
S1134E10CB01820F931F0F900F90DF91CF910895D4
S1134E20CF93DF931F921F92CDB7DEB789839A8306
S1134E3089819A81892B09F467C189819A81803C8F
S1134E40910529F460E180E00E947B2F5DC1898196
S1134E509A818034944029F468E080E00E947B2F9A
S1134E6053C189819A818115944029F464E080E0DA
S1134E700E947B2F49C189819A818038914029F40D
S1134E8062E080E00E947B2F3FC189819A81811575
S1134E90914029F461E080E00E947B2F35C1898133
S1134EA09A818038934029F461E081E00E947B2F4D
S1134EB02BC189819A818039934029F461E082E091
S1134EC00E947B2F21C189819A818115924029F406
S1134ED062E081E00E947B2F17C189819A8180342E
S1134EE0924029F462E082E00E947B2F0DC1898107
S1134EF09A818115934021F464E081E0FCD704C1D8
S1134F0089819A818032934021F464E082E0F3D76E
S1134F10FBC089819A818115984021F461E083E086
S1134F20EAD7F2C089819A818115994021F461E020
S1134F3084E0E1D7E9C089819A8181159A4021F4FE
S1134F4061E085E0D8D7E0C089819A8181159B40D2
S1134F5021F461E086E0CFD7D7C089819A8180347B
S1134F60984021F462E083E0C6D7CEC089819A815B
S1134F708034994021F462E084E0BDD7C5C08981C2
S1134F809A8180349A4021F462E085E0B4D7BCC0B1
S1134F9089819A8180349B4021F462E086E0ABD71A
S1134FA0B3C089819A818039984021F464E083E018
S1134FB0A2D7AAC089819A818039994021F464E0FA
S1134FC084E099D7A1C089819A8180399A4021F4DB
S1134FD064E085E090D798C089819A8180399B40AC
S1134FE021F464E086E087D78FC089819A81803C70
S1134FF0984021F468E083E07ED786C089819A8155
S1135000803C994021F468E084E075D77DC08981B3
S11350109A81803C9A4021F468E085E06CD774C0A2
S113502089819A81803C9B4021F468E086E063D7C3
S11350306BC089819A81803A984021F460E183E0D1
S11350405AD762C089819A81803A994021F460E1FB
S113505084E051D759C089819A81803A9A4021F4D9
S113506060E185E048D750C089819A81803A9B40AD
S113507021F460E186E03FD747C089819A81803B73
S1135080984021F460E283E036D73EC089819A815A
S1135090803B994021F460E284E02DD735C08981BA
S11350A09A81803B9A4021F460E285E024D72CC0A9
S11350B089819A81803B9B4021F460E286E01BD782
S11350C023C089819A818038944021F460E483E08C
S11350D012D71AC089819A818039944021F460E4FE
S11350E084E009D711C089819A81803A944021F4DF
S11350F060E485E000D708C089819A81803B9440B0
S113510019F460E486E0F7D600000F900F90DF9169
S1135110CF910895CF93DF93CDB7DEB72A97CDBF54
S1135120DEBF8A878A85898381E08A8389818B832C
S11351308B818C838C818695869586958D838D81D4
S1135140882F90E0880F991F82959295907F9827D9
S1135150807F98279A5F8E839F838A818823A9F012
S1135160898188878885882F90E09C012770332760
S113517081E090E002C0880F991F2A95E2F7282F5A
S11351808E819F81FC01258314C08981898789854B
S1135190882F90E09C012770332781E090E002C0C3
S11351A0880F991F2A95E2F7282F8E819F81FC0191
S11351B0268300002A96CDBFDEBFDF91CF910895EC
S11351C0CF93DF93CDB7DEB72B97CDBFDEBF8887F4
S11351D099876A877B878A859B85FC0184818D8377
S11351E08A859B85FC0185818E838A859B85FC014C
S11351F086818F838A859B85FC0180819181A28130
S1135200B38189839A83AB83BC8388859985803AEB
S1135210984019F460E183E06ED688859985803BD7
S1135220984019F460E283E066D688859985803ACF
S1135230994019F460E184E05ED688859985803BC5
S1135240994019F460E284E056D688859985803ABD
S11352509A4019F460E185E04ED688859985803BB3
S11352609A4019F460E285E046D688859985803AAB
S11352709B4019F460E186E03ED688859985803BA1
S11352809B4019F460E286E036D6888599859E01B4
S11352902F5F3F4FB9010E942F46882311F081E010
S11352A001C080E02B96CDBFDEBFDF91CF91089582
S11352B0CF93DF93CDB7DEB780EA96E020EA36E0FD
S11352C0F90120812068FC01208380EA96E020EA2D
S11352D036E0F90120812F7BFC0120838FE21ADF65
S11352E080EB9BE09DDD68E070E280EB9BE068DF93
S11352F00000DF91CF910895CF93DF93CDB7DEB750
S11353002597CDBFDEBF8A839B836C837D831982FF
S11353108981882F90E02C813D81820F931FFC01AD
S11353208081882311F481E020C08981882F90E056
S11353302C813D81820F931FFC018081282F880FCF
S1135340330B8981882F90E04A815B81840F951FFC
S1135350FC018081882F90E02817390711F080E044
S113536004C089818F5F8983D3CF2596CDBFDEBFEB
S1135370DF91CF9108958F929F92AF92BF92CF9277
S1135380DF92EF92FF920F931F93CF93DF93CDB7EA
S1135390DEB7ED97CDBFDEBF89AF9AAF6BAF7CAF01
S11353A04DAF19821B861C861D861E861F86188A91
S11353B0198A1A8A1B8A1C8A1D8A1E8A1F8A188EB9
S11353C0198E1A821B828BAD9CAD61E071E294DF71
S11353D0882309F4CAC31A821B82BCC38A819B81B5
S11353E02BAD3CAD820F931FFC0180818C3209F000
S11353F0ACC389818F5F89838981813009F05BC067
S11354008A819B8101962BAD3CAD820F931FFC01D9
S11354108081882F90E0C097880F982F990F990F5B
S1135420482F490F8A819B8102962BAD3CAD820F98
S1135430931FFC018081840F80538CAB8A819B81F4
S113544003962BAD3CAD820F931FFC018081882F06
S113545090E0C097880F982F990F990F482F490F04
S11354608A819B8104962BAD3CAD820F931FFC0176
S11354708081840F80538DAB8A819B8105962BADEF
S11354803CAD820F931FFC018081882F90E0C09770
S1135490880F982F990F990F482F490F8A819B8164
S11354A006962BAD3CAD820F931FFC018081840FC7
S11354B080538EAB4AC38981823009F02CC18A8122
S11354C09B8101962BAD3CAD820F931FFC01808123
S11354D08C3209F420C18A819B8101962BAD3CADAD
S11354E0820F931FFC018081882F90E0C097880F62
S11354F0991F9C01220F331F220F331F280F391FBE
S11355008A819B8102964BAD5CAD840F951FFC0193
S11355108081882F90E0C097820F931F8A8F9B8F82
S11355208A819B8103962BAD3CAD820F931FFC01B6
S11355308081882F90E0C097092E000CAA0BBB0B2A
S11355409C01AD0160EA76E881E090E00E94EA58AF
S11355507B018C018A819B8104962BAD3CAD820F2B
S1135560931FFC018081882F90E0C0979C01990FC4
S1135570440B550B80E197E2DC010E942F59DC01BA
S1135580CB01E80EF91E0A1F1B1F8A819B81069618
S11355902BAD3CAD820F931FFC018081882F90E0DE
S11355A0C0979C01990F440B550B88EE93E0DC01E6
S11355B00E942F59DC01CB01E80EF91E0A1F1B1FA4
S11355C08A819B8107962BAD3CAD820F931FFC0112
S11355D08081882F90E0C0979C01990F440B550B54
S11355E084E690E0DC010E942F59DC01CB01A80184
S11355F09701280F391F4A1F5B1F8A819B810896D8
S11356006BAD7CAD860F971FFC018081882F90E0E5
S1135610C097092E000CAA0BBB0B880F991FAA1F59
S1135620BB1F7C018D01EE0CFF1C001F111FEE0C33
S1135630FF1C001F111F8E0D9F1DA01FB11F280FDF
S1135640391F4A1F5B1F8A819B8109966BAD7CAD14
S1135650860F971FFC018081882F90E0C097092E48
S1135660000CAA0BBB0B820F931FA41FB51F8C8FBA
S11356709D8FAE8FBF8F8A819B810B962BAD3CADE6
S1135680820F931FFC0180818E3449F40F2EC12CAC
S1135690D12CF0E8EF2EFFE3FF2EF02D08C00F2EE3
S11356A0C12CD12CF0E8EF2EFFEBFF2EF02D8A8DCC
S11356B09B8DCC01A0E0B0E0BC01CD010E948853D9
S11356C04B015C018C8D9D8DAE8DBF8DBC01CD01D8
S11356D00E948853DC01CB0120E03CE742E159E41D
S11356E0BC01CD010E94B552DC01CB019C01AD018E
S11356F0C501B4010E944D52DC01CB019C01AD01F6
S1135700C701B6010E94D154DC01CB0189A39AA33D
S1135710ABA3BCA31AC28981823029F419A21AA2AC
S11357201BA21CA212C28981843009F040C18A8163
S11357309B8101962BAD3CAD820F931FFC018081B0
S11357408C3209F434C18A819B8101962BAD3CAD26
S1135750820F931FFC018081882F90E0C09744E65C
S1135760489F9001499F300D11248A819B810296A4
S11357704BAD5CAD840F951FFC018081882F90E0B8
S1135780C097880F991FAC01440F551F440F551F34
S1135790840F951F280F391F8A819B8103964BAD77
S11357A05CAD840F951FFC018081882F90E0C09729
S11357B0820F931F8DA39EA38A819B8104962BAD98
S11357C03CAD820F931FFC018081882F90E0C0972D
S11357D0092E000CAA0BBB0B9C01AD0160EA76E814
S11357E081E090E00E94EA587B018C018A819B81D0
S11357F005962BAD3CAD820F931FFC018081882F51
S113580090E0C0979C01990F440B550B80E197E2FF
S1135810DC010E942F59DC01CB01E80EF91E0A1F9E
S11358201B1F8A819B8107962BAD3CAD820F931F72
S1135830FC018081882F90E0C0979C01990F440B54
S1135840550B88EE93E0DC010E942F59DC01CB015B
S1135850E80EF91E0A1F1B1F8A819B8108962BAD37
S11358603CAD820F931FFC018081882F90E0C0978C
S11358709C01990F440B550B84E690E0DC010E94D7
S11358802F59DC01CB01A8019701280F391F4A1FAA
S11358905B1F8A819B8109966BAD7CAD860F971F38
S11358A0FC018081882F90E0C097092E000CAA0B80
S11358B0BB0B880F991FAA1FBB1F7C018D01EE0C27
S11358C0FF1C001F111FEE0CFF1C001F111F8E0D6B
S11358D09F1DA01FB11F280F391F4A1F5B1F8A81FC
S11358E09B810A966BAD7CAD860F971FFC0180816E
S11358F0882F90E0C097092E000CAA0BBB0B820FD7
S1135900931FA41FB51F8FA398A7A9A7BAA78A811D
S11359109B810C962BAD3CAD820F931FFC018081C3
S1135920853449F40F2EC12CD12CF0E8EF2EFFE37F
S1135930FF2EF02D08C00F2EC12CD12CF0E8EF2E35
S1135940FFEBFF2EF02D8DA19EA1CC01A0E0B0E0D5
S1135950BC01CD010E9488534B015C018FA198A525
S1135960A9A5BAA5BC01CD010E948853DC01CB01D5
S113597020E03CE742E159E4BC01CD010E94B5526C
S1135980DC01CB019C01AD01C501B4010E944D5263
S1135990DC01CB019C01AD01C701B6010E94D154C9
S11359A0DC01CB018CA79DA7AEA7BFA7CEC0898180
S11359B0843029F41CA61DA61EA61FA6C6C0898174
S11359C0863061F48A819B8101962BAD3CAD820FB8
S11359D0931FFC01808180538FABB7C089818730CE
S11359E009F4B3C08981893009F0AFC01C821E82DA
S11359F01F82188619861A868FC08A85282F30E060
S1135A008A819B81820F931F01962BAD3CAD820F3F
S1135A10931FFC0180818E3229F481E08C8381E024
S1135A208D8377C08C818823D1F520E030E040E27B
S1135A3051E46E817F81888599850E94D154DC016F
S1135A40CB018E839F83A887B9878A85282F30E06E
S1135A508A819B81820F931F01962BAD3CAD820FEF
S1135A60931FFC018081882F90E0C097092E000CC1
S1135A70AA0BBB0BBC01CD010E948A53DC01CB01F4
S1135A809C01AD016E817F81888599850E944D526C
S1135A90DC01CB018E839F83A887B9873AC08C81B0
S1135AA08823B9F18D818130A1F58A85282F30E0D2
S1135AB08A819B81820F931F01962BAD3CAD820F8F
S1135AC0931FFC018081882F90E0C097092E000C61
S1135AD0AA0BBB0BBC01CD010E948A53DC01CB0194
S1135AE020E030E040E251E4BC01CD010E94B55217
S1135AF0DC01CB019C01AD016E817F818885998594
S1135B000E944D52DC01CB018E839F83A887B98705
S1135B1014C08A858F5F8A878A85282F30E08A811E
S1135B209B81820F931F01962BAD3CAD820F931F77
S1135B30FC0180818C3209F060CF8E819F81A88521
S1135B40B98588AB99ABAAABBBAB8A819B81019623
S1135B508A839B838DAD282F30E08A819B818217B5
S1135B6093070CF43BCC1092CF2589AD9AAD2FE16D
S1135B70FE017A96DC0101900D922A95E1F789AD38
S1135B809AADED96CDBFDEBFDF91CF911F910F91FE
S1135B90FF90EF90DF90CF90BF90AF909F908F9049
S1135BA00895CF93DF93CDB7DEB780E092ECA1E008
S1135BB0B0E08093A2219093A321A093A421B09359
S1135BC0A52180E496E080939C2190939D2180EA16
S1135BD098E080939E2190939F2188E08093A12157
S1135BE084E08093A0218CE991E20E94854B88E0B7
S1135BF091E20E94215D0000DF91CF910895CF933F
S1135C00DF931F92CDB7DEB78FE390E0FC01808174
S1135C108983F89489810F90DF91CF910895CF9370
S1135C20DF931F92CDB7DEB789838FE390E029819C
S1135C30FC01208300000F90DF91CF910895CF9352
S1135C40DF931F921F92CDB7DEB78A83D8DF898393
S1135C5080E590E020E530E0F90130812A81232BB2
S1135C60FC0120838981DBDF00000F900F90DF911E
S1135C70CF910895CF93DF931F921F92CDB7DEB7D4
S1135C808A8380E590E022E0FC012283B8DF8983E7
S1135C9080E590E020E530E0F90130812A81232B72
S1135CA0FC0120838981BBDF00000F900F90DF91FE
S1135CB0CF910895CF93DF931F921F92CDB7DEB794
S1135CC08A839DDF898380E590E020E530E0F90157
S1135CD02081322F2A8120952323FC01208389816E
S1135CE09EDF00000F900F90DF91CF910895CF9326
