S011000050726F746F747970652E737265633D
S1130000FDC0000021C100001FC100001DC100008F
S11300101BC1000019C1000017C1000015C1000078
S113002013C1000011C1000013C6000034C6000053
S11300300BC100000C942610B2C60000E8C60000F4
S11300401EC7000054C700008AC70000C0C70000D4
S1130050F6C700000C9457080C948F080C94C7083A
S1130060F3C00000F1C00000EFC00000EDC00000CC
S1130070EBC00000E9C00000E7C00000E5C00000DC
S1130080E3C00000E1C00000DFC00000DDC00000EC
S1130090DBC00000D9C00000D7C00000D5C00000FC
S11300A0D3C00000D1C00000CFC00000CDC000000C
S11300B0CBC00000C9C000000C948A100C942F0B14
S11300C00C94670B0C949F0B0C94D70B0C940F0C93
S11300D00C94470C0C947F0C0C94B70C0C94EF0C00
S11300E00C94270DB1C00000AFC00000ADC00000EB
S11300F0ABC0000076C40000A7C00000D5C4000057
S1130100A3C00000A1C000009FC000009DC000006B
S11301109BC0000099C0000097C0000095C000007B
S113012093C0000091C000008FC000008DC000008B
S11301300C9458100C94FF080C9437090C946F0914
S11301400C94A7090C94DF090C94170A0C944F0A19
S11301500C94870A0C94BF0A0C94F70A75C000002B
S113016073C0000071C000006FC000006DC00000CB
S11301706BC0000069C0000067C0000065C00000DB
S113018063C0000061C000005FC000005DC00000EB
S11301905BC0000059C0000057C0000055C00000FB
S11301A053C0000051C000004FC000000C94BC10AC
S11301B00C945F0D0C94970D0C94CF0D0C94070EBA
S11301C00C943F0E0C94770E0C94AF0E0C94E70E27
S11301D00C941F0F0C94570F37C0000035C000005B
S11301E033C0000031C000002FC000002DC000004B
S11301F02BC0000029C0000027C0000011241FBE2E
S1130200CFEFCDBFDFE3DEBF00E00CBF18BE19BEE9
S11302101ABE1BBE11E2A0E0B0E2E8ECF1E400E09B
S11302200BBF02C007900D92A232B107D9F71BBED3
S113023024E2A2E2B1E201C01D92A134B207E1F7C7
S11302400E949B180C94E220DBCEFC0112821382E4
S11302501482158266837783408351830895FC0159
S113026082819381448155818417950718F0841BFA
S1130270950B089520813181820F931F841B950B68
S113028008958F929F92AF92BF92CF92DF92EF9296
S1130290FF920F931F93CF93DF938C016A01DC01CC
S11302A01496CD91DC911597E62EF72EA12CB12C46
S11302B0842E9D2C18C0D8011696ED91FC911797A9
S11302C0EC0FFD1F8081F70181937F018D919C913B
S11302D00197C817D90711F0219602C0C0E0D0E0F9
S11302E0FFEFAF1ABF0AC801BADF9C01C816D906CE
S11302F010F4282D392DA216B306E8F221E08C154E
S11303009D0508F020E0822FDF91CF911F910F917E
S1130310FF90EF90DF90CF90BF90AF909F908F9021
S113032008950F931F93CF93DF93EC018B0197DF15
S11303309C010817190708F498012817390768F071
S11303408C819D81820F931F688179810E94F91BA2
S11303508C839D838A839B830AC08C819D81820FB9
S1130360931F688179810E94F91B8C839D83DF919F
S1130370CF911F910F910895CF93DF93CDB7DEB73F
S11303802797CDBFDEBFE0E8F6E0808180688083F8
S113039080818F7B808380E8858360E285E0F6D36B
S11303A0E6E0F0E284818D8385818E8386818F836C
S11303B080819181A281B38189839A83AB83BC8339
S11303C060E285E0E3D3BE016F5F7F4F80EB9AE08C
S11303D00E9488122796CDBFDEBFDF91CF9108958A
S11303E0DC01FB018081882301F1082E000C990BAC
S11303F02C9130E082179307D1F490E00BC0022EC9
S1130400000C330BFD01E40FF51F408150E024176D
S1130410350779F49F5F492F50E0FB01E40FF51F86
S113042020812111ECCF81E0089581E0089580E0DE
S1130430089580E008952F923F924F925F926F92B9
S11304407F928F929F92AF92BF92CF92DF92EF9260
S1130450FF920F931F93CF93DF93CDB7DEB7A2978D
S1130460CDBFDEBF4C0169837A83242E6BE170E239
S113047089819A81B5DF882309F449C2312C121489
S113048013040CF044C249805A8000E010E0F12CBF
S1130490DF2C48A259A2A8A1B9A18D91A8A3B9A300
S11304A08C3209F02EC2D394B1E0DB1223C0E8A150
S11304B0F9A18081880F8056982F990F990F890F81
S11304C091819053890F8D878281880F8056982F50
S11304D0990F990F890F93819053890F8E87848187
S11304E0880F8056A82EAA0CAA0CA80E95819053AA
S11304F0A90E07C2F2E0DF12BBC0A8A1B9A18C917A
S11305008C3209F4F0C190E0C0979C01220F331F94
S1130510880F991F880F991F880F991F820F931FA7
S113052011962C91119730E0205331092C01420E81
S1130530531E4B865C861296AC91B0E0D09720EAAD
S113054036E841E050E00E94481C2B013C01E8A140
S1130550F9A1A381B0E0D09720E137E20E94421CC8
S1130560460E571E681E791EA581B0E0D09728EE6E
S113057033E00E94421C460E571E681E791EA68157
S1130580B0E0D09724E630E00E94421CAB01BC01ED
S1130590440D551D661D771D9781892F90E0C097E6
S11305A0092E000CAA0BBB0B880F991FAA1FBB1F97
S11305B02C013D01440C551C661C771C440C551C35
S11305C0661C771C840D951DA61DB71D840F951FF1
S11305D0A61FB71F408550E040535109052E000C5B
S11305E0660B770B2C013D01440E551E661E771ECB
S11305F04F82588669867A8682858E3451F0B12C72
S1130600C12C6894EE24E7F80F2EFFEBFF2EF02D9B
S113061009C0B12CC12C6894EE24E7F80F2EFFE337
S1130620FF2EF02D6F81788589859A850E94081B9D
S113063020E03CE742E159E40E94741A2B013C019A
S11306402B853C85B90180E090E00E94081B9B014A
S1130650AC01C301B2010E94101A2B2D3C2D4E2D6A
S11306605F2D0E94961B6F87788B898B9A8B49C16B
S113067034E0D312C5C0A8A1B9A12C912C3209F43D
S113068037C111968C9190E0C097AC01440F551F6F
S1130690880F991F880F991F880F991F840F951F22
S11306A030E020533109B4E6B29FA001B39F500D4E
S11306B01124840F951FE8A1F9A1228130E0205371
S11306C031092C01420E531E4F8A588EA381B0E08B
S11306D0D09720EA36E841E050E00E94481C2B0104
S11306E03C01A481B0E0D09720E137E20E94421C93
S11306F0460E571E681E791EA681B0E0D09728EEDC
S113070033E00E94421C460E571E681E791EA781C4
S1130710B0E0D09724E630E00E94421CAB01BC015B
S1130720440D551D661D771D9085892F90E0C09757
S1130730092E000CAA0BBB0B880F991FAA1FBB1F05
S11307402C013D01440C551C661C771C440C551CA3
S1130750661C771C840D951DA61DB71D840F951F5F
S1130760A61FB71F418550E040535109052E000CC8
S1130770660B770B2C013D01440E551E661E771E39
S11307804B8A5C8A6D8A7E8A8385853451F0B12CCC
S1130790C12C6894EE24E7F80F2EFFEBFF2EF02D0A
S11307A009C0B12CC12C6894EE24E7F80F2EFFE3A6
S11307B0FF2EF02D6B897C898D899E890E94081BF0
S11307C020E03CE742E159E40E94741A2B013C0109
S11307D02F89388DB90180E090E00E94081B9B01AD
S11307E0AC01C301B2010E94101A2B2D3C2D4E2DD9
S11307F05F2D0E94961B698F7A8F8B8F9C8F81C08F
S113080036E0D31206C0A8A1B9A18C9180538D8F74
S113081078C0B9E0DB1275C0E8A1F9A1C080FCE2A0
S1130820CF1609F46AC0B12C1B821C821D821E8261
S1130830712CE980FA80E00EF11E0E8F1F8F1C2DA3
S11308407AA21E3209F442C05AA051101FC020E0FF
S113085030E040E251E46B817C818D819E810E9475
S1130860961B2B013C01612F70E060537109072E28
S1130870000C880B990B0E940A1BA30192010E9491
S1130880101A6B837C838D839E8322C0C12E0E8DB0
S11308901F8D6C2D70E060537109072E000C880BBE
S11308A0990B0E940A1B20E030E040E251E40E94D0
S11308B0741A9B01AC016B817C818D819E810E94A5
S11308C0101A6B837C838D839E831BC021E02AA333
S11308D0B394F701EB0DF11D11811C3209F0B1CF76
S11308E00E8D1F8D0EC01F86188A198A1A8A09C098
S11308F0198E1A8E1B8E1C8E04C01B821C821D82B4
S11309001E820F5F1F4F0215130509F0C4CD4B84DF
S11309105C84D4014D925C9211974F805884698411
S11309207A8412964D925D926D927C9215978F8582
S11309309889A989BA89F40187839087A187B287A6
S11309404F88588C438654864B885C886D887E8893
S1130950458656866786708A898D9A8DAB8DBC8D47
S1130960828B938BA48BB58B8B819C81AD81BE8153
S1130970868B978BA08FB18F4D84428E5E84538E6D
S1130980A48E6D8C658EC401A296CDBFDEBFDF91AF
S1130990CF911F910F91FF90EF90DF90CF90BF9078
S11309A0AF909F908F907F906F905F904F903F900B
S11309B02F90089584E18093B30A10922624109214
S11309C03122089540E051E069E872E289E292E25E
S11309D03CDC40E450E069E873E289EC93E235CC16
S11309E008951F920F920FB60F92112408B60F921A
S11309F018BE09B60F9219BE0BB60F921BBE2F93E9
S1130A008F939F93AF93BF93EF93FF939091B00A0B
S1130A1080918822813051F420912624E22FF0E045
S1130A20EF52FC4D90832F5F209326249A3039F4A3
S1130A3080933122109288221092282223C094326B
S1130A4011F48823D9F0809128228823D9F08530A5
S1130A50B1F49734A1F481E08093882285E0E2E246
S1130A60F0E2A1EDB3E201900D928A95E1F785E001
S1130A708093262486E08093282204C081E08F5F3F
S1130A8080932822FF91EF91BF91AF919F918F9115
S1130A902F910F900BBE0F9009BE0F9008BE0F90C0
S1130AA00FBE0F901F9018951F920F920FB60F92C2
S1130AB0112408B60F9218BE09B60F9219BE0BB6D0
S1130AC00F921BBE2F933F934F935F936F937F932C
S1130AD08F939F93AF93BF93EF93FF9341E050E0C5
S1130AE060EB7AE089EC93E2CCDB61E070E089ECC6
S1130AF093E217DCFF91EF91BF91AF919F918F919A
S1130B007F916F915F914F913F912F910F900BBE09
S1130B100F9009BE0F9008BE0F900FBE0F901F904C
S1130B201895CF93DF931F921F92CDB7DEB78FEF47
S1130B30809370008093710080937200809373009F
S1130B408093740080937500809376008FB78A83B6
S1130B50F8949A81E0E5F0E08081826080839FBF11
S1130B60818181FFFDCF61E080E490E06BD08FB79D
S1130B708983F8949981E0E5F0E080818E7F808319
S1130B809FBF0F900F90DF91CF910895CF93DF9384
S1130B901F92CDB7DEB79FB79983F8949981E82F58
S1130BA0F0E0E059FF4F60958081682360839FBF28
S1130BB00F90DF91CF910895EF92FF920F931F93BF
S1130BC0CF93DF937C018B01EA01209741F0F80178
S1130BD061918F01C7010E9467112197C1F780E0DD
S1130BE0DF91CF911F910F91FF90EF900895CF93D4
S1130BF0DF931F92CDB7DEB780912C2490912D24E2
S1130C00E0912824F0912924BE016F5F7F4F19954C
S1130C108981082E000C990B0F90DF91CF910895D4
S1130C20682F80912C2490912D24E0912A24F09116
S1130C302B24199599231CF081E090E008958FEFFF
S1130C409FEF08951BBEFC0128ED24BF6083089527
S1130C501F920F920FB60F92112408B60F9218BE6E
S1130C600BB60F921BBE8F939F93EF93FF93EEE20D
S1130C70F4E280819181019680839183FF91EF91C9
S1130C809F918F910F900BBE0F9008BE0F900FBED7
S1130C900F901F9018951F920F920FB60F92112468
S1130CA008B60F9218BE09B60F9219BE0BB60F9272
S1130CB01BBECF92DF92EF92FF920F931F932F935D
S1130CC03F934F935F936F937F938F939F93AF93D0
S1130CD0BF93EF93FF93EEE2F4E28081918122814E
S1130CE0338182179307F0F121E020930204E0910D
S1130CF03424F09135243097A9F16091080470915F
S1130D000904A0E0B0E0DC0199278827AB0160E08A
S1130D1070E08C019D01042B152B262B372BC90168
S1130D20B801AEE2B4E212960D911C91139720E043
S1130D3030E09801112700271496CD90DC90159788
S1130D40E12CF12C0C291D292E293F290617170700
S1130D502807390730F0C901B8016F5F7F4F8F4F03
S1130D609F4F1995FF91EF91BF91AF919F918F91F3
S1130D707F916F915F914F913F912F911F910F91AF
S1130D80FF90EF90DF90CF900F900BBE0F9009BEB5
S1130D900F9008BE0F900FBE0F901F9018951F92D2
S1130DA00F920FB60F92112408B60F9218BE09B60F
S1130DB00F9219BE0BB60F921BBE2F933F934F9306
S1130DC05F936F937F938F939F93AF93BF93EF93AF
S1130DD0FF93E0917021F0917121309709F01995FA
S1130DE0FF91EF91BF91AF919F918F917F916F91FF
S1130DF05F914F913F912F910F900BBE0F9009BEC1
S1130E000F9008BE0F900FBE0F901F9018951F9261
S1130E100F920FB60F92112408B60F9218BE09B69E
S1130E200F9219BE0BB60F921BBE2F933F934F9395
S1130E305F936F937F938F939F93AF93BF93EF933E
S1130E40FF93E0916E21F0916F21309709F019958D
S1130E50FF91EF91BF91AF919F918F917F916F918E
S1130E605F914F913F912F910F900BBE0F9009BE50
S1130E700F9008BE0F900FBE0F901F9018951F92F1
S1130E800F920FB60F92112408B60F9218BE09B62E
S1130E900F9219BE0BB60F921BBE2F933F934F9325
S1130EA05F936F937F938F939F93AF93BF93EF93CE
S1130EB0FF93E0916C21F0916D21309709F0199521
S1130EC0FF91EF91BF91AF919F918F917F916F911E
S1130ED05F914F913F912F910F900BBE0F9009BEE0
S1130EE00F9008BE0F900FBE0F901F9018951F9281
S1130EF00F920FB60F92112408B60F9218BE09B6BE
S1130F000F9219BE0BB60F921BBE2F933F934F93B4
S1130F105F936F937F938F939F93AF93BF93EF935D
S1130F20FF93E0916A21F0916B21309709F01995B4
S1130F30FF91EF91BF91AF919F918F917F916F91AD
S1130F405F914F913F912F910F900BBE0F9009BE6F
S1130F500F9008BE0F900FBE0F901F9018951F9210
S1130F600F920FB60F92112408B60F9218BE09B64D
S1130F700F9219BE0BB60F921BBE2F933F934F9344
S1130F805F936F937F938F939F93AF93BF93EF93ED
S1130F90FF93E0916821F0916921309709F0199548
S1130FA0FF91EF91BF91AF919F918F917F916F913D
S1130FB05F914F913F912F910F900BBE0F9009BEFF
S1130FC00F9008BE0F900FBE0F901F9018951F92A0
S1130FD00F920FB60F92112408B60F9218BE09B6DD
S1130FE00F9219BE0BB60F921BBE2F933F934F93D4
S1130FF05F936F937F938F939F93AF93BF93EF937D
S1131000FF93E0916621F0916721309709F01995DB
S1131010FF91EF91BF91AF919F918F917F916F91CC
S11310205F914F913F912F910F900BBE0F9009BE8E
S11310300F9008BE0F900FBE0F901F9018951F922F
S11310400F920FB60F92112408B60F9218BE09B66C
S11310500F9219BE0BB60F921BBE2F933F934F9363
S11310605F936F937F938F939F93AF93BF93EF930C
S1131070FF93E0916421F0916521309709F019956F
S1131080FF91EF91BF91AF919F918F917F916F915C
S11310905F914F913F912F910F900BBE0F9009BE1E
S11310A00F9008BE0F900FBE0F901F9018951F92BF
S11310B00F920FB60F92112408B60F9218BE09B6FC
S11310C00F9219BE0BB60F921BBE2F933F934F93F3
S11310D05F936F937F938F939F93AF93BF93EF939C
S11310E0FF93E0916221F0916321309709F0199503
S11310F0FF91EF91BF91AF919F918F917F916F91EC
S11311005F914F913F912F910F900BBE0F9009BEAD
S11311100F9008BE0F900FBE0F901F9018951F924E
S11311200F920FB60F92112408B60F9218BE09B68B
S11311300F9219BE0BB60F921BBE2F933F934F9382
S11311405F936F937F938F939F93AF93BF93EF932B
S1131150FF93E0916021F0916121309709F0199596
S1131160FF91EF91BF91AF919F918F917F916F917B
S11311705F914F913F912F910F900BBE0F9009BE3D
S11311800F9008BE0F900FBE0F901F9018951F92DE
S11311900F920FB60F92112408B60F9218BE09B61B
S11311A00F9219BE0BB60F921BBE2F933F934F9312
S11311B05F936F937F938F939F93AF93BF93EF93BB
S11311C0FF93E0915E21F0915F21309709F019952A
S11311D0FF91EF91BF91AF919F918F917F916F910B
S11311E05F914F913F912F910F900BBE0F9009BECD
S11311F00F9008BE0F900FBE0F901F9018951F926E
S11312000F920FB60F92112408B60F9218BE09B6AA
S11312100F9219BE0BB60F921BBE2F933F934F93A1
S11312205F936F937F938F939F93AF93BF93EF934A
S1131230FF93E0915C21F0915D21309709F01995BD
S1131240FF91EF91BF91AF919F918F917F916F919A
S11312505F914F913F912F910F900BBE0F9009BE5C
S11312600F9008BE0F900FBE0F901F9018951F92FD
S11312700F920FB60F92112408B60F9218BE09B63A
S11312800F9219BE0BB60F921BBE2F933F934F9331
S11312905F936F937F938F939F93AF93BF93EF93DA
S11312A0FF93E0915A21F0915B21309709F0199551
S11312B0FF91EF91BF91AF919F918F917F916F912A
S11312C05F914F913F912F910F900BBE0F9009BEEC
S11312D00F9008BE0F900FBE0F901F9018951F928D
S11312E00F920FB60F92112408B60F9218BE09B6CA
S11312F00F9219BE0BB60F921BBE2F933F934F93C1
S11313005F936F937F938F939F93AF93BF93EF9369
S1131310FF93E0915821F0915921309709F01995E4
S1131320FF91EF91BF91AF919F918F917F916F91B9
S11313305F914F913F912F910F900BBE0F9009BE7B
S11313400F9008BE0F900FBE0F901F9018951F921C
S11313500F920FB60F92112408B60F9218BE09B659
S11313600F9219BE0BB60F921BBE2F933F934F9350
S11313705F936F937F938F939F93AF93BF93EF93F9
S1131380FF93E0915621F0915721309709F0199578
S1131390FF91EF91BF91AF919F918F917F916F9149
S11313A05F914F913F912F910F900BBE0F9009BE0B
S11313B00F9008BE0F900FBE0F901F9018951F92AC
S11313C00F920FB60F92112408B60F9218BE09B6E9
S11313D00F9219BE0BB60F921BBE2F933F934F93E0
S11313E05F936F937F938F939F93AF93BF93EF9389
S11313F0FF93E0915421F0915521309709F019950C
S1131400FF91EF91BF91AF919F918F917F916F91D8
S11314105F914F913F912F910F900BBE0F9009BE9A
S11314200F9008BE0F900FBE0F901F9018951F923B
S11314300F920FB60F92112408B60F9218BE09B678
S11314400F9219BE0BB60F921BBE2F933F934F936F
S11314505F936F937F938F939F93AF93BF93EF9318
S1131460FF93E0915221F0915321309709F019959F
S1131470FF91EF91BF91AF919F918F917F916F9168
S11314805F914F913F912F910F900BBE0F9009BE2A
S11314900F9008BE0F900FBE0F901F9018951F92CB
S11314A00F920FB60F92112408B60F9218BE09B608
S11314B00F9219BE0BB60F921BBE2F933F934F93FF
S11314C05F936F937F938F939F93AF93BF93EF93A8
S11314D0FF93E0915021F0915121309709F0199533
S11314E0FF91EF91BF91AF919F918F917F916F91F8
S11314F05F914F913F912F910F900BBE0F9009BEBA
S11315000F9008BE0F900FBE0F901F9018951F925A
S11315100F920FB60F92112408B60F9218BE09B697
S11315200F9219BE0BB60F921BBE2F933F934F938E
S11315305F936F937F938F939F93AF93BF93EF9337
S1131540FF93E0914E21F0914F21309709F01995C6
S1131550FF91EF91BF91AF919F918F917F916F9187
S11315605F914F913F912F910F900BBE0F9009BE49
S11315700F9008BE0F900FBE0F901F9018951F92EA
S11315800F920FB60F92112408B60F9218BE09B627
S11315900F9219BE0BB60F921BBE2F933F934F931E
S11315A05F936F937F938F939F93AF93BF93EF93C7
S11315B0FF93E0914C21F0914D21309709F019955A
S11315C0FF91EF91BF91AF919F918F917F916F9117
S11315D05F914F913F912F910F900BBE0F9009BED9
S11315E00F9008BE0F900FBE0F901F9018951F927A
S11315F00F920FB60F92112408B60F9218BE09B6B7
S11316000F9219BE0BB60F921BBE2F933F934F93AD
S11316105F936F937F938F939F93AF93BF93EF9356
S1131620FF93E0914A21F0914B21309709F01995ED
S1131630FF91EF91BF91AF919F918F917F916F91A6
S11316405F914F913F912F910F900BBE0F9009BE68
S11316500F9008BE0F900FBE0F901F9018951F9209
S11316600F920FB60F92112408B60F9218BE09B646
S11316700F9219BE0BB60F921BBE2F933F934F933D
S11316805F936F937F938F939F93AF93BF93EF93E6
S1131690FF93E0914821F0914921309709F0199581
S11316A0FF91EF91BF91AF919F918F917F916F9136
S11316B05F914F913F912F910F900BBE0F9009BEF8
S11316C00F9008BE0F900FBE0F901F9018951F9299
S11316D00F920FB60F92112408B60F9218BE09B6D6
S11316E00F9219BE0BB60F921BBE2F933F934F93CD
S11316F05F936F937F938F939F93AF93BF93EF9376
S1131700FF93E0914621F0914721309709F0199514
S1131710FF91EF91BF91AF919F918F917F916F91C5
S11317205F914F913F912F910F900BBE0F9009BE87
S11317300F9008BE0F900FBE0F901F9018951F9228
S11317400F920FB60F92112408B60F9218BE09B665
S11317500F9219BE0BB60F921BBE2F933F934F935C
S11317605F936F937F938F939F93AF93BF93EF9305
S1131770FF93E0914421F0914521309709F01995A8
S1131780FF91EF91BF91AF919F918F917F916F9155
S11317905F914F913F912F910F900BBE0F9009BE17
S11317A00F9008BE0F900FBE0F901F9018951F92B8
S11317B00F920FB60F92112408B60F9218BE09B6F5
S11317C00F9219BE0BB60F921BBE2F933F934F93EC
S11317D05F936F937F938F939F93AF93BF93EF9395
S11317E0FF93E0914221F0914321309709F019953C
S11317F0FF91EF91BF91AF919F918F917F916F91E5
S11318005F914F913F912F910F900BBE0F9009BEA6
S11318100F9008BE0F900FBE0F901F9018951F9247
S11318200F920FB60F92112408B60F9218BE09B684
S11318300F9219BE0BB60F921BBE2F933F934F937B
S11318405F936F937F938F939F93AF93BF93EF9324
S1131850FF93E0914021F0914121309709F01995CF
S1131860FF91EF91BF91AF919F918F917F916F9174
S11318705F914F913F912F910F900BBE0F9009BE36
S11318800F9008BE0F900FBE0F901F9018951F92D7
S11318900F920FB60F92112408B60F9218BE09B614
S11318A00F9219BE0BB60F921BBE2F933F934F930B
S11318B05F936F937F938F939F93AF93BF93EF93B4
S11318C0FF93E0913E21F0913F21309709F0199563
S11318D0FF91EF91BF91AF919F918F917F916F9104
S11318E05F914F913F912F910F900BBE0F9009BEC6
S11318F00F9008BE0F900FBE0F901F9018951F9267
S11319000F920FB60F92112408B60F9218BE09B6A3
S11319100F9219BE0BB60F921BBE2F933F934F939A
S11319205F936F937F938F939F93AF93BF93EF9343
S1131930FF93E0913C21F0913D21309709F01995F6
S1131940FF91EF91BF91AF919F918F917F916F9193
S11319505F914F913F912F910F900BBE0F9009BE55
S11319600F9008BE0F900FBE0F901F9018951F92F6
S11319700F920FB60F92112408B60F9218BE09B633
S11319800F9219BE0BB60F921BBE2F933F934F932A
S11319905F936F937F938F939F93AF93BF93EF93D3
S11319A0FF93E0913A21F0913B21309709F019958A
S11319B0FF91EF91BF91AF919F918F917F916F9123
S11319C05F914F913F912F910F900BBE0F9009BEE5
S11319D00F9008BE0F900FBE0F901F9018951F9286
S11319E00F920FB60F92112408B60F9218BE09B6C3
S11319F00F9219BE0BB60F921BBE2F933F934F93BA
S1131A005F936F937F938F939F93AF93BF93EF9362
S1131A10FF93E0913821F0913921309709F019951D
S1131A20FF91EF91BF91AF919F918F917F916F91B2
S1131A305F914F913F912F910F900BBE0F9009BE74
S1131A400F9008BE0F900FBE0F901F9018951F9215
S1131A500F920FB60F92112408B60F9218BE09B652
S1131A600F9219BE0BB60F921BBE2F933F934F9349
S1131A705F936F937F938F939F93AF93BF93EF93F2
S1131A80FF93E0913621F0913721309709F01995B1
S1131A90FF91EF91BF91AF919F918F917F916F9142
S1131AA05F914F913F912F910F900BBE0F9009BE04
S1131AB00F9008BE0F900FBE0F901F9018951F92A5
S1131AC00F920FB60F92112408B60F9218BE09B6E2
S1131AD00F9219BE0BB60F921BBE2F933F934F93D9
S1131AE05F936F937F938F939F93AF93BF93EF9382
S1131AF0FF93E0913421F0913521309709F0199545
S1131B00FF91EF91BF91AF919F918F917F916F91D1
S1131B105F914F913F912F910F900BBE0F9009BE93
S1131B200F9008BE0F900FBE0F901F9018951F9234
S1131B300F920FB60F92112408B60F9218BE09B671
S1131B400F9219BE0BB60F921BBE2F933F934F9368
S1131B505F936F937F938F939F93AF93BF93EF9311
S1131B60FF93E0913221F0913321309709F01995D8
S1131B70FF91EF91BF91AF919F918F917F916F9161
S1131B805F914F913F912F910F900BBE0F9009BE23
S1131B900F9008BE0F900FBE0F901F9018951F92C4
S1131BA00F920FB60F92112408B60F9218BE09B601
S1131BB00F9219BE0BB60F921BBE2F933F934F93F8
S1131BC05F936F937F938F939F93AF93BF93EF93A1
S1131BD0FF93E0913021F0913121309709F019956C
S1131BE0FF91EF91BF91AF919F918F917F916F91F1
S1131BF05F914F913F912F910F900BBE0F9009BEB3
S1131C000F9008BE0F900FBE0F901F9018951F9253
S1131C100F920FB60F92112408B60F9218BE09B690
S1131C200F9219BE0BB60F921BBE2F933F934F9387
S1131C305F936F937F938F939F93AF93BF93EF9330
S1131C40FF93E0912E21F0912F21309709F01995FF
S1131C50FF91EF91BF91AF919F918F917F916F9180
S1131C605F914F913F912F910F900BBE0F9009BE42
S1131C700F9008BE0F900FBE0F901F9018951F92E3
S1131C800F920FB60F92112408B60F9218BE09B620
S1131C900F9219BE0BB60F921BBE2F933F934F9317
S1131CA05F936F937F938F939F93AF93BF93EF93C0
S1131CB0FF93E0912C21F0912D21309709F0199593
S1131CC0FF91EF91BF91AF919F918F917F916F9110
S1131CD05F914F913F912F910F900BBE0F9009BED2
S1131CE00F9008BE0F900FBE0F901F9018951F9273
S1131CF00F920FB60F92112408B60F9218BE09B6B0
S1131D000F9219BE0BB60F921BBE2F933F934F93A6
S1131D105F936F937F938F939F93AF93BF93EF934F
S1131D20FF93E0912A21F0912B21309709F0199526
S1131D30FF91EF91BF91AF919F918F917F916F919F
S1131D405F914F913F912F910F900BBE0F9009BE61
S1131D500F9008BE0F900FBE0F901F9018951F9202
S1131D600F920FB60F92112408B60F9218BE09B63F
S1131D700F9219BE0BB60F921BBE2F933F934F9336
S1131D805F936F937F938F939F93AF93BF93EF93DF
S1131D90FF93E0912821F0912921309709F01995BA
S1131DA0FF91EF91BF91AF919F918F917F916F912F
S1131DB05F914F913F912F910F900BBE0F9009BEF1
S1131DC00F9008BE0F900FBE0F901F9018951F9292
S1131DD00F920FB60F92112408B60F9218BE09B6CF
S1131DE00F9219BE0BB60F921BBE2F933F934F93C6
S1131DF05F936F937F938F939F93AF93BF93EF936F
S1131E00FF93E0912621F0912721309709F019954D
S1131E10FF91EF91BF91AF919F918F917F916F91BE
S1131E205F914F913F912F910F900BBE0F9009BE80
S1131E300F9008BE0F900FBE0F901F9018951F9221
S1131E400F920FB60F92112408B60F9218BE09B65E
S1131E500F9219BE0BB60F921BBE2F933F934F9355
S1131E605F936F937F938F939F93AF93BF93EF93FE
S1131E70FF93E0912421F0912521309709F01995E1
S1131E80FF91EF91BF91AF919F918F917F916F914E
S1131E905F914F913F912F910F900BBE0F9009BE10
S1131EA00F9008BE0F900FBE0F901F9018951F92B1
S1131EB00F920FB60F92112408B60F9218BE09B6EE
S1131EC00F9219BE0BB60F921BBE2F933F934F93E5
S1131ED05F936F937F938F939F93AF93BF93EF938E
S1131EE0FF93E0912221F0912321309709F0199575
S1131EF0FF91EF91BF91AF919F918F917F916F91DE
S1131F005F914F913F912F910F900BBE0F9009BE9F
S1131F100F9008BE0F900FBE0F901F901895CF938F
S1131F20DF93E0917221F0917321848183FF08C0D3
S1131F308860848383E0838386EF80937C2183C0DD
S1131F40982F947131F083E083838FEF80937C2109
S1131F507AC086FF43C0C2E7D1E2AA81BB818C81EB
S1131F609D8114962D913C911597821793076CF4DB
S1131F709C012F5F3F4F2093762130937721A80F48
S1131F80B91F11968C9187835EC0809178219091BE
S1131F90792118962D913C91199782179307C8F4CB
S1131FA020917A21222321F08681816086834BC08F
S1131FB016962D913C911797AC014F5F5F4F40935C
S1131FC0782150937921D901A80FB91F8C91878367
S1131FD03AC083E0838310927C2135C0882384F542
S1131FE0A2E7B1E21296CD91DC91139716968D91EA
S1131FF09C9117972885398582179307D8F46E81A9
S11320007F819C012F5F3F4F20937821309379216A
S11320104781DB01A80FB91F4C9388859985281740
S1132020390718F482E083830EC087E0838310921B
S11320307C2109C083E0838389EF80937C2103C0E2
S11320408BEF80937C21DF91CF9108951F920F92A3
S11320500FB60F92112408B60F9218BE09B60F924C
S113206019BE0BB60F921BBE2F933F934F935F93F2
S11320706F937F938F939F93AF93BF93EF93FF934C
S11320804EDFFF91EF91BF91AF919F918F917F911F
S11320906F915F914F913F912F910F900BBE0F90D5
S11320A009BE0F9008BE0F900FBE0F901F90189599
S11320B01F920F920FB60F92112408B60F9218BEFA
S11320C009B60F9219BE0BB60F921BBE2F933F9306
S11320D04F935F936F937F938F939F93AF93BF932C
S11320E0EF93FF931CDFFF91EF91BF91AF919F910D
S11320F08F917F916F915F914F913F912F910F90AD
S11321000BBE0F9009BE0F9008BE0F900FBE0F902C
S11321101F9018951F920F920FB60F92112408B6B4
S11321200F9218BE09B60F9219BE0BB60F921BBEC2
S11321302F933F934F935F936F937F938F939F93CB
S1132140AF93BF93EF93FF93EADEFF91EF91BF91BB
S1132150AF919F918F917F916F915F914F913F913B
S11321602F910F900BBE0F9009BE0F9008BE0F90D9
S11321700FBE0F901F9018951F920F920FB60F92DB
S1132180112408B60F9218BE09B60F9219BE0BB6E9
S11321900F921BBE2F933F934F935F936F937F9345
S11321A08F939F93AF93BF93EF93FF93B8DEFF9109
S11321B0EF91BF91AF919F918F917F916F915F91BB
S11321C04F913F912F910F900BBE0F9009BE0F902E
S11321D008BE0F900FBE0F901F901895FC01DB01F5
S11321E014968C91858388EB818381E08483E2E774
S11321F0F1E211861286E0EAF0E082818260828355
S1132200789480E00895CF93DF931F92CDB7DEB723
S11322109C01FB01892B09F451C0309709F450C08B
S1132220928580917B21882319F09923F1F34AC088
S11322308FB78983F8948981A2E7B1E291E0199676
S11322409C93199790E81A969C931A978FBF2D9395
S11322503C93119712966D937C93139714961D9249
S11322601C92159716961D921C92179718964C93CC
S11322708081880F64817581672B11F4411103C03B
S1132280F901868303C08160F9018683E2E7F1E204
S113229092859038E9F3F90184818370813049F0A3
S11322A0A2E7B1E2ED91FC911197848183708130B2
S11322B0C9F7E2E7F1E28285118605C088EF03C021
S11322C088EF01C086EF0F90DF91CF910895FC0154
S11322D0918195FFFDCF608380E090E00895FC013B
S11322E091819923ECF7808108954F925F926F92C8
S11322F07F928F929F92AF92BF92EF92FF920F9331
S11323001F93CF937C014A015B0128013901FC0131
S1132310848182FF16C0D901C801689412F8B69569
S1132320A795979587951694D1F7B901A801032E1F
S113233036E176956795579547953A95D1F7302DBF
S113234015C0D901C801689413F8B695A795979557
S113235087951694D1F7B901A801032E37E1769534
S11323606795579547953A95D1F7302D8815990576
S1132370AA05BB0508F4A6C084169506A606B706EA
S113238008F4A2C0F701848182FD04C0880C991C62
S1132390AA1CBB1CC301B201A50194010E94201C0C
S11323A02F3F31054105510508F490C08FEF90E0AF
S11323B0A0E0B0E0C9EF05C0281739074A075B075A
S11323C058F0880F991FAA1FBB1FCD3F0CF48160E2
S11323D0CF5FC73089F74FC0CC230CF04CC0D50178
S11323E0C401880F991FAA1FBB1F880F991FAA1F1A
S11323F0BB1F880F991FAA1FBB1F481A590A6A0AD4
S11324007B0ACE3FF4F48DEF9FEF8C1B9109C7FD3F
S1132410939504C0440C551C661C771C8A95D2F70E
S1132420D501C401B695A79597958795BC01CD01B3
S1132430640D751D861D971DA50194010E94201C25
S113244037C083E08C0FA501940104C0220F331F11
S1132450441F551F8A95D2F7DA01C901B695A7958D
S113246097958795BC01CD01640D751D861D971D3B
S11324700E94201C1DC083E08C0FA501940104C0A0
S1132480220F331F441F551F8A95D2F7DA01C90161
S1132490B695A79597958795BC01CD01640D751DDB
S11324A0861D971D0E94201C2150310941095109A4
S11324B0832F8F70C295C07FC82BF701C7832683F3
S11324C081E018C080E016C080E014C0D501C401CA
S11324D0880F991FAA1FBB1F880F991FAA1FBB1F14
S11324E0880F991FAA1FBB1F481A590A6A0A7B0A38
S11324F0C9EF89CFCF911F910F91FF90EF90BF90BB
S1132500AF909F908F907F906F905F904F900895C1
S11325100F931F93CF93DF93EC018B01009709F482
S11325205DC1803C910529F460E180E00E94C6050C
S113253055C1C03484E0D80729F468E080E00E94E3
S1132540C6054CC1C115E4E0DE0729F464E080E06F
S11325500E94C60543C1C038F1E0DF0729F462E0F8
S113256080E00E94C6053AC1C11581E0D80729F46C
S113257061E080E00E94C60531C1C038E3E0DE07B7
S113258029F461E081E00E94C60528C1C039F3E066
S1132590DF0729F461E082E00E94C6051FC1C1156E
S11325A082E0D80729F462E081E00E94C60516C1E2
S11325B0C034E2E0DE0729F462E082E00E94C6054E
S11325C00DC1C115F3E0DF0729F464E081E00E9446
S11325D0C60504C1C03283E0D80729F464E082E070
S11325E00E94C605FBC0C115E8E0DE0729F461E0DE
S11325F083E00E94C605F2C0C115F9E0DF0729F4A3
S113260061E084E00E94C605E9C0C1158AE0D807EC
S113261029F461E085E00E94C605E0C0C115EBE045
S1132620DE0729F461E086E00E94C605D7C0C03405
S1132630F8E0DF0729F462E083E00E94C605CEC01B
S1132640C03489E0D80729F462E084E00E94C6051A
S1132650C5C0C034EAE0DE0729F462E085E00E94E8
S1132660C605BCC0C034FBE0DF0729F462E086E0A5
S11326700E94C605B3C0C03988E0D80729F464E0D5
S113268083E00E94C605AAC0C039E9E0DE0729F448
S113269064E084E00E94C605A1C0C039FAE0DF0707
S11326A029F464E085E00E94C60598C0C0398BE037
S11326B0D80729F464E086E00E94C6058FC0C03CB8
S11326C0E8E0DE0729F468E083E00E94C60586C0DE
S11326D0C03CF9E0DF0729F468E084E00E94C60505
S11326E07DC0C03C8AE0D80729F468E085E00E94F8
S11326F0C60574C0C03CEBE0DE0729F468E086E060
S11327000E94C6056BC0C03AF8E0DF0729F460E117
S113271083E00E94C60562C0C03A89E0D80729F464
S113272060E184E00E94C60559C0C03AEAE0DE07D1
S113273029F460E185E00E94C60550C0C03AFBE080
S1132740DF0729F460E186E00E94C60547C0C03B6C
S113275088E0D80729F460E283E00E94C6053EC001
S1132760C03BE9E0DE0729F460E284E00E94C6058C
S113277035C0C03BFAE0DF0729F460E285E00E943F
S1132780C6052CC0C03B8BE0D80729F460E286E084
S11327900E94C60523C0C038E4E0DE0729F460E4E3
S11327A083E00E94C6051AC0C039F4E0DF0729F4AB
S11327B060E484E00E94C60511C0C03A84E0D807F2
S11327C029F460E485E00E94C60508C0C03BE4E04B
S11327D0DE0721F460E486E00E94C6058D818F73D4
S11327E08D83F80195818481892B9681911198E0DC
S11327F0892B8D83F801408151816281738100E0CE
S113280018E428EE31E0CE0170DD9C8198609C8351
S11328109C8190619C83DF91CF911F910F910895CA
S11328200F931F93CF93DF93EC0188E290E20E9411
S1132830EA1D83E090E00E94671C8C0188839983E1
S11328408AE0F801828384E190E00E94671CF80129
S11328508083918380E090E0E881F9810190F081A8
S1132860E02DE80FF91F1082118202968431910540
S113287099F7DF91CF911F910F9108950F931F93B3
S1132880CF93DF930097E1F1072F162FEC018A8194
S113289090E001966AE070E0C0D78A8399279F93FD
S11328A08F938CE390E29F938F930E94D21DEA81D1
S11328B0F0E0EE0FFF1F88819981E80FF91F108364
S11328C001830F931F9386E590E29F938F930E9459
S11328D0D21DEA81F0E0EE0FFF1F88819981E80F95
S11328E0F91F81818F9380818F938CE690E29F936F
S11328F08F930E94D21D8DB79EB70C968DBF9EBF3D
S1132900DF91CF911F910F910895FC01892BA1F0C4
S1132910828190E0861B970B12F40A96F2F36AE028
S113292070E07BD7880F991F0190F081E02DE80FAC
S1132930F91F80819181089580E090E00895CF93FC
S1132940DF93FC0120E030E0C62FD0E0DE01022E50
S113295002C0B595A7950A94E2F7A0FD508B2F5FAE
S11329603F4F31962830310589F740FF0AC041FFB7
S113297003C0FC01658302C0FC016683FC01618322
S113298002C0FC016283DF91CF91089543E050E0DF
S113299068E080EC97E0D3DF40E058E164E080EC4D
S11329A097E0CDCF08950F931F93CF93DF93CDB7C7
S11329B0DEB72997CDBFDEBF409336248E010F5F6B
S11329C01F4F29E0F80111922A95E9F769837A8368
S11329D08B839C8349879B01AC01220F331F441FC7
S11329E0551F60E078E488EE91E02AD7DA01C90146
S11329F00597A109B1098D839E83AF83B88760E4ED
S1132A0083E00E94C605B80180E894E0E7DB2996DC
S1132A10CDBFDEBFDF91CF911F910F9108950F932A
S1132A201F93CF93DF93CDB7DEB72B97CDBFDEBF18
S1132A30FE0131962BE0DF011D922A95E9F76983A7
S1132A404A8321E030E02D833E838F83988782E0A0
S1132A5090E089879A8709E710E206C01F930F93D5
S1132A600E94D21D0F900F9040E0BE016F5F7F4F18
S1132A7080E894E0C8DB8111F1CF2B96CDBFDEBF97
S1132A80DF91CF911F910F910895CF93DF93CDB72D
S1132A90DEB72B97CDBFDEBFFE0131962BE0DF0101
S1132AA01D922A95E9F769834A8321E030E02D835A
S1132AB03E838F83988782E090E089879A8741E0FC
S1132AC0BF0180E894E09FDB2B96CDBFDEBFDF9192
S1132AD0CF91089504C0615071098109910961156C
S1132AE0710581059105B9F70895462F69E297CFDD
S1132AF00895462F69E2C9CF08951F93CF93DF93BA
S1132B001F921F92CDB7DEB71FEF19836CE0CE0181
S1132B100196EFDF1A836DE0CE010296EADF298188
S1132B2030E09A81985FA90102C0440F551F9A951D
S1132B30E2F7CA010F900F90DF91CF911F91089592
S1132B40CF93DF931F92CDB7DEB7198267E0CE0132
S1132B500196CBDF19826DE3CE010196C6DF66E5EF
S1132B607AEC81E090E0B6DF81E089836BE3CE010B
S1132B700196BBDF8CE089836DE3CE010196B5DF5E
S1132B800F90DF91CF910895CF93DF93EB01A7DBF3
S1132B908883DF91CF9108959ACB0895EF92FF92A5
S1132BA00F931F93CF93DF93CDB7DEB72797CDBF96
S1132BB0DEBF7C01FC0186819781A085B18580936D
S1132BC0142090931520A0931620B0931720019001
S1132BD0F081E02D9081D70115968C911597892B62
S1132BE08083ED91FC911197948115968C911597A2
S1132BF0892B8483ED91FC911197908114968C918B
S1132C00149780958923808312960D911C911397B4
S1132C100115110509F4C5C1003C110529F460E151
S1132C2080E00E94C60554C10034B4E01B0729F4B7
S1132C3068E080E00E94C6054BC10115E4E01E0770
S1132C4029F464E080E00E94C60542C10038F1E046
S1132C501F0729F462E080E00E94C60539C101150E
S1132C6081E0180729F461E080E00E94C60530C1C4
S1132C700038A3E01A0729F461E081E00E94C60548
S1132C8027C10039B3E01B0729F461E082E00E9408
S1132C90C6051EC10115E2E01E0729F462E081E0C9
S1132CA00E94C60515C10034F2E01F0729F462E052
S1132CB082E00E94C6050CC1011583E0180729F4BF
S1132CC064E081E00E94C60503C10032A3E01A0754
S1132CD029F464E082E00E94C605FAC00115B8E058
S1132CE01B0729F461E083E00E94C605F1C00115C9
S1132CF0E9E01E0729F461E084E00E94C605E8C00B
S1132D000115FAE01F0729F461E085E00E94C60579
S1132D10DFC001158BE0180729F461E086E00E940A
S1132D20C605D6C00034A8E01A0729F462E083E09F
S1132D300E94C605CDC00034B9E01B0729F462E047
S1132D4084E00E94C605C4C00034EAE01E0729F4EA
S1132D5062E085E00E94C605BBC00034FBE01F07AB
S1132D6029F462E086E00E94C605B2C0003988E01A
S1132D70180729F464E083E00E94C605A9C000395D
S1132D80A9E01A0729F464E084E00E94C605A0C003
S1132D900039BAE01B0729F464E085E00E94C60507
S1132DA097C00039EBE01E0729F464E086E00E9436
S1132DB0C6058EC0003CF8E01F0729F468E083E0F4
S1132DC00E94C60585C0003C89E0180729F468E024
S1132DD084E00E94C6057CC0003CAAE01A0729F4DE
S1132DE068E085E00E94C60573C0003CBBE01B0799
S1132DF029F468E086E00E94C6056AC0003AE8E06B
S1132E001E0729F460E183E00E94C60561C0003A10
S1132E10F9E01F0729F460E184E00E94C60558C068
S1132E20003A8AE0180729F460E185E00E94C605AB
S1132E304FC0003AABE01A0729F460E186E00E9433
S1132E40C60546C0003BB8E01B0729F460E283E0F6
S1132E500E94C6053DC0003BE9E01E0729F460E27C
S1132E6084E00E94C60534C0003BFAE01F0729F441
S1132E7060E285E00E94C6052BC0003B8BE018078A
S1132E8029F460E286E00E94C60522C00038A4E06E
S1132E901A0729F460E483E00E94C60519C00039CA
S1132EA0B4E01B0729F460E484E00E94C60510C066
S1132EB0003AE4E01E0729F460E485E00E94C605B8
S1132EC007C0003B144021F460E486E00E94C6057C
S1132ED0D70112960D911C911397E4E1F0E28481DD
S1132EE08D8385818E8386818F8380819181A28168
S1132EF0B38189839A83AB83BC837801003AB8E0B9
S1132F001B0729F460E183E00E94C60513C0003B5F
S1132F10E8E01E0729F460E283E00E94C60514C0BD
S1132F20F0EAEF16F9E0FF0629F460E184E00E947C
S1132F30C60514C080EBE81689E0F80629F460E2BF
S1132F4084E00E94C60514C0A0EAEA16AAE0FA06C4
S1132F5029F460E185E00E94C60514C0B0EBEB16CD
S1132F60BAE0FB0629F460E285E00E94C60513C0BE
S1132F70E0EAEE16EBE0FE0629F460E186E00E944A
S1132F80C60509C0F0EBEF16FBE0FF0621F460E292
S1132F9086E00E94C605BE016F5F7F4FC801B8DAA4
S1132FA013C0E4E1F0E284818D8385818E83868180
S1132FB08F8380819181A281B38189839A83AB833A
S1132FC0BC83E12CF12CACCF2796CDBFDEBFDF91C3
S1132FD0CF911F910F91FF90EF900895FC0180E035
S1132FE092ECA1E0B0E086839783A087B18780E468
S1132FF096E08083918380EB98E08283938380E8DA
S1133000858380E484830895FC0180E092ECA1E050
S1133010B0E086839783A087B18780EA96E08083B7
S1133020918380EA9BE08283938388E0858384E0B4
S113303084830895FC0180E092ECA1E0B0E08683F3
S11330409783A087B18780E896E08083918380EBA3
S11330509AE08283938380E8858380E4848308955F
S1133060CF93DF93CDB7DEB72797CDBFDEBF60E147
S113307085E00E94C605E0E8F6E0808188608083F0
S113308080EA9AE080932C2490932D248CEC95E193
S113309080932A2490932B2484EC95E18093282414
S11330A090932924EDE0F0E284818D8385818E83E1
S11330B086818F8380819181A281B38189839A8360
S11330C0AB83BC8360E185E00E94C605BE016F5FEF
S11330D07F4F80EA9AE01CDA67EF75E080E196E0C2
S11330E017D52796CDBFDEBFDF91CF91089504C0D9
S11330F06150710981099109611571058105910575
S1133100B9F70895FC0120812A3079F0319621E045
S113311030E081918A3061F02F5F3F4F211584E0C8
S11331203807B9F780E094E0089580E090E00895CE
S1133130822F932F0895CF93DF93CDB7DEB7C25A72
S1133140D109CDBFDEBF0E94910520DCCE010196DE
S113315045DFCE010B9658DFCE0145966BDFCE01DD
S113316001961CDDCE010B9619DDCE01459616DDC8
S113317077DF8EE790E22ED549E260E072EC81E0E1
S113318090E011DCDDDCCE014F964ADB0E94BC01ED
S11331900E94DA040E94E204E0EAF0E087E082831D
S11331A082818F77828311827894512C0F2EF4E9D7
S11331B0CF2EF0E2DF2EF02D0F2EF2E5EF2EF0E20F
S11331C0FF2EF02D0F2EF5EA8F2EF0E29F2EF02D1C
S11331D00F2EF2EBAF2EF0E2BF2EF02D0F2EFFEBF1
S11331E06F2EF0E27F2EF02D0F2EF2EE2F2EF0E256
S11331F03F2EF02D45E050E06EE870E280EA9BE05F
S11332000E94DC055394652D70E08F8D98A136DB08
S11332101F9220E12F93DF92CF9288E08F9380EB6F
S11332208F93C0D40F900F900F900F900F900F902A
S113323000E010E0B8018F8D98A167DB9F938F9316
S1133240FF92EF92AFD40F5F1F4F0F900F900F902C
S11332500F900A30110571F78AE090E0B6D44DDC86
S11332609F938F939F928F929DD40F900F900F9066
S11332700F9080913122813009F048C09FB7F894B3
S113328085E5E1EDF3E2DE01919601900D928A95D8
S1133290E1F79FBF8E010F5D1F4FC80133DF800F21
S11332A0911FFC011082F80101900020E9F7319789
S11332B0AF01401B510BB801CE018A589F4F0E94A9
S11332C01B02C457DF4F688179818A819B81CC5866
S11332D0D04010923122CD56DF4F2881C359D040BF
S11332E0222319F02FB7F8942FBF66D1C056DF4FB1
S11332F06883C05AD040CF55DF4F7883C15AD0403D
S1133300CE55DF4F8883C25AD040492E4F92CE55B6
S1133310DF4FF881C25AD040FF93CF55DF4F288149
S1133320C15AD0402F93C056DF4F8881C05AD04035
S11333308F93BF92AF9236D4C156DF4F8881CF5955
S1133340D0408F93C256DF4F8881CE59D0408F939F
S1133350C356DF4F8881CD59D0408F93C456DF4F79
S11333608881CC59D0408F93C556DF4F8881CB5983
S1133370D0408F93C656DF4F8881CA59D0408F936F
S11333807F926F920FD4C756DF4F8881C959D040BE
S11333908F93C856DF4F8881C859D0408F93C95640
S11333A0DF4F8881C759D0408F93CA56DF4F888139
S11333B0C659D0408F93CB56DF4F8881C559D04032
S11333C08F93CC56DF4F8881C459D0408F933F925E
S11333D02F92E8D3EC968FADEC978F93EB968FAD4D
S11333E0EB978F93EA968FADEA978F93E9968FAD1B
S11333F0E9978F93E8968FADE8978F93E7968FAD13
S1133400E7978F93E3E0F1E2FF93EF93CBD36BEA7B
S113341070EB88E290E06BDECDBFDEBFEBCE5058A0
S1133420BB27AA270ED048C139D130F03ED120F0B5
S113343031F49F3F11F41EF42EC10EF4E095E7FB26
S113344024C1E92F4AD180F3BA17620773078407AE
S1133450950718F071F49EF562C10EF4E0950B2EF9
S1133460BA2FA02D0B01B90190010C01CA01A001D2
S11334701124FF27591B99F0593F50F4503E68F12D
S11334801A16F040A22F232F342F4427585FF3CF6E
S1133490469537952795A795F0405395C9F77EF43F
S11334A01F16BA0B620B730B840BBAF09150A1F088
S11334B0FF0FBB1F661F771F881FC2F70EC0BA0F0E
S11334C0621F731F841F48F4879577956795B79596
S11334D0F7959E3F08F0B3CF9395880F08F099278E
S11334E0EE0F9795879508950CD0E6C0DED040F096
S11334F0D5D030F021F45F3F19F0C7C0511110C18D
S1133500CAC0EBD098F39923C9F35523B1F3951BA3
S1133510550BBB27AA2762177307840738F09F5FF0
S11335205F4F220F331F441FAA1FA9F333D00E2E5F
S11335303AF0E0E830D091505040E695001CCAF7CC
S113354029D0FE2F27D0660F771F881FBB1F261791
S113355037074807AB07B0E809F0BB0B802DBF0164
S1133560FF2793585F4F2AF09E3F510568F08DC0A6
S1133570D7C05F3FECF3983EDCF38695779567956B
S1133580B795F7959F5FC9F7880F911D9695879515
S113359097F90895E1E0660F771F881FBB1F621734
S11335A073078407BA0720F0621B730B840BBA0BF2
S11335B0EE1F88F7E095089598D088F09F5790F013
S11335C0B92F9927B751A0F0D1F0660F771F881F44
S11335D0991F1AF0BA95C9F712C0B13081F09FD083
S11335E0B1E008959CC0672F782F8827B85F39F021
S11335F0B93FCCF3869577956795B395D9F73EF4A3
S113360090958095709561957F4F8F4F9F4F08954A
S1133610E89409C097FB3EF4909580957095619568
S11336207F4F8F4F9F4F9923A9F0F92F96E9BB271E
S11336309395F695879577956795B795F111F8CF9A
S1133640FAF4BB0F11F460FF1BC06F5F7F4F8F4F05
S11336509F4F16C0882311F096E911C0772321F0FB
S11336609EE8872F762F05C0662371F096E8862F93
S113367070E060E02AF09A95660F771F881FDAF7EA
S1133680880F9695879597F9089597F99F6780E82D
S113369070E060E008959FEF80EC089500240A94A0
S11336A01616170618060906089500240A94121619
S11336B01306140605060895092E0394000C11F44C
S11336C0882352F0BB0F40F4BF2B11F460FF04C0F9
S11336D06F5F7F4F8F4F9F4F089557FD9058440F52
S11336E0551F59F05F3F71F04795880F97FB991F5D
S11336F061F09F3F79F0879508951216130614061A
S1133700551FF2CF4695F1DF08C0161617061806A6
S1133710991FF1CF86957105610508940895E89481
S1133720BB2766277727CB0197F908950BD0C4CF21
S1133730B5DF28F0BADF18F0952309F0A6CFABCF98
S11337401124EECFCADFA0F3959FD1F3950F50E07B
S1133750551F629FF001729FBB27F00DB11D639F3F
S1133760AA27F00DB11DAA1F649F6627B00DA11DE5
S1133770661F829F2227B00DA11D621F739FB00D8B
S1133780A11D621F839FA00D611D221F749F3327FB
S1133790A00D611D231F849F600D211D822F762F94
S11337A06A2F11249F5750408AF0E1F088234AF091
S11337B0EE0FFF1FBB1F661F771F881F91505040DD
S11337C0A9F79E3F510570F060CFAACF5F3FECF39D
S11337D0983EDCF3869577956795B795F795E795C9
S11337E09F5FC1F7FE2B880F911D9695879597F9DA
S11337F00895AA1BBB1B51E107C0AA1FBB1FA61734
S1133800B70710F0A61BB70B881F991F5A95A9F785
S113381080959095BC01CD01089597FB072E16F471
S1133820009406D077FD08D0E4DF07FC05D03EF411
S1133830909581959F4F0895709561957F4F089558
S1133840A1E21A2EAA1BBB1BFD010DC0AA1FBB1FA0
S1133850EE1FFF1FA217B307E407F50720F0A21B12
S1133860B30BE40BF50B661F771F881F991F1A947F
S113387069F760957095809590959B01AC01BD01A9
S1133880CF0108950BD0B7FF0895821B930B0895C1
S1133890B7FF13C012D0821B930B0895A29FB001EF
S11338A0B39FC001A39F700D811D1124911DB29F70
S11338B0700D811D1124911D0895F0DFA59F900DB9
S11338C0B49F900DA49F800D911D112408950F9312
S11338D01F93CF93DF938230910510F482E090E040
S11338E0E0913924F0913A2420E030E0A0E0B0E007
S11338F0309719F14081518102811381481759078A
S1133900C8F08417950769F4109731F012960C9358
S1133910129713961C9327C00093392410933A24CA
S113392022C02115310519F04217530718F49A01E2
S1133930BD01EF01DF01F801DBCF21153105F9F0FD
S1133940281B390B2430310580F48A819B81611551
S1133950710521F0FB018283938304C08093392491
S113396090933A24FE01329644C0FE01E20FF31F05
S11339708193919322503109288339833AC020914D
S1133980372430913824232B41F4209102203091A4
S11339900320209337243093382420910020309141
S11339A001202115310541F42DB73EB74091042083
S11339B050910520241B350BE0913724F0913824D5
S11339C0E217F307A0F42E1B3F0B2817390778F0F2
S11339D0AC014E5F5F4F2417350748F04E0F5F1F51
S11339E040933724509338248193919302C0E0E0AC
S11339F0F0E0CF01DF91CF911F910F910895CF9304
S1133A00DF93009709F481C0FC013297128213827C
S1133A10A0913924B0913A24109781F42081318106
S1133A20820F931F209137243091382428173907A7
S1133A3051F5E0933724F093382467C0ED0120E07A
S1133A4030E0CE17DF0740F44A815B819E014115C7
S1133A505105F1F0EA01F5CFC283D383408151814E
S1133A60840F951FC817D90759F488819981840F49
S1133A70951F0296808391838A819B81828393839D
S1133A802115310529F4E0933924F0933A243DC0FB
S1133A90E901EA83FB8349915991C40FD51FEC17BF
S1133AA0FD0761F480819181840F951F0296E901DD
S1133AB088839983828193818A839B83E0E0F0E009
S1133AC012968D919C911397009719F0FD01DC01DA
S1133AD0F7CF8D919C9111979D012E5F3F4F820FDF
S1133AE0931F20913724309138242817390769F41B
S1133AF0309729F41092392410923A2402C0128289
S1133B001382A0933724B0933824DF91CF91089582
S1133B100F931F93CF93DF93009731F461157105D1
S1133B2019F480E090E039C08B01EC016EE070E0A4
S1133B3081E090E076D2FC01892B99F380E88383BD
S1133B400115110571F00287138781E88383809141
S1133B503B2490913C24892B21F4E0933B24F09363
S1133B603C242097C9F0C087D187838182608383F6
S1133B7080913D2490913E24892B71F4E0933D245F
S1133B80F0933E2480913F2490914024892B21F48A
S1133B90E0933F24F0934024CF01DF91CF911F9114
S1133BA00F910895CF93DF93CDB7DEB7AE014A5F8F
S1133BB05F4FFA0161917191AF0180913D24909121
S1133BC03E2438D0DF91CF91089560913D247091C7
S1133BD03E245EC20F931F93CF93DF93E0913D2465
S1133BE0F0913E24238121FF1BC08C01D0E0C0E072
S1133BF0F80181918F0160913D2470913E24DB0195
S1133C001896ED91FC911997882331F01995892B19
S1133C1079F3DFEFCFEFECCF8AE01995892B19F018
S1133C208FEF9FEF02C08D2F9C2FDF91CF911F91BB
S1133C300F9108952F923F924F925F926F927F92CD
S1133C408F929F92AF92BF92CF92DF92EF92FF92A8
S1133C500F931F93CF93DF93CDB7DEB72B97CDBFD1
S1133C60DEBF6C017B018A01FC011682178283810D
S1133C7081FFBFC1CE0101963C01F6019381F7019A
S1133C8093FD859193FF81917F01882309F4ADC150
S1133C90853239F493FD859193FF81917F018532BB
S1133CA021F4B60190E0F4D1E8CF912C212C312CF1
S1133CB0FFE1F315D8F08B3279F038F4803279F0E3
S1133CC08332A1F4232D20611DC08D3261F0803335
S1133CD069F4232D216016C0832D8260382EE32DD4
S1133CE0E4603E2E2AC0F32DF8601DC037FC2DC0C1
S1133CF020ED280F2A3040F08E32B9F436FC75C11D
S1133D00232D2064322E19C036FE06C08AE0989E08
S1133D10200D1124922E11C0EAE02E9E200D1124B4
S1133D20222EF32DF0623F2E08C08C3621F4832D11
S1133D308068382E02C0883641F4F70193FD8591DE
S1133D4093FF81917F018111B3CF982F9F7D95546B
S1133D50933028F40C5F1F4F9FE399830DC0833683
S1133D6031F0833771F0833509F055C020C0F80174
S1133D70808189830E5F1F4F88248394912C530183
S1133D8012C02801F2E04F0E511CF801A080B1804E
S1133D9036FE03C0692D70E002C06FEF7FEFC501EE
S1133DA06CD14C018201F32DFF773F2E15C0280101
S1133DB022E0420E511CF801A080B18036FE03C0FF
S1133DC0692D70E002C06FEF7FEFC50144D14C0153
S1133DD0F32DF0683F2E820133FC19C0822D90E050
S1133DE088169906A0F4B60180E290E051D12A9495
S1133DF0F5CFF50137FC859137FE81915F01B6015E
S1133E0090E046D121102A9421E0821A910881146D
S1133E10910479F7E1C0843611F0893639F5F80157
S1133E2037FE07C060817181828193810C5F1F4FCF
S1133E3008C060817181072E000C880B990B0E5FFE
S1133E401F4FF32DFF763F2E97FF09C09095809565
S1133E50709561957F4F8F4F9F4FF0683F2E2AE0FA
S1133E6030E0A30151D1882E861844C0853731F43F
S1133E70232D2F7EB22E2AE030E025C0932D997F8A
S1133E80B92E8F36C1F018F4883579F0AEC080377A
S1133E9019F0883721F0A9C0E92FE061BE2EB4FEE5
S1133EA00DC0FB2DF460BF2E09C034FE0AC0292FBB
S1133EB02660B22E06C028E030E005C020E130E0E4
S1133EC002C020E132E0F801B7FE07C060817181D1
S1133ED0828193810C5F1F4F06C06081718180E0F5
S1133EE090E00E5F1F4FA3010FD1882E8618FB2D83
S1133EF0FF773F2E36FE0DC0232D2E7FA22E891470
S1133F0058F434FE0BC032FC09C0832D8E7EA82EDB
S1133F1005C0B82CA32C03C0B82C01C0B92CA4FE36
S1133F200FC0FE01E80DF11D8081803321F49A2D2C
S1133F30997EA92E09C0A2FE06C0B394B39404C00E
S1133F408A2D867809F0B394A3FC10C0A0FE06C0A5
S1133F50B21480F4280C922C9B180DC0B21458F49F
S1133F60B60180E290E094D0B394F8CFB21418F480
S1133F702B1802C0982C212CA4FE0FC0B60180E39C
S1133F8090E086D0A2FE16C0A1FC03C088E790E0B2
S1133F9002C088E590E0B6010CC08A2D867851F005
S1133FA0A1FE02C08BE201C080E2A7FC8DE2B60153
S1133FB090E06ED0891430F4B60180E390E068D0CC
S1133FC09A94F8CF8A94F301E80DF11D8081B6012B
S1133FD090E05ED08110F6CF222009F44ECEB601D7
S1133FE080E290E055D02A94F7CFF601868197813C
S1133FF002C08FEF9FEF2B96CDBFDEBFDF91CF9135
S11340001F910F91FF90EF90DF90CF90BF90AF90F2
S11340109F908F907F906F905F904F903F902F90E4
S113402008950F931F93CF93DF93869F8001879FFB
S1134030100D969F100D1124C80149DCEC01009766
S113404021F0A80160E070E011D0CE01DF91CF91A2
S11340501F910F910895FC0105906150704001106B
S1134060D8F7809590958E0F9F1F0895DC0101C0AD
S11340706D9341505040E0F70895FC016150704049
S113408001900110D8F7809590958E0F9F1F089589
S11340900F931F93CF93DF93FB01238121FD03C073
S11340A08FEF9FEF2CC022FF16C0468157812481D9
S11340B035814217530744F4A081B1819D012F5FDC
S11340C03F4F208331838C93268137812F5F3F4F6D
S11340D02683378314C08B01EC01FB010084F18536
S11340E0E02D1995892BE1F6D80116968D919C91B6
S11340F01797019616968D939C931797CE01DF918F
S1134100CF911F910F910895FA01AA27283051F1F8
S1134110203181F1E8946F936E7F6E5F7F4F8F4FF4
S11341209F4FAF4FB1E03ED0B4E03CD0670F781F53
S1134130891F9A1FA11D680F791F8A1F911DA11D38
S11341406A0F711D811D911DA11D20D009F4689471
S11341503F912AE0269F11243019305D3193DEF619
S1134160CF010895462F4770405D4193B3E00FD0CF
S1134170C9F7F6CF462F4F70405D4A3318F0495DBA
S113418031FD4052419302D0A9F7EACFB4E0A6959D
S11341909795879577956795BA95C9F700976105BF
S11341A0710508959B01AC010A2E06945795479515
S11341B037952795BA95C9F7620F731F841F951F0A
S10B41C0A01D0895F894FFCF3F
S11341C8000041242000C012000003000100C201C5
S11341D80003000100C201000300012447504747BF
S11341E84100244750474700696E697466756E63D9
S11341F874696F6E2063616C6C6564000A0A6C6193
S11342087374206974656D20696E646578206973B8
S1134218203A202569000A0A2064617461207772B3
S1134228697474656E206973202569000A0A6461DB
S11342387461206973202569006661696C00756181
S1134248727420697320776F726B696E6700686592
S11342586C6C6F000A0A5468652061727261792077
S113426869733A200057686F20616D20493A202508
S11342786400416C7469747564653A202564000AA5
S1134288416363656C65726F6D65746572206973EB
S11342982025692C20092025692C2009202569203E
S11342A80A004D61676E65746F6D65746572206987
S11342B8732025692C20092025692C2009202569CB
S11342C8200A004779726F73636F706520697320E1
S11342D825692C20092025692C2009202569200A14
S10542E80A00C6
S9030000FC
