S01F0000536369656E63655F5061796C6F61645F323031395F76302E73726563F2
S1130000FDC0000021C100001FC100001DC100008F
S11300101BC1000019C1000017C1000015C1000078
S113002013C1000011C100002AC200004BC200002D
S11300300BC100000C942D09C9C20000FFC20000CE
S113004035C300006BC30000A1C30000D7C3000088
S11300500DC4000043C4000079C40000AFC4000014
S1130060F3C00000F1C00000EFC00000EDC00000CC
S1130070EBC00000E9C00000E7C00000E5C00000DC
S1130080E3C00000E1C00000DFC00000DDC00000EC
S1130090DBC00000D9C00000D7C00000D5C00000FC
S11300A0D3C00000D1C00000CFC00000CDC000000C
S11300B0CBC00000C9C000000C945F09E7C6000073
S11300C01DC7000053C7000089C70000BFC7000058
S11300D0F5C70000B9C00000B7C00000B5C00000FB
S11300E0B3C00000B1C00000AFC00000ADC000004C
S11300F0ABC00000A9C00000A7C00000A5C000005C
S1130100A3C00000A1C000009FC000009DC000006B
S11301109BC0000099C0000097C00000BCC0000054
S1130120F7C0000032C100006DC100008DC00000A6
S11301308BC000007BC40000B1C40000E7C4000011
S11301401DC5000053C5000089C50000BFC50000DF
S1130150F5C500002BC6000061C6000075C0000094
S113016073C0000071C000006FC000006DC00000CB
S11301706BC0000069C0000067C0000065C00000DB
S113018063C0000061C000005FC000005DC00000EB
S11301905BC0000059C0000057C0000055C00000FB
S11301A053C0000051C000004FC000004DC000000B
S11301B04BC0000049C0000047C0000045C000001B
S11301C043C0000041C000003FC000003DC000002B
S11301D03BC0000039C0000037C0000035C000003B
S11301E033C0000031C000002FC000002DC000004B
S11301F02BC0000029C0000027C0000011241FBE2E
S1130200CFEFCDBFDFE3DEBF00E00CBF18BE19BEE9
S11302101ABE1BBE10E2A0E0B0E2E4E1F5E100E0AA
S11302200BBF02C007900D92A030B107D9F71BBED7
S113023020E2A0E0B0E201C01D92A934B207E1F7C8
S11302400E946A0A0C94880ADBCE8FEF80937000B8
S11302508093710080937200809373008093740084
S113026080937500809376000895CF93DF931F9257
S1130270CDB7DEB79FB79983F8949981E82FF0E062
S1130280E059FF4F60958081682360839FBF0F9082
S1130290DF91CF9108951F920F920FB60F92112400
S11302A008B60F9218BE09B60F9219BE0BB60F927C
S11302B01BBE2F933F934F935F936F937F938F93C3
S11302C09F93AF93BF93EF93FF9340912402509178
S11302D02502E0913F20F091402061E080E092E02F
S11302E01995FF91EF91BF91AF919F918F917F915C
S11302F06F915F914F913F912F910F900BBE0F9093
S113030009BE0F9008BE0F900FBE0F901F90189556
S11303101F920F920FB60F92112408B60F9218BEB7
S113032009B60F9219BE0BB60F921BBE2F933F93C3
S11303304F935F936F937F938F939F93AF93BF93E9
S1130340EF93FF9340912C0250912D02E0913F20B6
S1130350F091402062E080E092E01995FF91EF91E6
S1130360BF91AF919F918F917F916F915F914F91C9
S11303703F912F910F900BBE0F9009BE0F9008BEB6
S11303800F900FBE0F901F9018951F920F920FB6EB
S11303900F92112408B60F9218BE09B60F9219BE17
S11303A00BB60F921BBE2F933F934F935F936F93A4
S11303B07F938F939F93AF93BF93EF93FF9340915A
S11303C0340250913502E0913F20F091402064E0E6
S11303D080E092E01995FF91EF91BF91AF919F91C9
S11303E08F917F916F915F914F913F912F910F90DA
S11303F00BBE0F9009BE0F9008BE0F900FBE0F905A
S11304001F9018951F920F920FB60F92112408B6E1
S11304100F9218BE09B60F9219BE0BB60F921BBEEF
S11304202F933F934F935F936F937F938F939F93F8
S1130430AF93BF93EF93FF9340913C0250913D02E1
S1130440E0913F20F091402068E080E092E019952F
S1130450FF91EF91BF91AF919F918F917F916F9198
S11304605F914F913F912F910F900BBE0F9009BE5A
S11304700F9008BE0F900FBE0F901F9018951F92FB
S11304800F920FB60F92112408B60F9218BE0BB636
S11304900F921BBE8F939F93EF93FF93E1E4F0E2DF
S11304A080819181019680839183FF91EF919F9147
S11304B08F910F900BBE0F9008BE0F900FBE0F9040
S11304C01F9018951F920F920FB60F92112408B621
S11304D00F9218BE09B60F9219BE0BB60F921BBE2F
S11304E0CF92DF92EF92FF920F931F932F933F933C
S11304F04F935F936F937F938F939F93AF93BF9328
S1130500EF93FF93E1E4F0E28081918122813381D2
S113051082179307F0F121E020930204E091472031
S1130520F09148203097A9F1609108047091090472
S1130530A0E0B0E0DC0199278827AB0160E070E01F
S11305408C019D01042B152B262B372BC901B801D7
S1130550A1E4B0E212960D911C91139720E030E0D3
S11305609801112700271496CD90DC901597E12C63
S1130570F12C0C291D292E293F29061717072807B6
S1130580390730F0C901B8016F5F7F4F8F4F9F4F1C
S11305901995FF91EF91BF91AF919F918F917F91A9
S11305A06F915F914F913F912F911F910F91FF9008
S11305B0EF90DF90CF900F900BBE0F9009BE0F907D
S11305C008BE0F900FBE0F901F9018951F920F92A8
S11305D00FB60F92112408B60F9218BE09B60F92E7
S11305E019BE0BB60F921BBE2F933F934F935F938D
S11305F06F937F938F939F93AF93BF93EF93FF93E7
S1130600E0913220F0913320309709F01995FF9151
S1130610EF91BF91AF919F918F917F916F915F9176
S11306204F913F912F910F900BBE0F9009BE0F90E9
S113063008BE0F900FBE0F901F9018951F920F9237
S11306400FB60F92112408B60F9218BE09B60F9276
S113065019BE0BB60F921BBE2F933F934F935F931C
S11306606F937F938F939F93AF93BF93EF93FF9376
S1130670E0913020F0913120309709F01995FF91E5
S1130680EF91BF91AF919F918F917F916F915F9106
S11306904F913F912F910F900BBE0F9009BE0F9079
S11306A008BE0F900FBE0F901F9018951F920F92C7
S11306B00FB60F92112408B60F9218BE09B60F9206
S11306C019BE0BB60F921BBE2F933F934F935F93AC
S11306D06F937F938F939F93AF93BF93EF93FF9306
S11306E0E0912E20F0912F20309709F01995FF9179
S11306F0EF91BF91AF919F918F917F916F915F9196
S11307004F913F912F910F900BBE0F9009BE0F9008
S113071008BE0F900FBE0F901F9018951F920F9256
S11307200FB60F92112408B60F9218BE09B60F9295
S113073019BE0BB60F921BBE2F933F934F935F933B
S11307406F937F938F939F93AF93BF93EF93FF9395
S1130750E0912C20F0912D20309709F01995FF910C
S1130760EF91BF91AF919F918F917F916F915F9125
S11307704F913F912F910F900BBE0F9009BE0F9098
S113078008BE0F900FBE0F901F9018951F920F92E6
S11307900FB60F92112408B60F9218BE09B60F9225
S11307A019BE0BB60F921BBE2F933F934F935F93CB
S11307B06F937F938F939F93AF93BF93EF93FF9325
S11307C0E0912A20F0912B20309709F01995FF91A0
S11307D0EF91BF91AF919F918F917F916F915F91B5
S11307E04F913F912F910F900BBE0F9009BE0F9028
S11307F008BE0F900FBE0F901F9018951F920F9276
S11308000FB60F92112408B60F9218BE09B60F92B4
S113081019BE0BB60F921BBE2F933F934F935F935A
S11308206F937F938F939F93AF93BF93EF93FF93B4
S1130830E0912820F0912920309709F01995FF9133
S1130840EF91BF91AF919F918F917F916F915F9144
S11308504F913F912F910F900BBE0F9009BE0F90B7
S113086008BE0F900FBE0F901F9018951F920F9205
S11308700FB60F92112408B60F9218BE09B60F9244
S113088019BE0BB60F921BBE2F933F934F935F93EA
S11308906F937F938F939F93AF93BF93EF93FF9344
S11308A0E0912620F0912720309709F01995FF91C7
S11308B0EF91BF91AF919F918F917F916F915F91D4
S11308C04F913F912F910F900BBE0F9009BE0F9047
S11308D008BE0F900FBE0F901F9018951F920F9295
S11308E00FB60F92112408B60F9218BE09B60F92D4
S11308F019BE0BB60F921BBE2F933F934F935F937A
S11309006F937F938F939F93AF93BF93EF93FF93D3
S1130910E0912420F0912520309709F01995FF915A
S1130920EF91BF91AF919F918F917F916F915F9163
S11309304F913F912F910F900BBE0F9009BE0F90D6
S113094008BE0F900FBE0F901F9018951F920F9224
S11309500FB60F92112408B60F9218BE09B60F9263
S113096019BE0BB60F921BBE2F933F934F935F9309
S11309706F937F938F939F93AF93BF93EF93FF9363
S1130980E0912220F0912320309709F01995FF91EE
S1130990EF91BF91AF919F918F917F916F915F91F3
S11309A04F913F912F910F900BBE0F9009BE0F9066
S11309B008BE0F900FBE0F901F9018951F920F92B4
S11309C00FB60F92112408B60F9218BE09B60F92F3
S11309D019BE0BB60F921BBE2F933F934F935F9399
S11309E06F937F938F939F93AF93BF93EF93FF93F3
S11309F0E0912020F0912120309709F01995FF9182
S1130A00EF91BF91AF919F918F917F916F915F9182
S1130A104F913F912F910F900BBE0F9009BE0F90F5
S1130A2008BE0F900FBE0F901F9018951F920F9243
S1130A300FB60F92112408B60F9218BE09B60F9282
S1130A4019BE0BB60F921BBE2F933F934F935F9328
S1130A506F937F938F939F93AF93BF93EF93FF9382
S1130A60E0911E20F0911F20309709F01995FF9115
S1130A70EF91BF91AF919F918F917F916F915F9112
S1130A804F913F912F910F900BBE0F9009BE0F9085
S1130A9008BE0F900FBE0F901F9018951F920F92D3
S1130AA00FB60F92112408B60F9218BE09B60F9212
S1130AB019BE0BB60F921BBE2F933F934F935F93B8
S1130AC06F937F938F939F93AF93BF93EF93FF9312
S1130AD0E0911C20F0911D20309709F01995FF91A9
S1130AE0EF91BF91AF919F918F917F916F915F91A2
S1130AF04F913F912F910F900BBE0F9009BE0F9015
S1130B0008BE0F900FBE0F901F9018951F920F9262
S1130B100FB60F92112408B60F9218BE09B60F92A1
S1130B2019BE0BB60F921BBE2F933F934F935F9347
S1130B306F937F938F939F93AF93BF93EF93FF93A1
S1130B40E0911A20F0911B20309709F01995FF913C
S1130B50EF91BF91AF919F918F917F916F915F9131
S1130B604F913F912F910F900BBE0F9009BE0F90A4
S1130B7008BE0F900FBE0F901F9018951F920F92F2
S1130B800FB60F92112408B60F9218BE09B60F9231
S1130B9019BE0BB60F921BBE2F933F934F935F93D7
S1130BA06F937F938F939F93AF93BF93EF93FF9331
S1130BB0E0911820F0911920309709F01995FF91D0
S1130BC0EF91BF91AF919F918F917F916F915F91C1
S1130BD04F913F912F910F900BBE0F9009BE0F9034
S1130BE008BE0F900FBE0F901F9018951F920F9282
S1130BF00FB60F92112408B60F9218BE09B60F92C1
S1130C0019BE0BB60F921BBE2F933F934F935F9366
S1130C106F937F938F939F93AF93BF93EF93FF93C0
S1130C20E0911620F0911720309709F01995FF9163
S1130C30EF91BF91AF919F918F917F916F915F9150
S1130C404F913F912F910F900BBE0F9009BE0F90C3
S1130C5008BE0F900FBE0F901F9018951F920F9211
S1130C600FB60F92112408B60F9218BE09B60F9250
S1130C7019BE0BB60F921BBE2F933F934F935F93F6
S1130C806F937F938F939F93AF93BF93EF93FF9350
S1130C90E0911420F0911520309709F01995FF91F7
S1130CA0EF91BF91AF919F918F917F916F915F91E0
S1130CB04F913F912F910F900BBE0F9009BE0F9053
S1130CC008BE0F900FBE0F901F9018951F920F92A1
S1130CD00FB60F92112408B60F9218BE09B60F92E0
S1130CE019BE0BB60F921BBE2F933F934F935F9386
S1130CF06F937F938F939F93AF93BF93EF93FF93E0
S1130D00E0911220F0911320309709F01995FF918A
S1130D10EF91BF91AF919F918F917F916F915F916F
S1130D204F913F912F910F900BBE0F9009BE0F90E2
S1130D3008BE0F900FBE0F901F9018951F920F9230
S1130D400FB60F92112408B60F9218BE09B60F926F
S1130D5019BE0BB60F921BBE2F933F934F935F9315
S1130D606F937F938F939F93AF93BF93EF93FF936F
S1130D70E0911020F0911120309709F01995FF911E
S1130D80EF91BF91AF919F918F917F916F915F91FF
S1130D904F913F912F910F900BBE0F9009BE0F9072
S1130DA008BE0F900FBE0F901F9018951F920F92C0
S1130DB00FB60F92112408B60F9218BE09B60F92FF
S1130DC019BE0BB60F921BBE2F933F934F935F93A5
S1130DD06F937F938F939F93AF93BF93EF93FF93FF
S1130DE0E0910E20F0910F20309709F01995FF91B2
S1130DF0EF91BF91AF919F918F917F916F915F918F
S1130E004F913F912F910F900BBE0F9009BE0F9001
S1130E1008BE0F900FBE0F901F9018951F920F924F
S1130E200FB60F92112408B60F9218BE09B60F928E
S1130E3019BE0BB60F921BBE2F933F934F935F9334
S1130E406F937F938F939F93AF93BF93EF93FF938E
S1130E50E0910C20F0910D20309709F01995FF9145
S1130E60EF91BF91AF919F918F917F916F915F911E
S1130E704F913F912F910F900BBE0F9009BE0F9091
S1130E8008BE0F900FBE0F901F9018951F920F92DF
S1130E900FB60F92112408B60F9218BE09B60F921E
S1130EA019BE0BB60F921BBE2F933F934F935F93C4
S1130EB06F937F938F939F93AF93BF93EF93FF931E
S1130EC0E0910A20F0910B20309709F01995FF91D9
S1130ED0EF91BF91AF919F918F917F916F915F91AE
S1130EE04F913F912F910F900BBE0F9009BE0F9021
S1130EF008BE0F900FBE0F901F9018951F920F926F
S1130F000FB60F92112408B60F9218BE09B60F92AD
S1130F1019BE0BB60F921BBE2F933F934F935F9353
S1130F206F937F938F939F93AF93BF93EF93FF93AD
S1130F30E0910820F0910920309709F01995FF916C
S1130F40EF91BF91AF919F918F917F916F915F913D
S1130F504F913F912F910F900BBE0F9009BE0F90B0
S1130F6008BE0F900FBE0F901F9018951F920F92FE
S1130F700FB60F92112408B60F9218BE09B60F923D
S1130F8019BE0BB60F921BBE2F933F934F935F93E3
S1130F906F937F938F939F93AF93BF93EF93FF933D
S1130FA0E0910620F0910720309709F01995FF9100
S1130FB0EF91BF91AF919F918F917F916F915F91CD
S1130FC04F913F912F910F900BBE0F9009BE0F9040
S1130FD008BE0F900FBE0F901F9018951F920F928E
S1130FE00FB60F92112408B60F9218BE09B60F92CD
S1130FF019BE0BB60F921BBE2F933F934F935F9373
S11310006F937F938F939F93AF93BF93EF93FF93CC
S1131010E0910420F0910520309709F01995FF9193
S1131020EF91BF91AF919F918F917F916F915F915C
S11310304F913F912F910F900BBE0F9009BE0F90CF
S113104008BE0F900FBE0F901F9018951F920F921D
S11310500FB60F92112408B60F9218BE09B60F925C
S113106019BE0BB60F921BBE2F933F934F935F9302
S11310706F937F938F939F93AF93BF93EF93FF935C
S1131080E0910220F0910320309709F01995FF9127
S1131090EF91BF91AF919F918F917F916F915F91EC
S11310A04F913F912F910F900BBE0F9009BE0F905F
S11310B008BE0F900FBE0F901F9018951F920F92AD
S11310C00FB60F92112408B60F9218BE09B60F92EC
S11310D019BE0BB60F921BBE2F933F934F935F9392
S11310E06F937F938F939F93AF93BF93EF93FF93EC
S11310F0E0910020F0910120309709F01995FF91BB
S1131100EF91BF91AF919F918F917F916F915F917B
S11311104F913F912F910F900BBE0F9009BE0F90EE
S113112008BE0F900FBE0F901F901895CF93DF93BA
S1131130E0913420F0913520848183FF08C08860D9
S1131140848383E0838386EF80933E2083C0982F3B
S1131150947131F083E083838FEF80933E207AC0D3
S113116086FF43C0C4E3D0E2AA81BB818C819D8108
S113117014962D913C911597821793076CF49C015A
S11311802F5F3F4F2093382030933920A80FB91F89
S113119011968C9187835EC080913A2090913B2078
S11311A018962D913C91199782179307C8F42091B2
S11311B03C20222321F08681816086834BC01696D1
S11311C02D913C911797AC014F5F5F4F40933A20AC
S11311D050933B20D901A80FB91F8C9187833AC043
S11311E083E0838310923E2035C0882384F5A4E3F2
S11311F0B0E21296CD91DC91139716968D919C9145
S113120017972885398582179307D8F46E817F81D3
S11312109C012F5F3F4F20933A2030933B2047811E
S1131220DB01A80FB91F4C938885998528173907C6
S113123018F482E083830EC087E0838310923E20FB
S113124009C083E0838389EF80933E2003C08BEF42
S113125080933E20DF91CF9108951F920F920FB695
S11312600F92112408B60F9218BE09B60F9219BE38
S11312700BB60F921BBE2F933F934F935F936F93C5
S11312807F938F939F93AF93BF93EF93FF934EDF1F
S1131290FF91EF91BF91AF919F918F917F916F914A
S11312A05F914F913F912F910F900BBE0F9009BE0C
S11312B00F9008BE0F900FBE0F901F9018951F92AD
S11312C00F920FB60F92112408B60F9218BE09B6EA
S11312D00F9219BE0BB60F921BBE2F933F934F93E1
S11312E05F936F937F938F939F93AF93BF93EF938A
S11312F0FF931CDFFF91EF91BF91AF919F918F916D
S11313007F916F915F914F913F912F910F900BBE01
S11313100F9009BE0F9008BE0F900FBE0F901F9044
S11313201895009709F4D5C0803C910529F460E133
S113133080E00C9435010895811524E0920729F486
S113134064E080E00C9435010895803821E0920730
S113135029F462E080E00C9435010895811521E0C0
S1131360920729F461E080E00C94350108958038F7
S113137023E0920729F461E081E00C94350108959B
S1131380811522E0920729F462E081E00C94350192
S11313900895803223E0920729F464E082E00C94FB
S11313A035010895811528E0920729F461E083E06E
S11313B00C9435010895811529E0920729F461E020
S11313C084E00C943501089581152AE0920729F4EC
S11313D061E085E00C9435010895803428E092079B
S11313E029F462E083E00C9435010895803429E007
S11313F0920729F462E084E00C9435010895803961
S113140028E0920729F464E083E00C943501089500
S1131410803929E0920729F464E084E00C943501D2
S1131420089580392AE0920729F464E085E00C9459
S113143035010895803C28E0920729F468E083E0B0
S11314400C9435010895803C29E0920729F468E062
S113145084E00C9435010895803A28E0920729F439
S113146060E183E00C9435010895803A29E0920705
S113147029F460E184E00C9435010895803A2AE06F
S1131480920729F460E185E00C9435010895803BCE
S113149028E0920729F460E283E00C943501089572
S11314A0803B29E0920729F460E284E00C94350142
S11314B00895803824E0920729F460E483E00C94D2
S11314C035010895803A944021F460E485E00C9459
S11314D0350108950E94250180E098E022DF80E034
S11314E099E01FDF64E086E00E94350164E084E057
S11314F00E94350168E083E00E94350180EA98E0AB
S113150010DF80EC98E00DDF80E092E00ADFFFCF8F
S1071510F894FFCF79
S9030000FC
